{
  "contractName": "BattleShroomsGenOne",
  "abi": [
    {
      "inputs": [],
      "stateMutability": "nonpayable",
      "type": "constructor"
    },
    {
      "anonymous": false,
      "inputs": [
        {
          "indexed": true,
          "internalType": "address",
          "name": "owner",
          "type": "address"
        },
        {
          "indexed": true,
          "internalType": "address",
          "name": "approved",
          "type": "address"
        },
        {
          "indexed": true,
          "internalType": "uint256",
          "name": "tokenId",
          "type": "uint256"
        }
      ],
      "name": "Approval",
      "type": "event"
    },
    {
      "anonymous": false,
      "inputs": [
        {
          "indexed": true,
          "internalType": "address",
          "name": "owner",
          "type": "address"
        },
        {
          "indexed": true,
          "internalType": "address",
          "name": "operator",
          "type": "address"
        },
        {
          "indexed": false,
          "internalType": "bool",
          "name": "approved",
          "type": "bool"
        }
      ],
      "name": "ApprovalForAll",
      "type": "event"
    },
    {
      "anonymous": false,
      "inputs": [
        {
          "indexed": true,
          "internalType": "address",
          "name": "previousOwner",
          "type": "address"
        },
        {
          "indexed": true,
          "internalType": "address",
          "name": "newOwner",
          "type": "address"
        }
      ],
      "name": "OwnershipTransferred",
      "type": "event"
    },
    {
      "anonymous": false,
      "inputs": [
        {
          "indexed": true,
          "internalType": "address",
          "name": "from",
          "type": "address"
        },
        {
          "indexed": true,
          "internalType": "address",
          "name": "to",
          "type": "address"
        },
        {
          "indexed": true,
          "internalType": "uint256",
          "name": "tokenId",
          "type": "uint256"
        }
      ],
      "name": "Transfer",
      "type": "event"
    },
    {
      "inputs": [
        {
          "internalType": "address",
          "name": "",
          "type": "address"
        }
      ],
      "name": "_botHolders",
      "outputs": [
        {
          "internalType": "bool",
          "name": "",
          "type": "bool"
        }
      ],
      "stateMutability": "view",
      "type": "function"
    },
    {
      "inputs": [],
      "name": "_paused",
      "outputs": [
        {
          "internalType": "bool",
          "name": "",
          "type": "bool"
        }
      ],
      "stateMutability": "view",
      "type": "function"
    },
    {
      "inputs": [],
      "name": "_presalePaused",
      "outputs": [
        {
          "internalType": "bool",
          "name": "",
          "type": "bool"
        }
      ],
      "stateMutability": "view",
      "type": "function"
    },
    {
      "inputs": [
        {
          "internalType": "address",
          "name": "",
          "type": "address"
        }
      ],
      "name": "_whiteListed",
      "outputs": [
        {
          "internalType": "bool",
          "name": "",
          "type": "bool"
        }
      ],
      "stateMutability": "view",
      "type": "function"
    },
    {
      "inputs": [
        {
          "internalType": "address",
          "name": "to",
          "type": "address"
        },
        {
          "internalType": "uint256",
          "name": "tokenId",
          "type": "uint256"
        }
      ],
      "name": "approve",
      "outputs": [],
      "stateMutability": "nonpayable",
      "type": "function"
    },
    {
      "inputs": [
        {
          "internalType": "address",
          "name": "owner",
          "type": "address"
        }
      ],
      "name": "balanceOf",
      "outputs": [
        {
          "internalType": "uint256",
          "name": "",
          "type": "uint256"
        }
      ],
      "stateMutability": "view",
      "type": "function"
    },
    {
      "inputs": [
        {
          "internalType": "uint256",
          "name": "tokenId",
          "type": "uint256"
        }
      ],
      "name": "getApproved",
      "outputs": [
        {
          "internalType": "address",
          "name": "",
          "type": "address"
        }
      ],
      "stateMutability": "view",
      "type": "function"
    },
    {
      "inputs": [
        {
          "internalType": "address",
          "name": "owner",
          "type": "address"
        },
        {
          "internalType": "address",
          "name": "operator",
          "type": "address"
        }
      ],
      "name": "isApprovedForAll",
      "outputs": [
        {
          "internalType": "bool",
          "name": "",
          "type": "bool"
        }
      ],
      "stateMutability": "view",
      "type": "function"
    },
    {
      "inputs": [],
      "name": "name",
      "outputs": [
        {
          "internalType": "string",
          "name": "",
          "type": "string"
        }
      ],
      "stateMutability": "view",
      "type": "function"
    },
    {
      "inputs": [],
      "name": "owner",
      "outputs": [
        {
          "internalType": "address",
          "name": "",
          "type": "address"
        }
      ],
      "stateMutability": "view",
      "type": "function"
    },
    {
      "inputs": [
        {
          "internalType": "uint256",
          "name": "tokenId",
          "type": "uint256"
        }
      ],
      "name": "ownerOf",
      "outputs": [
        {
          "internalType": "address",
          "name": "",
          "type": "address"
        }
      ],
      "stateMutability": "view",
      "type": "function"
    },
    {
      "inputs": [],
      "name": "renounceOwnership",
      "outputs": [],
      "stateMutability": "nonpayable",
      "type": "function"
    },
    {
      "inputs": [
        {
          "internalType": "address",
          "name": "from",
          "type": "address"
        },
        {
          "internalType": "address",
          "name": "to",
          "type": "address"
        },
        {
          "internalType": "uint256",
          "name": "tokenId",
          "type": "uint256"
        }
      ],
      "name": "safeTransferFrom",
      "outputs": [],
      "stateMutability": "nonpayable",
      "type": "function"
    },
    {
      "inputs": [
        {
          "internalType": "address",
          "name": "from",
          "type": "address"
        },
        {
          "internalType": "address",
          "name": "to",
          "type": "address"
        },
        {
          "internalType": "uint256",
          "name": "tokenId",
          "type": "uint256"
        },
        {
          "internalType": "bytes",
          "name": "_data",
          "type": "bytes"
        }
      ],
      "name": "safeTransferFrom",
      "outputs": [],
      "stateMutability": "nonpayable",
      "type": "function"
    },
    {
      "inputs": [
        {
          "internalType": "address",
          "name": "operator",
          "type": "address"
        },
        {
          "internalType": "bool",
          "name": "approved",
          "type": "bool"
        }
      ],
      "name": "setApprovalForAll",
      "outputs": [],
      "stateMutability": "nonpayable",
      "type": "function"
    },
    {
      "inputs": [
        {
          "internalType": "bytes4",
          "name": "interfaceId",
          "type": "bytes4"
        }
      ],
      "name": "supportsInterface",
      "outputs": [
        {
          "internalType": "bool",
          "name": "",
          "type": "bool"
        }
      ],
      "stateMutability": "view",
      "type": "function"
    },
    {
      "inputs": [],
      "name": "symbol",
      "outputs": [
        {
          "internalType": "string",
          "name": "",
          "type": "string"
        }
      ],
      "stateMutability": "view",
      "type": "function"
    },
    {
      "inputs": [
        {
          "internalType": "uint256",
          "name": "index",
          "type": "uint256"
        }
      ],
      "name": "tokenByIndex",
      "outputs": [
        {
          "internalType": "uint256",
          "name": "",
          "type": "uint256"
        }
      ],
      "stateMutability": "view",
      "type": "function"
    },
    {
      "inputs": [
        {
          "internalType": "address",
          "name": "owner",
          "type": "address"
        },
        {
          "internalType": "uint256",
          "name": "index",
          "type": "uint256"
        }
      ],
      "name": "tokenOfOwnerByIndex",
      "outputs": [
        {
          "internalType": "uint256",
          "name": "",
          "type": "uint256"
        }
      ],
      "stateMutability": "view",
      "type": "function"
    },
    {
      "inputs": [
        {
          "internalType": "uint256",
          "name": "tokenId",
          "type": "uint256"
        }
      ],
      "name": "tokenURI",
      "outputs": [
        {
          "internalType": "string",
          "name": "",
          "type": "string"
        }
      ],
      "stateMutability": "view",
      "type": "function"
    },
    {
      "inputs": [],
      "name": "totalSupply",
      "outputs": [
        {
          "internalType": "uint256",
          "name": "",
          "type": "uint256"
        }
      ],
      "stateMutability": "view",
      "type": "function"
    },
    {
      "inputs": [
        {
          "internalType": "address",
          "name": "from",
          "type": "address"
        },
        {
          "internalType": "address",
          "name": "to",
          "type": "address"
        },
        {
          "internalType": "uint256",
          "name": "tokenId",
          "type": "uint256"
        }
      ],
      "name": "transferFrom",
      "outputs": [],
      "stateMutability": "nonpayable",
      "type": "function"
    },
    {
      "inputs": [
        {
          "internalType": "address",
          "name": "newOwner",
          "type": "address"
        }
      ],
      "name": "transferOwnership",
      "outputs": [],
      "stateMutability": "nonpayable",
      "type": "function"
    },
    {
      "inputs": [
        {
          "internalType": "uint256",
          "name": "num",
          "type": "uint256"
        }
      ],
      "name": "mintShroom",
      "outputs": [],
      "stateMutability": "payable",
      "type": "function"
    },
    {
      "inputs": [],
      "name": "mintPresaleShroom",
      "outputs": [],
      "stateMutability": "payable",
      "type": "function"
    },
    {
      "inputs": [
        {
          "internalType": "address",
          "name": "_wl",
          "type": "address"
        }
      ],
      "name": "addWL",
      "outputs": [],
      "stateMutability": "nonpayable",
      "type": "function"
    },
    {
      "inputs": [
        {
          "internalType": "address[]",
          "name": "_wls",
          "type": "address[]"
        }
      ],
      "name": "addWLMany",
      "outputs": [],
      "stateMutability": "nonpayable",
      "type": "function"
    },
    {
      "inputs": [
        {
          "internalType": "address",
          "name": "_newHolder",
          "type": "address"
        }
      ],
      "name": "addBotHolder",
      "outputs": [],
      "stateMutability": "nonpayable",
      "type": "function"
    },
    {
      "inputs": [
        {
          "internalType": "address[]",
          "name": "_newBotHolders",
          "type": "address[]"
        }
      ],
      "name": "addBotHolderMany",
      "outputs": [],
      "stateMutability": "nonpayable",
      "type": "function"
    },
    {
      "inputs": [
        {
          "internalType": "address",
          "name": "_wl",
          "type": "address"
        }
      ],
      "name": "removeWL",
      "outputs": [],
      "stateMutability": "nonpayable",
      "type": "function"
    },
    {
      "inputs": [
        {
          "internalType": "address[]",
          "name": "_wls",
          "type": "address[]"
        }
      ],
      "name": "removeWLMany",
      "outputs": [],
      "stateMutability": "nonpayable",
      "type": "function"
    },
    {
      "inputs": [
        {
          "internalType": "address",
          "name": "_owner",
          "type": "address"
        }
      ],
      "name": "walletOfOwner",
      "outputs": [
        {
          "internalType": "uint256[]",
          "name": "",
          "type": "uint256[]"
        }
      ],
      "stateMutability": "view",
      "type": "function"
    },
    {
      "inputs": [
        {
          "internalType": "uint256",
          "name": "_newPrice",
          "type": "uint256"
        }
      ],
      "name": "setPrice",
      "outputs": [],
      "stateMutability": "nonpayable",
      "type": "function"
    },
    {
      "inputs": [
        {
          "internalType": "uint256",
          "name": "_newMaxPerTx",
          "type": "uint256"
        }
      ],
      "name": "setMaxPerTx",
      "outputs": [],
      "stateMutability": "nonpayable",
      "type": "function"
    },
    {
      "inputs": [
        {
          "internalType": "uint256",
          "name": "_newReserved",
          "type": "uint256"
        }
      ],
      "name": "setPresaleReserved",
      "outputs": [],
      "stateMutability": "nonpayable",
      "type": "function"
    },
    {
      "inputs": [
        {
          "internalType": "uint256",
          "name": "_newReserved",
          "type": "uint256"
        }
      ],
      "name": "setGiftReserved",
      "outputs": [],
      "stateMutability": "nonpayable",
      "type": "function"
    },
    {
      "inputs": [
        {
          "internalType": "uint256",
          "name": "_newMax",
          "type": "uint256"
        }
      ],
      "name": "setMaxSupply",
      "outputs": [],
      "stateMutability": "nonpayable",
      "type": "function"
    },
    {
      "inputs": [
        {
          "internalType": "string",
          "name": "baseURI",
          "type": "string"
        }
      ],
      "name": "setBaseURI",
      "outputs": [],
      "stateMutability": "nonpayable",
      "type": "function"
    },
    {
      "inputs": [],
      "name": "getPrice",
      "outputs": [
        {
          "internalType": "uint256",
          "name": "",
          "type": "uint256"
        }
      ],
      "stateMutability": "view",
      "type": "function"
    },
    {
      "inputs": [],
      "name": "getDiscount",
      "outputs": [
        {
          "internalType": "uint256",
          "name": "",
          "type": "uint256"
        }
      ],
      "stateMutability": "view",
      "type": "function"
    },
    {
      "inputs": [
        {
          "internalType": "address",
          "name": "_to",
          "type": "address"
        },
        {
          "internalType": "uint256",
          "name": "_amount",
          "type": "uint256"
        }
      ],
      "name": "giveAway",
      "outputs": [],
      "stateMutability": "nonpayable",
      "type": "function"
    },
    {
      "inputs": [
        {
          "internalType": "address[]",
          "name": "addresses",
          "type": "address[]"
        }
      ],
      "name": "giveAwayMany",
      "outputs": [],
      "stateMutability": "nonpayable",
      "type": "function"
    },
    {
      "inputs": [
        {
          "internalType": "bool",
          "name": "val",
          "type": "bool"
        }
      ],
      "name": "pause",
      "outputs": [],
      "stateMutability": "nonpayable",
      "type": "function"
    },
    {
      "inputs": [
        {
          "internalType": "bool",
          "name": "val",
          "type": "bool"
        }
      ],
      "name": "presalePause",
      "outputs": [],
      "stateMutability": "nonpayable",
      "type": "function"
    },
    {
      "inputs": [
        {
          "internalType": "uint256",
          "name": "_newDiscount",
          "type": "uint256"
        }
      ],
      "name": "setDiscount",
      "outputs": [],
      "stateMutability": "nonpayable",
      "type": "function"
    },
    {
      "inputs": [],
      "name": "withdrawAll",
      "outputs": [],
      "stateMutability": "payable",
      "type": "function"
    }
  ],
  "bytecode": "0x608060405261044c600c556064600d5568056bc75e2d63100000600e5568022b1c8c1227a00000600f55611388601055600a6011556001601260006101000a81548160ff0219169083151502179055506001601260016101000a81548160ff02191690831515021790555073f129f79c05f6ea516d01176a3983475100ca64c4601560006101000a81548173ffffffffffffffffffffffffffffffffffffffff021916908373ffffffffffffffffffffffffffffffffffffffff160217905550348015620000cc57600080fd5b506040518060400160405280601681526020017f426174746c65205368726f6f6d732047656e204f6e65000000000000000000008152506040518060400160405280600581526020017f42534f4e4500000000000000000000000000000000000000000000000000000081525081600090805190602001906200015192919062000ca1565b5080600190805190602001906200016a92919062000ca1565b5050506200018d62000181620001eb60201b60201c565b620001f360201b60201c565b60005b600a811015620001e457620001ce601560009054906101000a900473ffffffffffffffffffffffffffffffffffffffff1682620002b960201b60201c565b8080620001db9062000d8a565b91505062000190565b506200133a565b600033905090565b6000600a60009054906101000a900473ffffffffffffffffffffffffffffffffffffffff16905081600a60006101000a81548173ffffffffffffffffffffffffffffffffffffffff021916908373ffffffffffffffffffffffffffffffffffffffff1602179055508173ffffffffffffffffffffffffffffffffffffffff168173ffffffffffffffffffffffffffffffffffffffff167f8be0079c531659141344cd1fd0a4f28419497f9722a3daafe3b4186f6b6457e060405160405180910390a35050565b620002db828260405180602001604052806000815250620002df60201b60201c565b5050565b620002f183836200034d60201b60201c565b6200030660008484846200053360201b60201c565b62000348576040517f08c379a00000000000000000000000000000000000000000000000000000000081526004016200033f9062000e5f565b60405180910390fd5b505050565b600073ffffffffffffffffffffffffffffffffffffffff168273ffffffffffffffffffffffffffffffffffffffff161415620003c0576040517f08c379a0000000000000000000000000000000000000000000000000000000008152600401620003b79062000ed1565b60405180910390fd5b620003d181620006ed60201b60201c565b1562000414576040517f08c379a00000000000000000000000000000000000000000000000000000000081526004016200040b9062000f43565b60405180910390fd5b62000428600083836200075960201b60201c565b6001600360008473ffffffffffffffffffffffffffffffffffffffff1673ffffffffffffffffffffffffffffffffffffffff16815260200190815260200160002060008282546200047a919062000f65565b92505081905550816002600083815260200190815260200160002060006101000a81548173ffffffffffffffffffffffffffffffffffffffff021916908373ffffffffffffffffffffffffffffffffffffffff160217905550808273ffffffffffffffffffffffffffffffffffffffff16600073ffffffffffffffffffffffffffffffffffffffff167fddf252ad1be2c89b69c2b068fc378daa952ba7f163c4a11628f55a4df523b3ef60405160405180910390a45050565b6000620005618473ffffffffffffffffffffffffffffffffffffffff16620008a060201b6200284a1760201c565b15620006e0578373ffffffffffffffffffffffffffffffffffffffff1663150b7a0262000593620001eb60201b60201c565b8786866040518563ffffffff1660e01b8152600401620005b79493929190620010bc565b602060405180830381600087803b158015620005d257600080fd5b505af19250505080156200060657506040513d601f19601f8201168201806040525081019062000603919062001172565b60015b6200068f573d806000811462000639576040519150601f19603f3d011682016040523d82523d6000602084013e6200063e565b606091505b5060008151141562000687576040517f08c379a00000000000000000000000000000000000000000000000000000000081526004016200067e9062000e5f565b60405180910390fd5b805181602001fd5b63150b7a0260e01b7bffffffffffffffffffffffffffffffffffffffffffffffffffffffff1916817bffffffffffffffffffffffffffffffffffffffffffffffffffffffff191614915050620006e5565b600190505b949350505050565b60008073ffffffffffffffffffffffffffffffffffffffff166002600084815260200190815260200160002060009054906101000a900473ffffffffffffffffffffffffffffffffffffffff1673ffffffffffffffffffffffffffffffffffffffff1614159050919050565b62000771838383620008b360201b6200285d1760201c565b600073ffffffffffffffffffffffffffffffffffffffff168373ffffffffffffffffffffffffffffffffffffffff161415620007be57620007b881620008b860201b60201c565b62000806565b8173ffffffffffffffffffffffffffffffffffffffff168373ffffffffffffffffffffffffffffffffffffffff161462000805576200080483826200090160201b60201c565b5b5b600073ffffffffffffffffffffffffffffffffffffffff168273ffffffffffffffffffffffffffffffffffffffff16141562000853576200084d8162000a7e60201b60201c565b6200089b565b8273ffffffffffffffffffffffffffffffffffffffff168273ffffffffffffffffffffffffffffffffffffffff16146200089a5762000899828262000b5a60201b60201c565b5b5b505050565b600080823b905060008111915050919050565b505050565b6008805490506009600083815260200190815260200160002081905550600881908060018154018082558091505060019003906000526020600020016000909190919091505550565b600060016200091b8462000be660201b620018df1760201c565b620009279190620011a4565b905060006007600084815260200190815260200160002054905081811462000a0d576000600660008673ffffffffffffffffffffffffffffffffffffffff1673ffffffffffffffffffffffffffffffffffffffff168152602001908152602001600020600084815260200190815260200160002054905080600660008773ffffffffffffffffffffffffffffffffffffffff1673ffffffffffffffffffffffffffffffffffffffff168152602001908152602001600020600084815260200190815260200160002081905550816007600083815260200190815260200160002081905550505b6007600084815260200190815260200160002060009055600660008573ffffffffffffffffffffffffffffffffffffffff1673ffffffffffffffffffffffffffffffffffffffff16815260200190815260200160002060008381526020019081526020016000206000905550505050565b6000600160088054905062000a949190620011a4565b905060006009600084815260200190815260200160002054905060006008838154811062000ac75762000ac6620011df565b5b90600052602060002001549050806008838154811062000aec5762000aeb620011df565b5b90600052602060002001819055508160096000838152602001908152602001600020819055506009600085815260200190815260200160002060009055600880548062000b3e5762000b3d6200120e565b5b6001900381819060005260206000200160009055905550505050565b600062000b728362000be660201b620018df1760201c565b905081600660008573ffffffffffffffffffffffffffffffffffffffff1673ffffffffffffffffffffffffffffffffffffffff168152602001908152602001600020600083815260200190815260200160002081905550806007600084815260200190815260200160002081905550505050565b60008073ffffffffffffffffffffffffffffffffffffffff168273ffffffffffffffffffffffffffffffffffffffff16141562000c5a576040517f08c379a000000000000000000000000000000000000000000000000000000000815260040162000c5190620012b3565b60405180910390fd5b600360008373ffffffffffffffffffffffffffffffffffffffff1673ffffffffffffffffffffffffffffffffffffffff168152602001908152602001600020549050919050565b82805462000caf9062001304565b90600052602060002090601f01602090048101928262000cd3576000855562000d1f565b82601f1062000cee57805160ff191683800117855562000d1f565b8280016001018555821562000d1f579182015b8281111562000d1e57825182559160200191906001019062000d01565b5b50905062000d2e919062000d32565b5090565b5b8082111562000d4d57600081600090555060010162000d33565b5090565b7f4e487b7100000000000000000000000000000000000000000000000000000000600052601160045260246000fd5b6000819050919050565b600062000d978262000d80565b91507fffffffffffffffffffffffffffffffffffffffffffffffffffffffffffffffff82141562000dcd5762000dcc62000d51565b5b600182019050919050565b600082825260208201905092915050565b7f4552433732313a207472616e7366657220746f206e6f6e20455243373231526560008201527f63656976657220696d706c656d656e7465720000000000000000000000000000602082015250565b600062000e4760328362000dd8565b915062000e548262000de9565b604082019050919050565b6000602082019050818103600083015262000e7a8162000e38565b9050919050565b7f4552433732313a206d696e7420746f20746865207a65726f2061646472657373600082015250565b600062000eb960208362000dd8565b915062000ec68262000e81565b602082019050919050565b6000602082019050818103600083015262000eec8162000eaa565b9050919050565b7f4552433732313a20746f6b656e20616c7265616479206d696e74656400000000600082015250565b600062000f2b601c8362000dd8565b915062000f388262000ef3565b602082019050919050565b6000602082019050818103600083015262000f5e8162000f1c565b9050919050565b600062000f728262000d80565b915062000f7f8362000d80565b9250827fffffffffffffffffffffffffffffffffffffffffffffffffffffffffffffffff0382111562000fb75762000fb662000d51565b5b828201905092915050565b600073ffffffffffffffffffffffffffffffffffffffff82169050919050565b600062000fef8262000fc2565b9050919050565b620010018162000fe2565b82525050565b620010128162000d80565b82525050565b600081519050919050565b600082825260208201905092915050565b60005b838110156200105457808201518184015260208101905062001037565b8381111562001064576000848401525b50505050565b6000601f19601f8301169050919050565b6000620010888262001018565b62001094818562001023565b9350620010a681856020860162001034565b620010b1816200106a565b840191505092915050565b6000608082019050620010d3600083018762000ff6565b620010e2602083018662000ff6565b620010f1604083018562001007565b81810360608301526200110581846200107b565b905095945050505050565b600080fd5b60007fffffffff0000000000000000000000000000000000000000000000000000000082169050919050565b6200114c8162001115565b81146200115857600080fd5b50565b6000815190506200116c8162001141565b92915050565b6000602082840312156200118b576200118a62001110565b5b60006200119b848285016200115b565b91505092915050565b6000620011b18262000d80565b9150620011be8362000d80565b925082821015620011d457620011d362000d51565b5b828203905092915050565b7f4e487b7100000000000000000000000000000000000000000000000000000000600052603260045260246000fd5b7f4e487b7100000000000000000000000000000000000000000000000000000000600052603160045260246000fd5b7f4552433732313a2062616c616e636520717565727920666f7220746865207a6560008201527f726f206164647265737300000000000000000000000000000000000000000000602082015250565b60006200129b602a8362000dd8565b9150620012a8826200123d565b604082019050919050565b60006020820190508181036000830152620012ce816200128c565b9050919050565b7f4e487b7100000000000000000000000000000000000000000000000000000000600052602260045260246000fd5b600060028204905060018216806200131d57607f821691505b60208210811415620013345762001333620012d5565b5b50919050565b6155c3806200134a6000396000f3fe60806040526004361061027d5760003560e01c8063715018a61161014f578063c6f6f216116100c1578063df8e201d1161007a578063df8e201d14610972578063e69f80401461099b578063e985e9c5146109b7578063f2fde38b146109f4578063fb8b0c0414610a1d578063fd9d319f14610a465761027d565b8063c6f6f21614610866578063c87b56dd1461088f578063ca800144146108cc578063cd009e90146108f5578063d137874b1461091e578063dabd2719146109495761027d565b806395d89b411161011357806395d89b411461075857806398d5fdca14610783578063a22cb465146107ae578063a79ee79a146107d7578063b88d4fde14610800578063c3959649146108295761027d565b8063715018a6146106b857806373088bb8146106cf578063853828b6146106fa5780638da5cb5b1461070457806391b7f5ed1461072f5761027d565b806318160ddd116101f3578063438b6300116101ac578063438b6300146105725780634f6ccce7146105af57806355f804b3146105ec5780636352211e146106155780636f8b44b01461065257806370a082311461067b5761027d565b806318160ddd1461046657806323b872dd146104915780632f745c59146104ba578063319d4bd5146104f7578063419889c31461052057806342842e0e146105495761027d565b8063081812fc11610245578063081812fc14610379578063095ea7b3146103b65780630b5524d4146103df5780630ce5538114610408578063125f48e41461041257806316c61ccc1461043b5761027d565b80630103a1581461028257806301ffc9a7146102bf57806302329a29146102fc57806306c40cd61461032557806306fdde031461034e575b600080fd5b34801561028e57600080fd5b506102a960048036038101906102a49190613a37565b610a6f565b6040516102b69190613a7f565b60405180910390f35b3480156102cb57600080fd5b506102e660048036038101906102e19190613af2565b610a8f565b6040516102f39190613a7f565b60405180910390f35b34801561030857600080fd5b50610323600480360381019061031e9190613b4b565b610b09565b005b34801561033157600080fd5b5061034c60048036038101906103479190613cd1565b610ba2565b005b34801561035a57600080fd5b50610363610cd8565b6040516103709190613da2565b60405180910390f35b34801561038557600080fd5b506103a0600480360381019061039b9190613dfa565b610d6a565b6040516103ad9190613e36565b60405180910390f35b3480156103c257600080fd5b506103dd60048036038101906103d89190613e51565b610def565b005b3480156103eb57600080fd5b5061040660048036038101906104019190613cd1565b610f07565b005b610410610fc9565b005b34801561041e57600080fd5b5061043960048036038101906104349190613a37565b611228565b005b34801561044757600080fd5b506104506112ff565b60405161045d9190613a7f565b60405180910390f35b34801561047257600080fd5b5061047b611312565b6040516104889190613ea0565b60405180910390f35b34801561049d57600080fd5b506104b860048036038101906104b39190613ebb565b61131f565b005b3480156104c657600080fd5b506104e160048036038101906104dc9190613e51565b61137f565b6040516104ee9190613ea0565b60405180910390f35b34801561050357600080fd5b5061051e60048036038101906105199190613a37565b611424565b005b34801561052c57600080fd5b5061054760048036038101906105429190613a37565b6114fb565b005b34801561055557600080fd5b50610570600480360381019061056b9190613ebb565b6115d2565b005b34801561057e57600080fd5b5061059960048036038101906105949190613a37565b6115f2565b6040516105a69190613fcc565b60405180910390f35b3480156105bb57600080fd5b506105d660048036038101906105d19190613dfa565b6116a0565b6040516105e39190613ea0565b60405180910390f35b3480156105f857600080fd5b50610613600480360381019061060e91906140a3565b611711565b005b34801561062157600080fd5b5061063c60048036038101906106379190613dfa565b6117a7565b6040516106499190613e36565b60405180910390f35b34801561065e57600080fd5b5061067960048036038101906106749190613dfa565b611859565b005b34801561068757600080fd5b506106a2600480360381019061069d9190613a37565b6118df565b6040516106af9190613ea0565b60405180910390f35b3480156106c457600080fd5b506106cd611997565b005b3480156106db57600080fd5b506106e4611a1f565b6040516106f19190613a7f565b60405180910390f35b610702611a32565b005b34801561071057600080fd5b50610719611b16565b6040516107269190613e36565b60405180910390f35b34801561073b57600080fd5b5061075660048036038101906107519190613dfa565b611b40565b005b34801561076457600080fd5b5061076d611bc6565b60405161077a9190613da2565b60405180910390f35b34801561078f57600080fd5b50610798611c58565b6040516107a59190613ea0565b60405180910390f35b3480156107ba57600080fd5b506107d560048036038101906107d091906140ec565b611c62565b005b3480156107e357600080fd5b506107fe60048036038101906107f99190613dfa565b611de3565b005b34801561080c57600080fd5b50610827600480360381019061082291906141cd565b611e69565b005b34801561083557600080fd5b50610850600480360381019061084b9190613a37565b611ecb565b60405161085d9190613a7f565b60405180910390f35b34801561087257600080fd5b5061088d60048036038101906108889190613dfa565b611eeb565b005b34801561089b57600080fd5b506108b660048036038101906108b19190613dfa565b611f71565b6040516108c39190613da2565b60405180910390f35b3480156108d857600080fd5b506108f360048036038101906108ee9190613e51565b612018565b005b34801561090157600080fd5b5061091c60048036038101906109179190613cd1565b612137565b005b34801561092a57600080fd5b50610933612251565b6040516109409190613ea0565b60405180910390f35b34801561095557600080fd5b50610970600480360381019061096b9190613dfa565b61225b565b005b34801561097e57600080fd5b5061099960048036038101906109949190613dfa565b6122e1565b005b6109b560048036038101906109b09190613dfa565b612367565b005b3480156109c357600080fd5b506109de60048036038101906109d99190614250565b612563565b6040516109eb9190613a7f565b60405180910390f35b348015610a0057600080fd5b50610a1b6004803603810190610a169190613a37565b6125f7565b005b348015610a2957600080fd5b50610a446004803603810190610a3f9190613b4b565b6126ef565b005b348015610a5257600080fd5b50610a6d6004803603810190610a689190613cd1565b612788565b005b60136020528060005260406000206000915054906101000a900460ff1681565b60007f780e9d63000000000000000000000000000000000000000000000000000000007bffffffffffffffffffffffffffffffffffffffffffffffffffffffff1916827bffffffffffffffffffffffffffffffffffffffffffffffffffffffff19161480610b025750610b0182612862565b5b9050919050565b610b11612944565b73ffffffffffffffffffffffffffffffffffffffff16610b2f611b16565b73ffffffffffffffffffffffffffffffffffffffff1614610b85576040517f08c379a0000000000000000000000000000000000000000000000000000000008152600401610b7c906142dc565b60405180910390fd5b80601260006101000a81548160ff02191690831515021790555050565b610baa612944565b73ffffffffffffffffffffffffffffffffffffffff16610bc8611b16565b73ffffffffffffffffffffffffffffffffffffffff1614610c1e576040517f08c379a0000000000000000000000000000000000000000000000000000000008152600401610c15906142dc565b60405180910390fd5b600d5481511115610c64576040517f08c379a0000000000000000000000000000000000000000000000000000000008152600401610c5b9061436e565b60405180910390fd5b60005b8151811015610cba57610ca7828281518110610c8657610c8561438e565b5b60200260200101516001610c98611312565b610ca291906143ec565b61294c565b8080610cb290614442565b915050610c67565b508051600d6000828254610cce919061448b565b9250508190555050565b606060008054610ce7906144ee565b80601f0160208091040260200160405190810160405280929190818152602001828054610d13906144ee565b8015610d605780601f10610d3557610100808354040283529160200191610d60565b820191906000526020600020905b815481529060010190602001808311610d4357829003601f168201915b5050505050905090565b6000610d758261296a565b610db4576040517f08c379a0000000000000000000000000000000000000000000000000000000008152600401610dab90614592565b60405180910390fd5b6004600083815260200190815260200160002060009054906101000a900473ffffffffffffffffffffffffffffffffffffffff169050919050565b6000610dfa826117a7565b90508073ffffffffffffffffffffffffffffffffffffffff168373ffffffffffffffffffffffffffffffffffffffff161415610e6b576040517f08c379a0000000000000000000000000000000000000000000000000000000008152600401610e6290614624565b60405180910390fd5b8073ffffffffffffffffffffffffffffffffffffffff16610e8a612944565b73ffffffffffffffffffffffffffffffffffffffff161480610eb95750610eb881610eb3612944565b612563565b5b610ef8576040517f08c379a0000000000000000000000000000000000000000000000000000000008152600401610eef906146b6565b60405180910390fd5b610f0283836129d6565b505050565b610f0f612944565b73ffffffffffffffffffffffffffffffffffffffff16610f2d611b16565b73ffffffffffffffffffffffffffffffffffffffff1614610f83576040517f08c379a0000000000000000000000000000000000000000000000000000000008152600401610f7a906142dc565b60405180910390fd5b60005b8151811015610fc557610fb2828281518110610fa557610fa461438e565b5b6020026020010151611424565b8080610fbd90614442565b915050610f86565b5050565b6000610fd3611312565b90506000610fe0336118df565b90506000600e549050601460003373ffffffffffffffffffffffffffffffffffffffff1673ffffffffffffffffffffffffffffffffffffffff16815260200190815260200160002060009054906101000a900460ff161561104c57600f5481611049919061448b565b90505b601260019054906101000a900460ff161561109c576040517f08c379a000000000000000000000000000000000000000000000000000000000815260040161109390614722565b60405180910390fd5b600c546001846110ac91906143ec565b11156110ed576040517f08c379a00000000000000000000000000000000000000000000000000000000081526004016110e4906147b4565b60405180910390fd5b60008214611130576040517f08c379a000000000000000000000000000000000000000000000000000000000815260040161112790614820565b60405180910390fd5b601360003373ffffffffffffffffffffffffffffffffffffffff1673ffffffffffffffffffffffffffffffffffffffff16815260200190815260200160002060009054906101000a900460ff166111bc576040517f08c379a00000000000000000000000000000000000000000000000000000000081526004016111b39061488c565b60405180910390fd5b803410156111ff576040517f08c379a00000000000000000000000000000000000000000000000000000000081526004016111f6906148f8565b60405180910390fd5b611209338461294c565b6001600c600082825461121c919061448b565b92505081905550505050565b611230612944565b73ffffffffffffffffffffffffffffffffffffffff1661124e611b16565b73ffffffffffffffffffffffffffffffffffffffff16146112a4576040517f08c379a000000000000000000000000000000000000000000000000000000000815260040161129b906142dc565b60405180910390fd5b6001601360008373ffffffffffffffffffffffffffffffffffffffff1673ffffffffffffffffffffffffffffffffffffffff16815260200190815260200160002060006101000a81548160ff02191690831515021790555050565b601260009054906101000a900460ff1681565b6000600880549050905090565b61133061132a612944565b82612a8f565b61136f576040517f08c379a00000000000000000000000000000000000000000000000000000000081526004016113669061498a565b60405180910390fd5b61137a838383612b6d565b505050565b600061138a836118df565b82106113cb576040517f08c379a00000000000000000000000000000000000000000000000000000000081526004016113c290614a1c565b60405180910390fd5b600660008473ffffffffffffffffffffffffffffffffffffffff1673ffffffffffffffffffffffffffffffffffffffff168152602001908152602001600020600083815260200190815260200160002054905092915050565b61142c612944565b73ffffffffffffffffffffffffffffffffffffffff1661144a611b16565b73ffffffffffffffffffffffffffffffffffffffff16146114a0576040517f08c379a0000000000000000000000000000000000000000000000000000000008152600401611497906142dc565b60405180910390fd5b6001601460008373ffffffffffffffffffffffffffffffffffffffff1673ffffffffffffffffffffffffffffffffffffffff16815260200190815260200160002060006101000a81548160ff02191690831515021790555050565b611503612944565b73ffffffffffffffffffffffffffffffffffffffff16611521611b16565b73ffffffffffffffffffffffffffffffffffffffff1614611577576040517f08c379a000000000000000000000000000000000000000000000000000000000815260040161156e906142dc565b60405180910390fd5b6000601360008373ffffffffffffffffffffffffffffffffffffffff1673ffffffffffffffffffffffffffffffffffffffff16815260200190815260200160002060006101000a81548160ff02191690831515021790555050565b6115ed83838360405180602001604052806000815250611e69565b505050565b606060006115ff836118df565b905060008167ffffffffffffffff81111561161d5761161c613b8e565b5b60405190808252806020026020018201604052801561164b5781602001602082028036833780820191505090505b50905060005b8281101561169557611663858261137f565b8282815181106116765761167561438e565b5b602002602001018181525050808061168d90614442565b915050611651565b508092505050919050565b60006116aa611312565b82106116eb576040517f08c379a00000000000000000000000000000000000000000000000000000000081526004016116e290614aae565b60405180910390fd5b600882815481106116ff576116fe61438e565b5b90600052602060002001549050919050565b611719612944565b73ffffffffffffffffffffffffffffffffffffffff16611737611b16565b73ffffffffffffffffffffffffffffffffffffffff161461178d576040517f08c379a0000000000000000000000000000000000000000000000000000000008152600401611784906142dc565b60405180910390fd5b80600b90805190602001906117a3929190613922565b5050565b6000806002600084815260200190815260200160002060009054906101000a900473ffffffffffffffffffffffffffffffffffffffff169050600073ffffffffffffffffffffffffffffffffffffffff168173ffffffffffffffffffffffffffffffffffffffff161415611850576040517f08c379a000000000000000000000000000000000000000000000000000000000815260040161184790614b40565b60405180910390fd5b80915050919050565b611861612944565b73ffffffffffffffffffffffffffffffffffffffff1661187f611b16565b73ffffffffffffffffffffffffffffffffffffffff16146118d5576040517f08c379a00000000000000000000000000000000000000000000000000000000081526004016118cc906142dc565b60405180910390fd5b8060108190555050565b60008073ffffffffffffffffffffffffffffffffffffffff168273ffffffffffffffffffffffffffffffffffffffff161415611950576040517f08c379a000000000000000000000000000000000000000000000000000000000815260040161194790614bd2565b60405180910390fd5b600360008373ffffffffffffffffffffffffffffffffffffffff1673ffffffffffffffffffffffffffffffffffffffff168152602001908152602001600020549050919050565b61199f612944565b73ffffffffffffffffffffffffffffffffffffffff166119bd611b16565b73ffffffffffffffffffffffffffffffffffffffff1614611a13576040517f08c379a0000000000000000000000000000000000000000000000000000000008152600401611a0a906142dc565b60405180910390fd5b611a1d6000612dc9565b565b601260019054906101000a900460ff1681565b611a3a612944565b73ffffffffffffffffffffffffffffffffffffffff16611a58611b16565b73ffffffffffffffffffffffffffffffffffffffff1614611aae576040517f08c379a0000000000000000000000000000000000000000000000000000000008152600401611aa5906142dc565b60405180910390fd5b6000479050601560009054906101000a900473ffffffffffffffffffffffffffffffffffffffff1673ffffffffffffffffffffffffffffffffffffffff166108fc829081150290604051600060405180830381858888f19350505050611b1357600080fd5b50565b6000600a60009054906101000a900473ffffffffffffffffffffffffffffffffffffffff16905090565b611b48612944565b73ffffffffffffffffffffffffffffffffffffffff16611b66611b16565b73ffffffffffffffffffffffffffffffffffffffff1614611bbc576040517f08c379a0000000000000000000000000000000000000000000000000000000008152600401611bb3906142dc565b60405180910390fd5b80600e8190555050565b606060018054611bd5906144ee565b80601f0160208091040260200160405190810160405280929190818152602001828054611c01906144ee565b8015611c4e5780601f10611c2357610100808354040283529160200191611c4e565b820191906000526020600020905b815481529060010190602001808311611c3157829003601f168201915b5050505050905090565b6000600e54905090565b611c6a612944565b73ffffffffffffffffffffffffffffffffffffffff168273ffffffffffffffffffffffffffffffffffffffff161415611cd8576040517f08c379a0000000000000000000000000000000000000000000000000000000008152600401611ccf90614c3e565b60405180910390fd5b8060056000611ce5612944565b73ffffffffffffffffffffffffffffffffffffffff1673ffffffffffffffffffffffffffffffffffffffff16815260200190815260200160002060008473ffffffffffffffffffffffffffffffffffffffff1673ffffffffffffffffffffffffffffffffffffffff16815260200190815260200160002060006101000a81548160ff0219169083151502179055508173ffffffffffffffffffffffffffffffffffffffff16611d92612944565b73ffffffffffffffffffffffffffffffffffffffff167f17307eab39ab6107e8899845ad3d59bd9653f200f220920489ca2b5937696c3183604051611dd79190613a7f565b60405180910390a35050565b611deb612944565b73ffffffffffffffffffffffffffffffffffffffff16611e09611b16565b73ffffffffffffffffffffffffffffffffffffffff1614611e5f576040517f08c379a0000000000000000000000000000000000000000000000000000000008152600401611e56906142dc565b60405180910390fd5b80600c8190555050565b611e7a611e74612944565b83612a8f565b611eb9576040517f08c379a0000000000000000000000000000000000000000000000000000000008152600401611eb09061498a565b60405180910390fd5b611ec584848484612e8f565b50505050565b60146020528060005260406000206000915054906101000a900460ff1681565b611ef3612944565b73ffffffffffffffffffffffffffffffffffffffff16611f11611b16565b73ffffffffffffffffffffffffffffffffffffffff1614611f67576040517f08c379a0000000000000000000000000000000000000000000000000000000008152600401611f5e906142dc565b60405180910390fd5b8060118190555050565b6060611f7c8261296a565b611fbb576040517f08c379a0000000000000000000000000000000000000000000000000000000008152600401611fb290614cd0565b60405180910390fd5b6000611fc5612eeb565b90506000815111611fe55760405180602001604052806000815250612010565b80611fef84612f7d565b604051602001612000929190614d2c565b6040516020818303038152906040525b915050919050565b612020612944565b73ffffffffffffffffffffffffffffffffffffffff1661203e611b16565b73ffffffffffffffffffffffffffffffffffffffff1614612094576040517f08c379a000000000000000000000000000000000000000000000000000000000815260040161208b906142dc565b60405180910390fd5b600d548111156120d9576040517f08c379a00000000000000000000000000000000000000000000000000000000081526004016120d090614dc2565b60405180910390fd5b60006120e3611312565b905060005b828110156121185761210584828461210091906143ec565b61294c565b808061211090614442565b9150506120e8565b5081600d600082825461212b919061448b565b92505081905550505050565b61213f612944565b73ffffffffffffffffffffffffffffffffffffffff1661215d611b16565b73ffffffffffffffffffffffffffffffffffffffff16146121b3576040517f08c379a00000000000000000000000000000000000000000000000000000000081526004016121aa906142dc565b60405180910390fd5b600c5481516121c0611312565b6121ca91906143ec565b111561220b576040517f08c379a000000000000000000000000000000000000000000000000000000000815260040161220290614e54565b60405180910390fd5b60005b815181101561224d5761223a82828151811061222d5761222c61438e565b5b6020026020010151611228565b808061224590614442565b91505061220e565b5050565b6000600f54905090565b612263612944565b73ffffffffffffffffffffffffffffffffffffffff16612281611b16565b73ffffffffffffffffffffffffffffffffffffffff16146122d7576040517f08c379a00000000000000000000000000000000000000000000000000000000081526004016122ce906142dc565b60405180910390fd5b80600f8190555050565b6122e9612944565b73ffffffffffffffffffffffffffffffffffffffff16612307611b16565b73ffffffffffffffffffffffffffffffffffffffff161461235d576040517f08c379a0000000000000000000000000000000000000000000000000000000008152600401612354906142dc565b60405180910390fd5b80600d8190555050565b6000612371611312565b90506000600e549050601460003373ffffffffffffffffffffffffffffffffffffffff1673ffffffffffffffffffffffffffffffffffffffff16815260200190815260200160002060009054906101000a900460ff16156123dd57600f54816123da919061448b565b90505b601260009054906101000a900460ff161561242d576040517f08c379a000000000000000000000000000000000000000000000000000000000815260040161242490614ec0565b60405180910390fd5b601154831115612472576040517f08c379a000000000000000000000000000000000000000000000000000000000815260040161246990614f52565b60405180910390fd5b600c54600d54601054612485919061448b565b61248f919061448b565b838361249b91906143ec565b11156124dc576040517f08c379a00000000000000000000000000000000000000000000000000000000081526004016124d390614fbe565b60405180910390fd5b82816124e89190614fde565b34101561252a576040517f08c379a0000000000000000000000000000000000000000000000000000000008152600401612521906148f8565b60405180910390fd5b60005b8381101561255d5761254a33828561254591906143ec565b61294c565b808061255590614442565b91505061252d565b50505050565b6000600560008473ffffffffffffffffffffffffffffffffffffffff1673ffffffffffffffffffffffffffffffffffffffff16815260200190815260200160002060008373ffffffffffffffffffffffffffffffffffffffff1673ffffffffffffffffffffffffffffffffffffffff16815260200190815260200160002060009054906101000a900460ff16905092915050565b6125ff612944565b73ffffffffffffffffffffffffffffffffffffffff1661261d611b16565b73ffffffffffffffffffffffffffffffffffffffff1614612673576040517f08c379a000000000000000000000000000000000000000000000000000000000815260040161266a906142dc565b60405180910390fd5b600073ffffffffffffffffffffffffffffffffffffffff168173ffffffffffffffffffffffffffffffffffffffff1614156126e3576040517f08c379a00000000000000000000000000000000000000000000000000000000081526004016126da906150aa565b60405180910390fd5b6126ec81612dc9565b50565b6126f7612944565b73ffffffffffffffffffffffffffffffffffffffff16612715611b16565b73ffffffffffffffffffffffffffffffffffffffff161461276b576040517f08c379a0000000000000000000000000000000000000000000000000000000008152600401612762906142dc565b60405180910390fd5b80601260016101000a81548160ff02191690831515021790555050565b612790612944565b73ffffffffffffffffffffffffffffffffffffffff166127ae611b16565b73ffffffffffffffffffffffffffffffffffffffff1614612804576040517f08c379a00000000000000000000000000000000000000000000000000000000081526004016127fb906142dc565b60405180910390fd5b60005b8151811015612846576128338282815181106128265761282561438e565b5b60200260200101516114fb565b808061283e90614442565b915050612807565b5050565b600080823b905060008111915050919050565b505050565b60007f80ac58cd000000000000000000000000000000000000000000000000000000007bffffffffffffffffffffffffffffffffffffffffffffffffffffffff1916827bffffffffffffffffffffffffffffffffffffffffffffffffffffffff1916148061292d57507f5b5e139f000000000000000000000000000000000000000000000000000000007bffffffffffffffffffffffffffffffffffffffffffffffffffffffff1916827bffffffffffffffffffffffffffffffffffffffffffffffffffffffff1916145b8061293d575061293c826130de565b5b9050919050565b600033905090565b612966828260405180602001604052806000815250613148565b5050565b60008073ffffffffffffffffffffffffffffffffffffffff166002600084815260200190815260200160002060009054906101000a900473ffffffffffffffffffffffffffffffffffffffff1673ffffffffffffffffffffffffffffffffffffffff1614159050919050565b816004600083815260200190815260200160002060006101000a81548173ffffffffffffffffffffffffffffffffffffffff021916908373ffffffffffffffffffffffffffffffffffffffff160217905550808273ffffffffffffffffffffffffffffffffffffffff16612a49836117a7565b73ffffffffffffffffffffffffffffffffffffffff167f8c5be1e5ebec7d5bd14f71427d1e84f3dd0314c0f7b2291e5b200ac8c7c3b92560405160405180910390a45050565b6000612a9a8261296a565b612ad9576040517f08c379a0000000000000000000000000000000000000000000000000000000008152600401612ad09061513c565b60405180910390fd5b6000612ae4836117a7565b90508073ffffffffffffffffffffffffffffffffffffffff168473ffffffffffffffffffffffffffffffffffffffff161480612b5357508373ffffffffffffffffffffffffffffffffffffffff16612b3b84610d6a565b73ffffffffffffffffffffffffffffffffffffffff16145b80612b645750612b638185612563565b5b91505092915050565b8273ffffffffffffffffffffffffffffffffffffffff16612b8d826117a7565b73ffffffffffffffffffffffffffffffffffffffff1614612be3576040517f08c379a0000000000000000000000000000000000000000000000000000000008152600401612bda906151ce565b60405180910390fd5b600073ffffffffffffffffffffffffffffffffffffffff168273ffffffffffffffffffffffffffffffffffffffff161415612c53576040517f08c379a0000000000000000000000000000000000000000000000000000000008152600401612c4a90615260565b60405180910390fd5b612c5e8383836131a3565b612c696000826129d6565b6001600360008573ffffffffffffffffffffffffffffffffffffffff1673ffffffffffffffffffffffffffffffffffffffff1681526020019081526020016000206000828254612cb9919061448b565b925050819055506001600360008473ffffffffffffffffffffffffffffffffffffffff1673ffffffffffffffffffffffffffffffffffffffff1681526020019081526020016000206000828254612d1091906143ec565b92505081905550816002600083815260200190815260200160002060006101000a81548173ffffffffffffffffffffffffffffffffffffffff021916908373ffffffffffffffffffffffffffffffffffffffff160217905550808273ffffffffffffffffffffffffffffffffffffffff168473ffffffffffffffffffffffffffffffffffffffff167fddf252ad1be2c89b69c2b068fc378daa952ba7f163c4a11628f55a4df523b3ef60405160405180910390a4505050565b6000600a60009054906101000a900473ffffffffffffffffffffffffffffffffffffffff16905081600a60006101000a81548173ffffffffffffffffffffffffffffffffffffffff021916908373ffffffffffffffffffffffffffffffffffffffff1602179055508173ffffffffffffffffffffffffffffffffffffffff168173ffffffffffffffffffffffffffffffffffffffff167f8be0079c531659141344cd1fd0a4f28419497f9722a3daafe3b4186f6b6457e060405160405180910390a35050565b612e9a848484612b6d565b612ea6848484846132b7565b612ee5576040517f08c379a0000000000000000000000000000000000000000000000000000000008152600401612edc906152f2565b60405180910390fd5b50505050565b6060600b8054612efa906144ee565b80601f0160208091040260200160405190810160405280929190818152602001828054612f26906144ee565b8015612f735780601f10612f4857610100808354040283529160200191612f73565b820191906000526020600020905b815481529060010190602001808311612f5657829003601f168201915b5050505050905090565b60606000821415612fc5576040518060400160405280600181526020017f300000000000000000000000000000000000000000000000000000000000000081525090506130d9565b600082905060005b60008214612ff7578080612fe090614442565b915050600a82612ff09190615341565b9150612fcd565b60008167ffffffffffffffff81111561301357613012613b8e565b5b6040519080825280601f01601f1916602001820160405280156130455781602001600182028036833780820191505090505b5090505b600085146130d25760018261305e919061448b565b9150600a8561306d9190615372565b603061307991906143ec565b60f81b81838151811061308f5761308e61438e565b5b60200101907effffffffffffffffffffffffffffffffffffffffffffffffffffffffffffff1916908160001a905350600a856130cb9190615341565b9450613049565b8093505050505b919050565b60007f01ffc9a7000000000000000000000000000000000000000000000000000000007bffffffffffffffffffffffffffffffffffffffffffffffffffffffff1916827bffffffffffffffffffffffffffffffffffffffffffffffffffffffff1916149050919050565b613152838361344e565b61315f60008484846132b7565b61319e576040517f08c379a0000000000000000000000000000000000000000000000000000000008152600401613195906152f2565b60405180910390fd5b505050565b6131ae83838361285d565b600073ffffffffffffffffffffffffffffffffffffffff168373ffffffffffffffffffffffffffffffffffffffff1614156131f1576131ec8161361c565b613230565b8173ffffffffffffffffffffffffffffffffffffffff168373ffffffffffffffffffffffffffffffffffffffff161461322f5761322e8382613665565b5b5b600073ffffffffffffffffffffffffffffffffffffffff168273ffffffffffffffffffffffffffffffffffffffff1614156132735761326e816137d2565b6132b2565b8273ffffffffffffffffffffffffffffffffffffffff168273ffffffffffffffffffffffffffffffffffffffff16146132b1576132b082826138a3565b5b5b505050565b60006132d88473ffffffffffffffffffffffffffffffffffffffff1661284a565b15613441578373ffffffffffffffffffffffffffffffffffffffff1663150b7a02613301612944565b8786866040518563ffffffff1660e01b815260040161332394939291906153f8565b602060405180830381600087803b15801561333d57600080fd5b505af192505050801561336e57506040513d601f19601f8201168201806040525081019061336b9190615459565b60015b6133f1573d806000811461339e576040519150601f19603f3d011682016040523d82523d6000602084013e6133a3565b606091505b506000815114156133e9576040517f08c379a00000000000000000000000000000000000000000000000000000000081526004016133e0906152f2565b60405180910390fd5b805181602001fd5b63150b7a0260e01b7bffffffffffffffffffffffffffffffffffffffffffffffffffffffff1916817bffffffffffffffffffffffffffffffffffffffffffffffffffffffff191614915050613446565b600190505b949350505050565b600073ffffffffffffffffffffffffffffffffffffffff168273ffffffffffffffffffffffffffffffffffffffff1614156134be576040517f08c379a00000000000000000000000000000000000000000000000000000000081526004016134b5906154d2565b60405180910390fd5b6134c78161296a565b15613507576040517f08c379a00000000000000000000000000000000000000000000000000000000081526004016134fe9061553e565b60405180910390fd5b613513600083836131a3565b6001600360008473ffffffffffffffffffffffffffffffffffffffff1673ffffffffffffffffffffffffffffffffffffffff168152602001908152602001600020600082825461356391906143ec565b92505081905550816002600083815260200190815260200160002060006101000a81548173ffffffffffffffffffffffffffffffffffffffff021916908373ffffffffffffffffffffffffffffffffffffffff160217905550808273ffffffffffffffffffffffffffffffffffffffff16600073ffffffffffffffffffffffffffffffffffffffff167fddf252ad1be2c89b69c2b068fc378daa952ba7f163c4a11628f55a4df523b3ef60405160405180910390a45050565b6008805490506009600083815260200190815260200160002081905550600881908060018154018082558091505060019003906000526020600020016000909190919091505550565b60006001613672846118df565b61367c919061448b565b9050600060076000848152602001908152602001600020549050818114613761576000600660008673ffffffffffffffffffffffffffffffffffffffff1673ffffffffffffffffffffffffffffffffffffffff168152602001908152602001600020600084815260200190815260200160002054905080600660008773ffffffffffffffffffffffffffffffffffffffff1673ffffffffffffffffffffffffffffffffffffffff168152602001908152602001600020600084815260200190815260200160002081905550816007600083815260200190815260200160002081905550505b6007600084815260200190815260200160002060009055600660008573ffffffffffffffffffffffffffffffffffffffff1673ffffffffffffffffffffffffffffffffffffffff16815260200190815260200160002060008381526020019081526020016000206000905550505050565b600060016008805490506137e6919061448b565b90506000600960008481526020019081526020016000205490506000600883815481106138165761381561438e565b5b9060005260206000200154905080600883815481106138385761383761438e565b5b9060005260206000200181905550816009600083815260200190815260200160002081905550600960008581526020019081526020016000206000905560088054806138875761388661555e565b5b6001900381819060005260206000200160009055905550505050565b60006138ae836118df565b905081600660008573ffffffffffffffffffffffffffffffffffffffff1673ffffffffffffffffffffffffffffffffffffffff168152602001908152602001600020600083815260200190815260200160002081905550806007600084815260200190815260200160002081905550505050565b82805461392e906144ee565b90600052602060002090601f0160209004810192826139505760008555613997565b82601f1061396957805160ff1916838001178555613997565b82800160010185558215613997579182015b8281111561399657825182559160200191906001019061397b565b5b5090506139a491906139a8565b5090565b5b808211156139c15760008160009055506001016139a9565b5090565b6000604051905090565b600080fd5b600080fd5b600073ffffffffffffffffffffffffffffffffffffffff82169050919050565b6000613a04826139d9565b9050919050565b613a14816139f9565b8114613a1f57600080fd5b50565b600081359050613a3181613a0b565b92915050565b600060208284031215613a4d57613a4c6139cf565b5b6000613a5b84828501613a22565b91505092915050565b60008115159050919050565b613a7981613a64565b82525050565b6000602082019050613a946000830184613a70565b92915050565b60007fffffffff0000000000000000000000000000000000000000000000000000000082169050919050565b613acf81613a9a565b8114613ada57600080fd5b50565b600081359050613aec81613ac6565b92915050565b600060208284031215613b0857613b076139cf565b5b6000613b1684828501613add565b91505092915050565b613b2881613a64565b8114613b3357600080fd5b50565b600081359050613b4581613b1f565b92915050565b600060208284031215613b6157613b606139cf565b5b6000613b6f84828501613b36565b91505092915050565b600080fd5b6000601f19601f8301169050919050565b7f4e487b7100000000000000000000000000000000000000000000000000000000600052604160045260246000fd5b613bc682613b7d565b810181811067ffffffffffffffff82111715613be557613be4613b8e565b5b80604052505050565b6000613bf86139c5565b9050613c048282613bbd565b919050565b600067ffffffffffffffff821115613c2457613c23613b8e565b5b602082029050602081019050919050565b600080fd5b6000613c4d613c4884613c09565b613bee565b90508083825260208201905060208402830185811115613c7057613c6f613c35565b5b835b81811015613c995780613c858882613a22565b845260208401935050602081019050613c72565b5050509392505050565b600082601f830112613cb857613cb7613b78565b5b8135613cc8848260208601613c3a565b91505092915050565b600060208284031215613ce757613ce66139cf565b5b600082013567ffffffffffffffff811115613d0557613d046139d4565b5b613d1184828501613ca3565b91505092915050565b600081519050919050565b600082825260208201905092915050565b60005b83811015613d54578082015181840152602081019050613d39565b83811115613d63576000848401525b50505050565b6000613d7482613d1a565b613d7e8185613d25565b9350613d8e818560208601613d36565b613d9781613b7d565b840191505092915050565b60006020820190508181036000830152613dbc8184613d69565b905092915050565b6000819050919050565b613dd781613dc4565b8114613de257600080fd5b50565b600081359050613df481613dce565b92915050565b600060208284031215613e1057613e0f6139cf565b5b6000613e1e84828501613de5565b91505092915050565b613e30816139f9565b82525050565b6000602082019050613e4b6000830184613e27565b92915050565b60008060408385031215613e6857613e676139cf565b5b6000613e7685828601613a22565b9250506020613e8785828601613de5565b9150509250929050565b613e9a81613dc4565b82525050565b6000602082019050613eb56000830184613e91565b92915050565b600080600060608486031215613ed457613ed36139cf565b5b6000613ee286828701613a22565b9350506020613ef386828701613a22565b9250506040613f0486828701613de5565b9150509250925092565b600081519050919050565b600082825260208201905092915050565b6000819050602082019050919050565b613f4381613dc4565b82525050565b6000613f558383613f3a565b60208301905092915050565b6000602082019050919050565b6000613f7982613f0e565b613f838185613f19565b9350613f8e83613f2a565b8060005b83811015613fbf578151613fa68882613f49565b9750613fb183613f61565b925050600181019050613f92565b5085935050505092915050565b60006020820190508181036000830152613fe68184613f6e565b905092915050565b600080fd5b600067ffffffffffffffff82111561400e5761400d613b8e565b5b61401782613b7d565b9050602081019050919050565b82818337600083830152505050565b600061404661404184613ff3565b613bee565b90508281526020810184848401111561406257614061613fee565b5b61406d848285614024565b509392505050565b600082601f83011261408a57614089613b78565b5b813561409a848260208601614033565b91505092915050565b6000602082840312156140b9576140b86139cf565b5b600082013567ffffffffffffffff8111156140d7576140d66139d4565b5b6140e384828501614075565b91505092915050565b60008060408385031215614103576141026139cf565b5b600061411185828601613a22565b925050602061412285828601613b36565b9150509250929050565b600067ffffffffffffffff82111561414757614146613b8e565b5b61415082613b7d565b9050602081019050919050565b600061417061416b8461412c565b613bee565b90508281526020810184848401111561418c5761418b613fee565b5b614197848285614024565b509392505050565b600082601f8301126141b4576141b3613b78565b5b81356141c484826020860161415d565b91505092915050565b600080600080608085870312156141e7576141e66139cf565b5b60006141f587828801613a22565b945050602061420687828801613a22565b935050604061421787828801613de5565b925050606085013567ffffffffffffffff811115614238576142376139d4565b5b6142448782880161419f565b91505092959194509250565b60008060408385031215614267576142666139cf565b5b600061427585828601613a22565b925050602061428685828601613a22565b9150509250929050565b7f4f776e61626c653a2063616c6c6572206973206e6f7420746865206f776e6572600082015250565b60006142c6602083613d25565b91506142d182614290565b602082019050919050565b600060208201905081810360008301526142f5816142b9565b9050919050565b7f45786365656473207265736572766564206769667420426f747320737570706c60008201527f7900000000000000000000000000000000000000000000000000000000000000602082015250565b6000614358602183613d25565b9150614363826142fc565b604082019050919050565b600060208201905081810360008301526143878161434b565b9050919050565b7f4e487b7100000000000000000000000000000000000000000000000000000000600052603260045260246000fd5b7f4e487b7100000000000000000000000000000000000000000000000000000000600052601160045260246000fd5b60006143f782613dc4565b915061440283613dc4565b9250827fffffffffffffffffffffffffffffffffffffffffffffffffffffffffffffffff03821115614437576144366143bd565b5b828201905092915050565b600061444d82613dc4565b91507fffffffffffffffffffffffffffffffffffffffffffffffffffffffffffffffff8214156144805761447f6143bd565b5b600182019050919050565b600061449682613dc4565b91506144a183613dc4565b9250828210156144b4576144b36143bd565b5b828203905092915050565b7f4e487b7100000000000000000000000000000000000000000000000000000000600052602260045260246000fd5b6000600282049050600182168061450657607f821691505b6020821081141561451a576145196144bf565b5b50919050565b7f4552433732313a20617070726f76656420717565727920666f72206e6f6e657860008201527f697374656e7420746f6b656e0000000000000000000000000000000000000000602082015250565b600061457c602c83613d25565b915061458782614520565b604082019050919050565b600060208201905081810360008301526145ab8161456f565b9050919050565b7f4552433732313a20617070726f76616c20746f2063757272656e74206f776e6560008201527f7200000000000000000000000000000000000000000000000000000000000000602082015250565b600061460e602183613d25565b9150614619826145b2565b604082019050919050565b6000602082019050818103600083015261463d81614601565b9050919050565b7f4552433732313a20617070726f76652063616c6c6572206973206e6f74206f7760008201527f6e6572206e6f7220617070726f76656420666f7220616c6c0000000000000000602082015250565b60006146a0603883613d25565b91506146ab82614644565b604082019050919050565b600060208201905081810360008301526146cf81614693565b9050919050565b7f50726573616c6520706175736564000000000000000000000000000000000000600082015250565b600061470c600e83613d25565b9150614717826146d6565b602082019050919050565b6000602082019050818103600083015261473b816146ff565b9050919050565b7f45786365656473206d6178696d756d205368726f6f6d732070726573616c652060008201527f726573657276656420737570706c790000000000000000000000000000000000602082015250565b600061479e602f83613d25565b91506147a982614742565b604082019050919050565b600060208201905081810360008301526147cd81614791565b9050919050565b7f596f7520616c7265616479206861766520736f6d65205368726f6f6d73000000600082015250565b600061480a601d83613d25565b9150614815826147d4565b602082019050919050565b60006020820190508181036000830152614839816147fd565b9050919050565b7f536f72727920796f7520617265206e6f742077686974656c6973746564000000600082015250565b6000614876601d83613d25565b915061488182614840565b602082019050919050565b600060208201905081810360008301526148a581614869565b9050919050565b7f45746865722073656e74206973206e6f7420636f727265637400000000000000600082015250565b60006148e2601983613d25565b91506148ed826148ac565b602082019050919050565b60006020820190508181036000830152614911816148d5565b9050919050565b7f4552433732313a207472616e736665722063616c6c6572206973206e6f74206f60008201527f776e6572206e6f7220617070726f766564000000000000000000000000000000602082015250565b6000614974603183613d25565b915061497f82614918565b604082019050919050565b600060208201905081810360008301526149a381614967565b9050919050565b7f455243373231456e756d657261626c653a206f776e657220696e646578206f7560008201527f74206f6620626f756e6473000000000000000000000000000000000000000000602082015250565b6000614a06602b83613d25565b9150614a11826149aa565b604082019050919050565b60006020820190508181036000830152614a35816149f9565b9050919050565b7f455243373231456e756d657261626c653a20676c6f62616c20696e646578206f60008201527f7574206f6620626f756e64730000000000000000000000000000000000000000602082015250565b6000614a98602c83613d25565b9150614aa382614a3c565b604082019050919050565b60006020820190508181036000830152614ac781614a8b565b9050919050565b7f4552433732313a206f776e657220717565727920666f72206e6f6e657869737460008201527f656e7420746f6b656e0000000000000000000000000000000000000000000000602082015250565b6000614b2a602983613d25565b9150614b3582614ace565b604082019050919050565b60006020820190508181036000830152614b5981614b1d565b9050919050565b7f4552433732313a2062616c616e636520717565727920666f7220746865207a6560008201527f726f206164647265737300000000000000000000000000000000000000000000602082015250565b6000614bbc602a83613d25565b9150614bc782614b60565b604082019050919050565b60006020820190508181036000830152614beb81614baf565b9050919050565b7f4552433732313a20617070726f766520746f2063616c6c657200000000000000600082015250565b6000614c28601983613d25565b9150614c3382614bf2565b602082019050919050565b60006020820190508181036000830152614c5781614c1b565b9050919050565b7f4552433732314d657461646174613a2055524920717565727920666f72206e6f60008201527f6e6578697374656e7420746f6b656e0000000000000000000000000000000000602082015250565b6000614cba602f83613d25565b9150614cc582614c5e565b604082019050919050565b60006020820190508181036000830152614ce981614cad565b9050919050565b600081905092915050565b6000614d0682613d1a565b614d108185614cf0565b9350614d20818560208601613d36565b80840191505092915050565b6000614d388285614cfb565b9150614d448284614cfb565b91508190509392505050565b7f457863656564732072657365727665642067696674205368726f6f6d7320737560008201527f70706c7900000000000000000000000000000000000000000000000000000000602082015250565b6000614dac602483613d25565b9150614db782614d50565b604082019050919050565b60006020820190508181036000830152614ddb81614d9f565b9050919050565b7f576f756c64206578636565642070726573616c6520726573657276656420737560008201527f70706c7900000000000000000000000000000000000000000000000000000000602082015250565b6000614e3e602483613d25565b9150614e4982614de2565b604082019050919050565b60006020820190508181036000830152614e6d81614e31565b9050919050565b7f53616c6520706175736564000000000000000000000000000000000000000000600082015250565b6000614eaa600b83613d25565b9150614eb582614e74565b602082019050919050565b60006020820190508181036000830152614ed981614e9d565b9050919050565b7f45786365656473206d6178696d756d20616d6f756e74206f66205368726f6f6d60008201527f7320706572207478000000000000000000000000000000000000000000000000602082015250565b6000614f3c602883613d25565b9150614f4782614ee0565b604082019050919050565b60006020820190508181036000830152614f6b81614f2f565b9050919050565b7f45786365656473206d6178696d756d205368726f6f6d7320737570706c790000600082015250565b6000614fa8601e83613d25565b9150614fb382614f72565b602082019050919050565b60006020820190508181036000830152614fd781614f9b565b9050919050565b6000614fe982613dc4565b9150614ff483613dc4565b9250817fffffffffffffffffffffffffffffffffffffffffffffffffffffffffffffffff048311821515161561502d5761502c6143bd565b5b828202905092915050565b7f4f776e61626c653a206e6577206f776e657220697320746865207a65726f206160008201527f6464726573730000000000000000000000000000000000000000000000000000602082015250565b6000615094602683613d25565b915061509f82615038565b604082019050919050565b600060208201905081810360008301526150c381615087565b9050919050565b7f4552433732313a206f70657261746f7220717565727920666f72206e6f6e657860008201527f697374656e7420746f6b656e0000000000000000000000000000000000000000602082015250565b6000615126602c83613d25565b9150615131826150ca565b604082019050919050565b6000602082019050818103600083015261515581615119565b9050919050565b7f4552433732313a207472616e73666572206f6620746f6b656e2074686174206960008201527f73206e6f74206f776e0000000000000000000000000000000000000000000000602082015250565b60006151b8602983613d25565b91506151c38261515c565b604082019050919050565b600060208201905081810360008301526151e7816151ab565b9050919050565b7f4552433732313a207472616e7366657220746f20746865207a65726f2061646460008201527f7265737300000000000000000000000000000000000000000000000000000000602082015250565b600061524a602483613d25565b9150615255826151ee565b604082019050919050565b600060208201905081810360008301526152798161523d565b9050919050565b7f4552433732313a207472616e7366657220746f206e6f6e20455243373231526560008201527f63656976657220696d706c656d656e7465720000000000000000000000000000602082015250565b60006152dc603283613d25565b91506152e782615280565b604082019050919050565b6000602082019050818103600083015261530b816152cf565b9050919050565b7f4e487b7100000000000000000000000000000000000000000000000000000000600052601260045260246000fd5b600061534c82613dc4565b915061535783613dc4565b92508261536757615366615312565b5b828204905092915050565b600061537d82613dc4565b915061538883613dc4565b92508261539857615397615312565b5b828206905092915050565b600081519050919050565b600082825260208201905092915050565b60006153ca826153a3565b6153d481856153ae565b93506153e4818560208601613d36565b6153ed81613b7d565b840191505092915050565b600060808201905061540d6000830187613e27565b61541a6020830186613e27565b6154276040830185613e91565b818103606083015261543981846153bf565b905095945050505050565b60008151905061545381613ac6565b92915050565b60006020828403121561546f5761546e6139cf565b5b600061547d84828501615444565b91505092915050565b7f4552433732313a206d696e7420746f20746865207a65726f2061646472657373600082015250565b60006154bc602083613d25565b91506154c782615486565b602082019050919050565b600060208201905081810360008301526154eb816154af565b9050919050565b7f4552433732313a20746f6b656e20616c7265616479206d696e74656400000000600082015250565b6000615528601c83613d25565b9150615533826154f2565b602082019050919050565b600060208201905081810360008301526155578161551b565b9050919050565b7f4e487b7100000000000000000000000000000000000000000000000000000000600052603160045260246000fdfea26469706673582212203a2b9dfb55bf63e4c905fc2d4b7e261c0de4430a903ab6008d2dc3b70fc238ac64736f6c63430008090033",
  "immutableReferences": {},
  "source": "// SPDX-License-Identifier: MIT\r\npragma solidity ^0.8.0;\r\n\r\nimport \"@openzeppelin/contracts/token/ERC721/extensions/ERC721Enumerable.sol\";\r\nimport \"@openzeppelin/contracts/access/Ownable.sol\";\r\n\r\ncontract BattleShroomsGenOne is ERC721Enumerable, Ownable {\r\n\r\n    using Strings for uint256;\r\n\r\n    string _baseTokenURI;\r\n    uint256 private _presaleReserved = 1100;\r\n    uint256 private _giftReserved = 100;\r\n    uint256 private _price = 100 ether;\r\n    uint256 private _botHolderDiscont = 40 ether;\r\n    uint256 private MAX_SUPPLY = 5000;\r\n    uint256 private maxPerTx = 10;\r\n    bool public _paused = true;\r\n    bool public _presalePaused = true;\r\n\r\n    mapping(address => bool) public _whiteListed;\r\n    mapping(address => bool) public _botHolders;\r\n\r\n    address t1 = 0xF129f79c05F6EA516d01176A3983475100CA64C4;\r\n\r\n    constructor() ERC721(\"Battle Shrooms Gen One\", \"BSONE\") {\r\n        for(uint256 i; i < 10; i++){\r\n            _safeMint( t1, i );\r\n        }\r\n    }\r\n\r\n    function mintShroom(uint256 num) public payable {\r\n        uint256 supply = totalSupply();\r\n        uint256 currentPrice = _price;\r\n\r\n        if(_botHolders[msg.sender])\r\n            currentPrice -= _botHolderDiscont;\r\n\r\n        require( !_paused, \"Sale paused\" );\r\n        require( num <= maxPerTx, \"Exceeds maximum amount of Shrooms per tx\" );\r\n        require( supply + num <= MAX_SUPPLY - _giftReserved - _presaleReserved, \"Exceeds maximum Shrooms supply\" );\r\n        require( msg.value >= currentPrice * num, \"Ether sent is not correct\" );\r\n\r\n        for(uint256 i; i < num; i++){\r\n            _safeMint( msg.sender, supply + i );\r\n        }\r\n    }\r\n\r\n    function mintPresaleShroom() public payable {\r\n        uint256 supply = totalSupply();\r\n        uint256 balance = balanceOf(msg.sender);\r\n        uint256 currentPrice = _price;\r\n\r\n        if(_botHolders[msg.sender])\r\n            currentPrice -= _botHolderDiscont;\r\n\r\n        require( !_presalePaused, \"Presale paused\" );\r\n        require( supply + 1 <= _presaleReserved, \"Exceeds maximum Shrooms presale reserved supply\" );\r\n        require( balance == 0, \"You already have some Shrooms\" );\r\n        require( _whiteListed[msg.sender], \"Sorry you are not whitelisted\" );\r\n        require( msg.value >= currentPrice, \"Ether sent is not correct\" );\r\n\r\n        _safeMint( msg.sender, supply);\r\n        _presaleReserved -= 1;\r\n    }\r\n\r\n    function addWL(address _wl) public onlyOwner() {\r\n        _whiteListed[_wl] = true;\r\n    }\r\n\r\n    function addWLMany(address[] memory _wls) public onlyOwner() {\r\n        require(totalSupply() + _wls.length <= _presaleReserved, 'Would exceed presale reserved supply');\r\n\r\n        for(uint256 i = 0; i < _wls.length; i++) {\r\n            addWL(_wls[i]);\r\n        }\r\n    }\r\n\r\n    function addBotHolder(address _newHolder) public onlyOwner() {\r\n        _botHolders[_newHolder] = true;\r\n    }\r\n\r\n    function addBotHolderMany(address[] memory _newBotHolders) public onlyOwner() {\r\n        for(uint256 i = 0; i < _newBotHolders.length; i++) {\r\n            addBotHolder(_newBotHolders[i]);\r\n        }\r\n    }\r\n\r\n    function removeWL(address _wl) public onlyOwner() {\r\n        _whiteListed[_wl] = false;\r\n    }\r\n\r\n    function removeWLMany(address[] memory _wls) public onlyOwner() {\r\n        for(uint256 i = 0; i < _wls.length; i++) {\r\n            removeWL(_wls[i]);\r\n        }\r\n    }\r\n\r\n    function walletOfOwner(address _owner) public view returns(uint256[] memory) {\r\n        uint256 tokenCount = balanceOf(_owner);\r\n\r\n        uint256[] memory tokensId = new uint256[](tokenCount);\r\n        for(uint256 i; i < tokenCount; i++){\r\n            tokensId[i] = tokenOfOwnerByIndex(_owner, i);\r\n        }\r\n        return tokensId;\r\n    }\r\n\r\n    function setPrice(uint256 _newPrice) public onlyOwner() {\r\n        _price = _newPrice;\r\n    }\r\n\r\n    function setMaxPerTx(uint256 _newMaxPerTx) public onlyOwner() {\r\n        maxPerTx = _newMaxPerTx;\r\n    }\r\n\r\n    function setPresaleReserved(uint256 _newReserved) public onlyOwner() {\r\n        _presaleReserved = _newReserved;\r\n    }\r\n\r\n    function setGiftReserved(uint256 _newReserved) public onlyOwner() {\r\n        _giftReserved = _newReserved;\r\n    }\r\n\r\n    function setMaxSupply(uint256 _newMax) public onlyOwner() {\r\n        MAX_SUPPLY = _newMax;\r\n    }\r\n\r\n    function _baseURI() internal view virtual override returns (string memory) {\r\n        return _baseTokenURI;\r\n    }\r\n\r\n    function setBaseURI(string memory baseURI) public onlyOwner {\r\n        _baseTokenURI = baseURI;\r\n    }\r\n\r\n    function getPrice() public view returns (uint256){\r\n        return _price;\r\n    }\r\n\r\n    function getDiscount() public view returns (uint256){\r\n        return _botHolderDiscont;\r\n    }\r\n\r\n    function giveAway(address _to, uint256 _amount) external onlyOwner() {\r\n        require( _amount <= _giftReserved, \"Exceeds reserved gift Shrooms supply\" );\r\n\r\n        uint256 supply = totalSupply();\r\n        for(uint256 i; i < _amount; i++){\r\n            _safeMint( _to, supply + i );\r\n        }\r\n\r\n        _giftReserved -= _amount;\r\n    }\r\n\r\n    function giveAwayMany(address[] memory addresses) external onlyOwner() {\r\n        require( addresses.length <= _giftReserved, \"Exceeds reserved gift Bots supply\" );\r\n\r\n        for (uint i = 0; i < addresses.length; i++) {\r\n            _safeMint(addresses[i], totalSupply() + 1);\r\n        }\r\n\r\n        _giftReserved -= addresses.length;\r\n    }\r\n\r\n    function pause(bool val) public onlyOwner {\r\n        _paused = val;\r\n    }\r\n\r\n    function presalePause(bool val) public onlyOwner {\r\n        _presalePaused = val;\r\n    }\r\n    \r\n    function setDiscount(uint256 _newDiscount) public onlyOwner() {\r\n        _botHolderDiscont = _newDiscount;\r\n    }\r\n\r\n    function withdrawAll() public payable onlyOwner {\r\n        uint256 _balance = address(this).balance;\r\n\r\n        require(payable(t1).send(_balance));\r\n    }\r\n}",
  "sourcePath": "/Users/vlad/Yandex.Disk.localized/_dev/shrooms/sol/contracts/polygon/BattleShroomsGenOne.sol",
  "compiler": {
    "name": "solc",
    "version": "0.8.9+commit.e5eed63a.Emscripten.clang"
  },
  "schemaVersion": "3.4.3",
  "updatedAt": "2021-11-01T13:51:40.254Z",
  "devdoc": {
    "kind": "dev",
    "methods": {
      "approve(address,uint256)": {
        "details": "See {IERC721-approve}."
      },
      "balanceOf(address)": {
        "details": "See {IERC721-balanceOf}."
      },
      "getApproved(uint256)": {
        "details": "See {IERC721-getApproved}."
      },
      "isApprovedForAll(address,address)": {
        "details": "See {IERC721-isApprovedForAll}."
      },
      "name()": {
        "details": "See {IERC721Metadata-name}."
      },
      "owner()": {
        "details": "Returns the address of the current owner."
      },
      "ownerOf(uint256)": {
        "details": "See {IERC721-ownerOf}."
      },
      "renounceOwnership()": {
        "details": "Leaves the contract without owner. It will not be possible to call `onlyOwner` functions anymore. Can only be called by the current owner. NOTE: Renouncing ownership will leave the contract without an owner, thereby removing any functionality that is only available to the owner."
      },
      "safeTransferFrom(address,address,uint256)": {
        "details": "See {IERC721-safeTransferFrom}."
      },
      "safeTransferFrom(address,address,uint256,bytes)": {
        "details": "See {IERC721-safeTransferFrom}."
      },
      "setApprovalForAll(address,bool)": {
        "details": "See {IERC721-setApprovalForAll}."
      },
      "supportsInterface(bytes4)": {
        "details": "See {IERC165-supportsInterface}."
      },
      "symbol()": {
        "details": "See {IERC721Metadata-symbol}."
      },
      "tokenByIndex(uint256)": {
        "details": "See {IERC721Enumerable-tokenByIndex}."
      },
      "tokenOfOwnerByIndex(address,uint256)": {
        "details": "See {IERC721Enumerable-tokenOfOwnerByIndex}."
      },
      "tokenURI(uint256)": {
        "details": "See {IERC721Metadata-tokenURI}."
      },
      "totalSupply()": {
        "details": "See {IERC721Enumerable-totalSupply}."
      },
      "transferFrom(address,address,uint256)": {
        "details": "See {IERC721-transferFrom}."
      },
      "transferOwnership(address)": {
        "details": "Transfers ownership of the contract to a new account (`newOwner`). Can only be called by the current owner."
      }
    },
    "version": 1
  },
  "userdoc": {
    "kind": "user",
    "methods": {},
    "version": 1
  }
}