{
  "contractName": "BattleShroomsGenOne",
  "abi": [
    {
      "anonymous": false,
      "inputs": [
        {
          "indexed": true,
          "internalType": "address",
          "name": "owner",
          "type": "address"
        },
        {
          "indexed": true,
          "internalType": "address",
          "name": "approved",
          "type": "address"
        },
        {
          "indexed": true,
          "internalType": "uint256",
          "name": "tokenId",
          "type": "uint256"
        }
      ],
      "name": "Approval",
      "type": "event"
    },
    {
      "anonymous": false,
      "inputs": [
        {
          "indexed": true,
          "internalType": "address",
          "name": "owner",
          "type": "address"
        },
        {
          "indexed": true,
          "internalType": "address",
          "name": "operator",
          "type": "address"
        },
        {
          "indexed": false,
          "internalType": "bool",
          "name": "approved",
          "type": "bool"
        }
      ],
      "name": "ApprovalForAll",
      "type": "event"
    },
    {
      "anonymous": false,
      "inputs": [
        {
          "indexed": true,
          "internalType": "address",
          "name": "previousOwner",
          "type": "address"
        },
        {
          "indexed": true,
          "internalType": "address",
          "name": "newOwner",
          "type": "address"
        }
      ],
      "name": "OwnershipTransferred",
      "type": "event"
    },
    {
      "anonymous": false,
      "inputs": [
        {
          "indexed": true,
          "internalType": "address",
          "name": "from",
          "type": "address"
        },
        {
          "indexed": true,
          "internalType": "address",
          "name": "to",
          "type": "address"
        },
        {
          "indexed": true,
          "internalType": "uint256",
          "name": "tokenId",
          "type": "uint256"
        }
      ],
      "name": "Transfer",
      "type": "event"
    },
    {
      "inputs": [
        {
          "internalType": "address",
          "name": "_newHolder",
          "type": "address"
        }
      ],
      "name": "addBotHolder",
      "outputs": [],
      "stateMutability": "nonpayable",
      "type": "function"
    },
    {
      "inputs": [
        {
          "internalType": "address[]",
          "name": "_newBotHolders",
          "type": "address[]"
        }
      ],
      "name": "addBotHolderMany",
      "outputs": [],
      "stateMutability": "nonpayable",
      "type": "function"
    },
    {
      "inputs": [
        {
          "internalType": "address",
          "name": "_wl",
          "type": "address"
        }
      ],
      "name": "addWL",
      "outputs": [],
      "stateMutability": "nonpayable",
      "type": "function"
    },
    {
      "inputs": [
        {
          "internalType": "address[]",
          "name": "_wls",
          "type": "address[]"
        }
      ],
      "name": "addWLMany",
      "outputs": [],
      "stateMutability": "nonpayable",
      "type": "function"
    },
    {
      "inputs": [
        {
          "internalType": "address",
          "name": "to",
          "type": "address"
        },
        {
          "internalType": "uint256",
          "name": "tokenId",
          "type": "uint256"
        }
      ],
      "name": "approve",
      "outputs": [],
      "stateMutability": "nonpayable",
      "type": "function"
    },
    {
      "inputs": [
        {
          "internalType": "address",
          "name": "_to",
          "type": "address"
        },
        {
          "internalType": "uint256",
          "name": "_amount",
          "type": "uint256"
        }
      ],
      "name": "giveAway",
      "outputs": [],
      "stateMutability": "nonpayable",
      "type": "function"
    },
    {
      "inputs": [
        {
          "internalType": "address[]",
          "name": "addresses",
          "type": "address[]"
        }
      ],
      "name": "giveAwayMany",
      "outputs": [],
      "stateMutability": "nonpayable",
      "type": "function"
    },
    {
      "inputs": [
        {
          "internalType": "address[]",
          "name": "addresses",
          "type": "address[]"
        }
      ],
      "name": "migrate",
      "outputs": [],
      "stateMutability": "nonpayable",
      "type": "function"
    },
    {
      "inputs": [],
      "name": "mintPresaleShroom",
      "outputs": [],
      "stateMutability": "payable",
      "type": "function"
    },
    {
      "inputs": [
        {
          "internalType": "uint256",
          "name": "num",
          "type": "uint256"
        }
      ],
      "name": "mintShroom",
      "outputs": [],
      "stateMutability": "payable",
      "type": "function"
    },
    {
      "inputs": [
        {
          "internalType": "bool",
          "name": "val",
          "type": "bool"
        }
      ],
      "name": "pause",
      "outputs": [],
      "stateMutability": "nonpayable",
      "type": "function"
    },
    {
      "inputs": [
        {
          "internalType": "bool",
          "name": "val",
          "type": "bool"
        }
      ],
      "name": "presalePause",
      "outputs": [],
      "stateMutability": "nonpayable",
      "type": "function"
    },
    {
      "inputs": [
        {
          "internalType": "address",
          "name": "_wl",
          "type": "address"
        }
      ],
      "name": "removeWL",
      "outputs": [],
      "stateMutability": "nonpayable",
      "type": "function"
    },
    {
      "inputs": [
        {
          "internalType": "address[]",
          "name": "_wls",
          "type": "address[]"
        }
      ],
      "name": "removeWLMany",
      "outputs": [],
      "stateMutability": "nonpayable",
      "type": "function"
    },
    {
      "inputs": [],
      "name": "renounceOwnership",
      "outputs": [],
      "stateMutability": "nonpayable",
      "type": "function"
    },
    {
      "inputs": [
        {
          "internalType": "address",
          "name": "from",
          "type": "address"
        },
        {
          "internalType": "address",
          "name": "to",
          "type": "address"
        },
        {
          "internalType": "uint256",
          "name": "tokenId",
          "type": "uint256"
        }
      ],
      "name": "safeTransferFrom",
      "outputs": [],
      "stateMutability": "nonpayable",
      "type": "function"
    },
    {
      "inputs": [
        {
          "internalType": "address",
          "name": "from",
          "type": "address"
        },
        {
          "internalType": "address",
          "name": "to",
          "type": "address"
        },
        {
          "internalType": "uint256",
          "name": "tokenId",
          "type": "uint256"
        },
        {
          "internalType": "bytes",
          "name": "_data",
          "type": "bytes"
        }
      ],
      "name": "safeTransferFrom",
      "outputs": [],
      "stateMutability": "nonpayable",
      "type": "function"
    },
    {
      "inputs": [
        {
          "internalType": "address",
          "name": "operator",
          "type": "address"
        },
        {
          "internalType": "bool",
          "name": "approved",
          "type": "bool"
        }
      ],
      "name": "setApprovalForAll",
      "outputs": [],
      "stateMutability": "nonpayable",
      "type": "function"
    },
    {
      "inputs": [
        {
          "internalType": "string",
          "name": "baseURI",
          "type": "string"
        }
      ],
      "name": "setBaseURI",
      "outputs": [],
      "stateMutability": "nonpayable",
      "type": "function"
    },
    {
      "inputs": [
        {
          "internalType": "uint256",
          "name": "_newDiscount",
          "type": "uint256"
        }
      ],
      "name": "setDiscount",
      "outputs": [],
      "stateMutability": "nonpayable",
      "type": "function"
    },
    {
      "inputs": [
        {
          "internalType": "uint256",
          "name": "_newReserved",
          "type": "uint256"
        }
      ],
      "name": "setGiftReserved",
      "outputs": [],
      "stateMutability": "nonpayable",
      "type": "function"
    },
    {
      "inputs": [
        {
          "internalType": "uint256",
          "name": "_newMaxPerTx",
          "type": "uint256"
        }
      ],
      "name": "setMaxPerTx",
      "outputs": [],
      "stateMutability": "nonpayable",
      "type": "function"
    },
    {
      "inputs": [
        {
          "internalType": "uint256",
          "name": "_newMax",
          "type": "uint256"
        }
      ],
      "name": "setMaxSupply",
      "outputs": [],
      "stateMutability": "nonpayable",
      "type": "function"
    },
    {
      "inputs": [
        {
          "internalType": "uint256",
          "name": "_newReserved",
          "type": "uint256"
        }
      ],
      "name": "setPresaleReserved",
      "outputs": [],
      "stateMutability": "nonpayable",
      "type": "function"
    },
    {
      "inputs": [
        {
          "internalType": "uint256",
          "name": "_newPrice",
          "type": "uint256"
        }
      ],
      "name": "setPrice",
      "outputs": [],
      "stateMutability": "nonpayable",
      "type": "function"
    },
    {
      "inputs": [
        {
          "internalType": "address",
          "name": "from",
          "type": "address"
        },
        {
          "internalType": "address",
          "name": "to",
          "type": "address"
        },
        {
          "internalType": "uint256",
          "name": "tokenId",
          "type": "uint256"
        }
      ],
      "name": "transferFrom",
      "outputs": [],
      "stateMutability": "nonpayable",
      "type": "function"
    },
    {
      "inputs": [
        {
          "internalType": "address",
          "name": "newOwner",
          "type": "address"
        }
      ],
      "name": "transferOwnership",
      "outputs": [],
      "stateMutability": "nonpayable",
      "type": "function"
    },
    {
      "inputs": [],
      "name": "withdrawAll",
      "outputs": [],
      "stateMutability": "payable",
      "type": "function"
    },
    {
      "inputs": [],
      "stateMutability": "nonpayable",
      "type": "constructor"
    },
    {
      "inputs": [
        {
          "internalType": "address",
          "name": "",
          "type": "address"
        }
      ],
      "name": "_botHolders",
      "outputs": [
        {
          "internalType": "bool",
          "name": "",
          "type": "bool"
        }
      ],
      "stateMutability": "view",
      "type": "function"
    },
    {
      "inputs": [],
      "name": "_paused",
      "outputs": [
        {
          "internalType": "bool",
          "name": "",
          "type": "bool"
        }
      ],
      "stateMutability": "view",
      "type": "function"
    },
    {
      "inputs": [],
      "name": "_presalePaused",
      "outputs": [
        {
          "internalType": "bool",
          "name": "",
          "type": "bool"
        }
      ],
      "stateMutability": "view",
      "type": "function"
    },
    {
      "inputs": [
        {
          "internalType": "address",
          "name": "",
          "type": "address"
        }
      ],
      "name": "_whiteListed",
      "outputs": [
        {
          "internalType": "bool",
          "name": "",
          "type": "bool"
        }
      ],
      "stateMutability": "view",
      "type": "function"
    },
    {
      "inputs": [
        {
          "internalType": "address",
          "name": "owner",
          "type": "address"
        }
      ],
      "name": "balanceOf",
      "outputs": [
        {
          "internalType": "uint256",
          "name": "",
          "type": "uint256"
        }
      ],
      "stateMutability": "view",
      "type": "function"
    },
    {
      "inputs": [
        {
          "internalType": "uint256",
          "name": "tokenId",
          "type": "uint256"
        }
      ],
      "name": "getApproved",
      "outputs": [
        {
          "internalType": "address",
          "name": "",
          "type": "address"
        }
      ],
      "stateMutability": "view",
      "type": "function"
    },
    {
      "inputs": [],
      "name": "getDiscount",
      "outputs": [
        {
          "internalType": "uint256",
          "name": "",
          "type": "uint256"
        }
      ],
      "stateMutability": "view",
      "type": "function"
    },
    {
      "inputs": [],
      "name": "getPrice",
      "outputs": [
        {
          "internalType": "uint256",
          "name": "",
          "type": "uint256"
        }
      ],
      "stateMutability": "view",
      "type": "function"
    },
    {
      "inputs": [
        {
          "internalType": "address",
          "name": "owner",
          "type": "address"
        },
        {
          "internalType": "address",
          "name": "operator",
          "type": "address"
        }
      ],
      "name": "isApprovedForAll",
      "outputs": [
        {
          "internalType": "bool",
          "name": "",
          "type": "bool"
        }
      ],
      "stateMutability": "view",
      "type": "function"
    },
    {
      "inputs": [],
      "name": "name",
      "outputs": [
        {
          "internalType": "string",
          "name": "",
          "type": "string"
        }
      ],
      "stateMutability": "view",
      "type": "function"
    },
    {
      "inputs": [
        {
          "internalType": "address",
          "name": "_owner",
          "type": "address"
        }
      ],
      "name": "oldWalletOfOwner",
      "outputs": [
        {
          "internalType": "uint256[]",
          "name": "",
          "type": "uint256[]"
        }
      ],
      "stateMutability": "view",
      "type": "function"
    },
    {
      "inputs": [],
      "name": "owner",
      "outputs": [
        {
          "internalType": "address",
          "name": "",
          "type": "address"
        }
      ],
      "stateMutability": "view",
      "type": "function"
    },
    {
      "inputs": [
        {
          "internalType": "uint256",
          "name": "tokenId",
          "type": "uint256"
        }
      ],
      "name": "ownerOf",
      "outputs": [
        {
          "internalType": "address",
          "name": "",
          "type": "address"
        }
      ],
      "stateMutability": "view",
      "type": "function"
    },
    {
      "inputs": [
        {
          "internalType": "bytes4",
          "name": "interfaceId",
          "type": "bytes4"
        }
      ],
      "name": "supportsInterface",
      "outputs": [
        {
          "internalType": "bool",
          "name": "",
          "type": "bool"
        }
      ],
      "stateMutability": "view",
      "type": "function"
    },
    {
      "inputs": [],
      "name": "symbol",
      "outputs": [
        {
          "internalType": "string",
          "name": "",
          "type": "string"
        }
      ],
      "stateMutability": "view",
      "type": "function"
    },
    {
      "inputs": [
        {
          "internalType": "uint256",
          "name": "index",
          "type": "uint256"
        }
      ],
      "name": "tokenByIndex",
      "outputs": [
        {
          "internalType": "uint256",
          "name": "",
          "type": "uint256"
        }
      ],
      "stateMutability": "view",
      "type": "function"
    },
    {
      "inputs": [
        {
          "internalType": "address",
          "name": "owner",
          "type": "address"
        },
        {
          "internalType": "uint256",
          "name": "index",
          "type": "uint256"
        }
      ],
      "name": "tokenOfOwnerByIndex",
      "outputs": [
        {
          "internalType": "uint256",
          "name": "",
          "type": "uint256"
        }
      ],
      "stateMutability": "view",
      "type": "function"
    },
    {
      "inputs": [
        {
          "internalType": "uint256",
          "name": "tokenId",
          "type": "uint256"
        }
      ],
      "name": "tokenURI",
      "outputs": [
        {
          "internalType": "string",
          "name": "",
          "type": "string"
        }
      ],
      "stateMutability": "view",
      "type": "function"
    },
    {
      "inputs": [],
      "name": "totalSupply",
      "outputs": [
        {
          "internalType": "uint256",
          "name": "",
          "type": "uint256"
        }
      ],
      "stateMutability": "view",
      "type": "function"
    },
    {
      "inputs": [
        {
          "internalType": "address",
          "name": "_owner",
          "type": "address"
        }
      ],
      "name": "walletOfOwner",
      "outputs": [
        {
          "internalType": "uint256[]",
          "name": "",
          "type": "uint256[]"
        }
      ],
      "stateMutability": "view",
      "type": "function"
    }
  ],
  "bytecode": "0x608060405261044c600c556064600d5568056bc75e2d63100000600e5568022b1c8c1227a00000600f55611388601055600a6011556001601260006101000a81548160ff0219169083151502179055506001601260016101000a81548160ff021916908315150217905550732746a61091e22b61882e8bf2f5f8db6f0444af7a601260026101000a81548173ffffffffffffffffffffffffffffffffffffffff021916908373ffffffffffffffffffffffffffffffffffffffff16021790555073f129f79c05f6ea516d01176a3983475100ca64c4601560006101000a81548173ffffffffffffffffffffffffffffffffffffffff021916908373ffffffffffffffffffffffffffffffffffffffff1602179055503480156200012157600080fd5b506040518060400160405280601681526020017f426174746c65205368726f6f6d732047656e204f6e65000000000000000000008152506040518060400160405280600581526020017f42534f4e450000000000000000000000000000000000000000000000000000008152508160009080519060200190620001a6929190620002b6565b508060019080519060200190620001bf929190620002b6565b505050620001e2620001d6620001e860201b60201c565b620001f060201b60201c565b620003cb565b600033905090565b6000600a60009054906101000a900473ffffffffffffffffffffffffffffffffffffffff16905081600a60006101000a81548173ffffffffffffffffffffffffffffffffffffffff021916908373ffffffffffffffffffffffffffffffffffffffff1602179055508173ffffffffffffffffffffffffffffffffffffffff168173ffffffffffffffffffffffffffffffffffffffff167f8be0079c531659141344cd1fd0a4f28419497f9722a3daafe3b4186f6b6457e060405160405180910390a35050565b828054620002c49062000395565b90600052602060002090601f016020900481019282620002e8576000855562000334565b82601f106200030357805160ff191683800117855562000334565b8280016001018555821562000334579182015b828111156200033357825182559160200191906001019062000316565b5b50905062000343919062000347565b5090565b5b808211156200036257600081600090555060010162000348565b5090565b7f4e487b7100000000000000000000000000000000000000000000000000000000600052602260045260246000fd5b60006002820490506001821680620003ae57607f821691505b60208210811415620003c557620003c462000366565b5b50919050565b6159a880620003db6000396000f3fe6080604052600436106102935760003560e01c8063715018a61161015a578063c6f6f216116100c1578063df8e201d1161007a578063df8e201d146109ee578063e69f804014610a17578063e985e9c514610a33578063f2fde38b14610a70578063fb8b0c0414610a99578063fd9d319f14610ac257610293565b8063c6f6f216146108e2578063c87b56dd1461090b578063ca80014414610948578063cd009e9014610971578063d137874b1461099a578063dabd2719146109c557610293565b806395d89b411161011357806395d89b41146107d457806398d5fdca146107ff578063a22cb4651461082a578063a79ee79a14610853578063b88d4fde1461087c578063c3959649146108a557610293565b8063715018a6146106f757806373088bb81461070e578063853828b614610739578063854c266c146107435780638da5cb5b1461078057806391b7f5ed146107ab57610293565b806323b872dd116101fe578063438b6300116101b7578063438b6300146105b15780634f6ccce7146105ee57806355f804b31461062b5780636352211e146106545780636f8b44b01461069157806370a08231146106ba57610293565b806323b872dd146104a75780632e558d69146104d05780632f745c59146104f9578063319d4bd514610536578063419889c31461055f57806342842e0e1461058857610293565b8063095ea7b311610250578063095ea7b3146103cc5780630b5524d4146103f55780630ce553811461041e578063125f48e41461042857806316c61ccc1461045157806318160ddd1461047c57610293565b80630103a1581461029857806301ffc9a7146102d557806302329a291461031257806306c40cd61461033b57806306fdde0314610364578063081812fc1461038f575b600080fd5b3480156102a457600080fd5b506102bf60048036038101906102ba9190613db1565b610aeb565b6040516102cc9190613df9565b60405180910390f35b3480156102e157600080fd5b506102fc60048036038101906102f79190613e6c565b610b0b565b6040516103099190613df9565b60405180910390f35b34801561031e57600080fd5b5061033960048036038101906103349190613ec5565b610b85565b005b34801561034757600080fd5b50610362600480360381019061035d919061404b565b610c1e565b005b34801561037057600080fd5b50610379610d48565b604051610386919061411c565b60405180910390f35b34801561039b57600080fd5b506103b660048036038101906103b19190614174565b610dda565b6040516103c391906141b0565b60405180910390f35b3480156103d857600080fd5b506103f360048036038101906103ee91906141cb565b610e5f565b005b34801561040157600080fd5b5061041c6004803603810190610417919061404b565b610f77565b005b610426611039565b005b34801561043457600080fd5b5061044f600480360381019061044a9190613db1565b611298565b005b34801561045d57600080fd5b5061046661136f565b6040516104739190613df9565b60405180910390f35b34801561048857600080fd5b50610491611382565b60405161049e919061421a565b60405180910390f35b3480156104b357600080fd5b506104ce60048036038101906104c99190614235565b61138f565b005b3480156104dc57600080fd5b506104f760048036038101906104f2919061404b565b6113ef565b005b34801561050557600080fd5b50610520600480360381019061051b91906141cb565b611506565b60405161052d919061421a565b60405180910390f35b34801561054257600080fd5b5061055d60048036038101906105589190613db1565b6115ab565b005b34801561056b57600080fd5b5061058660048036038101906105819190613db1565b611682565b005b34801561059457600080fd5b506105af60048036038101906105aa9190614235565b611759565b005b3480156105bd57600080fd5b506105d860048036038101906105d39190613db1565b611779565b6040516105e59190614346565b60405180910390f35b3480156105fa57600080fd5b5061061560048036038101906106109190614174565b611827565b604051610622919061421a565b60405180910390f35b34801561063757600080fd5b50610652600480360381019061064d919061441d565b611898565b005b34801561066057600080fd5b5061067b60048036038101906106769190614174565b61192e565b60405161068891906141b0565b60405180910390f35b34801561069d57600080fd5b506106b860048036038101906106b39190614174565b6119e0565b005b3480156106c657600080fd5b506106e160048036038101906106dc9190613db1565b611a66565b6040516106ee919061421a565b60405180910390f35b34801561070357600080fd5b5061070c611b1e565b005b34801561071a57600080fd5b50610723611ba6565b6040516107309190613df9565b60405180910390f35b610741611bb9565b005b34801561074f57600080fd5b5061076a60048036038101906107659190613db1565b611c9d565b6040516107779190614346565b60405180910390f35b34801561078c57600080fd5b50610795611e90565b6040516107a291906141b0565b60405180910390f35b3480156107b757600080fd5b506107d260048036038101906107cd9190614174565b611eba565b005b3480156107e057600080fd5b506107e9611f40565b6040516107f6919061411c565b60405180910390f35b34801561080b57600080fd5b50610814611fd2565b604051610821919061421a565b60405180910390f35b34801561083657600080fd5b50610851600480360381019061084c9190614466565b611fdc565b005b34801561085f57600080fd5b5061087a60048036038101906108759190614174565b61215d565b005b34801561088857600080fd5b506108a3600480360381019061089e9190614547565b6121e3565b005b3480156108b157600080fd5b506108cc60048036038101906108c79190613db1565b612245565b6040516108d99190613df9565b60405180910390f35b3480156108ee57600080fd5b5061090960048036038101906109049190614174565b612265565b005b34801561091757600080fd5b50610932600480360381019061092d9190614174565b6122eb565b60405161093f919061411c565b60405180910390f35b34801561095457600080fd5b5061096f600480360381019061096a91906141cb565b612392565b005b34801561097d57600080fd5b506109986004803603810190610993919061404b565b6124b1565b005b3480156109a657600080fd5b506109af6125cb565b6040516109bc919061421a565b60405180910390f35b3480156109d157600080fd5b506109ec60048036038101906109e79190614174565b6125d5565b005b3480156109fa57600080fd5b50610a156004803603810190610a109190614174565b61265b565b005b610a316004803603810190610a2c9190614174565b6126e1565b005b348015610a3f57600080fd5b50610a5a6004803603810190610a5591906145ca565b6128dd565b604051610a679190613df9565b60405180910390f35b348015610a7c57600080fd5b50610a976004803603810190610a929190613db1565b612971565b005b348015610aa557600080fd5b50610ac06004803603810190610abb9190613ec5565b612a69565b005b348015610ace57600080fd5b50610ae96004803603810190610ae4919061404b565b612b02565b005b60136020528060005260406000206000915054906101000a900460ff1681565b60007f780e9d63000000000000000000000000000000000000000000000000000000007bffffffffffffffffffffffffffffffffffffffffffffffffffffffff1916827bffffffffffffffffffffffffffffffffffffffffffffffffffffffff19161480610b7e5750610b7d82612bc4565b5b9050919050565b610b8d612ca6565b73ffffffffffffffffffffffffffffffffffffffff16610bab611e90565b73ffffffffffffffffffffffffffffffffffffffff1614610c01576040517f08c379a0000000000000000000000000000000000000000000000000000000008152600401610bf890614656565b60405180910390fd5b80601260006101000a81548160ff02191690831515021790555050565b610c26612ca6565b73ffffffffffffffffffffffffffffffffffffffff16610c44611e90565b73ffffffffffffffffffffffffffffffffffffffff1614610c9a576040517f08c379a0000000000000000000000000000000000000000000000000000000008152600401610c9190614656565b60405180910390fd5b600d5481511115610ce0576040517f08c379a0000000000000000000000000000000000000000000000000000000008152600401610cd7906146e8565b60405180910390fd5b60005b8151811015610d2a57610d17828281518110610d0257610d01614708565b5b6020026020010151610d12611382565b612cae565b8080610d2290614766565b915050610ce3565b508051600d6000828254610d3e91906147af565b9250508190555050565b606060008054610d5790614812565b80601f0160208091040260200160405190810160405280929190818152602001828054610d8390614812565b8015610dd05780601f10610da557610100808354040283529160200191610dd0565b820191906000526020600020905b815481529060010190602001808311610db357829003601f168201915b5050505050905090565b6000610de582612ccc565b610e24576040517f08c379a0000000000000000000000000000000000000000000000000000000008152600401610e1b906148b6565b60405180910390fd5b6004600083815260200190815260200160002060009054906101000a900473ffffffffffffffffffffffffffffffffffffffff169050919050565b6000610e6a8261192e565b90508073ffffffffffffffffffffffffffffffffffffffff168373ffffffffffffffffffffffffffffffffffffffff161415610edb576040517f08c379a0000000000000000000000000000000000000000000000000000000008152600401610ed290614948565b60405180910390fd5b8073ffffffffffffffffffffffffffffffffffffffff16610efa612ca6565b73ffffffffffffffffffffffffffffffffffffffff161480610f295750610f2881610f23612ca6565b6128dd565b5b610f68576040517f08c379a0000000000000000000000000000000000000000000000000000000008152600401610f5f906149da565b60405180910390fd5b610f728383612d38565b505050565b610f7f612ca6565b73ffffffffffffffffffffffffffffffffffffffff16610f9d611e90565b73ffffffffffffffffffffffffffffffffffffffff1614610ff3576040517f08c379a0000000000000000000000000000000000000000000000000000000008152600401610fea90614656565b60405180910390fd5b60005b81518110156110355761102282828151811061101557611014614708565b5b60200260200101516115ab565b808061102d90614766565b915050610ff6565b5050565b6000611043611382565b9050600061105033611a66565b90506000600e549050601460003373ffffffffffffffffffffffffffffffffffffffff1673ffffffffffffffffffffffffffffffffffffffff16815260200190815260200160002060009054906101000a900460ff16156110bc57600f54816110b991906147af565b90505b601260019054906101000a900460ff161561110c576040517f08c379a000000000000000000000000000000000000000000000000000000000815260040161110390614a46565b60405180910390fd5b600c5460018461111c9190614a66565b111561115d576040517f08c379a000000000000000000000000000000000000000000000000000000000815260040161115490614b2e565b60405180910390fd5b600082146111a0576040517f08c379a000000000000000000000000000000000000000000000000000000000815260040161119790614b9a565b60405180910390fd5b601360003373ffffffffffffffffffffffffffffffffffffffff1673ffffffffffffffffffffffffffffffffffffffff16815260200190815260200160002060009054906101000a900460ff1661122c576040517f08c379a000000000000000000000000000000000000000000000000000000000815260040161122390614c06565b60405180910390fd5b8034101561126f576040517f08c379a000000000000000000000000000000000000000000000000000000000815260040161126690614c72565b60405180910390fd5b6112793384612cae565b6001600c600082825461128c91906147af565b92505081905550505050565b6112a0612ca6565b73ffffffffffffffffffffffffffffffffffffffff166112be611e90565b73ffffffffffffffffffffffffffffffffffffffff1614611314576040517f08c379a000000000000000000000000000000000000000000000000000000000815260040161130b90614656565b60405180910390fd5b6001601360008373ffffffffffffffffffffffffffffffffffffffff1673ffffffffffffffffffffffffffffffffffffffff16815260200190815260200160002060006101000a81548160ff02191690831515021790555050565b601260009054906101000a900460ff1681565b6000600880549050905090565b6113a061139a612ca6565b82612df1565b6113df576040517f08c379a00000000000000000000000000000000000000000000000000000000081526004016113d690614d04565b60405180910390fd5b6113ea838383612ecf565b505050565b6113f7612ca6565b73ffffffffffffffffffffffffffffffffffffffff16611415611e90565b73ffffffffffffffffffffffffffffffffffffffff161461146b576040517f08c379a000000000000000000000000000000000000000000000000000000000815260040161146290614656565b60405180910390fd5b60005b815181101561150257600061149c83838151811061148f5761148e614708565b5b6020026020010151611c9d565b905060005b81518110156114ed576114e88484815181106114c0576114bf614708565b5b60200260200101518383815181106114db576114da614708565b5b6020026020010151612cae565b6114a1565b505080806114fa90614766565b91505061146e565b5050565b600061151183611a66565b8210611552576040517f08c379a000000000000000000000000000000000000000000000000000000000815260040161154990614d96565b60405180910390fd5b600660008473ffffffffffffffffffffffffffffffffffffffff1673ffffffffffffffffffffffffffffffffffffffff168152602001908152602001600020600083815260200190815260200160002054905092915050565b6115b3612ca6565b73ffffffffffffffffffffffffffffffffffffffff166115d1611e90565b73ffffffffffffffffffffffffffffffffffffffff1614611627576040517f08c379a000000000000000000000000000000000000000000000000000000000815260040161161e90614656565b60405180910390fd5b6001601460008373ffffffffffffffffffffffffffffffffffffffff1673ffffffffffffffffffffffffffffffffffffffff16815260200190815260200160002060006101000a81548160ff02191690831515021790555050565b61168a612ca6565b73ffffffffffffffffffffffffffffffffffffffff166116a8611e90565b73ffffffffffffffffffffffffffffffffffffffff16146116fe576040517f08c379a00000000000000000000000000000000000000000000000000000000081526004016116f590614656565b60405180910390fd5b6000601360008373ffffffffffffffffffffffffffffffffffffffff1673ffffffffffffffffffffffffffffffffffffffff16815260200190815260200160002060006101000a81548160ff02191690831515021790555050565b611774838383604051806020016040528060008152506121e3565b505050565b6060600061178683611a66565b905060008167ffffffffffffffff8111156117a4576117a3613f08565b5b6040519080825280602002602001820160405280156117d25781602001602082028036833780820191505090505b50905060005b8281101561181c576117ea8582611506565b8282815181106117fd576117fc614708565b5b602002602001018181525050808061181490614766565b9150506117d8565b508092505050919050565b6000611831611382565b8210611872576040517f08c379a000000000000000000000000000000000000000000000000000000000815260040161186990614e28565b60405180910390fd5b6008828154811061188657611885614708565b5b90600052602060002001549050919050565b6118a0612ca6565b73ffffffffffffffffffffffffffffffffffffffff166118be611e90565b73ffffffffffffffffffffffffffffffffffffffff1614611914576040517f08c379a000000000000000000000000000000000000000000000000000000000815260040161190b90614656565b60405180910390fd5b80600b908051906020019061192a929190613c9c565b5050565b6000806002600084815260200190815260200160002060009054906101000a900473ffffffffffffffffffffffffffffffffffffffff169050600073ffffffffffffffffffffffffffffffffffffffff168173ffffffffffffffffffffffffffffffffffffffff1614156119d7576040517f08c379a00000000000000000000000000000000000000000000000000000000081526004016119ce90614eba565b60405180910390fd5b80915050919050565b6119e8612ca6565b73ffffffffffffffffffffffffffffffffffffffff16611a06611e90565b73ffffffffffffffffffffffffffffffffffffffff1614611a5c576040517f08c379a0000000000000000000000000000000000000000000000000000000008152600401611a5390614656565b60405180910390fd5b8060108190555050565b60008073ffffffffffffffffffffffffffffffffffffffff168273ffffffffffffffffffffffffffffffffffffffff161415611ad7576040517f08c379a0000000000000000000000000000000000000000000000000000000008152600401611ace90614f4c565b60405180910390fd5b600360008373ffffffffffffffffffffffffffffffffffffffff1673ffffffffffffffffffffffffffffffffffffffff168152602001908152602001600020549050919050565b611b26612ca6565b73ffffffffffffffffffffffffffffffffffffffff16611b44611e90565b73ffffffffffffffffffffffffffffffffffffffff1614611b9a576040517f08c379a0000000000000000000000000000000000000000000000000000000008152600401611b9190614656565b60405180910390fd5b611ba4600061312b565b565b601260019054906101000a900460ff1681565b611bc1612ca6565b73ffffffffffffffffffffffffffffffffffffffff16611bdf611e90565b73ffffffffffffffffffffffffffffffffffffffff1614611c35576040517f08c379a0000000000000000000000000000000000000000000000000000000008152600401611c2c90614656565b60405180910390fd5b6000479050601560009054906101000a900473ffffffffffffffffffffffffffffffffffffffff1673ffffffffffffffffffffffffffffffffffffffff166108fc829081150290604051600060405180830381858888f19350505050611c9a57600080fd5b50565b60606000601260029054906101000a900473ffffffffffffffffffffffffffffffffffffffff1673ffffffffffffffffffffffffffffffffffffffff166370a08231846040518263ffffffff1660e01b8152600401611cfc91906141b0565b60206040518083038186803b158015611d1457600080fd5b505afa158015611d28573d6000803e3d6000fd5b505050506040513d601f19601f82011682018060405250810190611d4c9190614f81565b905060008167ffffffffffffffff811115611d6a57611d69613f08565b5b604051908082528060200260200182016040528015611d985781602001602082028036833780820191505090505b50905060005b82811015611e8557601260029054906101000a900473ffffffffffffffffffffffffffffffffffffffff1673ffffffffffffffffffffffffffffffffffffffff16632f745c5986836040518363ffffffff1660e01b8152600401611e03929190614fae565b60206040518083038186803b158015611e1b57600080fd5b505afa158015611e2f573d6000803e3d6000fd5b505050506040513d601f19601f82011682018060405250810190611e539190614f81565b828281518110611e6657611e65614708565b5b6020026020010181815250508080611e7d90614766565b915050611d9e565b508092505050919050565b6000600a60009054906101000a900473ffffffffffffffffffffffffffffffffffffffff16905090565b611ec2612ca6565b73ffffffffffffffffffffffffffffffffffffffff16611ee0611e90565b73ffffffffffffffffffffffffffffffffffffffff1614611f36576040517f08c379a0000000000000000000000000000000000000000000000000000000008152600401611f2d90614656565b60405180910390fd5b80600e8190555050565b606060018054611f4f90614812565b80601f0160208091040260200160405190810160405280929190818152602001828054611f7b90614812565b8015611fc85780601f10611f9d57610100808354040283529160200191611fc8565b820191906000526020600020905b815481529060010190602001808311611fab57829003601f168201915b5050505050905090565b6000600e54905090565b611fe4612ca6565b73ffffffffffffffffffffffffffffffffffffffff168273ffffffffffffffffffffffffffffffffffffffff161415612052576040517f08c379a000000000000000000000000000000000000000000000000000000000815260040161204990615023565b60405180910390fd5b806005600061205f612ca6565b73ffffffffffffffffffffffffffffffffffffffff1673ffffffffffffffffffffffffffffffffffffffff16815260200190815260200160002060008473ffffffffffffffffffffffffffffffffffffffff1673ffffffffffffffffffffffffffffffffffffffff16815260200190815260200160002060006101000a81548160ff0219169083151502179055508173ffffffffffffffffffffffffffffffffffffffff1661210c612ca6565b73ffffffffffffffffffffffffffffffffffffffff167f17307eab39ab6107e8899845ad3d59bd9653f200f220920489ca2b5937696c31836040516121519190613df9565b60405180910390a35050565b612165612ca6565b73ffffffffffffffffffffffffffffffffffffffff16612183611e90565b73ffffffffffffffffffffffffffffffffffffffff16146121d9576040517f08c379a00000000000000000000000000000000000000000000000000000000081526004016121d090614656565b60405180910390fd5b80600c8190555050565b6121f46121ee612ca6565b83612df1565b612233576040517f08c379a000000000000000000000000000000000000000000000000000000000815260040161222a90614d04565b60405180910390fd5b61223f848484846131f1565b50505050565b60146020528060005260406000206000915054906101000a900460ff1681565b61226d612ca6565b73ffffffffffffffffffffffffffffffffffffffff1661228b611e90565b73ffffffffffffffffffffffffffffffffffffffff16146122e1576040517f08c379a00000000000000000000000000000000000000000000000000000000081526004016122d890614656565b60405180910390fd5b8060118190555050565b60606122f682612ccc565b612335576040517f08c379a000000000000000000000000000000000000000000000000000000000815260040161232c906150b5565b60405180910390fd5b600061233f61324d565b9050600081511161235f576040518060200160405280600081525061238a565b80612369846132df565b60405160200161237a929190615111565b6040516020818303038152906040525b915050919050565b61239a612ca6565b73ffffffffffffffffffffffffffffffffffffffff166123b8611e90565b73ffffffffffffffffffffffffffffffffffffffff161461240e576040517f08c379a000000000000000000000000000000000000000000000000000000000815260040161240590614656565b60405180910390fd5b600d54811115612453576040517f08c379a000000000000000000000000000000000000000000000000000000000815260040161244a906151a7565b60405180910390fd5b600061245d611382565b905060005b828110156124925761247f84828461247a9190614a66565b612cae565b808061248a90614766565b915050612462565b5081600d60008282546124a591906147af565b92505081905550505050565b6124b9612ca6565b73ffffffffffffffffffffffffffffffffffffffff166124d7611e90565b73ffffffffffffffffffffffffffffffffffffffff161461252d576040517f08c379a000000000000000000000000000000000000000000000000000000000815260040161252490614656565b60405180910390fd5b600c54815161253a611382565b6125449190614a66565b1115612585576040517f08c379a000000000000000000000000000000000000000000000000000000000815260040161257c90615239565b60405180910390fd5b60005b81518110156125c7576125b48282815181106125a7576125a6614708565b5b6020026020010151611298565b80806125bf90614766565b915050612588565b5050565b6000600f54905090565b6125dd612ca6565b73ffffffffffffffffffffffffffffffffffffffff166125fb611e90565b73ffffffffffffffffffffffffffffffffffffffff1614612651576040517f08c379a000000000000000000000000000000000000000000000000000000000815260040161264890614656565b60405180910390fd5b80600f8190555050565b612663612ca6565b73ffffffffffffffffffffffffffffffffffffffff16612681611e90565b73ffffffffffffffffffffffffffffffffffffffff16146126d7576040517f08c379a00000000000000000000000000000000000000000000000000000000081526004016126ce90614656565b60405180910390fd5b80600d8190555050565b60006126eb611382565b90506000600e549050601460003373ffffffffffffffffffffffffffffffffffffffff1673ffffffffffffffffffffffffffffffffffffffff16815260200190815260200160002060009054906101000a900460ff161561275757600f548161275491906147af565b90505b601260009054906101000a900460ff16156127a7576040517f08c379a000000000000000000000000000000000000000000000000000000000815260040161279e906152a5565b60405180910390fd5b6011548311156127ec576040517f08c379a00000000000000000000000000000000000000000000000000000000081526004016127e390615337565b60405180910390fd5b600c54600d546010546127ff91906147af565b61280991906147af565b83836128159190614a66565b1115612856576040517f08c379a000000000000000000000000000000000000000000000000000000000815260040161284d906153a3565b60405180910390fd5b828161286291906153c3565b3410156128a4576040517f08c379a000000000000000000000000000000000000000000000000000000000815260040161289b90614c72565b60405180910390fd5b60005b838110156128d7576128c43382856128bf9190614a66565b612cae565b80806128cf90614766565b9150506128a7565b50505050565b6000600560008473ffffffffffffffffffffffffffffffffffffffff1673ffffffffffffffffffffffffffffffffffffffff16815260200190815260200160002060008373ffffffffffffffffffffffffffffffffffffffff1673ffffffffffffffffffffffffffffffffffffffff16815260200190815260200160002060009054906101000a900460ff16905092915050565b612979612ca6565b73ffffffffffffffffffffffffffffffffffffffff16612997611e90565b73ffffffffffffffffffffffffffffffffffffffff16146129ed576040517f08c379a00000000000000000000000000000000000000000000000000000000081526004016129e490614656565b60405180910390fd5b600073ffffffffffffffffffffffffffffffffffffffff168173ffffffffffffffffffffffffffffffffffffffff161415612a5d576040517f08c379a0000000000000000000000000000000000000000000000000000000008152600401612a549061548f565b60405180910390fd5b612a668161312b565b50565b612a71612ca6565b73ffffffffffffffffffffffffffffffffffffffff16612a8f611e90565b73ffffffffffffffffffffffffffffffffffffffff1614612ae5576040517f08c379a0000000000000000000000000000000000000000000000000000000008152600401612adc90614656565b60405180910390fd5b80601260016101000a81548160ff02191690831515021790555050565b612b0a612ca6565b73ffffffffffffffffffffffffffffffffffffffff16612b28611e90565b73ffffffffffffffffffffffffffffffffffffffff1614612b7e576040517f08c379a0000000000000000000000000000000000000000000000000000000008152600401612b7590614656565b60405180910390fd5b60005b8151811015612bc057612bad828281518110612ba057612b9f614708565b5b6020026020010151611682565b8080612bb890614766565b915050612b81565b5050565b60007f80ac58cd000000000000000000000000000000000000000000000000000000007bffffffffffffffffffffffffffffffffffffffffffffffffffffffff1916827bffffffffffffffffffffffffffffffffffffffffffffffffffffffff19161480612c8f57507f5b5e139f000000000000000000000000000000000000000000000000000000007bffffffffffffffffffffffffffffffffffffffffffffffffffffffff1916827bffffffffffffffffffffffffffffffffffffffffffffffffffffffff1916145b80612c9f5750612c9e82613440565b5b9050919050565b600033905090565b612cc88282604051806020016040528060008152506134aa565b5050565b60008073ffffffffffffffffffffffffffffffffffffffff166002600084815260200190815260200160002060009054906101000a900473ffffffffffffffffffffffffffffffffffffffff1673ffffffffffffffffffffffffffffffffffffffff1614159050919050565b816004600083815260200190815260200160002060006101000a81548173ffffffffffffffffffffffffffffffffffffffff021916908373ffffffffffffffffffffffffffffffffffffffff160217905550808273ffffffffffffffffffffffffffffffffffffffff16612dab8361192e565b73ffffffffffffffffffffffffffffffffffffffff167f8c5be1e5ebec7d5bd14f71427d1e84f3dd0314c0f7b2291e5b200ac8c7c3b92560405160405180910390a45050565b6000612dfc82612ccc565b612e3b576040517f08c379a0000000000000000000000000000000000000000000000000000000008152600401612e3290615521565b60405180910390fd5b6000612e468361192e565b90508073ffffffffffffffffffffffffffffffffffffffff168473ffffffffffffffffffffffffffffffffffffffff161480612eb557508373ffffffffffffffffffffffffffffffffffffffff16612e9d84610dda565b73ffffffffffffffffffffffffffffffffffffffff16145b80612ec65750612ec581856128dd565b5b91505092915050565b8273ffffffffffffffffffffffffffffffffffffffff16612eef8261192e565b73ffffffffffffffffffffffffffffffffffffffff1614612f45576040517f08c379a0000000000000000000000000000000000000000000000000000000008152600401612f3c906155b3565b60405180910390fd5b600073ffffffffffffffffffffffffffffffffffffffff168273ffffffffffffffffffffffffffffffffffffffff161415612fb5576040517f08c379a0000000000000000000000000000000000000000000000000000000008152600401612fac90615645565b60405180910390fd5b612fc0838383613505565b612fcb600082612d38565b6001600360008573ffffffffffffffffffffffffffffffffffffffff1673ffffffffffffffffffffffffffffffffffffffff168152602001908152602001600020600082825461301b91906147af565b925050819055506001600360008473ffffffffffffffffffffffffffffffffffffffff1673ffffffffffffffffffffffffffffffffffffffff16815260200190815260200160002060008282546130729190614a66565b92505081905550816002600083815260200190815260200160002060006101000a81548173ffffffffffffffffffffffffffffffffffffffff021916908373ffffffffffffffffffffffffffffffffffffffff160217905550808273ffffffffffffffffffffffffffffffffffffffff168473ffffffffffffffffffffffffffffffffffffffff167fddf252ad1be2c89b69c2b068fc378daa952ba7f163c4a11628f55a4df523b3ef60405160405180910390a4505050565b6000600a60009054906101000a900473ffffffffffffffffffffffffffffffffffffffff16905081600a60006101000a81548173ffffffffffffffffffffffffffffffffffffffff021916908373ffffffffffffffffffffffffffffffffffffffff1602179055508173ffffffffffffffffffffffffffffffffffffffff168173ffffffffffffffffffffffffffffffffffffffff167f8be0079c531659141344cd1fd0a4f28419497f9722a3daafe3b4186f6b6457e060405160405180910390a35050565b6131fc848484612ecf565b61320884848484613619565b613247576040517f08c379a000000000000000000000000000000000000000000000000000000000815260040161323e906156d7565b60405180910390fd5b50505050565b6060600b805461325c90614812565b80601f016020809104026020016040519081016040528092919081815260200182805461328890614812565b80156132d55780601f106132aa576101008083540402835291602001916132d5565b820191906000526020600020905b8154815290600101906020018083116132b857829003601f168201915b5050505050905090565b60606000821415613327576040518060400160405280600181526020017f3000000000000000000000000000000000000000000000000000000000000000815250905061343b565b600082905060005b6000821461335957808061334290614766565b915050600a826133529190615726565b915061332f565b60008167ffffffffffffffff81111561337557613374613f08565b5b6040519080825280601f01601f1916602001820160405280156133a75781602001600182028036833780820191505090505b5090505b60008514613434576001826133c091906147af565b9150600a856133cf9190615757565b60306133db9190614a66565b60f81b8183815181106133f1576133f0614708565b5b60200101907effffffffffffffffffffffffffffffffffffffffffffffffffffffffffffff1916908160001a905350600a8561342d9190615726565b94506133ab565b8093505050505b919050565b60007f01ffc9a7000000000000000000000000000000000000000000000000000000007bffffffffffffffffffffffffffffffffffffffffffffffffffffffff1916827bffffffffffffffffffffffffffffffffffffffffffffffffffffffff1916149050919050565b6134b483836137b0565b6134c16000848484613619565b613500576040517f08c379a00000000000000000000000000000000000000000000000000000000081526004016134f7906156d7565b60405180910390fd5b505050565b61351083838361397e565b600073ffffffffffffffffffffffffffffffffffffffff168373ffffffffffffffffffffffffffffffffffffffff1614156135535761354e81613983565b613592565b8173ffffffffffffffffffffffffffffffffffffffff168373ffffffffffffffffffffffffffffffffffffffff16146135915761359083826139cc565b5b5b600073ffffffffffffffffffffffffffffffffffffffff168273ffffffffffffffffffffffffffffffffffffffff1614156135d5576135d081613b39565b613614565b8273ffffffffffffffffffffffffffffffffffffffff168273ffffffffffffffffffffffffffffffffffffffff1614613613576136128282613c0a565b5b5b505050565b600061363a8473ffffffffffffffffffffffffffffffffffffffff16613c89565b156137a3578373ffffffffffffffffffffffffffffffffffffffff1663150b7a02613663612ca6565b8786866040518563ffffffff1660e01b815260040161368594939291906157dd565b602060405180830381600087803b15801561369f57600080fd5b505af19250505080156136d057506040513d601f19601f820116820180604052508101906136cd919061583e565b60015b613753573d8060008114613700576040519150601f19603f3d011682016040523d82523d6000602084013e613705565b606091505b5060008151141561374b576040517f08c379a0000000000000000000000000000000000000000000000000000000008152600401613742906156d7565b60405180910390fd5b805181602001fd5b63150b7a0260e01b7bffffffffffffffffffffffffffffffffffffffffffffffffffffffff1916817bffffffffffffffffffffffffffffffffffffffffffffffffffffffff1916149150506137a8565b600190505b949350505050565b600073ffffffffffffffffffffffffffffffffffffffff168273ffffffffffffffffffffffffffffffffffffffff161415613820576040517f08c379a0000000000000000000000000000000000000000000000000000000008152600401613817906158b7565b60405180910390fd5b61382981612ccc565b15613869576040517f08c379a000000000000000000000000000000000000000000000000000000000815260040161386090615923565b60405180910390fd5b61387560008383613505565b6001600360008473ffffffffffffffffffffffffffffffffffffffff1673ffffffffffffffffffffffffffffffffffffffff16815260200190815260200160002060008282546138c59190614a66565b92505081905550816002600083815260200190815260200160002060006101000a81548173ffffffffffffffffffffffffffffffffffffffff021916908373ffffffffffffffffffffffffffffffffffffffff160217905550808273ffffffffffffffffffffffffffffffffffffffff16600073ffffffffffffffffffffffffffffffffffffffff167fddf252ad1be2c89b69c2b068fc378daa952ba7f163c4a11628f55a4df523b3ef60405160405180910390a45050565b505050565b6008805490506009600083815260200190815260200160002081905550600881908060018154018082558091505060019003906000526020600020016000909190919091505550565b600060016139d984611a66565b6139e391906147af565b9050600060076000848152602001908152602001600020549050818114613ac8576000600660008673ffffffffffffffffffffffffffffffffffffffff1673ffffffffffffffffffffffffffffffffffffffff168152602001908152602001600020600084815260200190815260200160002054905080600660008773ffffffffffffffffffffffffffffffffffffffff1673ffffffffffffffffffffffffffffffffffffffff168152602001908152602001600020600084815260200190815260200160002081905550816007600083815260200190815260200160002081905550505b6007600084815260200190815260200160002060009055600660008573ffffffffffffffffffffffffffffffffffffffff1673ffffffffffffffffffffffffffffffffffffffff16815260200190815260200160002060008381526020019081526020016000206000905550505050565b60006001600880549050613b4d91906147af565b9050600060096000848152602001908152602001600020549050600060088381548110613b7d57613b7c614708565b5b906000526020600020015490508060088381548110613b9f57613b9e614708565b5b906000526020600020018190555081600960008381526020019081526020016000208190555060096000858152602001908152602001600020600090556008805480613bee57613bed615943565b5b6001900381819060005260206000200160009055905550505050565b6000613c1583611a66565b905081600660008573ffffffffffffffffffffffffffffffffffffffff1673ffffffffffffffffffffffffffffffffffffffff168152602001908152602001600020600083815260200190815260200160002081905550806007600084815260200190815260200160002081905550505050565b600080823b905060008111915050919050565b828054613ca890614812565b90600052602060002090601f016020900481019282613cca5760008555613d11565b82601f10613ce357805160ff1916838001178555613d11565b82800160010185558215613d11579182015b82811115613d10578251825591602001919060010190613cf5565b5b509050613d1e9190613d22565b5090565b5b80821115613d3b576000816000905550600101613d23565b5090565b6000604051905090565b600080fd5b600080fd5b600073ffffffffffffffffffffffffffffffffffffffff82169050919050565b6000613d7e82613d53565b9050919050565b613d8e81613d73565b8114613d9957600080fd5b50565b600081359050613dab81613d85565b92915050565b600060208284031215613dc757613dc6613d49565b5b6000613dd584828501613d9c565b91505092915050565b60008115159050919050565b613df381613dde565b82525050565b6000602082019050613e0e6000830184613dea565b92915050565b60007fffffffff0000000000000000000000000000000000000000000000000000000082169050919050565b613e4981613e14565b8114613e5457600080fd5b50565b600081359050613e6681613e40565b92915050565b600060208284031215613e8257613e81613d49565b5b6000613e9084828501613e57565b91505092915050565b613ea281613dde565b8114613ead57600080fd5b50565b600081359050613ebf81613e99565b92915050565b600060208284031215613edb57613eda613d49565b5b6000613ee984828501613eb0565b91505092915050565b600080fd5b6000601f19601f8301169050919050565b7f4e487b7100000000000000000000000000000000000000000000000000000000600052604160045260246000fd5b613f4082613ef7565b810181811067ffffffffffffffff82111715613f5f57613f5e613f08565b5b80604052505050565b6000613f72613d3f565b9050613f7e8282613f37565b919050565b600067ffffffffffffffff821115613f9e57613f9d613f08565b5b602082029050602081019050919050565b600080fd5b6000613fc7613fc284613f83565b613f68565b90508083825260208201905060208402830185811115613fea57613fe9613faf565b5b835b818110156140135780613fff8882613d9c565b845260208401935050602081019050613fec565b5050509392505050565b600082601f83011261403257614031613ef2565b5b8135614042848260208601613fb4565b91505092915050565b60006020828403121561406157614060613d49565b5b600082013567ffffffffffffffff81111561407f5761407e613d4e565b5b61408b8482850161401d565b91505092915050565b600081519050919050565b600082825260208201905092915050565b60005b838110156140ce5780820151818401526020810190506140b3565b838111156140dd576000848401525b50505050565b60006140ee82614094565b6140f8818561409f565b93506141088185602086016140b0565b61411181613ef7565b840191505092915050565b6000602082019050818103600083015261413681846140e3565b905092915050565b6000819050919050565b6141518161413e565b811461415c57600080fd5b50565b60008135905061416e81614148565b92915050565b60006020828403121561418a57614189613d49565b5b60006141988482850161415f565b91505092915050565b6141aa81613d73565b82525050565b60006020820190506141c560008301846141a1565b92915050565b600080604083850312156141e2576141e1613d49565b5b60006141f085828601613d9c565b92505060206142018582860161415f565b9150509250929050565b6142148161413e565b82525050565b600060208201905061422f600083018461420b565b92915050565b60008060006060848603121561424e5761424d613d49565b5b600061425c86828701613d9c565b935050602061426d86828701613d9c565b925050604061427e8682870161415f565b9150509250925092565b600081519050919050565b600082825260208201905092915050565b6000819050602082019050919050565b6142bd8161413e565b82525050565b60006142cf83836142b4565b60208301905092915050565b6000602082019050919050565b60006142f382614288565b6142fd8185614293565b9350614308836142a4565b8060005b8381101561433957815161432088826142c3565b975061432b836142db565b92505060018101905061430c565b5085935050505092915050565b6000602082019050818103600083015261436081846142e8565b905092915050565b600080fd5b600067ffffffffffffffff82111561438857614387613f08565b5b61439182613ef7565b9050602081019050919050565b82818337600083830152505050565b60006143c06143bb8461436d565b613f68565b9050828152602081018484840111156143dc576143db614368565b5b6143e784828561439e565b509392505050565b600082601f83011261440457614403613ef2565b5b81356144148482602086016143ad565b91505092915050565b60006020828403121561443357614432613d49565b5b600082013567ffffffffffffffff81111561445157614450613d4e565b5b61445d848285016143ef565b91505092915050565b6000806040838503121561447d5761447c613d49565b5b600061448b85828601613d9c565b925050602061449c85828601613eb0565b9150509250929050565b600067ffffffffffffffff8211156144c1576144c0613f08565b5b6144ca82613ef7565b9050602081019050919050565b60006144ea6144e5846144a6565b613f68565b90508281526020810184848401111561450657614505614368565b5b61451184828561439e565b509392505050565b600082601f83011261452e5761452d613ef2565b5b813561453e8482602086016144d7565b91505092915050565b6000806000806080858703121561456157614560613d49565b5b600061456f87828801613d9c565b945050602061458087828801613d9c565b93505060406145918782880161415f565b925050606085013567ffffffffffffffff8111156145b2576145b1613d4e565b5b6145be87828801614519565b91505092959194509250565b600080604083850312156145e1576145e0613d49565b5b60006145ef85828601613d9c565b925050602061460085828601613d9c565b9150509250929050565b7f4f776e61626c653a2063616c6c6572206973206e6f7420746865206f776e6572600082015250565b600061464060208361409f565b915061464b8261460a565b602082019050919050565b6000602082019050818103600083015261466f81614633565b9050919050565b7f45786365656473207265736572766564206769667420426f747320737570706c60008201527f7900000000000000000000000000000000000000000000000000000000000000602082015250565b60006146d260218361409f565b91506146dd82614676565b604082019050919050565b60006020820190508181036000830152614701816146c5565b9050919050565b7f4e487b7100000000000000000000000000000000000000000000000000000000600052603260045260246000fd5b7f4e487b7100000000000000000000000000000000000000000000000000000000600052601160045260246000fd5b60006147718261413e565b91507fffffffffffffffffffffffffffffffffffffffffffffffffffffffffffffffff8214156147a4576147a3614737565b5b600182019050919050565b60006147ba8261413e565b91506147c58361413e565b9250828210156147d8576147d7614737565b5b828203905092915050565b7f4e487b7100000000000000000000000000000000000000000000000000000000600052602260045260246000fd5b6000600282049050600182168061482a57607f821691505b6020821081141561483e5761483d6147e3565b5b50919050565b7f4552433732313a20617070726f76656420717565727920666f72206e6f6e657860008201527f697374656e7420746f6b656e0000000000000000000000000000000000000000602082015250565b60006148a0602c8361409f565b91506148ab82614844565b604082019050919050565b600060208201905081810360008301526148cf81614893565b9050919050565b7f4552433732313a20617070726f76616c20746f2063757272656e74206f776e6560008201527f7200000000000000000000000000000000000000000000000000000000000000602082015250565b600061493260218361409f565b915061493d826148d6565b604082019050919050565b6000602082019050818103600083015261496181614925565b9050919050565b7f4552433732313a20617070726f76652063616c6c6572206973206e6f74206f7760008201527f6e6572206e6f7220617070726f76656420666f7220616c6c0000000000000000602082015250565b60006149c460388361409f565b91506149cf82614968565b604082019050919050565b600060208201905081810360008301526149f3816149b7565b9050919050565b7f50726573616c6520706175736564000000000000000000000000000000000000600082015250565b6000614a30600e8361409f565b9150614a3b826149fa565b602082019050919050565b60006020820190508181036000830152614a5f81614a23565b9050919050565b6000614a718261413e565b9150614a7c8361413e565b9250827fffffffffffffffffffffffffffffffffffffffffffffffffffffffffffffffff03821115614ab157614ab0614737565b5b828201905092915050565b7f45786365656473206d6178696d756d205368726f6f6d732070726573616c652060008201527f726573657276656420737570706c790000000000000000000000000000000000602082015250565b6000614b18602f8361409f565b9150614b2382614abc565b604082019050919050565b60006020820190508181036000830152614b4781614b0b565b9050919050565b7f596f7520616c7265616479206861766520736f6d65205368726f6f6d73000000600082015250565b6000614b84601d8361409f565b9150614b8f82614b4e565b602082019050919050565b60006020820190508181036000830152614bb381614b77565b9050919050565b7f536f72727920796f7520617265206e6f742077686974656c6973746564000000600082015250565b6000614bf0601d8361409f565b9150614bfb82614bba565b602082019050919050565b60006020820190508181036000830152614c1f81614be3565b9050919050565b7f45746865722073656e74206973206e6f7420636f727265637400000000000000600082015250565b6000614c5c60198361409f565b9150614c6782614c26565b602082019050919050565b60006020820190508181036000830152614c8b81614c4f565b9050919050565b7f4552433732313a207472616e736665722063616c6c6572206973206e6f74206f60008201527f776e6572206e6f7220617070726f766564000000000000000000000000000000602082015250565b6000614cee60318361409f565b9150614cf982614c92565b604082019050919050565b60006020820190508181036000830152614d1d81614ce1565b9050919050565b7f455243373231456e756d657261626c653a206f776e657220696e646578206f7560008201527f74206f6620626f756e6473000000000000000000000000000000000000000000602082015250565b6000614d80602b8361409f565b9150614d8b82614d24565b604082019050919050565b60006020820190508181036000830152614daf81614d73565b9050919050565b7f455243373231456e756d657261626c653a20676c6f62616c20696e646578206f60008201527f7574206f6620626f756e64730000000000000000000000000000000000000000602082015250565b6000614e12602c8361409f565b9150614e1d82614db6565b604082019050919050565b60006020820190508181036000830152614e4181614e05565b9050919050565b7f4552433732313a206f776e657220717565727920666f72206e6f6e657869737460008201527f656e7420746f6b656e0000000000000000000000000000000000000000000000602082015250565b6000614ea460298361409f565b9150614eaf82614e48565b604082019050919050565b60006020820190508181036000830152614ed381614e97565b9050919050565b7f4552433732313a2062616c616e636520717565727920666f7220746865207a6560008201527f726f206164647265737300000000000000000000000000000000000000000000602082015250565b6000614f36602a8361409f565b9150614f4182614eda565b604082019050919050565b60006020820190508181036000830152614f6581614f29565b9050919050565b600081519050614f7b81614148565b92915050565b600060208284031215614f9757614f96613d49565b5b6000614fa584828501614f6c565b91505092915050565b6000604082019050614fc360008301856141a1565b614fd0602083018461420b565b9392505050565b7f4552433732313a20617070726f766520746f2063616c6c657200000000000000600082015250565b600061500d60198361409f565b915061501882614fd7565b602082019050919050565b6000602082019050818103600083015261503c81615000565b9050919050565b7f4552433732314d657461646174613a2055524920717565727920666f72206e6f60008201527f6e6578697374656e7420746f6b656e0000000000000000000000000000000000602082015250565b600061509f602f8361409f565b91506150aa82615043565b604082019050919050565b600060208201905081810360008301526150ce81615092565b9050919050565b600081905092915050565b60006150eb82614094565b6150f581856150d5565b93506151058185602086016140b0565b80840191505092915050565b600061511d82856150e0565b915061512982846150e0565b91508190509392505050565b7f457863656564732072657365727665642067696674205368726f6f6d7320737560008201527f70706c7900000000000000000000000000000000000000000000000000000000602082015250565b600061519160248361409f565b915061519c82615135565b604082019050919050565b600060208201905081810360008301526151c081615184565b9050919050565b7f576f756c64206578636565642070726573616c6520726573657276656420737560008201527f70706c7900000000000000000000000000000000000000000000000000000000602082015250565b600061522360248361409f565b915061522e826151c7565b604082019050919050565b6000602082019050818103600083015261525281615216565b9050919050565b7f53616c6520706175736564000000000000000000000000000000000000000000600082015250565b600061528f600b8361409f565b915061529a82615259565b602082019050919050565b600060208201905081810360008301526152be81615282565b9050919050565b7f45786365656473206d6178696d756d20616d6f756e74206f66205368726f6f6d60008201527f7320706572207478000000000000000000000000000000000000000000000000602082015250565b600061532160288361409f565b915061532c826152c5565b604082019050919050565b6000602082019050818103600083015261535081615314565b9050919050565b7f45786365656473206d6178696d756d205368726f6f6d7320737570706c790000600082015250565b600061538d601e8361409f565b915061539882615357565b602082019050919050565b600060208201905081810360008301526153bc81615380565b9050919050565b60006153ce8261413e565b91506153d98361413e565b9250817fffffffffffffffffffffffffffffffffffffffffffffffffffffffffffffffff048311821515161561541257615411614737565b5b828202905092915050565b7f4f776e61626c653a206e6577206f776e657220697320746865207a65726f206160008201527f6464726573730000000000000000000000000000000000000000000000000000602082015250565b600061547960268361409f565b91506154848261541d565b604082019050919050565b600060208201905081810360008301526154a88161546c565b9050919050565b7f4552433732313a206f70657261746f7220717565727920666f72206e6f6e657860008201527f697374656e7420746f6b656e0000000000000000000000000000000000000000602082015250565b600061550b602c8361409f565b9150615516826154af565b604082019050919050565b6000602082019050818103600083015261553a816154fe565b9050919050565b7f4552433732313a207472616e73666572206f6620746f6b656e2074686174206960008201527f73206e6f74206f776e0000000000000000000000000000000000000000000000602082015250565b600061559d60298361409f565b91506155a882615541565b604082019050919050565b600060208201905081810360008301526155cc81615590565b9050919050565b7f4552433732313a207472616e7366657220746f20746865207a65726f2061646460008201527f7265737300000000000000000000000000000000000000000000000000000000602082015250565b600061562f60248361409f565b915061563a826155d3565b604082019050919050565b6000602082019050818103600083015261565e81615622565b9050919050565b7f4552433732313a207472616e7366657220746f206e6f6e20455243373231526560008201527f63656976657220696d706c656d656e7465720000000000000000000000000000602082015250565b60006156c160328361409f565b91506156cc82615665565b604082019050919050565b600060208201905081810360008301526156f0816156b4565b9050919050565b7f4e487b7100000000000000000000000000000000000000000000000000000000600052601260045260246000fd5b60006157318261413e565b915061573c8361413e565b92508261574c5761574b6156f7565b5b828204905092915050565b60006157628261413e565b915061576d8361413e565b92508261577d5761577c6156f7565b5b828206905092915050565b600081519050919050565b600082825260208201905092915050565b60006157af82615788565b6157b98185615793565b93506157c98185602086016140b0565b6157d281613ef7565b840191505092915050565b60006080820190506157f260008301876141a1565b6157ff60208301866141a1565b61580c604083018561420b565b818103606083015261581e81846157a4565b905095945050505050565b60008151905061583881613e40565b92915050565b60006020828403121561585457615853613d49565b5b600061586284828501615829565b91505092915050565b7f4552433732313a206d696e7420746f20746865207a65726f2061646472657373600082015250565b60006158a160208361409f565b91506158ac8261586b565b602082019050919050565b600060208201905081810360008301526158d081615894565b9050919050565b7f4552433732313a20746f6b656e20616c7265616479206d696e74656400000000600082015250565b600061590d601c8361409f565b9150615918826158d7565b602082019050919050565b6000602082019050818103600083015261593c81615900565b9050919050565b7f4e487b7100000000000000000000000000000000000000000000000000000000600052603160045260246000fdfea26469706673582212205854138ac6bc07295d30c550603c6552138353623febe7a6806807fd0fc0f41364736f6c63430008090033",
  "immutableReferences": {},
  "source": "// SPDX-License-Identifier: MIT\r\npragma solidity ^0.8.0;\r\n\r\nimport \"@openzeppelin/contracts/token/ERC721/extensions/ERC721Enumerable.sol\";\r\nimport \"@openzeppelin/contracts/access/Ownable.sol\";\r\n\r\ncontract BattleShroomsGenOne is ERC721Enumerable, Ownable {\r\n\r\n    using Strings for uint256;\r\n\r\n    string _baseTokenURI;\r\n    uint256 private _presaleReserved = 1100;\r\n    uint256 private _giftReserved = 100;\r\n    uint256 private _price = 100 ether;\r\n    uint256 private _botHolderDiscont = 40 ether;\r\n    uint256 private MAX_SUPPLY = 5000;\r\n    uint256 private maxPerTx = 10;\r\n    bool public _paused = true;\r\n    bool public _presalePaused = true;\r\n    IERC721Enumerable private oldContract = ERC721Enumerable(0x2746a61091E22B61882e8Bf2f5f8DB6F0444Af7a);\r\n\r\n    mapping(address => bool) public _whiteListed;\r\n    mapping(address => bool) public _botHolders;\r\n\r\n    address t1 = 0xF129f79c05F6EA516d01176A3983475100CA64C4;\r\n\r\n    constructor() ERC721(\"Battle Shrooms Gen One\", \"BSONE\") {\r\n        \r\n    }\r\n\r\n    function mintShroom(uint256 num) public payable {\r\n        uint256 supply = totalSupply();\r\n        uint256 currentPrice = _price;\r\n\r\n        if(_botHolders[msg.sender])\r\n            currentPrice -= _botHolderDiscont;\r\n\r\n        require( !_paused, \"Sale paused\" );\r\n        require( num <= maxPerTx, \"Exceeds maximum amount of Shrooms per tx\" );\r\n        require( supply + num <= MAX_SUPPLY - _giftReserved - _presaleReserved, \"Exceeds maximum Shrooms supply\" );\r\n        require( msg.value >= currentPrice * num, \"Ether sent is not correct\" );\r\n\r\n        for(uint256 i; i < num; i++){\r\n            _safeMint( msg.sender, supply + i );\r\n        }\r\n    }\r\n\r\n    function mintPresaleShroom() public payable {\r\n        uint256 supply = totalSupply();\r\n        uint256 balance = balanceOf(msg.sender);\r\n        uint256 currentPrice = _price;\r\n\r\n        if(_botHolders[msg.sender])\r\n            currentPrice -= _botHolderDiscont;\r\n\r\n        require( !_presalePaused, \"Presale paused\" );\r\n        require( supply + 1 <= _presaleReserved, \"Exceeds maximum Shrooms presale reserved supply\" );\r\n        require( balance == 0, \"You already have some Shrooms\" );\r\n        require( _whiteListed[msg.sender], \"Sorry you are not whitelisted\" );\r\n        require( msg.value >= currentPrice, \"Ether sent is not correct\" );\r\n\r\n        _safeMint( msg.sender, supply);\r\n        _presaleReserved -= 1;\r\n    }\r\n\r\n    function addWL(address _wl) public onlyOwner() {\r\n        _whiteListed[_wl] = true;\r\n    }\r\n\r\n    function addWLMany(address[] memory _wls) public onlyOwner() {\r\n        require(totalSupply() + _wls.length <= _presaleReserved, 'Would exceed presale reserved supply');\r\n\r\n        for(uint256 i = 0; i < _wls.length; i++) {\r\n            addWL(_wls[i]);\r\n        }\r\n    }\r\n\r\n    function addBotHolder(address _newHolder) public onlyOwner() {\r\n        _botHolders[_newHolder] = true;\r\n    }\r\n\r\n    function addBotHolderMany(address[] memory _newBotHolders) public onlyOwner() {\r\n        for(uint256 i = 0; i < _newBotHolders.length; i++) {\r\n            addBotHolder(_newBotHolders[i]);\r\n        }\r\n    }\r\n\r\n    function removeWL(address _wl) public onlyOwner() {\r\n        _whiteListed[_wl] = false;\r\n    }\r\n\r\n    function removeWLMany(address[] memory _wls) public onlyOwner() {\r\n        for(uint256 i = 0; i < _wls.length; i++) {\r\n            removeWL(_wls[i]);\r\n        }\r\n    }\r\n\r\n    function walletOfOwner(address _owner) public view returns(uint256[] memory) {\r\n        uint256 tokenCount = balanceOf(_owner);\r\n\r\n        uint256[] memory tokensId = new uint256[](tokenCount);\r\n        for(uint256 i; i < tokenCount; i++){\r\n            tokensId[i] = tokenOfOwnerByIndex(_owner, i);\r\n        }\r\n        return tokensId;\r\n    }\r\n\r\n    function oldWalletOfOwner(address _owner) public view returns(uint256[] memory) {\r\n        uint256 tokenCount = oldContract.balanceOf(_owner);\r\n\r\n        uint256[] memory tokensId = new uint256[](tokenCount);\r\n        for(uint256 i; i < tokenCount; i++){\r\n            tokensId[i] = oldContract.tokenOfOwnerByIndex(_owner, i);\r\n        }\r\n        return tokensId;\r\n    }\r\n\r\n    function migrate(address[] memory addresses) public onlyOwner() {\r\n        for (uint256 cntAddress = 0; cntAddress < addresses.length; cntAddress++) {\r\n\r\n            uint256[] memory tokenIds = oldWalletOfOwner(addresses[cntAddress]);\r\n            \r\n            for(uint cntTokens = 0; cntTokens < tokenIds.length; cntTokens) {\r\n                _safeMint(addresses[cntAddress], tokenIds[cntTokens]);\r\n            }\r\n        }\r\n    }\r\n\r\n    function setPrice(uint256 _newPrice) public onlyOwner() {\r\n        _price = _newPrice;\r\n    }\r\n\r\n    function setMaxPerTx(uint256 _newMaxPerTx) public onlyOwner() {\r\n        maxPerTx = _newMaxPerTx;\r\n    }\r\n\r\n    function setPresaleReserved(uint256 _newReserved) public onlyOwner() {\r\n        _presaleReserved = _newReserved;\r\n    }\r\n\r\n    function setGiftReserved(uint256 _newReserved) public onlyOwner() {\r\n        _giftReserved = _newReserved;\r\n    }\r\n\r\n    function setMaxSupply(uint256 _newMax) public onlyOwner() {\r\n        MAX_SUPPLY = _newMax;\r\n    }\r\n\r\n    function _baseURI() internal view virtual override returns (string memory) {\r\n        return _baseTokenURI;\r\n    }\r\n\r\n    function setBaseURI(string memory baseURI) public onlyOwner {\r\n        _baseTokenURI = baseURI;\r\n    }\r\n\r\n    function getPrice() public view returns (uint256){\r\n        return _price;\r\n    }\r\n\r\n    function getDiscount() public view returns (uint256){\r\n        return _botHolderDiscont;\r\n    }\r\n\r\n    function giveAway(address _to, uint256 _amount) external onlyOwner() {\r\n        require( _amount <= _giftReserved, \"Exceeds reserved gift Shrooms supply\" );\r\n\r\n        uint256 supply = totalSupply();\r\n        for(uint256 i; i < _amount; i++){\r\n            _safeMint( _to, supply + i );\r\n        }\r\n\r\n        _giftReserved -= _amount;\r\n    }\r\n\r\n    function giveAwayMany(address[] memory addresses) external onlyOwner() {\r\n        require( addresses.length <= _giftReserved, \"Exceeds reserved gift Bots supply\" );\r\n\r\n        for (uint i = 0; i < addresses.length; i++) {\r\n            _safeMint(addresses[i], totalSupply());\r\n        }\r\n\r\n        _giftReserved -= addresses.length;\r\n    }\r\n\r\n    function pause(bool val) public onlyOwner {\r\n        _paused = val;\r\n    }\r\n\r\n    function presalePause(bool val) public onlyOwner {\r\n        _presalePaused = val;\r\n    }\r\n    \r\n    function setDiscount(uint256 _newDiscount) public onlyOwner() {\r\n        _botHolderDiscont = _newDiscount;\r\n    }\r\n\r\n    function withdrawAll() public payable onlyOwner {\r\n        uint256 _balance = address(this).balance;\r\n\r\n        require(payable(t1).send(_balance));\r\n    }\r\n}",
  "sourcePath": "/Users/vlad/Yandex.Disk.localized/_dev/shrooms/sol/contracts/polygon/BattleShroomsGenOne.sol",
  "compiler": {
    "name": "solc",
    "version": "0.8.9+commit.e5eed63a.Emscripten.clang"
  },
  "schemaVersion": "3.4.3",
  "updatedAt": "2021-11-05T13:16:03.752Z",
  "devdoc": {
    "kind": "dev",
    "methods": {
      "approve(address,uint256)": {
        "details": "See {IERC721-approve}."
      },
      "balanceOf(address)": {
        "details": "See {IERC721-balanceOf}."
      },
      "getApproved(uint256)": {
        "details": "See {IERC721-getApproved}."
      },
      "isApprovedForAll(address,address)": {
        "details": "See {IERC721-isApprovedForAll}."
      },
      "name()": {
        "details": "See {IERC721Metadata-name}."
      },
      "owner()": {
        "details": "Returns the address of the current owner."
      },
      "ownerOf(uint256)": {
        "details": "See {IERC721-ownerOf}."
      },
      "renounceOwnership()": {
        "details": "Leaves the contract without owner. It will not be possible to call `onlyOwner` functions anymore. Can only be called by the current owner. NOTE: Renouncing ownership will leave the contract without an owner, thereby removing any functionality that is only available to the owner."
      },
      "safeTransferFrom(address,address,uint256)": {
        "details": "See {IERC721-safeTransferFrom}."
      },
      "safeTransferFrom(address,address,uint256,bytes)": {
        "details": "See {IERC721-safeTransferFrom}."
      },
      "setApprovalForAll(address,bool)": {
        "details": "See {IERC721-setApprovalForAll}."
      },
      "supportsInterface(bytes4)": {
        "details": "See {IERC165-supportsInterface}."
      },
      "symbol()": {
        "details": "See {IERC721Metadata-symbol}."
      },
      "tokenByIndex(uint256)": {
        "details": "See {IERC721Enumerable-tokenByIndex}."
      },
      "tokenOfOwnerByIndex(address,uint256)": {
        "details": "See {IERC721Enumerable-tokenOfOwnerByIndex}."
      },
      "tokenURI(uint256)": {
        "details": "See {IERC721Metadata-tokenURI}."
      },
      "totalSupply()": {
        "details": "See {IERC721Enumerable-totalSupply}."
      },
      "transferFrom(address,address,uint256)": {
        "details": "See {IERC721-transferFrom}."
      },
      "transferOwnership(address)": {
        "details": "Transfers ownership of the contract to a new account (`newOwner`). Can only be called by the current owner."
      }
    },
    "version": 1
  },
  "userdoc": {
    "kind": "user",
    "methods": {},
    "version": 1
  }
}