{
  "contractName": "BattleShroomsGenOne",
  "abi": [
    {
      "inputs": [],
      "stateMutability": "nonpayable",
      "type": "constructor"
    },
    {
      "anonymous": false,
      "inputs": [
        {
          "indexed": true,
          "internalType": "address",
          "name": "owner",
          "type": "address"
        },
        {
          "indexed": true,
          "internalType": "address",
          "name": "approved",
          "type": "address"
        },
        {
          "indexed": true,
          "internalType": "uint256",
          "name": "tokenId",
          "type": "uint256"
        }
      ],
      "name": "Approval",
      "type": "event"
    },
    {
      "anonymous": false,
      "inputs": [
        {
          "indexed": true,
          "internalType": "address",
          "name": "owner",
          "type": "address"
        },
        {
          "indexed": true,
          "internalType": "address",
          "name": "operator",
          "type": "address"
        },
        {
          "indexed": false,
          "internalType": "bool",
          "name": "approved",
          "type": "bool"
        }
      ],
      "name": "ApprovalForAll",
      "type": "event"
    },
    {
      "anonymous": false,
      "inputs": [
        {
          "indexed": true,
          "internalType": "address",
          "name": "previousOwner",
          "type": "address"
        },
        {
          "indexed": true,
          "internalType": "address",
          "name": "newOwner",
          "type": "address"
        }
      ],
      "name": "OwnershipTransferred",
      "type": "event"
    },
    {
      "anonymous": false,
      "inputs": [
        {
          "indexed": true,
          "internalType": "address",
          "name": "from",
          "type": "address"
        },
        {
          "indexed": true,
          "internalType": "address",
          "name": "to",
          "type": "address"
        },
        {
          "indexed": true,
          "internalType": "uint256",
          "name": "tokenId",
          "type": "uint256"
        }
      ],
      "name": "Transfer",
      "type": "event"
    },
    {
      "inputs": [
        {
          "internalType": "address",
          "name": "",
          "type": "address"
        }
      ],
      "name": "_botHolders",
      "outputs": [
        {
          "internalType": "bool",
          "name": "",
          "type": "bool"
        }
      ],
      "stateMutability": "view",
      "type": "function",
      "constant": true
    },
    {
      "inputs": [],
      "name": "_paused",
      "outputs": [
        {
          "internalType": "bool",
          "name": "",
          "type": "bool"
        }
      ],
      "stateMutability": "view",
      "type": "function",
      "constant": true
    },
    {
      "inputs": [],
      "name": "_presalePaused",
      "outputs": [
        {
          "internalType": "bool",
          "name": "",
          "type": "bool"
        }
      ],
      "stateMutability": "view",
      "type": "function",
      "constant": true
    },
    {
      "inputs": [
        {
          "internalType": "address",
          "name": "",
          "type": "address"
        }
      ],
      "name": "_whiteListed",
      "outputs": [
        {
          "internalType": "bool",
          "name": "",
          "type": "bool"
        }
      ],
      "stateMutability": "view",
      "type": "function",
      "constant": true
    },
    {
      "inputs": [
        {
          "internalType": "address",
          "name": "to",
          "type": "address"
        },
        {
          "internalType": "uint256",
          "name": "tokenId",
          "type": "uint256"
        }
      ],
      "name": "approve",
      "outputs": [],
      "stateMutability": "nonpayable",
      "type": "function"
    },
    {
      "inputs": [
        {
          "internalType": "address",
          "name": "owner",
          "type": "address"
        }
      ],
      "name": "balanceOf",
      "outputs": [
        {
          "internalType": "uint256",
          "name": "",
          "type": "uint256"
        }
      ],
      "stateMutability": "view",
      "type": "function",
      "constant": true
    },
    {
      "inputs": [
        {
          "internalType": "uint256",
          "name": "tokenId",
          "type": "uint256"
        }
      ],
      "name": "getApproved",
      "outputs": [
        {
          "internalType": "address",
          "name": "",
          "type": "address"
        }
      ],
      "stateMutability": "view",
      "type": "function",
      "constant": true
    },
    {
      "inputs": [
        {
          "internalType": "address",
          "name": "owner",
          "type": "address"
        },
        {
          "internalType": "address",
          "name": "operator",
          "type": "address"
        }
      ],
      "name": "isApprovedForAll",
      "outputs": [
        {
          "internalType": "bool",
          "name": "",
          "type": "bool"
        }
      ],
      "stateMutability": "view",
      "type": "function",
      "constant": true
    },
    {
      "inputs": [],
      "name": "name",
      "outputs": [
        {
          "internalType": "string",
          "name": "",
          "type": "string"
        }
      ],
      "stateMutability": "view",
      "type": "function",
      "constant": true
    },
    {
      "inputs": [],
      "name": "owner",
      "outputs": [
        {
          "internalType": "address",
          "name": "",
          "type": "address"
        }
      ],
      "stateMutability": "view",
      "type": "function",
      "constant": true
    },
    {
      "inputs": [
        {
          "internalType": "uint256",
          "name": "tokenId",
          "type": "uint256"
        }
      ],
      "name": "ownerOf",
      "outputs": [
        {
          "internalType": "address",
          "name": "",
          "type": "address"
        }
      ],
      "stateMutability": "view",
      "type": "function",
      "constant": true
    },
    {
      "inputs": [],
      "name": "renounceOwnership",
      "outputs": [],
      "stateMutability": "nonpayable",
      "type": "function"
    },
    {
      "inputs": [
        {
          "internalType": "address",
          "name": "from",
          "type": "address"
        },
        {
          "internalType": "address",
          "name": "to",
          "type": "address"
        },
        {
          "internalType": "uint256",
          "name": "tokenId",
          "type": "uint256"
        }
      ],
      "name": "safeTransferFrom",
      "outputs": [],
      "stateMutability": "nonpayable",
      "type": "function"
    },
    {
      "inputs": [
        {
          "internalType": "address",
          "name": "from",
          "type": "address"
        },
        {
          "internalType": "address",
          "name": "to",
          "type": "address"
        },
        {
          "internalType": "uint256",
          "name": "tokenId",
          "type": "uint256"
        },
        {
          "internalType": "bytes",
          "name": "_data",
          "type": "bytes"
        }
      ],
      "name": "safeTransferFrom",
      "outputs": [],
      "stateMutability": "nonpayable",
      "type": "function"
    },
    {
      "inputs": [
        {
          "internalType": "address",
          "name": "operator",
          "type": "address"
        },
        {
          "internalType": "bool",
          "name": "approved",
          "type": "bool"
        }
      ],
      "name": "setApprovalForAll",
      "outputs": [],
      "stateMutability": "nonpayable",
      "type": "function"
    },
    {
      "inputs": [
        {
          "internalType": "bytes4",
          "name": "interfaceId",
          "type": "bytes4"
        }
      ],
      "name": "supportsInterface",
      "outputs": [
        {
          "internalType": "bool",
          "name": "",
          "type": "bool"
        }
      ],
      "stateMutability": "view",
      "type": "function",
      "constant": true
    },
    {
      "inputs": [],
      "name": "symbol",
      "outputs": [
        {
          "internalType": "string",
          "name": "",
          "type": "string"
        }
      ],
      "stateMutability": "view",
      "type": "function",
      "constant": true
    },
    {
      "inputs": [
        {
          "internalType": "uint256",
          "name": "index",
          "type": "uint256"
        }
      ],
      "name": "tokenByIndex",
      "outputs": [
        {
          "internalType": "uint256",
          "name": "",
          "type": "uint256"
        }
      ],
      "stateMutability": "view",
      "type": "function",
      "constant": true
    },
    {
      "inputs": [
        {
          "internalType": "address",
          "name": "owner",
          "type": "address"
        },
        {
          "internalType": "uint256",
          "name": "index",
          "type": "uint256"
        }
      ],
      "name": "tokenOfOwnerByIndex",
      "outputs": [
        {
          "internalType": "uint256",
          "name": "",
          "type": "uint256"
        }
      ],
      "stateMutability": "view",
      "type": "function",
      "constant": true
    },
    {
      "inputs": [
        {
          "internalType": "uint256",
          "name": "tokenId",
          "type": "uint256"
        }
      ],
      "name": "tokenURI",
      "outputs": [
        {
          "internalType": "string",
          "name": "",
          "type": "string"
        }
      ],
      "stateMutability": "view",
      "type": "function",
      "constant": true
    },
    {
      "inputs": [],
      "name": "totalSupply",
      "outputs": [
        {
          "internalType": "uint256",
          "name": "",
          "type": "uint256"
        }
      ],
      "stateMutability": "view",
      "type": "function",
      "constant": true
    },
    {
      "inputs": [
        {
          "internalType": "address",
          "name": "from",
          "type": "address"
        },
        {
          "internalType": "address",
          "name": "to",
          "type": "address"
        },
        {
          "internalType": "uint256",
          "name": "tokenId",
          "type": "uint256"
        }
      ],
      "name": "transferFrom",
      "outputs": [],
      "stateMutability": "nonpayable",
      "type": "function"
    },
    {
      "inputs": [
        {
          "internalType": "address",
          "name": "newOwner",
          "type": "address"
        }
      ],
      "name": "transferOwnership",
      "outputs": [],
      "stateMutability": "nonpayable",
      "type": "function"
    },
    {
      "inputs": [
        {
          "internalType": "uint256",
          "name": "num",
          "type": "uint256"
        }
      ],
      "name": "mintShroom",
      "outputs": [],
      "stateMutability": "payable",
      "type": "function",
      "payable": true
    },
    {
      "inputs": [],
      "name": "mintPresaleShroom",
      "outputs": [],
      "stateMutability": "payable",
      "type": "function",
      "payable": true
    },
    {
      "inputs": [
        {
          "internalType": "address",
          "name": "_wl",
          "type": "address"
        }
      ],
      "name": "addWL",
      "outputs": [],
      "stateMutability": "nonpayable",
      "type": "function"
    },
    {
      "inputs": [
        {
          "internalType": "address[]",
          "name": "_wls",
          "type": "address[]"
        }
      ],
      "name": "addWLMany",
      "outputs": [],
      "stateMutability": "nonpayable",
      "type": "function"
    },
    {
      "inputs": [
        {
          "internalType": "address",
          "name": "_newHolder",
          "type": "address"
        }
      ],
      "name": "addBotHolder",
      "outputs": [],
      "stateMutability": "nonpayable",
      "type": "function"
    },
    {
      "inputs": [
        {
          "internalType": "address[]",
          "name": "_newBotHolders",
          "type": "address[]"
        }
      ],
      "name": "addBotHolderMany",
      "outputs": [],
      "stateMutability": "nonpayable",
      "type": "function"
    },
    {
      "inputs": [
        {
          "internalType": "address",
          "name": "_wl",
          "type": "address"
        }
      ],
      "name": "removeWL",
      "outputs": [],
      "stateMutability": "nonpayable",
      "type": "function"
    },
    {
      "inputs": [
        {
          "internalType": "address[]",
          "name": "_wls",
          "type": "address[]"
        }
      ],
      "name": "removeWLMany",
      "outputs": [],
      "stateMutability": "nonpayable",
      "type": "function"
    },
    {
      "inputs": [
        {
          "internalType": "address",
          "name": "_owner",
          "type": "address"
        }
      ],
      "name": "walletOfOwner",
      "outputs": [
        {
          "internalType": "uint256[]",
          "name": "",
          "type": "uint256[]"
        }
      ],
      "stateMutability": "view",
      "type": "function",
      "constant": true
    },
    {
      "inputs": [
        {
          "internalType": "uint256",
          "name": "_newPrice",
          "type": "uint256"
        }
      ],
      "name": "setPrice",
      "outputs": [],
      "stateMutability": "nonpayable",
      "type": "function"
    },
    {
      "inputs": [
        {
          "internalType": "uint256",
          "name": "_newMaxPerTx",
          "type": "uint256"
        }
      ],
      "name": "setMaxPerTx",
      "outputs": [],
      "stateMutability": "nonpayable",
      "type": "function"
    },
    {
      "inputs": [
        {
          "internalType": "uint256",
          "name": "_newReserved",
          "type": "uint256"
        }
      ],
      "name": "setPresaleReserved",
      "outputs": [],
      "stateMutability": "nonpayable",
      "type": "function"
    },
    {
      "inputs": [
        {
          "internalType": "uint256",
          "name": "_newReserved",
          "type": "uint256"
        }
      ],
      "name": "setGiftReserved",
      "outputs": [],
      "stateMutability": "nonpayable",
      "type": "function"
    },
    {
      "inputs": [
        {
          "internalType": "uint256",
          "name": "_newMax",
          "type": "uint256"
        }
      ],
      "name": "setMaxSupply",
      "outputs": [],
      "stateMutability": "nonpayable",
      "type": "function"
    },
    {
      "inputs": [
        {
          "internalType": "string",
          "name": "baseURI",
          "type": "string"
        }
      ],
      "name": "setBaseURI",
      "outputs": [],
      "stateMutability": "nonpayable",
      "type": "function"
    },
    {
      "inputs": [],
      "name": "getPrice",
      "outputs": [
        {
          "internalType": "uint256",
          "name": "",
          "type": "uint256"
        }
      ],
      "stateMutability": "view",
      "type": "function",
      "constant": true
    },
    {
      "inputs": [],
      "name": "getDiscount",
      "outputs": [
        {
          "internalType": "uint256",
          "name": "",
          "type": "uint256"
        }
      ],
      "stateMutability": "view",
      "type": "function",
      "constant": true
    },
    {
      "inputs": [
        {
          "internalType": "address",
          "name": "_to",
          "type": "address"
        },
        {
          "internalType": "uint256",
          "name": "_amount",
          "type": "uint256"
        }
      ],
      "name": "giveAway",
      "outputs": [],
      "stateMutability": "nonpayable",
      "type": "function"
    },
    {
      "inputs": [
        {
          "internalType": "address[]",
          "name": "addresses",
          "type": "address[]"
        }
      ],
      "name": "giveAwayMany",
      "outputs": [],
      "stateMutability": "nonpayable",
      "type": "function"
    },
    {
      "inputs": [
        {
          "internalType": "bool",
          "name": "val",
          "type": "bool"
        }
      ],
      "name": "pause",
      "outputs": [],
      "stateMutability": "nonpayable",
      "type": "function"
    },
    {
      "inputs": [
        {
          "internalType": "bool",
          "name": "val",
          "type": "bool"
        }
      ],
      "name": "presalePause",
      "outputs": [],
      "stateMutability": "nonpayable",
      "type": "function"
    },
    {
      "inputs": [
        {
          "internalType": "uint256",
          "name": "_newDiscount",
          "type": "uint256"
        }
      ],
      "name": "setDiscount",
      "outputs": [],
      "stateMutability": "nonpayable",
      "type": "function"
    },
    {
      "inputs": [],
      "name": "withdrawAll",
      "outputs": [],
      "stateMutability": "payable",
      "type": "function",
      "payable": true
    }
  ],
  "bytecode": "0x60806040526103e8600c556064600d5566b1a2bc2ec50000600e5566354a6ba7a18000600f55611388601055600a6011556001601260006101000a81548160ff0219169083151502179055506000601260016101000a81548160ff02191690831515021790555073f129f79c05f6ea516d01176a3983475100ca64c4601560006101000a81548173ffffffffffffffffffffffffffffffffffffffff021916908373ffffffffffffffffffffffffffffffffffffffff16021790555073f5ca775911ea3f3fe75d8ec3756a08affbf4deb6601660006101000a81548173ffffffffffffffffffffffffffffffffffffffff021916908373ffffffffffffffffffffffffffffffffffffffff1602179055507367d1d8c8c440f47f00b3cbf14debbf9cbed00eef601760006101000a81548173ffffffffffffffffffffffffffffffffffffffff021916908373ffffffffffffffffffffffffffffffffffffffff1602179055503480156200017257600080fd5b506040518060400160405280601681526020017f426174746c65205368726f6f6d732047656e204f6e65000000000000000000008152506040518060400160405280600581526020017f42534f4e450000000000000000000000000000000000000000000000000000008152508160009080519060200190620001f792919062000d8e565b5080600190805190602001906200021092919062000d8e565b5050506200023362000227620002d860201b60201c565b620002e060201b60201c565b62000268601560009054906101000a900473ffffffffffffffffffffffffffffffffffffffff166000620003a660201b60201c565b6200029d601660009054906101000a900473ffffffffffffffffffffffffffffffffffffffff166001620003a660201b60201c565b620002d2601760009054906101000a900473ffffffffffffffffffffffffffffffffffffffff166002620003a660201b60201c565b620013d9565b600033905090565b6000600a60009054906101000a900473ffffffffffffffffffffffffffffffffffffffff16905081600a60006101000a81548173ffffffffffffffffffffffffffffffffffffffff021916908373ffffffffffffffffffffffffffffffffffffffff1602179055508173ffffffffffffffffffffffffffffffffffffffff168173ffffffffffffffffffffffffffffffffffffffff167f8be0079c531659141344cd1fd0a4f28419497f9722a3daafe3b4186f6b6457e060405160405180910390a35050565b620003c8828260405180602001604052806000815250620003cc60201b60201c565b5050565b620003de83836200043a60201b60201c565b620003f360008484846200062060201b60201c565b62000435576040517f08c379a00000000000000000000000000000000000000000000000000000000081526004016200042c9062000ec5565b60405180910390fd5b505050565b600073ffffffffffffffffffffffffffffffffffffffff168273ffffffffffffffffffffffffffffffffffffffff161415620004ad576040517f08c379a0000000000000000000000000000000000000000000000000000000008152600401620004a49062000f37565b60405180910390fd5b620004be81620007da60201b60201c565b1562000501576040517f08c379a0000000000000000000000000000000000000000000000000000000008152600401620004f89062000fa9565b60405180910390fd5b62000515600083836200084660201b60201c565b6001600360008473ffffffffffffffffffffffffffffffffffffffff1673ffffffffffffffffffffffffffffffffffffffff168152602001908152602001600020600082825462000567919062001004565b92505081905550816002600083815260200190815260200160002060006101000a81548173ffffffffffffffffffffffffffffffffffffffff021916908373ffffffffffffffffffffffffffffffffffffffff160217905550808273ffffffffffffffffffffffffffffffffffffffff16600073ffffffffffffffffffffffffffffffffffffffff167fddf252ad1be2c89b69c2b068fc378daa952ba7f163c4a11628f55a4df523b3ef60405160405180910390a45050565b60006200064e8473ffffffffffffffffffffffffffffffffffffffff166200098d60201b620028a61760201c565b15620007cd578373ffffffffffffffffffffffffffffffffffffffff1663150b7a0262000680620002d860201b60201c565b8786866040518563ffffffff1660e01b8152600401620006a494939291906200115b565b602060405180830381600087803b158015620006bf57600080fd5b505af1925050508015620006f357506040513d601f19601f82011682018060405250810190620006f0919062001211565b60015b6200077c573d806000811462000726576040519150601f19603f3d011682016040523d82523d6000602084013e6200072b565b606091505b5060008151141562000774576040517f08c379a00000000000000000000000000000000000000000000000000000000081526004016200076b9062000ec5565b60405180910390fd5b805181602001fd5b63150b7a0260e01b7bffffffffffffffffffffffffffffffffffffffffffffffffffffffff1916817bffffffffffffffffffffffffffffffffffffffffffffffffffffffff191614915050620007d2565b600190505b949350505050565b60008073ffffffffffffffffffffffffffffffffffffffff166002600084815260200190815260200160002060009054906101000a900473ffffffffffffffffffffffffffffffffffffffff1673ffffffffffffffffffffffffffffffffffffffff1614159050919050565b6200085e838383620009a060201b620028b91760201c565b600073ffffffffffffffffffffffffffffffffffffffff168373ffffffffffffffffffffffffffffffffffffffff161415620008ab57620008a581620009a560201b60201c565b620008f3565b8173ffffffffffffffffffffffffffffffffffffffff168373ffffffffffffffffffffffffffffffffffffffff1614620008f257620008f18382620009ee60201b60201c565b5b5b600073ffffffffffffffffffffffffffffffffffffffff168273ffffffffffffffffffffffffffffffffffffffff16141562000940576200093a8162000b6b60201b60201c565b62000988565b8273ffffffffffffffffffffffffffffffffffffffff168273ffffffffffffffffffffffffffffffffffffffff1614620009875762000986828262000c4760201b60201c565b5b5b505050565b600080823b905060008111915050919050565b505050565b6008805490506009600083815260200190815260200160002081905550600881908060018154018082558091505060019003906000526020600020016000909190919091505550565b6000600162000a088462000cd360201b620018df1760201c565b62000a14919062001243565b905060006007600084815260200190815260200160002054905081811462000afa576000600660008673ffffffffffffffffffffffffffffffffffffffff1673ffffffffffffffffffffffffffffffffffffffff168152602001908152602001600020600084815260200190815260200160002054905080600660008773ffffffffffffffffffffffffffffffffffffffff1673ffffffffffffffffffffffffffffffffffffffff168152602001908152602001600020600084815260200190815260200160002081905550816007600083815260200190815260200160002081905550505b6007600084815260200190815260200160002060009055600660008573ffffffffffffffffffffffffffffffffffffffff1673ffffffffffffffffffffffffffffffffffffffff16815260200190815260200160002060008381526020019081526020016000206000905550505050565b6000600160088054905062000b81919062001243565b905060006009600084815260200190815260200160002054905060006008838154811062000bb45762000bb36200127e565b5b90600052602060002001549050806008838154811062000bd95762000bd86200127e565b5b90600052602060002001819055508160096000838152602001908152602001600020819055506009600085815260200190815260200160002060009055600880548062000c2b5762000c2a620012ad565b5b6001900381819060005260206000200160009055905550505050565b600062000c5f8362000cd360201b620018df1760201c565b905081600660008573ffffffffffffffffffffffffffffffffffffffff1673ffffffffffffffffffffffffffffffffffffffff168152602001908152602001600020600083815260200190815260200160002081905550806007600084815260200190815260200160002081905550505050565b60008073ffffffffffffffffffffffffffffffffffffffff168273ffffffffffffffffffffffffffffffffffffffff16141562000d47576040517f08c379a000000000000000000000000000000000000000000000000000000000815260040162000d3e9062001352565b60405180910390fd5b600360008373ffffffffffffffffffffffffffffffffffffffff1673ffffffffffffffffffffffffffffffffffffffff168152602001908152602001600020549050919050565b82805462000d9c90620013a3565b90600052602060002090601f01602090048101928262000dc0576000855562000e0c565b82601f1062000ddb57805160ff191683800117855562000e0c565b8280016001018555821562000e0c579182015b8281111562000e0b57825182559160200191906001019062000dee565b5b50905062000e1b919062000e1f565b5090565b5b8082111562000e3a57600081600090555060010162000e20565b5090565b600082825260208201905092915050565b7f4552433732313a207472616e7366657220746f206e6f6e20455243373231526560008201527f63656976657220696d706c656d656e7465720000000000000000000000000000602082015250565b600062000ead60328362000e3e565b915062000eba8262000e4f565b604082019050919050565b6000602082019050818103600083015262000ee08162000e9e565b9050919050565b7f4552433732313a206d696e7420746f20746865207a65726f2061646472657373600082015250565b600062000f1f60208362000e3e565b915062000f2c8262000ee7565b602082019050919050565b6000602082019050818103600083015262000f528162000f10565b9050919050565b7f4552433732313a20746f6b656e20616c7265616479206d696e74656400000000600082015250565b600062000f91601c8362000e3e565b915062000f9e8262000f59565b602082019050919050565b6000602082019050818103600083015262000fc48162000f82565b9050919050565b6000819050919050565b7f4e487b7100000000000000000000000000000000000000000000000000000000600052601160045260246000fd5b6000620010118262000fcb565b91506200101e8362000fcb565b9250827fffffffffffffffffffffffffffffffffffffffffffffffffffffffffffffffff0382111562001056576200105562000fd5565b5b828201905092915050565b600073ffffffffffffffffffffffffffffffffffffffff82169050919050565b60006200108e8262001061565b9050919050565b620010a08162001081565b82525050565b620010b18162000fcb565b82525050565b600081519050919050565b600082825260208201905092915050565b60005b83811015620010f3578082015181840152602081019050620010d6565b8381111562001103576000848401525b50505050565b6000601f19601f8301169050919050565b60006200112782620010b7565b620011338185620010c2565b935062001145818560208601620010d3565b620011508162001109565b840191505092915050565b600060808201905062001172600083018762001095565b62001181602083018662001095565b620011906040830185620010a6565b8181036060830152620011a481846200111a565b905095945050505050565b600080fd5b60007fffffffff0000000000000000000000000000000000000000000000000000000082169050919050565b620011eb81620011b4565b8114620011f757600080fd5b50565b6000815190506200120b81620011e0565b92915050565b6000602082840312156200122a5762001229620011af565b5b60006200123a84828501620011fa565b91505092915050565b6000620012508262000fcb565b91506200125d8362000fcb565b92508282101562001273576200127262000fd5565b5b828203905092915050565b7f4e487b7100000000000000000000000000000000000000000000000000000000600052603260045260246000fd5b7f4e487b7100000000000000000000000000000000000000000000000000000000600052603160045260246000fd5b7f4552433732313a2062616c616e636520717565727920666f7220746865207a6560008201527f726f206164647265737300000000000000000000000000000000000000000000602082015250565b60006200133a602a8362000e3e565b91506200134782620012dc565b604082019050919050565b600060208201905081810360008301526200136d816200132b565b9050919050565b7f4e487b7100000000000000000000000000000000000000000000000000000000600052602260045260246000fd5b60006002820490506001821680620013bc57607f821691505b60208210811415620013d357620013d262001374565b5b50919050565b61561f80620013e96000396000f3fe60806040526004361061027d5760003560e01c8063715018a61161014f578063c6f6f216116100c1578063df8e201d1161007a578063df8e201d14610972578063e69f80401461099b578063e985e9c5146109b7578063f2fde38b146109f4578063fb8b0c0414610a1d578063fd9d319f14610a465761027d565b8063c6f6f21614610866578063c87b56dd1461088f578063ca800144146108cc578063cd009e90146108f5578063d137874b1461091e578063dabd2719146109495761027d565b806395d89b411161011357806395d89b411461075857806398d5fdca14610783578063a22cb465146107ae578063a79ee79a146107d7578063b88d4fde14610800578063c3959649146108295761027d565b8063715018a6146106b857806373088bb8146106cf578063853828b6146106fa5780638da5cb5b1461070457806391b7f5ed1461072f5761027d565b806318160ddd116101f3578063438b6300116101ac578063438b6300146105725780634f6ccce7146105af57806355f804b3146105ec5780636352211e146106155780636f8b44b01461065257806370a082311461067b5761027d565b806318160ddd1461046657806323b872dd146104915780632f745c59146104ba578063319d4bd5146104f7578063419889c31461052057806342842e0e146105495761027d565b8063081812fc11610245578063081812fc14610379578063095ea7b3146103b65780630b5524d4146103df5780630ce5538114610408578063125f48e41461041257806316c61ccc1461043b5761027d565b80630103a1581461028257806301ffc9a7146102bf57806302329a29146102fc57806306c40cd61461032557806306fdde031461034e575b600080fd5b34801561028e57600080fd5b506102a960048036038101906102a49190613a93565b610a6f565b6040516102b69190613adb565b60405180910390f35b3480156102cb57600080fd5b506102e660048036038101906102e19190613b4e565b610a8f565b6040516102f39190613adb565b60405180910390f35b34801561030857600080fd5b50610323600480360381019061031e9190613ba7565b610b09565b005b34801561033157600080fd5b5061034c60048036038101906103479190613d2d565b610ba2565b005b34801561035a57600080fd5b50610363610cd8565b6040516103709190613dfe565b60405180910390f35b34801561038557600080fd5b506103a0600480360381019061039b9190613e56565b610d6a565b6040516103ad9190613e92565b60405180910390f35b3480156103c257600080fd5b506103dd60048036038101906103d89190613ead565b610def565b005b3480156103eb57600080fd5b5061040660048036038101906104019190613d2d565b610f07565b005b610410610fc9565b005b34801561041e57600080fd5b5061043960048036038101906104349190613a93565b611228565b005b34801561044757600080fd5b506104506112ff565b60405161045d9190613adb565b60405180910390f35b34801561047257600080fd5b5061047b611312565b6040516104889190613efc565b60405180910390f35b34801561049d57600080fd5b506104b860048036038101906104b39190613f17565b61131f565b005b3480156104c657600080fd5b506104e160048036038101906104dc9190613ead565b61137f565b6040516104ee9190613efc565b60405180910390f35b34801561050357600080fd5b5061051e60048036038101906105199190613a93565b611424565b005b34801561052c57600080fd5b5061054760048036038101906105429190613a93565b6114fb565b005b34801561055557600080fd5b50610570600480360381019061056b9190613f17565b6115d2565b005b34801561057e57600080fd5b5061059960048036038101906105949190613a93565b6115f2565b6040516105a69190614028565b60405180910390f35b3480156105bb57600080fd5b506105d660048036038101906105d19190613e56565b6116a0565b6040516105e39190613efc565b60405180910390f35b3480156105f857600080fd5b50610613600480360381019061060e91906140ff565b611711565b005b34801561062157600080fd5b5061063c60048036038101906106379190613e56565b6117a7565b6040516106499190613e92565b60405180910390f35b34801561065e57600080fd5b5061067960048036038101906106749190613e56565b611859565b005b34801561068757600080fd5b506106a2600480360381019061069d9190613a93565b6118df565b6040516106af9190613efc565b60405180910390f35b3480156106c457600080fd5b506106cd611997565b005b3480156106db57600080fd5b506106e4611a1f565b6040516106f19190613adb565b60405180910390f35b610702611a32565b005b34801561071057600080fd5b50610719611b16565b6040516107269190613e92565b60405180910390f35b34801561073b57600080fd5b5061075660048036038101906107519190613e56565b611b40565b005b34801561076457600080fd5b5061076d611bc6565b60405161077a9190613dfe565b60405180910390f35b34801561078f57600080fd5b50610798611c58565b6040516107a59190613efc565b60405180910390f35b3480156107ba57600080fd5b506107d560048036038101906107d09190614148565b611c62565b005b3480156107e357600080fd5b506107fe60048036038101906107f99190613e56565b611de3565b005b34801561080c57600080fd5b5061082760048036038101906108229190614229565b611e69565b005b34801561083557600080fd5b50610850600480360381019061084b9190613a93565b611ecb565b60405161085d9190613adb565b60405180910390f35b34801561087257600080fd5b5061088d60048036038101906108889190613e56565b611eeb565b005b34801561089b57600080fd5b506108b660048036038101906108b19190613e56565b611f71565b6040516108c39190613dfe565b60405180910390f35b3480156108d857600080fd5b506108f360048036038101906108ee9190613ead565b612018565b005b34801561090157600080fd5b5061091c60048036038101906109179190613d2d565b612137565b005b34801561092a57600080fd5b50610933612251565b6040516109409190613efc565b60405180910390f35b34801561095557600080fd5b50610970600480360381019061096b9190613e56565b6122b7565b005b34801561097e57600080fd5b5061099960048036038101906109949190613e56565b61233d565b005b6109b560048036038101906109b09190613e56565b6123c3565b005b3480156109c357600080fd5b506109de60048036038101906109d991906142ac565b6125bf565b6040516109eb9190613adb565b60405180910390f35b348015610a0057600080fd5b50610a1b6004803603810190610a169190613a93565b612653565b005b348015610a2957600080fd5b50610a446004803603810190610a3f9190613ba7565b61274b565b005b348015610a5257600080fd5b50610a6d6004803603810190610a689190613d2d565b6127e4565b005b60136020528060005260406000206000915054906101000a900460ff1681565b60007f780e9d63000000000000000000000000000000000000000000000000000000007bffffffffffffffffffffffffffffffffffffffffffffffffffffffff1916827bffffffffffffffffffffffffffffffffffffffffffffffffffffffff19161480610b025750610b01826128be565b5b9050919050565b610b116129a0565b73ffffffffffffffffffffffffffffffffffffffff16610b2f611b16565b73ffffffffffffffffffffffffffffffffffffffff1614610b85576040517f08c379a0000000000000000000000000000000000000000000000000000000008152600401610b7c90614338565b60405180910390fd5b80601260006101000a81548160ff02191690831515021790555050565b610baa6129a0565b73ffffffffffffffffffffffffffffffffffffffff16610bc8611b16565b73ffffffffffffffffffffffffffffffffffffffff1614610c1e576040517f08c379a0000000000000000000000000000000000000000000000000000000008152600401610c1590614338565b60405180910390fd5b600d5481511115610c64576040517f08c379a0000000000000000000000000000000000000000000000000000000008152600401610c5b906143ca565b60405180910390fd5b60005b8151811015610cba57610ca7828281518110610c8657610c856143ea565b5b60200260200101516001610c98611312565b610ca29190614448565b6129a8565b8080610cb29061449e565b915050610c67565b508051600d6000828254610cce91906144e7565b9250508190555050565b606060008054610ce79061454a565b80601f0160208091040260200160405190810160405280929190818152602001828054610d139061454a565b8015610d605780601f10610d3557610100808354040283529160200191610d60565b820191906000526020600020905b815481529060010190602001808311610d4357829003601f168201915b5050505050905090565b6000610d75826129c6565b610db4576040517f08c379a0000000000000000000000000000000000000000000000000000000008152600401610dab906145ee565b60405180910390fd5b6004600083815260200190815260200160002060009054906101000a900473ffffffffffffffffffffffffffffffffffffffff169050919050565b6000610dfa826117a7565b90508073ffffffffffffffffffffffffffffffffffffffff168373ffffffffffffffffffffffffffffffffffffffff161415610e6b576040517f08c379a0000000000000000000000000000000000000000000000000000000008152600401610e6290614680565b60405180910390fd5b8073ffffffffffffffffffffffffffffffffffffffff16610e8a6129a0565b73ffffffffffffffffffffffffffffffffffffffff161480610eb95750610eb881610eb36129a0565b6125bf565b5b610ef8576040517f08c379a0000000000000000000000000000000000000000000000000000000008152600401610eef90614712565b60405180910390fd5b610f028383612a32565b505050565b610f0f6129a0565b73ffffffffffffffffffffffffffffffffffffffff16610f2d611b16565b73ffffffffffffffffffffffffffffffffffffffff1614610f83576040517f08c379a0000000000000000000000000000000000000000000000000000000008152600401610f7a90614338565b60405180910390fd5b60005b8151811015610fc557610fb2828281518110610fa557610fa46143ea565b5b6020026020010151611424565b8080610fbd9061449e565b915050610f86565b5050565b6000610fd3611312565b90506000610fe0336118df565b90506000600e549050601460003373ffffffffffffffffffffffffffffffffffffffff1673ffffffffffffffffffffffffffffffffffffffff16815260200190815260200160002060009054906101000a900460ff161561104c57600f548161104991906144e7565b90505b601260019054906101000a900460ff161561109c576040517f08c379a00000000000000000000000000000000000000000000000000000000081526004016110939061477e565b60405180910390fd5b600c546001846110ac9190614448565b11156110ed576040517f08c379a00000000000000000000000000000000000000000000000000000000081526004016110e490614810565b60405180910390fd5b60008214611130576040517f08c379a00000000000000000000000000000000000000000000000000000000081526004016111279061487c565b60405180910390fd5b601360003373ffffffffffffffffffffffffffffffffffffffff1673ffffffffffffffffffffffffffffffffffffffff16815260200190815260200160002060009054906101000a900460ff166111bc576040517f08c379a00000000000000000000000000000000000000000000000000000000081526004016111b3906148e8565b60405180910390fd5b803410156111ff576040517f08c379a00000000000000000000000000000000000000000000000000000000081526004016111f690614954565b60405180910390fd5b61120933846129a8565b6001600c600082825461121c91906144e7565b92505081905550505050565b6112306129a0565b73ffffffffffffffffffffffffffffffffffffffff1661124e611b16565b73ffffffffffffffffffffffffffffffffffffffff16146112a4576040517f08c379a000000000000000000000000000000000000000000000000000000000815260040161129b90614338565b60405180910390fd5b6001601360008373ffffffffffffffffffffffffffffffffffffffff1673ffffffffffffffffffffffffffffffffffffffff16815260200190815260200160002060006101000a81548160ff02191690831515021790555050565b601260009054906101000a900460ff1681565b6000600880549050905090565b61133061132a6129a0565b82612aeb565b61136f576040517f08c379a0000000000000000000000000000000000000000000000000000000008152600401611366906149e6565b60405180910390fd5b61137a838383612bc9565b505050565b600061138a836118df565b82106113cb576040517f08c379a00000000000000000000000000000000000000000000000000000000081526004016113c290614a78565b60405180910390fd5b600660008473ffffffffffffffffffffffffffffffffffffffff1673ffffffffffffffffffffffffffffffffffffffff168152602001908152602001600020600083815260200190815260200160002054905092915050565b61142c6129a0565b73ffffffffffffffffffffffffffffffffffffffff1661144a611b16565b73ffffffffffffffffffffffffffffffffffffffff16146114a0576040517f08c379a000000000000000000000000000000000000000000000000000000000815260040161149790614338565b60405180910390fd5b6001601460008373ffffffffffffffffffffffffffffffffffffffff1673ffffffffffffffffffffffffffffffffffffffff16815260200190815260200160002060006101000a81548160ff02191690831515021790555050565b6115036129a0565b73ffffffffffffffffffffffffffffffffffffffff16611521611b16565b73ffffffffffffffffffffffffffffffffffffffff1614611577576040517f08c379a000000000000000000000000000000000000000000000000000000000815260040161156e90614338565b60405180910390fd5b6000601360008373ffffffffffffffffffffffffffffffffffffffff1673ffffffffffffffffffffffffffffffffffffffff16815260200190815260200160002060006101000a81548160ff02191690831515021790555050565b6115ed83838360405180602001604052806000815250611e69565b505050565b606060006115ff836118df565b905060008167ffffffffffffffff81111561161d5761161c613bea565b5b60405190808252806020026020018201604052801561164b5781602001602082028036833780820191505090505b50905060005b8281101561169557611663858261137f565b828281518110611676576116756143ea565b5b602002602001018181525050808061168d9061449e565b915050611651565b508092505050919050565b60006116aa611312565b82106116eb576040517f08c379a00000000000000000000000000000000000000000000000000000000081526004016116e290614b0a565b60405180910390fd5b600882815481106116ff576116fe6143ea565b5b90600052602060002001549050919050565b6117196129a0565b73ffffffffffffffffffffffffffffffffffffffff16611737611b16565b73ffffffffffffffffffffffffffffffffffffffff161461178d576040517f08c379a000000000000000000000000000000000000000000000000000000000815260040161178490614338565b60405180910390fd5b80600b90805190602001906117a392919061397e565b5050565b6000806002600084815260200190815260200160002060009054906101000a900473ffffffffffffffffffffffffffffffffffffffff169050600073ffffffffffffffffffffffffffffffffffffffff168173ffffffffffffffffffffffffffffffffffffffff161415611850576040517f08c379a000000000000000000000000000000000000000000000000000000000815260040161184790614b9c565b60405180910390fd5b80915050919050565b6118616129a0565b73ffffffffffffffffffffffffffffffffffffffff1661187f611b16565b73ffffffffffffffffffffffffffffffffffffffff16146118d5576040517f08c379a00000000000000000000000000000000000000000000000000000000081526004016118cc90614338565b60405180910390fd5b8060108190555050565b60008073ffffffffffffffffffffffffffffffffffffffff168273ffffffffffffffffffffffffffffffffffffffff161415611950576040517f08c379a000000000000000000000000000000000000000000000000000000000815260040161194790614c2e565b60405180910390fd5b600360008373ffffffffffffffffffffffffffffffffffffffff1673ffffffffffffffffffffffffffffffffffffffff168152602001908152602001600020549050919050565b61199f6129a0565b73ffffffffffffffffffffffffffffffffffffffff166119bd611b16565b73ffffffffffffffffffffffffffffffffffffffff1614611a13576040517f08c379a0000000000000000000000000000000000000000000000000000000008152600401611a0a90614338565b60405180910390fd5b611a1d6000612e25565b565b601260019054906101000a900460ff1681565b611a3a6129a0565b73ffffffffffffffffffffffffffffffffffffffff16611a58611b16565b73ffffffffffffffffffffffffffffffffffffffff1614611aae576040517f08c379a0000000000000000000000000000000000000000000000000000000008152600401611aa590614338565b60405180910390fd5b6000479050601560009054906101000a900473ffffffffffffffffffffffffffffffffffffffff1673ffffffffffffffffffffffffffffffffffffffff166108fc829081150290604051600060405180830381858888f19350505050611b1357600080fd5b50565b6000600a60009054906101000a900473ffffffffffffffffffffffffffffffffffffffff16905090565b611b486129a0565b73ffffffffffffffffffffffffffffffffffffffff16611b66611b16565b73ffffffffffffffffffffffffffffffffffffffff1614611bbc576040517f08c379a0000000000000000000000000000000000000000000000000000000008152600401611bb390614338565b60405180910390fd5b80600e8190555050565b606060018054611bd59061454a565b80601f0160208091040260200160405190810160405280929190818152602001828054611c019061454a565b8015611c4e5780601f10611c2357610100808354040283529160200191611c4e565b820191906000526020600020905b815481529060010190602001808311611c3157829003601f168201915b5050505050905090565b6000600e54905090565b611c6a6129a0565b73ffffffffffffffffffffffffffffffffffffffff168273ffffffffffffffffffffffffffffffffffffffff161415611cd8576040517f08c379a0000000000000000000000000000000000000000000000000000000008152600401611ccf90614c9a565b60405180910390fd5b8060056000611ce56129a0565b73ffffffffffffffffffffffffffffffffffffffff1673ffffffffffffffffffffffffffffffffffffffff16815260200190815260200160002060008473ffffffffffffffffffffffffffffffffffffffff1673ffffffffffffffffffffffffffffffffffffffff16815260200190815260200160002060006101000a81548160ff0219169083151502179055508173ffffffffffffffffffffffffffffffffffffffff16611d926129a0565b73ffffffffffffffffffffffffffffffffffffffff167f17307eab39ab6107e8899845ad3d59bd9653f200f220920489ca2b5937696c3183604051611dd79190613adb565b60405180910390a35050565b611deb6129a0565b73ffffffffffffffffffffffffffffffffffffffff16611e09611b16565b73ffffffffffffffffffffffffffffffffffffffff1614611e5f576040517f08c379a0000000000000000000000000000000000000000000000000000000008152600401611e5690614338565b60405180910390fd5b80600c8190555050565b611e7a611e746129a0565b83612aeb565b611eb9576040517f08c379a0000000000000000000000000000000000000000000000000000000008152600401611eb0906149e6565b60405180910390fd5b611ec584848484612eeb565b50505050565b60146020528060005260406000206000915054906101000a900460ff1681565b611ef36129a0565b73ffffffffffffffffffffffffffffffffffffffff16611f11611b16565b73ffffffffffffffffffffffffffffffffffffffff1614611f67576040517f08c379a0000000000000000000000000000000000000000000000000000000008152600401611f5e90614338565b60405180910390fd5b8060118190555050565b6060611f7c826129c6565b611fbb576040517f08c379a0000000000000000000000000000000000000000000000000000000008152600401611fb290614d2c565b60405180910390fd5b6000611fc5612f47565b90506000815111611fe55760405180602001604052806000815250612010565b80611fef84612fd9565b604051602001612000929190614d88565b6040516020818303038152906040525b915050919050565b6120206129a0565b73ffffffffffffffffffffffffffffffffffffffff1661203e611b16565b73ffffffffffffffffffffffffffffffffffffffff1614612094576040517f08c379a000000000000000000000000000000000000000000000000000000000815260040161208b90614338565b60405180910390fd5b600d548111156120d9576040517f08c379a00000000000000000000000000000000000000000000000000000000081526004016120d090614e1e565b60405180910390fd5b60006120e3611312565b905060005b82811015612118576121058482846121009190614448565b6129a8565b80806121109061449e565b9150506120e8565b5081600d600082825461212b91906144e7565b92505081905550505050565b61213f6129a0565b73ffffffffffffffffffffffffffffffffffffffff1661215d611b16565b73ffffffffffffffffffffffffffffffffffffffff16146121b3576040517f08c379a00000000000000000000000000000000000000000000000000000000081526004016121aa90614338565b60405180910390fd5b600c5481516121c0611312565b6121ca9190614448565b111561220b576040517f08c379a000000000000000000000000000000000000000000000000000000000815260040161220290614eb0565b60405180910390fd5b60005b815181101561224d5761223a82828151811061222d5761222c6143ea565b5b6020026020010151611228565b80806122459061449e565b91505061220e565b5050565b6000601460003373ffffffffffffffffffffffffffffffffffffffff1673ffffffffffffffffffffffffffffffffffffffff16815260200190815260200160002060009054906101000a900460ff16156122af57600f5490506122b4565b600090505b90565b6122bf6129a0565b73ffffffffffffffffffffffffffffffffffffffff166122dd611b16565b73ffffffffffffffffffffffffffffffffffffffff1614612333576040517f08c379a000000000000000000000000000000000000000000000000000000000815260040161232a90614338565b60405180910390fd5b80600f8190555050565b6123456129a0565b73ffffffffffffffffffffffffffffffffffffffff16612363611b16565b73ffffffffffffffffffffffffffffffffffffffff16146123b9576040517f08c379a00000000000000000000000000000000000000000000000000000000081526004016123b090614338565b60405180910390fd5b80600d8190555050565b60006123cd611312565b90506000600e549050601460003373ffffffffffffffffffffffffffffffffffffffff1673ffffffffffffffffffffffffffffffffffffffff16815260200190815260200160002060009054906101000a900460ff161561243957600f548161243691906144e7565b90505b601260009054906101000a900460ff1615612489576040517f08c379a000000000000000000000000000000000000000000000000000000000815260040161248090614f1c565b60405180910390fd5b6011548311156124ce576040517f08c379a00000000000000000000000000000000000000000000000000000000081526004016124c590614fae565b60405180910390fd5b600c54600d546010546124e191906144e7565b6124eb91906144e7565b83836124f79190614448565b1115612538576040517f08c379a000000000000000000000000000000000000000000000000000000000815260040161252f9061501a565b60405180910390fd5b8281612544919061503a565b341015612586576040517f08c379a000000000000000000000000000000000000000000000000000000000815260040161257d90614954565b60405180910390fd5b60005b838110156125b9576125a63382856125a19190614448565b6129a8565b80806125b19061449e565b915050612589565b50505050565b6000600560008473ffffffffffffffffffffffffffffffffffffffff1673ffffffffffffffffffffffffffffffffffffffff16815260200190815260200160002060008373ffffffffffffffffffffffffffffffffffffffff1673ffffffffffffffffffffffffffffffffffffffff16815260200190815260200160002060009054906101000a900460ff16905092915050565b61265b6129a0565b73ffffffffffffffffffffffffffffffffffffffff16612679611b16565b73ffffffffffffffffffffffffffffffffffffffff16146126cf576040517f08c379a00000000000000000000000000000000000000000000000000000000081526004016126c690614338565b60405180910390fd5b600073ffffffffffffffffffffffffffffffffffffffff168173ffffffffffffffffffffffffffffffffffffffff16141561273f576040517f08c379a000000000000000000000000000000000000000000000000000000000815260040161273690615106565b60405180910390fd5b61274881612e25565b50565b6127536129a0565b73ffffffffffffffffffffffffffffffffffffffff16612771611b16565b73ffffffffffffffffffffffffffffffffffffffff16146127c7576040517f08c379a00000000000000000000000000000000000000000000000000000000081526004016127be90614338565b60405180910390fd5b80601260016101000a81548160ff02191690831515021790555050565b6127ec6129a0565b73ffffffffffffffffffffffffffffffffffffffff1661280a611b16565b73ffffffffffffffffffffffffffffffffffffffff1614612860576040517f08c379a000000000000000000000000000000000000000000000000000000000815260040161285790614338565b60405180910390fd5b60005b81518110156128a25761288f828281518110612882576128816143ea565b5b60200260200101516114fb565b808061289a9061449e565b915050612863565b5050565b600080823b905060008111915050919050565b505050565b60007f80ac58cd000000000000000000000000000000000000000000000000000000007bffffffffffffffffffffffffffffffffffffffffffffffffffffffff1916827bffffffffffffffffffffffffffffffffffffffffffffffffffffffff1916148061298957507f5b5e139f000000000000000000000000000000000000000000000000000000007bffffffffffffffffffffffffffffffffffffffffffffffffffffffff1916827bffffffffffffffffffffffffffffffffffffffffffffffffffffffff1916145b8061299957506129988261313a565b5b9050919050565b600033905090565b6129c28282604051806020016040528060008152506131a4565b5050565b60008073ffffffffffffffffffffffffffffffffffffffff166002600084815260200190815260200160002060009054906101000a900473ffffffffffffffffffffffffffffffffffffffff1673ffffffffffffffffffffffffffffffffffffffff1614159050919050565b816004600083815260200190815260200160002060006101000a81548173ffffffffffffffffffffffffffffffffffffffff021916908373ffffffffffffffffffffffffffffffffffffffff160217905550808273ffffffffffffffffffffffffffffffffffffffff16612aa5836117a7565b73ffffffffffffffffffffffffffffffffffffffff167f8c5be1e5ebec7d5bd14f71427d1e84f3dd0314c0f7b2291e5b200ac8c7c3b92560405160405180910390a45050565b6000612af6826129c6565b612b35576040517f08c379a0000000000000000000000000000000000000000000000000000000008152600401612b2c90615198565b60405180910390fd5b6000612b40836117a7565b90508073ffffffffffffffffffffffffffffffffffffffff168473ffffffffffffffffffffffffffffffffffffffff161480612baf57508373ffffffffffffffffffffffffffffffffffffffff16612b9784610d6a565b73ffffffffffffffffffffffffffffffffffffffff16145b80612bc05750612bbf81856125bf565b5b91505092915050565b8273ffffffffffffffffffffffffffffffffffffffff16612be9826117a7565b73ffffffffffffffffffffffffffffffffffffffff1614612c3f576040517f08c379a0000000000000000000000000000000000000000000000000000000008152600401612c369061522a565b60405180910390fd5b600073ffffffffffffffffffffffffffffffffffffffff168273ffffffffffffffffffffffffffffffffffffffff161415612caf576040517f08c379a0000000000000000000000000000000000000000000000000000000008152600401612ca6906152bc565b60405180910390fd5b612cba8383836131ff565b612cc5600082612a32565b6001600360008573ffffffffffffffffffffffffffffffffffffffff1673ffffffffffffffffffffffffffffffffffffffff1681526020019081526020016000206000828254612d1591906144e7565b925050819055506001600360008473ffffffffffffffffffffffffffffffffffffffff1673ffffffffffffffffffffffffffffffffffffffff1681526020019081526020016000206000828254612d6c9190614448565b92505081905550816002600083815260200190815260200160002060006101000a81548173ffffffffffffffffffffffffffffffffffffffff021916908373ffffffffffffffffffffffffffffffffffffffff160217905550808273ffffffffffffffffffffffffffffffffffffffff168473ffffffffffffffffffffffffffffffffffffffff167fddf252ad1be2c89b69c2b068fc378daa952ba7f163c4a11628f55a4df523b3ef60405160405180910390a4505050565b6000600a60009054906101000a900473ffffffffffffffffffffffffffffffffffffffff16905081600a60006101000a81548173ffffffffffffffffffffffffffffffffffffffff021916908373ffffffffffffffffffffffffffffffffffffffff1602179055508173ffffffffffffffffffffffffffffffffffffffff168173ffffffffffffffffffffffffffffffffffffffff167f8be0079c531659141344cd1fd0a4f28419497f9722a3daafe3b4186f6b6457e060405160405180910390a35050565b612ef6848484612bc9565b612f0284848484613313565b612f41576040517f08c379a0000000000000000000000000000000000000000000000000000000008152600401612f389061534e565b60405180910390fd5b50505050565b6060600b8054612f569061454a565b80601f0160208091040260200160405190810160405280929190818152602001828054612f829061454a565b8015612fcf5780601f10612fa457610100808354040283529160200191612fcf565b820191906000526020600020905b815481529060010190602001808311612fb257829003601f168201915b5050505050905090565b60606000821415613021576040518060400160405280600181526020017f30000000000000000000000000000000000000000000000000000000000000008152509050613135565b600082905060005b6000821461305357808061303c9061449e565b915050600a8261304c919061539d565b9150613029565b60008167ffffffffffffffff81111561306f5761306e613bea565b5b6040519080825280601f01601f1916602001820160405280156130a15781602001600182028036833780820191505090505b5090505b6000851461312e576001826130ba91906144e7565b9150600a856130c991906153ce565b60306130d59190614448565b60f81b8183815181106130eb576130ea6143ea565b5b60200101907effffffffffffffffffffffffffffffffffffffffffffffffffffffffffffff1916908160001a905350600a85613127919061539d565b94506130a5565b8093505050505b919050565b60007f01ffc9a7000000000000000000000000000000000000000000000000000000007bffffffffffffffffffffffffffffffffffffffffffffffffffffffff1916827bffffffffffffffffffffffffffffffffffffffffffffffffffffffff1916149050919050565b6131ae83836134aa565b6131bb6000848484613313565b6131fa576040517f08c379a00000000000000000000000000000000000000000000000000000000081526004016131f19061534e565b60405180910390fd5b505050565b61320a8383836128b9565b600073ffffffffffffffffffffffffffffffffffffffff168373ffffffffffffffffffffffffffffffffffffffff16141561324d5761324881613678565b61328c565b8173ffffffffffffffffffffffffffffffffffffffff168373ffffffffffffffffffffffffffffffffffffffff161461328b5761328a83826136c1565b5b5b600073ffffffffffffffffffffffffffffffffffffffff168273ffffffffffffffffffffffffffffffffffffffff1614156132cf576132ca8161382e565b61330e565b8273ffffffffffffffffffffffffffffffffffffffff168273ffffffffffffffffffffffffffffffffffffffff161461330d5761330c82826138ff565b5b5b505050565b60006133348473ffffffffffffffffffffffffffffffffffffffff166128a6565b1561349d578373ffffffffffffffffffffffffffffffffffffffff1663150b7a0261335d6129a0565b8786866040518563ffffffff1660e01b815260040161337f9493929190615454565b602060405180830381600087803b15801561339957600080fd5b505af19250505080156133ca57506040513d601f19601f820116820180604052508101906133c791906154b5565b60015b61344d573d80600081146133fa576040519150601f19603f3d011682016040523d82523d6000602084013e6133ff565b606091505b50600081511415613445576040517f08c379a000000000000000000000000000000000000000000000000000000000815260040161343c9061534e565b60405180910390fd5b805181602001fd5b63150b7a0260e01b7bffffffffffffffffffffffffffffffffffffffffffffffffffffffff1916817bffffffffffffffffffffffffffffffffffffffffffffffffffffffff1916149150506134a2565b600190505b949350505050565b600073ffffffffffffffffffffffffffffffffffffffff168273ffffffffffffffffffffffffffffffffffffffff16141561351a576040517f08c379a00000000000000000000000000000000000000000000000000000000081526004016135119061552e565b60405180910390fd5b613523816129c6565b15613563576040517f08c379a000000000000000000000000000000000000000000000000000000000815260040161355a9061559a565b60405180910390fd5b61356f600083836131ff565b6001600360008473ffffffffffffffffffffffffffffffffffffffff1673ffffffffffffffffffffffffffffffffffffffff16815260200190815260200160002060008282546135bf9190614448565b92505081905550816002600083815260200190815260200160002060006101000a81548173ffffffffffffffffffffffffffffffffffffffff021916908373ffffffffffffffffffffffffffffffffffffffff160217905550808273ffffffffffffffffffffffffffffffffffffffff16600073ffffffffffffffffffffffffffffffffffffffff167fddf252ad1be2c89b69c2b068fc378daa952ba7f163c4a11628f55a4df523b3ef60405160405180910390a45050565b6008805490506009600083815260200190815260200160002081905550600881908060018154018082558091505060019003906000526020600020016000909190919091505550565b600060016136ce846118df565b6136d891906144e7565b90506000600760008481526020019081526020016000205490508181146137bd576000600660008673ffffffffffffffffffffffffffffffffffffffff1673ffffffffffffffffffffffffffffffffffffffff168152602001908152602001600020600084815260200190815260200160002054905080600660008773ffffffffffffffffffffffffffffffffffffffff1673ffffffffffffffffffffffffffffffffffffffff168152602001908152602001600020600084815260200190815260200160002081905550816007600083815260200190815260200160002081905550505b6007600084815260200190815260200160002060009055600660008573ffffffffffffffffffffffffffffffffffffffff1673ffffffffffffffffffffffffffffffffffffffff16815260200190815260200160002060008381526020019081526020016000206000905550505050565b6000600160088054905061384291906144e7565b9050600060096000848152602001908152602001600020549050600060088381548110613872576138716143ea565b5b906000526020600020015490508060088381548110613894576138936143ea565b5b9060005260206000200181905550816009600083815260200190815260200160002081905550600960008581526020019081526020016000206000905560088054806138e3576138e26155ba565b5b6001900381819060005260206000200160009055905550505050565b600061390a836118df565b905081600660008573ffffffffffffffffffffffffffffffffffffffff1673ffffffffffffffffffffffffffffffffffffffff168152602001908152602001600020600083815260200190815260200160002081905550806007600084815260200190815260200160002081905550505050565b82805461398a9061454a565b90600052602060002090601f0160209004810192826139ac57600085556139f3565b82601f106139c557805160ff19168380011785556139f3565b828001600101855582156139f3579182015b828111156139f25782518255916020019190600101906139d7565b5b509050613a009190613a04565b5090565b5b80821115613a1d576000816000905550600101613a05565b5090565b6000604051905090565b600080fd5b600080fd5b600073ffffffffffffffffffffffffffffffffffffffff82169050919050565b6000613a6082613a35565b9050919050565b613a7081613a55565b8114613a7b57600080fd5b50565b600081359050613a8d81613a67565b92915050565b600060208284031215613aa957613aa8613a2b565b5b6000613ab784828501613a7e565b91505092915050565b60008115159050919050565b613ad581613ac0565b82525050565b6000602082019050613af06000830184613acc565b92915050565b60007fffffffff0000000000000000000000000000000000000000000000000000000082169050919050565b613b2b81613af6565b8114613b3657600080fd5b50565b600081359050613b4881613b22565b92915050565b600060208284031215613b6457613b63613a2b565b5b6000613b7284828501613b39565b91505092915050565b613b8481613ac0565b8114613b8f57600080fd5b50565b600081359050613ba181613b7b565b92915050565b600060208284031215613bbd57613bbc613a2b565b5b6000613bcb84828501613b92565b91505092915050565b600080fd5b6000601f19601f8301169050919050565b7f4e487b7100000000000000000000000000000000000000000000000000000000600052604160045260246000fd5b613c2282613bd9565b810181811067ffffffffffffffff82111715613c4157613c40613bea565b5b80604052505050565b6000613c54613a21565b9050613c608282613c19565b919050565b600067ffffffffffffffff821115613c8057613c7f613bea565b5b602082029050602081019050919050565b600080fd5b6000613ca9613ca484613c65565b613c4a565b90508083825260208201905060208402830185811115613ccc57613ccb613c91565b5b835b81811015613cf55780613ce18882613a7e565b845260208401935050602081019050613cce565b5050509392505050565b600082601f830112613d1457613d13613bd4565b5b8135613d24848260208601613c96565b91505092915050565b600060208284031215613d4357613d42613a2b565b5b600082013567ffffffffffffffff811115613d6157613d60613a30565b5b613d6d84828501613cff565b91505092915050565b600081519050919050565b600082825260208201905092915050565b60005b83811015613db0578082015181840152602081019050613d95565b83811115613dbf576000848401525b50505050565b6000613dd082613d76565b613dda8185613d81565b9350613dea818560208601613d92565b613df381613bd9565b840191505092915050565b60006020820190508181036000830152613e188184613dc5565b905092915050565b6000819050919050565b613e3381613e20565b8114613e3e57600080fd5b50565b600081359050613e5081613e2a565b92915050565b600060208284031215613e6c57613e6b613a2b565b5b6000613e7a84828501613e41565b91505092915050565b613e8c81613a55565b82525050565b6000602082019050613ea76000830184613e83565b92915050565b60008060408385031215613ec457613ec3613a2b565b5b6000613ed285828601613a7e565b9250506020613ee385828601613e41565b9150509250929050565b613ef681613e20565b82525050565b6000602082019050613f116000830184613eed565b92915050565b600080600060608486031215613f3057613f2f613a2b565b5b6000613f3e86828701613a7e565b9350506020613f4f86828701613a7e565b9250506040613f6086828701613e41565b9150509250925092565b600081519050919050565b600082825260208201905092915050565b6000819050602082019050919050565b613f9f81613e20565b82525050565b6000613fb18383613f96565b60208301905092915050565b6000602082019050919050565b6000613fd582613f6a565b613fdf8185613f75565b9350613fea83613f86565b8060005b8381101561401b5781516140028882613fa5565b975061400d83613fbd565b925050600181019050613fee565b5085935050505092915050565b600060208201905081810360008301526140428184613fca565b905092915050565b600080fd5b600067ffffffffffffffff82111561406a57614069613bea565b5b61407382613bd9565b9050602081019050919050565b82818337600083830152505050565b60006140a261409d8461404f565b613c4a565b9050828152602081018484840111156140be576140bd61404a565b5b6140c9848285614080565b509392505050565b600082601f8301126140e6576140e5613bd4565b5b81356140f684826020860161408f565b91505092915050565b60006020828403121561411557614114613a2b565b5b600082013567ffffffffffffffff81111561413357614132613a30565b5b61413f848285016140d1565b91505092915050565b6000806040838503121561415f5761415e613a2b565b5b600061416d85828601613a7e565b925050602061417e85828601613b92565b9150509250929050565b600067ffffffffffffffff8211156141a3576141a2613bea565b5b6141ac82613bd9565b9050602081019050919050565b60006141cc6141c784614188565b613c4a565b9050828152602081018484840111156141e8576141e761404a565b5b6141f3848285614080565b509392505050565b600082601f8301126142105761420f613bd4565b5b81356142208482602086016141b9565b91505092915050565b6000806000806080858703121561424357614242613a2b565b5b600061425187828801613a7e565b945050602061426287828801613a7e565b935050604061427387828801613e41565b925050606085013567ffffffffffffffff81111561429457614293613a30565b5b6142a0878288016141fb565b91505092959194509250565b600080604083850312156142c3576142c2613a2b565b5b60006142d185828601613a7e565b92505060206142e285828601613a7e565b9150509250929050565b7f4f776e61626c653a2063616c6c6572206973206e6f7420746865206f776e6572600082015250565b6000614322602083613d81565b915061432d826142ec565b602082019050919050565b6000602082019050818103600083015261435181614315565b9050919050565b7f45786365656473207265736572766564206769667420426f747320737570706c60008201527f7900000000000000000000000000000000000000000000000000000000000000602082015250565b60006143b4602183613d81565b91506143bf82614358565b604082019050919050565b600060208201905081810360008301526143e3816143a7565b9050919050565b7f4e487b7100000000000000000000000000000000000000000000000000000000600052603260045260246000fd5b7f4e487b7100000000000000000000000000000000000000000000000000000000600052601160045260246000fd5b600061445382613e20565b915061445e83613e20565b9250827fffffffffffffffffffffffffffffffffffffffffffffffffffffffffffffffff0382111561449357614492614419565b5b828201905092915050565b60006144a982613e20565b91507fffffffffffffffffffffffffffffffffffffffffffffffffffffffffffffffff8214156144dc576144db614419565b5b600182019050919050565b60006144f282613e20565b91506144fd83613e20565b9250828210156145105761450f614419565b5b828203905092915050565b7f4e487b7100000000000000000000000000000000000000000000000000000000600052602260045260246000fd5b6000600282049050600182168061456257607f821691505b602082108114156145765761457561451b565b5b50919050565b7f4552433732313a20617070726f76656420717565727920666f72206e6f6e657860008201527f697374656e7420746f6b656e0000000000000000000000000000000000000000602082015250565b60006145d8602c83613d81565b91506145e38261457c565b604082019050919050565b60006020820190508181036000830152614607816145cb565b9050919050565b7f4552433732313a20617070726f76616c20746f2063757272656e74206f776e6560008201527f7200000000000000000000000000000000000000000000000000000000000000602082015250565b600061466a602183613d81565b91506146758261460e565b604082019050919050565b600060208201905081810360008301526146998161465d565b9050919050565b7f4552433732313a20617070726f76652063616c6c6572206973206e6f74206f7760008201527f6e6572206e6f7220617070726f76656420666f7220616c6c0000000000000000602082015250565b60006146fc603883613d81565b9150614707826146a0565b604082019050919050565b6000602082019050818103600083015261472b816146ef565b9050919050565b7f50726573616c6520706175736564000000000000000000000000000000000000600082015250565b6000614768600e83613d81565b915061477382614732565b602082019050919050565b600060208201905081810360008301526147978161475b565b9050919050565b7f45786365656473206d6178696d756d205368726f6f6d732070726573616c652060008201527f726573657276656420737570706c790000000000000000000000000000000000602082015250565b60006147fa602f83613d81565b91506148058261479e565b604082019050919050565b60006020820190508181036000830152614829816147ed565b9050919050565b7f596f7520616c7265616479206861766520736f6d65205368726f6f6d73000000600082015250565b6000614866601d83613d81565b915061487182614830565b602082019050919050565b6000602082019050818103600083015261489581614859565b9050919050565b7f536f72727920796f7520617265206e6f742077686974656c6973746564000000600082015250565b60006148d2601d83613d81565b91506148dd8261489c565b602082019050919050565b60006020820190508181036000830152614901816148c5565b9050919050565b7f45746865722073656e74206973206e6f7420636f727265637400000000000000600082015250565b600061493e601983613d81565b915061494982614908565b602082019050919050565b6000602082019050818103600083015261496d81614931565b9050919050565b7f4552433732313a207472616e736665722063616c6c6572206973206e6f74206f60008201527f776e6572206e6f7220617070726f766564000000000000000000000000000000602082015250565b60006149d0603183613d81565b91506149db82614974565b604082019050919050565b600060208201905081810360008301526149ff816149c3565b9050919050565b7f455243373231456e756d657261626c653a206f776e657220696e646578206f7560008201527f74206f6620626f756e6473000000000000000000000000000000000000000000602082015250565b6000614a62602b83613d81565b9150614a6d82614a06565b604082019050919050565b60006020820190508181036000830152614a9181614a55565b9050919050565b7f455243373231456e756d657261626c653a20676c6f62616c20696e646578206f60008201527f7574206f6620626f756e64730000000000000000000000000000000000000000602082015250565b6000614af4602c83613d81565b9150614aff82614a98565b604082019050919050565b60006020820190508181036000830152614b2381614ae7565b9050919050565b7f4552433732313a206f776e657220717565727920666f72206e6f6e657869737460008201527f656e7420746f6b656e0000000000000000000000000000000000000000000000602082015250565b6000614b86602983613d81565b9150614b9182614b2a565b604082019050919050565b60006020820190508181036000830152614bb581614b79565b9050919050565b7f4552433732313a2062616c616e636520717565727920666f7220746865207a6560008201527f726f206164647265737300000000000000000000000000000000000000000000602082015250565b6000614c18602a83613d81565b9150614c2382614bbc565b604082019050919050565b60006020820190508181036000830152614c4781614c0b565b9050919050565b7f4552433732313a20617070726f766520746f2063616c6c657200000000000000600082015250565b6000614c84601983613d81565b9150614c8f82614c4e565b602082019050919050565b60006020820190508181036000830152614cb381614c77565b9050919050565b7f4552433732314d657461646174613a2055524920717565727920666f72206e6f60008201527f6e6578697374656e7420746f6b656e0000000000000000000000000000000000602082015250565b6000614d16602f83613d81565b9150614d2182614cba565b604082019050919050565b60006020820190508181036000830152614d4581614d09565b9050919050565b600081905092915050565b6000614d6282613d76565b614d6c8185614d4c565b9350614d7c818560208601613d92565b80840191505092915050565b6000614d948285614d57565b9150614da08284614d57565b91508190509392505050565b7f457863656564732072657365727665642067696674205368726f6f6d7320737560008201527f70706c7900000000000000000000000000000000000000000000000000000000602082015250565b6000614e08602483613d81565b9150614e1382614dac565b604082019050919050565b60006020820190508181036000830152614e3781614dfb565b9050919050565b7f576f756c64206578636565642070726573616c6520726573657276656420737560008201527f70706c7900000000000000000000000000000000000000000000000000000000602082015250565b6000614e9a602483613d81565b9150614ea582614e3e565b604082019050919050565b60006020820190508181036000830152614ec981614e8d565b9050919050565b7f53616c6520706175736564000000000000000000000000000000000000000000600082015250565b6000614f06600b83613d81565b9150614f1182614ed0565b602082019050919050565b60006020820190508181036000830152614f3581614ef9565b9050919050565b7f45786365656473206d6178696d756d20616d6f756e74206f66205368726f6f6d60008201527f7320706572207478000000000000000000000000000000000000000000000000602082015250565b6000614f98602883613d81565b9150614fa382614f3c565b604082019050919050565b60006020820190508181036000830152614fc781614f8b565b9050919050565b7f45786365656473206d6178696d756d205368726f6f6d7320737570706c790000600082015250565b6000615004601e83613d81565b915061500f82614fce565b602082019050919050565b6000602082019050818103600083015261503381614ff7565b9050919050565b600061504582613e20565b915061505083613e20565b9250817fffffffffffffffffffffffffffffffffffffffffffffffffffffffffffffffff048311821515161561508957615088614419565b5b828202905092915050565b7f4f776e61626c653a206e6577206f776e657220697320746865207a65726f206160008201527f6464726573730000000000000000000000000000000000000000000000000000602082015250565b60006150f0602683613d81565b91506150fb82615094565b604082019050919050565b6000602082019050818103600083015261511f816150e3565b9050919050565b7f4552433732313a206f70657261746f7220717565727920666f72206e6f6e657860008201527f697374656e7420746f6b656e0000000000000000000000000000000000000000602082015250565b6000615182602c83613d81565b915061518d82615126565b604082019050919050565b600060208201905081810360008301526151b181615175565b9050919050565b7f4552433732313a207472616e73666572206f6620746f6b656e2074686174206960008201527f73206e6f74206f776e0000000000000000000000000000000000000000000000602082015250565b6000615214602983613d81565b915061521f826151b8565b604082019050919050565b6000602082019050818103600083015261524381615207565b9050919050565b7f4552433732313a207472616e7366657220746f20746865207a65726f2061646460008201527f7265737300000000000000000000000000000000000000000000000000000000602082015250565b60006152a6602483613d81565b91506152b18261524a565b604082019050919050565b600060208201905081810360008301526152d581615299565b9050919050565b7f4552433732313a207472616e7366657220746f206e6f6e20455243373231526560008201527f63656976657220696d706c656d656e7465720000000000000000000000000000602082015250565b6000615338603283613d81565b9150615343826152dc565b604082019050919050565b600060208201905081810360008301526153678161532b565b9050919050565b7f4e487b7100000000000000000000000000000000000000000000000000000000600052601260045260246000fd5b60006153a882613e20565b91506153b383613e20565b9250826153c3576153c261536e565b5b828204905092915050565b60006153d982613e20565b91506153e483613e20565b9250826153f4576153f361536e565b5b828206905092915050565b600081519050919050565b600082825260208201905092915050565b6000615426826153ff565b615430818561540a565b9350615440818560208601613d92565b61544981613bd9565b840191505092915050565b60006080820190506154696000830187613e83565b6154766020830186613e83565b6154836040830185613eed565b8181036060830152615495818461541b565b905095945050505050565b6000815190506154af81613b22565b92915050565b6000602082840312156154cb576154ca613a2b565b5b60006154d9848285016154a0565b91505092915050565b7f4552433732313a206d696e7420746f20746865207a65726f2061646472657373600082015250565b6000615518602083613d81565b9150615523826154e2565b602082019050919050565b600060208201905081810360008301526155478161550b565b9050919050565b7f4552433732313a20746f6b656e20616c7265616479206d696e74656400000000600082015250565b6000615584601c83613d81565b915061558f8261554e565b602082019050919050565b600060208201905081810360008301526155b381615577565b9050919050565b7f4e487b7100000000000000000000000000000000000000000000000000000000600052603160045260246000fdfea264697066735822122033c3c28f1d465e720179dda777fdcf6f3393a192aa172ef6e9c5c32b2a5a880664736f6c63430008090033",
  "immutableReferences": {},
  "source": "// SPDX-License-Identifier: MIT\r\npragma solidity ^0.8.0;\r\n\r\nimport \"@openzeppelin/contracts/token/ERC721/extensions/ERC721Enumerable.sol\";\r\nimport \"@openzeppelin/contracts/access/Ownable.sol\";\r\n\r\ncontract BattleShroomsGenOne is ERC721Enumerable, Ownable {\r\n\r\n    using Strings for uint256;\r\n\r\n    string _baseTokenURI;\r\n    uint256 private _presaleReserved = 1000;\r\n    uint256 private _giftReserved = 100;\r\n    uint256 private _price = 0.05 ether;\r\n    uint256 private _botHolderDiscont = 0.015 ether;\r\n    uint256 private MAX_SUPPLY = 5000;\r\n    uint256 private maxPerTx = 10;\r\n    bool public _paused = true;\r\n    bool public _presalePaused = false;\r\n\r\n    mapping(address => bool) public _whiteListed;\r\n    mapping(address => bool) public _botHolders;\r\n\r\n    address t2 = 0xF129f79c05F6EA516d01176A3983475100CA64C4;\r\n    address t3 = 0xf5CA775911EA3F3Fe75d8Ec3756a08AfFbf4dEB6;\r\n    address t4 = 0x67D1D8c8c440f47F00b3CBf14dEbbF9CBEd00eeF;\r\n\r\n    constructor() ERC721(\"Battle Shrooms Gen One\", \"BSONE\") {\r\n        _safeMint(t2, 0);\r\n        _safeMint(t3, 1);\r\n        _safeMint(t4, 2);\r\n    }\r\n\r\n    function mintShroom(uint256 num) public payable {\r\n        uint256 supply = totalSupply();\r\n        uint256 currentPrice = _price;\r\n\r\n        if(_botHolders[msg.sender])\r\n            currentPrice -= _botHolderDiscont;\r\n\r\n        require( !_paused,                              \"Sale paused\" );\r\n        require( num <= maxPerTx,                              \"Exceeds maximum amount of Shrooms per tx\" );\r\n        require( supply + num <= MAX_SUPPLY - _giftReserved - _presaleReserved,      \"Exceeds maximum Shrooms supply\" );\r\n        require( msg.value >= currentPrice * num,             \"Ether sent is not correct\" );\r\n\r\n        for(uint256 i; i < num; i++){\r\n            _safeMint( msg.sender, supply + i );\r\n        }\r\n    }\r\n\r\n    function mintPresaleShroom() public payable {\r\n        uint256 supply = totalSupply();\r\n        uint256 balance = balanceOf(msg.sender);\r\n        uint256 currentPrice = _price;\r\n\r\n        if(_botHolders[msg.sender])\r\n            currentPrice -= _botHolderDiscont;\r\n\r\n        require( !_presalePaused,                              \"Presale paused\" );\r\n        require( supply + 1 <= _presaleReserved,      \"Exceeds maximum Shrooms presale reserved supply\" );\r\n        require( balance == 0,      \"You already have some Shrooms\" );\r\n        require( _whiteListed[msg.sender],      \"Sorry you are not whitelisted\" );\r\n        require( msg.value >= currentPrice,             \"Ether sent is not correct\" );\r\n\r\n        _safeMint( msg.sender, supply);\r\n        _presaleReserved -= 1;\r\n    }\r\n\r\n    function addWL(address _wl) public onlyOwner() {\r\n        _whiteListed[_wl] = true;\r\n    }\r\n\r\n    function addWLMany(address[] memory _wls) public onlyOwner() {\r\n        require(totalSupply() + _wls.length <= _presaleReserved, 'Would exceed presale reserved supply');\r\n\r\n        for(uint256 i = 0; i < _wls.length; i++) {\r\n            addWL(_wls[i]);\r\n        }\r\n    }\r\n\r\n    function addBotHolder(address _newHolder) public onlyOwner() {\r\n        _botHolders[_newHolder] = true;\r\n    }\r\n\r\n    function addBotHolderMany(address[] memory _newBotHolders) public onlyOwner() {\r\n        for(uint256 i = 0; i < _newBotHolders.length; i++) {\r\n            addBotHolder(_newBotHolders[i]);\r\n        }\r\n    }\r\n\r\n    function removeWL(address _wl) public onlyOwner() {\r\n        _whiteListed[_wl] = false;\r\n    }\r\n\r\n    function removeWLMany(address[] memory _wls) public onlyOwner() {\r\n        for(uint256 i = 0; i < _wls.length; i++) {\r\n            removeWL(_wls[i]);\r\n        }\r\n    }\r\n\r\n    function walletOfOwner(address _owner) public view returns(uint256[] memory) {\r\n        uint256 tokenCount = balanceOf(_owner);\r\n\r\n        uint256[] memory tokensId = new uint256[](tokenCount);\r\n        for(uint256 i; i < tokenCount; i++){\r\n            tokensId[i] = tokenOfOwnerByIndex(_owner, i);\r\n        }\r\n        return tokensId;\r\n    }\r\n\r\n    function setPrice(uint256 _newPrice) public onlyOwner() {\r\n        _price = _newPrice;\r\n    }\r\n\r\n    function setMaxPerTx(uint256 _newMaxPerTx) public onlyOwner() {\r\n        maxPerTx = _newMaxPerTx;\r\n    }\r\n\r\n    function setPresaleReserved(uint256 _newReserved) public onlyOwner() {\r\n        _presaleReserved = _newReserved;\r\n    }\r\n\r\n    function setGiftReserved(uint256 _newReserved) public onlyOwner() {\r\n        _giftReserved = _newReserved;\r\n    }\r\n\r\n    function setMaxSupply(uint256 _newMax) public onlyOwner() {\r\n        MAX_SUPPLY = _newMax;\r\n    }\r\n\r\n    function _baseURI() internal view virtual override returns (string memory) {\r\n        return _baseTokenURI;\r\n    }\r\n\r\n    function setBaseURI(string memory baseURI) public onlyOwner {\r\n        _baseTokenURI = baseURI;\r\n    }\r\n\r\n    function getPrice() public view returns (uint256){\r\n        return _price;\r\n    }\r\n\r\n    function getDiscount() public view returns (uint256){\r\n        if(_botHolders[msg.sender])\r\n            return _botHolderDiscont;\r\n        else\r\n            return 0;\r\n    }\r\n\r\n    function giveAway(address _to, uint256 _amount) external onlyOwner() {\r\n        require( _amount <= _giftReserved, \"Exceeds reserved gift Shrooms supply\" );\r\n\r\n        uint256 supply = totalSupply();\r\n        for(uint256 i; i < _amount; i++){\r\n            _safeMint( _to, supply + i );\r\n        }\r\n\r\n        _giftReserved -= _amount;\r\n    }\r\n\r\n    function giveAwayMany(address[] memory addresses) external onlyOwner() {\r\n        require( addresses.length <= _giftReserved, \"Exceeds reserved gift Bots supply\" );\r\n\r\n        for (uint i = 0; i < addresses.length; i++) {\r\n            _safeMint(addresses[i], totalSupply() + 1);\r\n        }\r\n\r\n        _giftReserved -= addresses.length;\r\n    }\r\n\r\n    function pause(bool val) public onlyOwner {\r\n        _paused = val;\r\n    }\r\n\r\n    function presalePause(bool val) public onlyOwner {\r\n        _presalePaused = val;\r\n    }\r\n    \r\n    function setDiscount(uint256 _newDiscount) public onlyOwner() {\r\n        _botHolderDiscont = _newDiscount;\r\n    }\r\n\r\n    function withdrawAll() public payable onlyOwner {\r\n        uint256 _balance = address(this).balance;\r\n\r\n        require(payable(t2).send(_balance));\r\n    }\r\n}",
  "sourcePath": "/Users/vlad/Yandex.Disk.localized/_dev/shrooms/sol/contracts/polygon/BattleShroomsGenOne.sol",
  "compiler": {
    "name": "solc",
    "version": "0.8.9+commit.e5eed63a.Emscripten.clang"
  },
  "schemaVersion": "3.4.3",
  "updatedAt": "2021-10-26T15:23:55.713Z",
  "networkType": "ethereum",
  "devdoc": {
    "kind": "dev",
    "methods": {
      "approve(address,uint256)": {
        "details": "See {IERC721-approve}."
      },
      "balanceOf(address)": {
        "details": "See {IERC721-balanceOf}."
      },
      "getApproved(uint256)": {
        "details": "See {IERC721-getApproved}."
      },
      "isApprovedForAll(address,address)": {
        "details": "See {IERC721-isApprovedForAll}."
      },
      "name()": {
        "details": "See {IERC721Metadata-name}."
      },
      "owner()": {
        "details": "Returns the address of the current owner."
      },
      "ownerOf(uint256)": {
        "details": "See {IERC721-ownerOf}."
      },
      "renounceOwnership()": {
        "details": "Leaves the contract without owner. It will not be possible to call `onlyOwner` functions anymore. Can only be called by the current owner. NOTE: Renouncing ownership will leave the contract without an owner, thereby removing any functionality that is only available to the owner."
      },
      "safeTransferFrom(address,address,uint256)": {
        "details": "See {IERC721-safeTransferFrom}."
      },
      "safeTransferFrom(address,address,uint256,bytes)": {
        "details": "See {IERC721-safeTransferFrom}."
      },
      "setApprovalForAll(address,bool)": {
        "details": "See {IERC721-setApprovalForAll}."
      },
      "supportsInterface(bytes4)": {
        "details": "See {IERC165-supportsInterface}."
      },
      "symbol()": {
        "details": "See {IERC721Metadata-symbol}."
      },
      "tokenByIndex(uint256)": {
        "details": "See {IERC721Enumerable-tokenByIndex}."
      },
      "tokenOfOwnerByIndex(address,uint256)": {
        "details": "See {IERC721Enumerable-tokenOfOwnerByIndex}."
      },
      "tokenURI(uint256)": {
        "details": "See {IERC721Metadata-tokenURI}."
      },
      "totalSupply()": {
        "details": "See {IERC721Enumerable-totalSupply}."
      },
      "transferFrom(address,address,uint256)": {
        "details": "See {IERC721-transferFrom}."
      },
      "transferOwnership(address)": {
        "details": "Transfers ownership of the contract to a new account (`newOwner`). Can only be called by the current owner."
      }
    },
    "version": 1
  },
  "userdoc": {
    "kind": "user",
    "methods": {},
    "version": 1
  }
}