{
  "contractName": "BCBPuzzlePrizes",
  "abi": [
    {
      "inputs": [],
      "stateMutability": "nonpayable",
      "type": "constructor"
    },
    {
      "anonymous": false,
      "inputs": [
        {
          "indexed": true,
          "internalType": "address",
          "name": "owner",
          "type": "address"
        },
        {
          "indexed": true,
          "internalType": "address",
          "name": "approved",
          "type": "address"
        },
        {
          "indexed": true,
          "internalType": "uint256",
          "name": "tokenId",
          "type": "uint256"
        }
      ],
      "name": "Approval",
      "type": "event"
    },
    {
      "anonymous": false,
      "inputs": [
        {
          "indexed": true,
          "internalType": "address",
          "name": "owner",
          "type": "address"
        },
        {
          "indexed": true,
          "internalType": "address",
          "name": "operator",
          "type": "address"
        },
        {
          "indexed": false,
          "internalType": "bool",
          "name": "approved",
          "type": "bool"
        }
      ],
      "name": "ApprovalForAll",
      "type": "event"
    },
    {
      "anonymous": false,
      "inputs": [
        {
          "indexed": true,
          "internalType": "address",
          "name": "previousOwner",
          "type": "address"
        },
        {
          "indexed": true,
          "internalType": "address",
          "name": "newOwner",
          "type": "address"
        }
      ],
      "name": "OwnershipTransferred",
      "type": "event"
    },
    {
      "anonymous": false,
      "inputs": [
        {
          "indexed": true,
          "internalType": "address",
          "name": "from",
          "type": "address"
        },
        {
          "indexed": true,
          "internalType": "address",
          "name": "to",
          "type": "address"
        },
        {
          "indexed": true,
          "internalType": "uint256",
          "name": "tokenId",
          "type": "uint256"
        }
      ],
      "name": "Transfer",
      "type": "event"
    },
    {
      "inputs": [
        {
          "internalType": "address",
          "name": "to",
          "type": "address"
        },
        {
          "internalType": "uint256",
          "name": "tokenId",
          "type": "uint256"
        }
      ],
      "name": "approve",
      "outputs": [],
      "stateMutability": "nonpayable",
      "type": "function"
    },
    {
      "inputs": [
        {
          "internalType": "address",
          "name": "owner",
          "type": "address"
        }
      ],
      "name": "balanceOf",
      "outputs": [
        {
          "internalType": "uint256",
          "name": "",
          "type": "uint256"
        }
      ],
      "stateMutability": "view",
      "type": "function",
      "constant": true
    },
    {
      "inputs": [
        {
          "internalType": "uint256",
          "name": "tokenId",
          "type": "uint256"
        }
      ],
      "name": "getApproved",
      "outputs": [
        {
          "internalType": "address",
          "name": "",
          "type": "address"
        }
      ],
      "stateMutability": "view",
      "type": "function",
      "constant": true
    },
    {
      "inputs": [],
      "name": "name",
      "outputs": [
        {
          "internalType": "string",
          "name": "",
          "type": "string"
        }
      ],
      "stateMutability": "view",
      "type": "function",
      "constant": true
    },
    {
      "inputs": [],
      "name": "owner",
      "outputs": [
        {
          "internalType": "address",
          "name": "",
          "type": "address"
        }
      ],
      "stateMutability": "view",
      "type": "function",
      "constant": true
    },
    {
      "inputs": [
        {
          "internalType": "uint256",
          "name": "tokenId",
          "type": "uint256"
        }
      ],
      "name": "ownerOf",
      "outputs": [
        {
          "internalType": "address",
          "name": "",
          "type": "address"
        }
      ],
      "stateMutability": "view",
      "type": "function",
      "constant": true
    },
    {
      "inputs": [],
      "name": "renounceOwnership",
      "outputs": [],
      "stateMutability": "nonpayable",
      "type": "function"
    },
    {
      "inputs": [
        {
          "internalType": "address",
          "name": "from",
          "type": "address"
        },
        {
          "internalType": "address",
          "name": "to",
          "type": "address"
        },
        {
          "internalType": "uint256",
          "name": "tokenId",
          "type": "uint256"
        }
      ],
      "name": "safeTransferFrom",
      "outputs": [],
      "stateMutability": "nonpayable",
      "type": "function"
    },
    {
      "inputs": [
        {
          "internalType": "address",
          "name": "from",
          "type": "address"
        },
        {
          "internalType": "address",
          "name": "to",
          "type": "address"
        },
        {
          "internalType": "uint256",
          "name": "tokenId",
          "type": "uint256"
        },
        {
          "internalType": "bytes",
          "name": "_data",
          "type": "bytes"
        }
      ],
      "name": "safeTransferFrom",
      "outputs": [],
      "stateMutability": "nonpayable",
      "type": "function"
    },
    {
      "inputs": [
        {
          "internalType": "address",
          "name": "operator",
          "type": "address"
        },
        {
          "internalType": "bool",
          "name": "approved",
          "type": "bool"
        }
      ],
      "name": "setApprovalForAll",
      "outputs": [],
      "stateMutability": "nonpayable",
      "type": "function"
    },
    {
      "inputs": [
        {
          "internalType": "bytes4",
          "name": "interfaceId",
          "type": "bytes4"
        }
      ],
      "name": "supportsInterface",
      "outputs": [
        {
          "internalType": "bool",
          "name": "",
          "type": "bool"
        }
      ],
      "stateMutability": "view",
      "type": "function",
      "constant": true
    },
    {
      "inputs": [],
      "name": "symbol",
      "outputs": [
        {
          "internalType": "string",
          "name": "",
          "type": "string"
        }
      ],
      "stateMutability": "view",
      "type": "function",
      "constant": true
    },
    {
      "inputs": [
        {
          "internalType": "uint256",
          "name": "index",
          "type": "uint256"
        }
      ],
      "name": "tokenByIndex",
      "outputs": [
        {
          "internalType": "uint256",
          "name": "",
          "type": "uint256"
        }
      ],
      "stateMutability": "view",
      "type": "function",
      "constant": true
    },
    {
      "inputs": [
        {
          "internalType": "address",
          "name": "owner",
          "type": "address"
        },
        {
          "internalType": "uint256",
          "name": "index",
          "type": "uint256"
        }
      ],
      "name": "tokenOfOwnerByIndex",
      "outputs": [
        {
          "internalType": "uint256",
          "name": "",
          "type": "uint256"
        }
      ],
      "stateMutability": "view",
      "type": "function",
      "constant": true
    },
    {
      "inputs": [
        {
          "internalType": "uint256",
          "name": "tokenId",
          "type": "uint256"
        }
      ],
      "name": "tokenURI",
      "outputs": [
        {
          "internalType": "string",
          "name": "",
          "type": "string"
        }
      ],
      "stateMutability": "view",
      "type": "function",
      "constant": true
    },
    {
      "inputs": [],
      "name": "totalSupply",
      "outputs": [
        {
          "internalType": "uint256",
          "name": "",
          "type": "uint256"
        }
      ],
      "stateMutability": "view",
      "type": "function",
      "constant": true
    },
    {
      "inputs": [
        {
          "internalType": "address",
          "name": "from",
          "type": "address"
        },
        {
          "internalType": "address",
          "name": "to",
          "type": "address"
        },
        {
          "internalType": "uint256",
          "name": "tokenId",
          "type": "uint256"
        }
      ],
      "name": "transferFrom",
      "outputs": [],
      "stateMutability": "nonpayable",
      "type": "function"
    },
    {
      "inputs": [
        {
          "internalType": "address",
          "name": "newOwner",
          "type": "address"
        }
      ],
      "name": "transferOwnership",
      "outputs": [],
      "stateMutability": "nonpayable",
      "type": "function"
    },
    {
      "inputs": [
        {
          "internalType": "address",
          "name": "winner",
          "type": "address"
        },
        {
          "internalType": "uint256",
          "name": "id",
          "type": "uint256"
        }
      ],
      "name": "mintPrize",
      "outputs": [],
      "stateMutability": "nonpayable",
      "type": "function"
    },
    {
      "inputs": [
        {
          "internalType": "string",
          "name": "baseURI",
          "type": "string"
        }
      ],
      "name": "setBaseURI",
      "outputs": [],
      "stateMutability": "nonpayable",
      "type": "function"
    },
    {
      "inputs": [
        {
          "internalType": "uint256",
          "name": "_newGenSupply",
          "type": "uint256"
        }
      ],
      "name": "setGenSupply",
      "outputs": [],
      "stateMutability": "nonpayable",
      "type": "function"
    },
    {
      "inputs": [],
      "name": "getGenSupply",
      "outputs": [
        {
          "internalType": "uint256",
          "name": "",
          "type": "uint256"
        }
      ],
      "stateMutability": "view",
      "type": "function",
      "constant": true
    },
    {
      "inputs": [
        {
          "internalType": "address",
          "name": "_owner",
          "type": "address"
        },
        {
          "internalType": "address",
          "name": "_operator",
          "type": "address"
        }
      ],
      "name": "isApprovedForAll",
      "outputs": [
        {
          "internalType": "bool",
          "name": "isOperator",
          "type": "bool"
        }
      ],
      "stateMutability": "view",
      "type": "function",
      "constant": true
    }
  ],
  "bytecode": "0x60806040526021600c553480156200001657600080fd5b506040518060400160405280601181526020017f4243422050757a7a6c65205072697a65730000000000000000000000000000008152506040518060400160405280600581526020017f424342505000000000000000000000000000000000000000000000000000000081525081600090805190602001906200009b92919062000272565b508060019080519060200190620000b492919062000272565b505050620000d7620000cb620000dd60201b60201c565b620000f960201b60201c565b62000387565b6000620000f4620001bf60201b6200115e1760201c565b905090565b6000600a60009054906101000a900473ffffffffffffffffffffffffffffffffffffffff16905081600a60006101000a81548173ffffffffffffffffffffffffffffffffffffffff021916908373ffffffffffffffffffffffffffffffffffffffff1602179055508173ffffffffffffffffffffffffffffffffffffffff168173ffffffffffffffffffffffffffffffffffffffff167f8be0079c531659141344cd1fd0a4f28419497f9722a3daafe3b4186f6b6457e060405160405180910390a35050565b60003073ffffffffffffffffffffffffffffffffffffffff163373ffffffffffffffffffffffffffffffffffffffff1614156200026b57600080368080601f016020809104026020016040519081016040528093929190818152602001838380828437600081840152601f19601f820116905080830192505050505050509050600080369050905073ffffffffffffffffffffffffffffffffffffffff8183015116925050506200026f565b3390505b90565b828054620002809062000322565b90600052602060002090601f016020900481019282620002a45760008555620002f0565b82601f10620002bf57805160ff1916838001178555620002f0565b82800160010185558215620002f0579182015b82811115620002ef578251825591602001919060010190620002d2565b5b509050620002ff919062000303565b5090565b5b808211156200031e57600081600090555060010162000304565b5090565b600060028204905060018216806200033b57607f821691505b6020821081141562000352576200035162000358565b5b50919050565b7f4e487b7100000000000000000000000000000000000000000000000000000000600052602260045260246000fd5b6138b580620003976000396000f3fe608060405234801561001057600080fd5b506004361061014d5760003560e01c806370a08231116100c3578063b88d4fde1161007c578063b88d4fde1461039c578063c87b56dd146103b8578063e3305bcc146103e8578063e985e9c514610404578063f2fde38b14610434578063fbcac555146104505761014d565b806370a08231146102ee578063715018a61461031e5780638da5cb5b1461032857806395d89b4114610346578063a22cb46514610364578063a5a2e99f146103805761014d565b806323b872dd1161011557806323b872dd1461020a5780632f745c591461022657806342842e0e146102565780634f6ccce71461027257806355f804b3146102a25780636352211e146102be5761014d565b806301ffc9a71461015257806306fdde0314610182578063081812fc146101a0578063095ea7b3146101d057806318160ddd146101ec575b600080fd5b61016c60048036038101906101679190612731565b61046e565b6040516101799190612bf5565b60405180910390f35b61018a6104e8565b6040516101979190612c10565b60405180910390f35b6101ba60048036038101906101b591906127d4565b61057a565b6040516101c79190612b8e565b60405180910390f35b6101ea60048036038101906101e591906126f1565b6105ff565b005b6101f4610717565b6040516102019190612e92565b60405180910390f35b610224600480360381019061021f91906125db565b610724565b005b610240600480360381019061023b91906126f1565b610784565b60405161024d9190612e92565b60405180910390f35b610270600480360381019061026b91906125db565b610829565b005b61028c600480360381019061028791906127d4565b610849565b6040516102999190612e92565b60405180910390f35b6102bc60048036038101906102b7919061278b565b6108ba565b005b6102d860048036038101906102d391906127d4565b610950565b6040516102e59190612b8e565b60405180910390f35b6103086004803603810190610303919061256e565b610a02565b6040516103159190612e92565b60405180910390f35b610326610aba565b005b610330610b42565b60405161033d9190612b8e565b60405180910390f35b61034e610b6c565b60405161035b9190612c10565b60405180910390f35b61037e600480360381019061037991906126b1565b610bfe565b005b61039a600480360381019061039591906126f1565b610d7f565b005b6103b660048036038101906103b1919061262e565b610e67565b005b6103d260048036038101906103cd91906127d4565b610ec9565b6040516103df9190612c10565b60405180910390f35b61040260048036038101906103fd91906127d4565b610f70565b005b61041e6004803603810190610419919061259b565b610ff6565b60405161042b9190612bf5565b60405180910390f35b61044e6004803603810190610449919061256e565b61105c565b005b610458611154565b6040516104659190612e92565b60405180910390f35b60007f780e9d63000000000000000000000000000000000000000000000000000000007bffffffffffffffffffffffffffffffffffffffffffffffffffffffff1916827bffffffffffffffffffffffffffffffffffffffffffffffffffffffff191614806104e157506104e08261120f565b5b9050919050565b6060600080546104f7906130e8565b80601f0160208091040260200160405190810160405280929190818152602001828054610523906130e8565b80156105705780601f1061054557610100808354040283529160200191610570565b820191906000526020600020905b81548152906001019060200180831161055357829003601f168201915b5050505050905090565b6000610585826112f1565b6105c4576040517f08c379a00000000000000000000000000000000000000000000000000000000081526004016105bb90612d92565b60405180910390fd5b6004600083815260200190815260200160002060009054906101000a900473ffffffffffffffffffffffffffffffffffffffff169050919050565b600061060a82610950565b90508073ffffffffffffffffffffffffffffffffffffffff168373ffffffffffffffffffffffffffffffffffffffff16141561067b576040517f08c379a000000000000000000000000000000000000000000000000000000000815260040161067290612e12565b60405180910390fd5b8073ffffffffffffffffffffffffffffffffffffffff1661069a61135d565b73ffffffffffffffffffffffffffffffffffffffff1614806106c957506106c8816106c361135d565b610ff6565b5b610708576040517f08c379a00000000000000000000000000000000000000000000000000000000081526004016106ff90612d12565b60405180910390fd5b610712838361136c565b505050565b6000600880549050905090565b61073561072f61135d565b82611425565b610774576040517f08c379a000000000000000000000000000000000000000000000000000000000815260040161076b90612e52565b60405180910390fd5b61077f838383611503565b505050565b600061078f83610a02565b82106107d0576040517f08c379a00000000000000000000000000000000000000000000000000000000081526004016107c790612c32565b60405180910390fd5b600660008473ffffffffffffffffffffffffffffffffffffffff1673ffffffffffffffffffffffffffffffffffffffff168152602001908152602001600020600083815260200190815260200160002054905092915050565b61084483838360405180602001604052806000815250610e67565b505050565b6000610853610717565b8210610894576040517f08c379a000000000000000000000000000000000000000000000000000000000815260040161088b90612e72565b60405180910390fd5b600882815481106108a8576108a7613281565b5b90600052602060002001549050919050565b6108c261135d565b73ffffffffffffffffffffffffffffffffffffffff166108e0610b42565b73ffffffffffffffffffffffffffffffffffffffff1614610936576040517f08c379a000000000000000000000000000000000000000000000000000000000815260040161092d90612db2565b60405180910390fd5b80600b908051906020019061094c929190612382565b5050565b6000806002600084815260200190815260200160002060009054906101000a900473ffffffffffffffffffffffffffffffffffffffff169050600073ffffffffffffffffffffffffffffffffffffffff168173ffffffffffffffffffffffffffffffffffffffff1614156109f9576040517f08c379a00000000000000000000000000000000000000000000000000000000081526004016109f090612d52565b60405180910390fd5b80915050919050565b60008073ffffffffffffffffffffffffffffffffffffffff168273ffffffffffffffffffffffffffffffffffffffff161415610a73576040517f08c379a0000000000000000000000000000000000000000000000000000000008152600401610a6a90612d32565b60405180910390fd5b600360008373ffffffffffffffffffffffffffffffffffffffff1673ffffffffffffffffffffffffffffffffffffffff168152602001908152602001600020549050919050565b610ac261135d565b73ffffffffffffffffffffffffffffffffffffffff16610ae0610b42565b73ffffffffffffffffffffffffffffffffffffffff1614610b36576040517f08c379a0000000000000000000000000000000000000000000000000000000008152600401610b2d90612db2565b60405180910390fd5b610b40600061175f565b565b6000600a60009054906101000a900473ffffffffffffffffffffffffffffffffffffffff16905090565b606060018054610b7b906130e8565b80601f0160208091040260200160405190810160405280929190818152602001828054610ba7906130e8565b8015610bf45780601f10610bc957610100808354040283529160200191610bf4565b820191906000526020600020905b815481529060010190602001808311610bd757829003601f168201915b5050505050905090565b610c0661135d565b73ffffffffffffffffffffffffffffffffffffffff168273ffffffffffffffffffffffffffffffffffffffff161415610c74576040517f08c379a0000000000000000000000000000000000000000000000000000000008152600401610c6b90612cd2565b60405180910390fd5b8060056000610c8161135d565b73ffffffffffffffffffffffffffffffffffffffff1673ffffffffffffffffffffffffffffffffffffffff16815260200190815260200160002060008473ffffffffffffffffffffffffffffffffffffffff1673ffffffffffffffffffffffffffffffffffffffff16815260200190815260200160002060006101000a81548160ff0219169083151502179055508173ffffffffffffffffffffffffffffffffffffffff16610d2e61135d565b73ffffffffffffffffffffffffffffffffffffffff167f17307eab39ab6107e8899845ad3d59bd9653f200f220920489ca2b5937696c3183604051610d739190612bf5565b60405180910390a35050565b610d8761135d565b73ffffffffffffffffffffffffffffffffffffffff16610da5610b42565b73ffffffffffffffffffffffffffffffffffffffff1614610dfb576040517f08c379a0000000000000000000000000000000000000000000000000000000008152600401610df290612db2565b60405180910390fd5b6000610e05610717565b9050600c54600182610e179190612f77565b1115610e58576040517f08c379a0000000000000000000000000000000000000000000000000000000008152600401610e4f90612e32565b60405180910390fd5b610e628383611825565b505050565b610e78610e7261135d565b83611425565b610eb7576040517f08c379a0000000000000000000000000000000000000000000000000000000008152600401610eae90612e52565b60405180910390fd5b610ec384848484611843565b50505050565b6060610ed4826112f1565b610f13576040517f08c379a0000000000000000000000000000000000000000000000000000000008152600401610f0a90612df2565b60405180910390fd5b6000610f1d61189f565b90506000815111610f3d5760405180602001604052806000815250610f68565b80610f4784611931565b604051602001610f58929190612b6a565b6040516020818303038152906040525b915050919050565b610f7861135d565b73ffffffffffffffffffffffffffffffffffffffff16610f96610b42565b73ffffffffffffffffffffffffffffffffffffffff1614610fec576040517f08c379a0000000000000000000000000000000000000000000000000000000008152600401610fe390612db2565b60405180910390fd5b80600c8190555050565b60007358807bad0b376efc12f5ad86aac70e78ed67deae73ffffffffffffffffffffffffffffffffffffffff168273ffffffffffffffffffffffffffffffffffffffff1614156110495760019050611056565b6110538383611a92565b90505b92915050565b61106461135d565b73ffffffffffffffffffffffffffffffffffffffff16611082610b42565b73ffffffffffffffffffffffffffffffffffffffff16146110d8576040517f08c379a00000000000000000000000000000000000000000000000000000000081526004016110cf90612db2565b60405180910390fd5b600073ffffffffffffffffffffffffffffffffffffffff168173ffffffffffffffffffffffffffffffffffffffff161415611148576040517f08c379a000000000000000000000000000000000000000000000000000000000815260040161113f90612c72565b60405180910390fd5b6111518161175f565b50565b6000600c54905090565b60003073ffffffffffffffffffffffffffffffffffffffff163373ffffffffffffffffffffffffffffffffffffffff16141561120857600080368080601f016020809104026020016040519081016040528093929190818152602001838380828437600081840152601f19601f820116905080830192505050505050509050600080369050905073ffffffffffffffffffffffffffffffffffffffff81830151169250505061120c565b3390505b90565b60007f80ac58cd000000000000000000000000000000000000000000000000000000007bffffffffffffffffffffffffffffffffffffffffffffffffffffffff1916827bffffffffffffffffffffffffffffffffffffffffffffffffffffffff191614806112da57507f5b5e139f000000000000000000000000000000000000000000000000000000007bffffffffffffffffffffffffffffffffffffffffffffffffffffffff1916827bffffffffffffffffffffffffffffffffffffffffffffffffffffffff1916145b806112ea57506112e982611b26565b5b9050919050565b60008073ffffffffffffffffffffffffffffffffffffffff166002600084815260200190815260200160002060009054906101000a900473ffffffffffffffffffffffffffffffffffffffff1673ffffffffffffffffffffffffffffffffffffffff1614159050919050565b600061136761115e565b905090565b816004600083815260200190815260200160002060006101000a81548173ffffffffffffffffffffffffffffffffffffffff021916908373ffffffffffffffffffffffffffffffffffffffff160217905550808273ffffffffffffffffffffffffffffffffffffffff166113df83610950565b73ffffffffffffffffffffffffffffffffffffffff167f8c5be1e5ebec7d5bd14f71427d1e84f3dd0314c0f7b2291e5b200ac8c7c3b92560405160405180910390a45050565b6000611430826112f1565b61146f576040517f08c379a000000000000000000000000000000000000000000000000000000000815260040161146690612cf2565b60405180910390fd5b600061147a83610950565b90508073ffffffffffffffffffffffffffffffffffffffff168473ffffffffffffffffffffffffffffffffffffffff1614806114e957508373ffffffffffffffffffffffffffffffffffffffff166114d18461057a565b73ffffffffffffffffffffffffffffffffffffffff16145b806114fa57506114f98185610ff6565b5b91505092915050565b8273ffffffffffffffffffffffffffffffffffffffff1661152382610950565b73ffffffffffffffffffffffffffffffffffffffff1614611579576040517f08c379a000000000000000000000000000000000000000000000000000000000815260040161157090612dd2565b60405180910390fd5b600073ffffffffffffffffffffffffffffffffffffffff168273ffffffffffffffffffffffffffffffffffffffff1614156115e9576040517f08c379a00000000000000000000000000000000000000000000000000000000081526004016115e090612cb2565b60405180910390fd5b6115f4838383611b90565b6115ff60008261136c565b6001600360008573ffffffffffffffffffffffffffffffffffffffff1673ffffffffffffffffffffffffffffffffffffffff168152602001908152602001600020600082825461164f9190612ffe565b925050819055506001600360008473ffffffffffffffffffffffffffffffffffffffff1673ffffffffffffffffffffffffffffffffffffffff16815260200190815260200160002060008282546116a69190612f77565b92505081905550816002600083815260200190815260200160002060006101000a81548173ffffffffffffffffffffffffffffffffffffffff021916908373ffffffffffffffffffffffffffffffffffffffff160217905550808273ffffffffffffffffffffffffffffffffffffffff168473ffffffffffffffffffffffffffffffffffffffff167fddf252ad1be2c89b69c2b068fc378daa952ba7f163c4a11628f55a4df523b3ef60405160405180910390a4505050565b6000600a60009054906101000a900473ffffffffffffffffffffffffffffffffffffffff16905081600a60006101000a81548173ffffffffffffffffffffffffffffffffffffffff021916908373ffffffffffffffffffffffffffffffffffffffff1602179055508173ffffffffffffffffffffffffffffffffffffffff168173ffffffffffffffffffffffffffffffffffffffff167f8be0079c531659141344cd1fd0a4f28419497f9722a3daafe3b4186f6b6457e060405160405180910390a35050565b61183f828260405180602001604052806000815250611ca4565b5050565b61184e848484611503565b61185a84848484611cff565b611899576040517f08c379a000000000000000000000000000000000000000000000000000000000815260040161189090612c52565b60405180910390fd5b50505050565b6060600b80546118ae906130e8565b80601f01602080910402602001604051908101604052809291908181526020018280546118da906130e8565b80156119275780601f106118fc57610100808354040283529160200191611927565b820191906000526020600020905b81548152906001019060200180831161190a57829003601f168201915b5050505050905090565b60606000821415611979576040518060400160405280600181526020017f30000000000000000000000000000000000000000000000000000000000000008152509050611a8d565b600082905060005b600082146119ab5780806119949061314b565b915050600a826119a49190612fcd565b9150611981565b60008167ffffffffffffffff8111156119c7576119c66132b0565b5b6040519080825280601f01601f1916602001820160405280156119f95781602001600182028036833780820191505090505b5090505b60008514611a8657600182611a129190612ffe565b9150600a85611a219190613194565b6030611a2d9190612f77565b60f81b818381518110611a4357611a42613281565b5b60200101907effffffffffffffffffffffffffffffffffffffffffffffffffffffffffffff1916908160001a905350600a85611a7f9190612fcd565b94506119fd565b8093505050505b919050565b6000600560008473ffffffffffffffffffffffffffffffffffffffff1673ffffffffffffffffffffffffffffffffffffffff16815260200190815260200160002060008373ffffffffffffffffffffffffffffffffffffffff1673ffffffffffffffffffffffffffffffffffffffff16815260200190815260200160002060009054906101000a900460ff16905092915050565b60007f01ffc9a7000000000000000000000000000000000000000000000000000000007bffffffffffffffffffffffffffffffffffffffffffffffffffffffff1916827bffffffffffffffffffffffffffffffffffffffffffffffffffffffff1916149050919050565b611b9b838383611e96565b600073ffffffffffffffffffffffffffffffffffffffff168373ffffffffffffffffffffffffffffffffffffffff161415611bde57611bd981611e9b565b611c1d565b8173ffffffffffffffffffffffffffffffffffffffff168373ffffffffffffffffffffffffffffffffffffffff1614611c1c57611c1b8382611ee4565b5b5b600073ffffffffffffffffffffffffffffffffffffffff168273ffffffffffffffffffffffffffffffffffffffff161415611c6057611c5b81612051565b611c9f565b8273ffffffffffffffffffffffffffffffffffffffff168273ffffffffffffffffffffffffffffffffffffffff1614611c9e57611c9d8282612122565b5b5b505050565b611cae83836121a1565b611cbb6000848484611cff565b611cfa576040517f08c379a0000000000000000000000000000000000000000000000000000000008152600401611cf190612c52565b60405180910390fd5b505050565b6000611d208473ffffffffffffffffffffffffffffffffffffffff1661236f565b15611e89578373ffffffffffffffffffffffffffffffffffffffff1663150b7a02611d4961135d565b8786866040518563ffffffff1660e01b8152600401611d6b9493929190612ba9565b602060405180830381600087803b158015611d8557600080fd5b505af1925050508015611db657506040513d601f19601f82011682018060405250810190611db3919061275e565b60015b611e39573d8060008114611de6576040519150601f19603f3d011682016040523d82523d6000602084013e611deb565b606091505b50600081511415611e31576040517f08c379a0000000000000000000000000000000000000000000000000000000008152600401611e2890612c52565b60405180910390fd5b805181602001fd5b63150b7a0260e01b7bffffffffffffffffffffffffffffffffffffffffffffffffffffffff1916817bffffffffffffffffffffffffffffffffffffffffffffffffffffffff191614915050611e8e565b600190505b949350505050565b505050565b6008805490506009600083815260200190815260200160002081905550600881908060018154018082558091505060019003906000526020600020016000909190919091505550565b60006001611ef184610a02565b611efb9190612ffe565b9050600060076000848152602001908152602001600020549050818114611fe0576000600660008673ffffffffffffffffffffffffffffffffffffffff1673ffffffffffffffffffffffffffffffffffffffff168152602001908152602001600020600084815260200190815260200160002054905080600660008773ffffffffffffffffffffffffffffffffffffffff1673ffffffffffffffffffffffffffffffffffffffff168152602001908152602001600020600084815260200190815260200160002081905550816007600083815260200190815260200160002081905550505b6007600084815260200190815260200160002060009055600660008573ffffffffffffffffffffffffffffffffffffffff1673ffffffffffffffffffffffffffffffffffffffff16815260200190815260200160002060008381526020019081526020016000206000905550505050565b600060016008805490506120659190612ffe565b905060006009600084815260200190815260200160002054905060006008838154811061209557612094613281565b5b9060005260206000200154905080600883815481106120b7576120b6613281565b5b90600052602060002001819055508160096000838152602001908152602001600020819055506009600085815260200190815260200160002060009055600880548061210657612105613252565b5b6001900381819060005260206000200160009055905550505050565b600061212d83610a02565b905081600660008573ffffffffffffffffffffffffffffffffffffffff1673ffffffffffffffffffffffffffffffffffffffff168152602001908152602001600020600083815260200190815260200160002081905550806007600084815260200190815260200160002081905550505050565b600073ffffffffffffffffffffffffffffffffffffffff168273ffffffffffffffffffffffffffffffffffffffff161415612211576040517f08c379a000000000000000000000000000000000000000000000000000000000815260040161220890612d72565b60405180910390fd5b61221a816112f1565b1561225a576040517f08c379a000000000000000000000000000000000000000000000000000000000815260040161225190612c92565b60405180910390fd5b61226660008383611b90565b6001600360008473ffffffffffffffffffffffffffffffffffffffff1673ffffffffffffffffffffffffffffffffffffffff16815260200190815260200160002060008282546122b69190612f77565b92505081905550816002600083815260200190815260200160002060006101000a81548173ffffffffffffffffffffffffffffffffffffffff021916908373ffffffffffffffffffffffffffffffffffffffff160217905550808273ffffffffffffffffffffffffffffffffffffffff16600073ffffffffffffffffffffffffffffffffffffffff167fddf252ad1be2c89b69c2b068fc378daa952ba7f163c4a11628f55a4df523b3ef60405160405180910390a45050565b600080823b905060008111915050919050565b82805461238e906130e8565b90600052602060002090601f0160209004810192826123b057600085556123f7565b82601f106123c957805160ff19168380011785556123f7565b828001600101855582156123f7579182015b828111156123f65782518255916020019190600101906123db565b5b5090506124049190612408565b5090565b5b80821115612421576000816000905550600101612409565b5090565b600061243861243384612ed2565b612ead565b905082815260208101848484011115612454576124536132e4565b5b61245f8482856130a6565b509392505050565b600061247a61247584612f03565b612ead565b905082815260208101848484011115612496576124956132e4565b5b6124a18482856130a6565b509392505050565b6000813590506124b881613823565b92915050565b6000813590506124cd8161383a565b92915050565b6000813590506124e281613851565b92915050565b6000815190506124f781613851565b92915050565b600082601f830112612512576125116132df565b5b8135612522848260208601612425565b91505092915050565b600082601f8301126125405761253f6132df565b5b8135612550848260208601612467565b91505092915050565b60008135905061256881613868565b92915050565b600060208284031215612584576125836132ee565b5b6000612592848285016124a9565b91505092915050565b600080604083850312156125b2576125b16132ee565b5b60006125c0858286016124a9565b92505060206125d1858286016124a9565b9150509250929050565b6000806000606084860312156125f4576125f36132ee565b5b6000612602868287016124a9565b9350506020612613868287016124a9565b925050604061262486828701612559565b9150509250925092565b60008060008060808587031215612648576126476132ee565b5b6000612656878288016124a9565b9450506020612667878288016124a9565b935050604061267887828801612559565b925050606085013567ffffffffffffffff811115612699576126986132e9565b5b6126a5878288016124fd565b91505092959194509250565b600080604083850312156126c8576126c76132ee565b5b60006126d6858286016124a9565b92505060206126e7858286016124be565b9150509250929050565b60008060408385031215612708576127076132ee565b5b6000612716858286016124a9565b925050602061272785828601612559565b9150509250929050565b600060208284031215612747576127466132ee565b5b6000612755848285016124d3565b91505092915050565b600060208284031215612774576127736132ee565b5b6000612782848285016124e8565b91505092915050565b6000602082840312156127a1576127a06132ee565b5b600082013567ffffffffffffffff8111156127bf576127be6132e9565b5b6127cb8482850161252b565b91505092915050565b6000602082840312156127ea576127e96132ee565b5b60006127f884828501612559565b91505092915050565b61280a81613032565b82525050565b61281981613044565b82525050565b600061282a82612f34565b6128348185612f4a565b93506128448185602086016130b5565b61284d816132f3565b840191505092915050565b600061286382612f3f565b61286d8185612f5b565b935061287d8185602086016130b5565b612886816132f3565b840191505092915050565b600061289c82612f3f565b6128a68185612f6c565b93506128b68185602086016130b5565b80840191505092915050565b60006128cf602b83612f5b565b91506128da82613304565b604082019050919050565b60006128f2603283612f5b565b91506128fd82613353565b604082019050919050565b6000612915602683612f5b565b9150612920826133a2565b604082019050919050565b6000612938601c83612f5b565b9150612943826133f1565b602082019050919050565b600061295b602483612f5b565b91506129668261341a565b604082019050919050565b600061297e601983612f5b565b915061298982613469565b602082019050919050565b60006129a1602c83612f5b565b91506129ac82613492565b604082019050919050565b60006129c4603883612f5b565b91506129cf826134e1565b604082019050919050565b60006129e7602a83612f5b565b91506129f282613530565b604082019050919050565b6000612a0a602983612f5b565b9150612a158261357f565b604082019050919050565b6000612a2d602083612f5b565b9150612a38826135ce565b602082019050919050565b6000612a50602c83612f5b565b9150612a5b826135f7565b604082019050919050565b6000612a73602083612f5b565b9150612a7e82613646565b602082019050919050565b6000612a96602983612f5b565b9150612aa18261366f565b604082019050919050565b6000612ab9602f83612f5b565b9150612ac4826136be565b604082019050919050565b6000612adc602183612f5b565b9150612ae78261370d565b604082019050919050565b6000612aff601683612f5b565b9150612b0a8261375c565b602082019050919050565b6000612b22603183612f5b565b9150612b2d82613785565b604082019050919050565b6000612b45602c83612f5b565b9150612b50826137d4565b604082019050919050565b612b648161309c565b82525050565b6000612b768285612891565b9150612b828284612891565b91508190509392505050565b6000602082019050612ba36000830184612801565b92915050565b6000608082019050612bbe6000830187612801565b612bcb6020830186612801565b612bd86040830185612b5b565b8181036060830152612bea818461281f565b905095945050505050565b6000602082019050612c0a6000830184612810565b92915050565b60006020820190508181036000830152612c2a8184612858565b905092915050565b60006020820190508181036000830152612c4b816128c2565b9050919050565b60006020820190508181036000830152612c6b816128e5565b9050919050565b60006020820190508181036000830152612c8b81612908565b9050919050565b60006020820190508181036000830152612cab8161292b565b9050919050565b60006020820190508181036000830152612ccb8161294e565b9050919050565b60006020820190508181036000830152612ceb81612971565b9050919050565b60006020820190508181036000830152612d0b81612994565b9050919050565b60006020820190508181036000830152612d2b816129b7565b9050919050565b60006020820190508181036000830152612d4b816129da565b9050919050565b60006020820190508181036000830152612d6b816129fd565b9050919050565b60006020820190508181036000830152612d8b81612a20565b9050919050565b60006020820190508181036000830152612dab81612a43565b9050919050565b60006020820190508181036000830152612dcb81612a66565b9050919050565b60006020820190508181036000830152612deb81612a89565b9050919050565b60006020820190508181036000830152612e0b81612aac565b9050919050565b60006020820190508181036000830152612e2b81612acf565b9050919050565b60006020820190508181036000830152612e4b81612af2565b9050919050565b60006020820190508181036000830152612e6b81612b15565b9050919050565b60006020820190508181036000830152612e8b81612b38565b9050919050565b6000602082019050612ea76000830184612b5b565b92915050565b6000612eb7612ec8565b9050612ec3828261311a565b919050565b6000604051905090565b600067ffffffffffffffff821115612eed57612eec6132b0565b5b612ef6826132f3565b9050602081019050919050565b600067ffffffffffffffff821115612f1e57612f1d6132b0565b5b612f27826132f3565b9050602081019050919050565b600081519050919050565b600081519050919050565b600082825260208201905092915050565b600082825260208201905092915050565b600081905092915050565b6000612f828261309c565b9150612f8d8361309c565b9250827fffffffffffffffffffffffffffffffffffffffffffffffffffffffffffffffff03821115612fc257612fc16131c5565b5b828201905092915050565b6000612fd88261309c565b9150612fe38361309c565b925082612ff357612ff26131f4565b5b828204905092915050565b60006130098261309c565b91506130148361309c565b925082821015613027576130266131c5565b5b828203905092915050565b600061303d8261307c565b9050919050565b60008115159050919050565b60007fffffffff0000000000000000000000000000000000000000000000000000000082169050919050565b600073ffffffffffffffffffffffffffffffffffffffff82169050919050565b6000819050919050565b82818337600083830152505050565b60005b838110156130d35780820151818401526020810190506130b8565b838111156130e2576000848401525b50505050565b6000600282049050600182168061310057607f821691505b6020821081141561311457613113613223565b5b50919050565b613123826132f3565b810181811067ffffffffffffffff82111715613142576131416132b0565b5b80604052505050565b60006131568261309c565b91507fffffffffffffffffffffffffffffffffffffffffffffffffffffffffffffffff821415613189576131886131c5565b5b600182019050919050565b600061319f8261309c565b91506131aa8361309c565b9250826131ba576131b96131f4565b5b828206905092915050565b7f4e487b7100000000000000000000000000000000000000000000000000000000600052601160045260246000fd5b7f4e487b7100000000000000000000000000000000000000000000000000000000600052601260045260246000fd5b7f4e487b7100000000000000000000000000000000000000000000000000000000600052602260045260246000fd5b7f4e487b7100000000000000000000000000000000000000000000000000000000600052603160045260246000fd5b7f4e487b7100000000000000000000000000000000000000000000000000000000600052603260045260246000fd5b7f4e487b7100000000000000000000000000000000000000000000000000000000600052604160045260246000fd5b600080fd5b600080fd5b600080fd5b600080fd5b6000601f19601f8301169050919050565b7f455243373231456e756d657261626c653a206f776e657220696e646578206f7560008201527f74206f6620626f756e6473000000000000000000000000000000000000000000602082015250565b7f4552433732313a207472616e7366657220746f206e6f6e20455243373231526560008201527f63656976657220696d706c656d656e7465720000000000000000000000000000602082015250565b7f4f776e61626c653a206e6577206f776e657220697320746865207a65726f206160008201527f6464726573730000000000000000000000000000000000000000000000000000602082015250565b7f4552433732313a20746f6b656e20616c7265616479206d696e74656400000000600082015250565b7f4552433732313a207472616e7366657220746f20746865207a65726f2061646460008201527f7265737300000000000000000000000000000000000000000000000000000000602082015250565b7f4552433732313a20617070726f766520746f2063616c6c657200000000000000600082015250565b7f4552433732313a206f70657261746f7220717565727920666f72206e6f6e657860008201527f697374656e7420746f6b656e0000000000000000000000000000000000000000602082015250565b7f4552433732313a20617070726f76652063616c6c6572206973206e6f74206f7760008201527f6e6572206e6f7220617070726f76656420666f7220616c6c0000000000000000602082015250565b7f4552433732313a2062616c616e636520717565727920666f7220746865207a6560008201527f726f206164647265737300000000000000000000000000000000000000000000602082015250565b7f4552433732313a206f776e657220717565727920666f72206e6f6e657869737460008201527f656e7420746f6b656e0000000000000000000000000000000000000000000000602082015250565b7f4552433732313a206d696e7420746f20746865207a65726f2061646472657373600082015250565b7f4552433732313a20617070726f76656420717565727920666f72206e6f6e657860008201527f697374656e7420746f6b656e0000000000000000000000000000000000000000602082015250565b7f4f776e61626c653a2063616c6c6572206973206e6f7420746865206f776e6572600082015250565b7f4552433732313a207472616e73666572206f6620746f6b656e2074686174206960008201527f73206e6f74206f776e0000000000000000000000000000000000000000000000602082015250565b7f4552433732314d657461646174613a2055524920717565727920666f72206e6f60008201527f6e6578697374656e7420746f6b656e0000000000000000000000000000000000602082015250565b7f4552433732313a20617070726f76616c20746f2063757272656e74206f776e6560008201527f7200000000000000000000000000000000000000000000000000000000000000602082015250565b7f45786365656473206d6178696d756d20737570706c7900000000000000000000600082015250565b7f4552433732313a207472616e736665722063616c6c6572206973206e6f74206f60008201527f776e6572206e6f7220617070726f766564000000000000000000000000000000602082015250565b7f455243373231456e756d657261626c653a20676c6f62616c20696e646578206f60008201527f7574206f6620626f756e64730000000000000000000000000000000000000000602082015250565b61382c81613032565b811461383757600080fd5b50565b61384381613044565b811461384e57600080fd5b50565b61385a81613050565b811461386557600080fd5b50565b6138718161309c565b811461387c57600080fd5b5056fea2646970667358221220c0c12f01a1a9b5cb4bab5ea7f99cbe79b3b0f93164f019d90bb44ccdf0f6f9eb64736f6c63430008070033",
  "immutableReferences": {},
  "source": "// SPDX-License-Identifier: MIT\npragma solidity ^0.8.0;\n\nimport \"@openzeppelin/contracts/token/ERC721/extensions/ERC721Enumerable.sol\";\nimport \"@openzeppelin/contracts/access/Ownable.sol\";\n\nabstract contract ContextMixin {\n    function msgSender()\n        internal\n        view\n        returns (address payable sender)\n    {\n        if (msg.sender == address(this)) {\n            bytes memory array = msg.data;\n            uint256 index = msg.data.length;\n            assembly {\n                // Load the 32 bytes word from memory with the address on the lower 20 bytes, and mask those.\n                sender := and(\n                    mload(add(array, index)),\n                    0xffffffffffffffffffffffffffffffffffffffff\n                )\n            }\n        } else {\n            sender = payable(msg.sender);\n        }\n        return sender;\n    }\n}\n\ncontract BCBPuzzlePrizes is ERC721Enumerable, ContextMixin, Ownable {\n    using Strings for uint256;\n\n    string _baseTokenURI;\n    uint256 private _genSupply = 33;\n\n    constructor() ERC721(\"BCB Puzzle Prizes\", \"BCBPP\") {}\n\n    function mintPrize(address winner, uint256 id) public onlyOwner {\n        uint256 supply = totalSupply();\n        require(supply + 1 <= _genSupply, \"Exceeds maximum supply\");\n\n        _safeMint(winner, id);\n    }\n\n    function _baseURI() internal view virtual override returns (string memory) {\n        return _baseTokenURI;\n    }\n\n    function setBaseURI(string memory baseURI) public onlyOwner {\n        _baseTokenURI = baseURI;\n    }\n\n    function setGenSupply(uint256 _newGenSupply) public onlyOwner {\n        _genSupply = _newGenSupply;\n    }\n\n    function getGenSupply() public view returns (uint256) {\n        return _genSupply;\n    }\n\n    function isApprovedForAll(address _owner, address _operator)\n        public\n        view\n        override\n        returns (bool isOperator)\n    {\n        if (_operator == address(0x58807baD0B376efc12F5AD86aAc70E78ed67deaE)) {\n            return true;\n        }\n\n        return ERC721.isApprovedForAll(_owner, _operator);\n    }\n\n    function _msgSender() internal view override returns (address sender) {\n        return ContextMixin.msgSender();\n    }\n}\n",
  "sourcePath": "/Users/vlad/Yandex.Disk.localized/_dev/bbb/sol/contracts/polygon/BCBPuzzlePrizes.sol",
  "compiler": {
    "name": "solc",
    "version": "0.8.7+commit.e28d00a7.Emscripten.clang"
  },
  "schemaVersion": "3.4.3",
  "updatedAt": "2021-09-14T15:35:06.923Z",
  "networkType": "ethereum",
  "devdoc": {
    "kind": "dev",
    "methods": {
      "approve(address,uint256)": {
        "details": "See {IERC721-approve}."
      },
      "balanceOf(address)": {
        "details": "See {IERC721-balanceOf}."
      },
      "getApproved(uint256)": {
        "details": "See {IERC721-getApproved}."
      },
      "name()": {
        "details": "See {IERC721Metadata-name}."
      },
      "owner()": {
        "details": "Returns the address of the current owner."
      },
      "ownerOf(uint256)": {
        "details": "See {IERC721-ownerOf}."
      },
      "renounceOwnership()": {
        "details": "Leaves the contract without owner. It will not be possible to call `onlyOwner` functions anymore. Can only be called by the current owner. NOTE: Renouncing ownership will leave the contract without an owner, thereby removing any functionality that is only available to the owner."
      },
      "safeTransferFrom(address,address,uint256)": {
        "details": "See {IERC721-safeTransferFrom}."
      },
      "safeTransferFrom(address,address,uint256,bytes)": {
        "details": "See {IERC721-safeTransferFrom}."
      },
      "setApprovalForAll(address,bool)": {
        "details": "See {IERC721-setApprovalForAll}."
      },
      "supportsInterface(bytes4)": {
        "details": "See {IERC165-supportsInterface}."
      },
      "symbol()": {
        "details": "See {IERC721Metadata-symbol}."
      },
      "tokenByIndex(uint256)": {
        "details": "See {IERC721Enumerable-tokenByIndex}."
      },
      "tokenOfOwnerByIndex(address,uint256)": {
        "details": "See {IERC721Enumerable-tokenOfOwnerByIndex}."
      },
      "tokenURI(uint256)": {
        "details": "See {IERC721Metadata-tokenURI}."
      },
      "totalSupply()": {
        "details": "See {IERC721Enumerable-totalSupply}."
      },
      "transferFrom(address,address,uint256)": {
        "details": "See {IERC721-transferFrom}."
      },
      "transferOwnership(address)": {
        "details": "Transfers ownership of the contract to a new account (`newOwner`). Can only be called by the current owner."
      }
    },
    "version": 1
  },
  "userdoc": {
    "kind": "user",
    "methods": {},
    "version": 1
  }
}