{
  "contractName": "BabyBattleBots",
  "abi": [
    {
      "inputs": [],
      "stateMutability": "nonpayable",
      "type": "constructor"
    },
    {
      "anonymous": false,
      "inputs": [
        {
          "indexed": true,
          "internalType": "address",
          "name": "owner",
          "type": "address"
        },
        {
          "indexed": true,
          "internalType": "address",
          "name": "approved",
          "type": "address"
        },
        {
          "indexed": true,
          "internalType": "uint256",
          "name": "tokenId",
          "type": "uint256"
        }
      ],
      "name": "Approval",
      "type": "event"
    },
    {
      "anonymous": false,
      "inputs": [
        {
          "indexed": true,
          "internalType": "address",
          "name": "owner",
          "type": "address"
        },
        {
          "indexed": true,
          "internalType": "address",
          "name": "operator",
          "type": "address"
        },
        {
          "indexed": false,
          "internalType": "bool",
          "name": "approved",
          "type": "bool"
        }
      ],
      "name": "ApprovalForAll",
      "type": "event"
    },
    {
      "anonymous": false,
      "inputs": [
        {
          "indexed": true,
          "internalType": "address",
          "name": "previousOwner",
          "type": "address"
        },
        {
          "indexed": true,
          "internalType": "address",
          "name": "newOwner",
          "type": "address"
        }
      ],
      "name": "OwnershipTransferred",
      "type": "event"
    },
    {
      "anonymous": false,
      "inputs": [
        {
          "indexed": true,
          "internalType": "address",
          "name": "from",
          "type": "address"
        },
        {
          "indexed": true,
          "internalType": "address",
          "name": "to",
          "type": "address"
        },
        {
          "indexed": true,
          "internalType": "uint256",
          "name": "tokenId",
          "type": "uint256"
        }
      ],
      "name": "Transfer",
      "type": "event"
    },
    {
      "inputs": [],
      "name": "_paused",
      "outputs": [
        {
          "internalType": "bool",
          "name": "",
          "type": "bool"
        }
      ],
      "stateMutability": "view",
      "type": "function",
      "constant": true
    },
    {
      "inputs": [
        {
          "internalType": "address",
          "name": "to",
          "type": "address"
        },
        {
          "internalType": "uint256",
          "name": "tokenId",
          "type": "uint256"
        }
      ],
      "name": "approve",
      "outputs": [],
      "stateMutability": "nonpayable",
      "type": "function"
    },
    {
      "inputs": [
        {
          "internalType": "address",
          "name": "owner",
          "type": "address"
        }
      ],
      "name": "balanceOf",
      "outputs": [
        {
          "internalType": "uint256",
          "name": "",
          "type": "uint256"
        }
      ],
      "stateMutability": "view",
      "type": "function",
      "constant": true
    },
    {
      "inputs": [
        {
          "internalType": "uint256",
          "name": "tokenId",
          "type": "uint256"
        }
      ],
      "name": "getApproved",
      "outputs": [
        {
          "internalType": "address",
          "name": "",
          "type": "address"
        }
      ],
      "stateMutability": "view",
      "type": "function",
      "constant": true
    },
    {
      "inputs": [
        {
          "internalType": "address",
          "name": "owner",
          "type": "address"
        },
        {
          "internalType": "address",
          "name": "operator",
          "type": "address"
        }
      ],
      "name": "isApprovedForAll",
      "outputs": [
        {
          "internalType": "bool",
          "name": "",
          "type": "bool"
        }
      ],
      "stateMutability": "view",
      "type": "function",
      "constant": true
    },
    {
      "inputs": [],
      "name": "name",
      "outputs": [
        {
          "internalType": "string",
          "name": "",
          "type": "string"
        }
      ],
      "stateMutability": "view",
      "type": "function",
      "constant": true
    },
    {
      "inputs": [],
      "name": "owner",
      "outputs": [
        {
          "internalType": "address",
          "name": "",
          "type": "address"
        }
      ],
      "stateMutability": "view",
      "type": "function",
      "constant": true
    },
    {
      "inputs": [
        {
          "internalType": "uint256",
          "name": "tokenId",
          "type": "uint256"
        }
      ],
      "name": "ownerOf",
      "outputs": [
        {
          "internalType": "address",
          "name": "",
          "type": "address"
        }
      ],
      "stateMutability": "view",
      "type": "function",
      "constant": true
    },
    {
      "inputs": [],
      "name": "renounceOwnership",
      "outputs": [],
      "stateMutability": "nonpayable",
      "type": "function"
    },
    {
      "inputs": [
        {
          "internalType": "address",
          "name": "from",
          "type": "address"
        },
        {
          "internalType": "address",
          "name": "to",
          "type": "address"
        },
        {
          "internalType": "uint256",
          "name": "tokenId",
          "type": "uint256"
        }
      ],
      "name": "safeTransferFrom",
      "outputs": [],
      "stateMutability": "nonpayable",
      "type": "function"
    },
    {
      "inputs": [
        {
          "internalType": "address",
          "name": "from",
          "type": "address"
        },
        {
          "internalType": "address",
          "name": "to",
          "type": "address"
        },
        {
          "internalType": "uint256",
          "name": "tokenId",
          "type": "uint256"
        },
        {
          "internalType": "bytes",
          "name": "_data",
          "type": "bytes"
        }
      ],
      "name": "safeTransferFrom",
      "outputs": [],
      "stateMutability": "nonpayable",
      "type": "function"
    },
    {
      "inputs": [
        {
          "internalType": "address",
          "name": "operator",
          "type": "address"
        },
        {
          "internalType": "bool",
          "name": "approved",
          "type": "bool"
        }
      ],
      "name": "setApprovalForAll",
      "outputs": [],
      "stateMutability": "nonpayable",
      "type": "function"
    },
    {
      "inputs": [
        {
          "internalType": "bytes4",
          "name": "interfaceId",
          "type": "bytes4"
        }
      ],
      "name": "supportsInterface",
      "outputs": [
        {
          "internalType": "bool",
          "name": "",
          "type": "bool"
        }
      ],
      "stateMutability": "view",
      "type": "function",
      "constant": true
    },
    {
      "inputs": [],
      "name": "symbol",
      "outputs": [
        {
          "internalType": "string",
          "name": "",
          "type": "string"
        }
      ],
      "stateMutability": "view",
      "type": "function",
      "constant": true
    },
    {
      "inputs": [
        {
          "internalType": "uint256",
          "name": "index",
          "type": "uint256"
        }
      ],
      "name": "tokenByIndex",
      "outputs": [
        {
          "internalType": "uint256",
          "name": "",
          "type": "uint256"
        }
      ],
      "stateMutability": "view",
      "type": "function",
      "constant": true
    },
    {
      "inputs": [
        {
          "internalType": "address",
          "name": "owner",
          "type": "address"
        },
        {
          "internalType": "uint256",
          "name": "index",
          "type": "uint256"
        }
      ],
      "name": "tokenOfOwnerByIndex",
      "outputs": [
        {
          "internalType": "uint256",
          "name": "",
          "type": "uint256"
        }
      ],
      "stateMutability": "view",
      "type": "function",
      "constant": true
    },
    {
      "inputs": [
        {
          "internalType": "uint256",
          "name": "tokenId",
          "type": "uint256"
        }
      ],
      "name": "tokenURI",
      "outputs": [
        {
          "internalType": "string",
          "name": "",
          "type": "string"
        }
      ],
      "stateMutability": "view",
      "type": "function",
      "constant": true
    },
    {
      "inputs": [],
      "name": "totalSupply",
      "outputs": [
        {
          "internalType": "uint256",
          "name": "",
          "type": "uint256"
        }
      ],
      "stateMutability": "view",
      "type": "function",
      "constant": true
    },
    {
      "inputs": [
        {
          "internalType": "address",
          "name": "from",
          "type": "address"
        },
        {
          "internalType": "address",
          "name": "to",
          "type": "address"
        },
        {
          "internalType": "uint256",
          "name": "tokenId",
          "type": "uint256"
        }
      ],
      "name": "transferFrom",
      "outputs": [],
      "stateMutability": "nonpayable",
      "type": "function"
    },
    {
      "inputs": [
        {
          "internalType": "address",
          "name": "newOwner",
          "type": "address"
        }
      ],
      "name": "transferOwnership",
      "outputs": [],
      "stateMutability": "nonpayable",
      "type": "function"
    },
    {
      "inputs": [],
      "name": "isPaused",
      "outputs": [
        {
          "internalType": "bool",
          "name": "",
          "type": "bool"
        }
      ],
      "stateMutability": "view",
      "type": "function",
      "constant": true
    },
    {
      "inputs": [
        {
          "internalType": "uint256",
          "name": "num",
          "type": "uint256"
        }
      ],
      "name": "mintBot",
      "outputs": [],
      "stateMutability": "payable",
      "type": "function",
      "payable": true
    },
    {
      "inputs": [
        {
          "internalType": "address",
          "name": "_owner",
          "type": "address"
        }
      ],
      "name": "walletOfOwner",
      "outputs": [
        {
          "internalType": "uint256[]",
          "name": "",
          "type": "uint256[]"
        }
      ],
      "stateMutability": "view",
      "type": "function",
      "constant": true
    },
    {
      "inputs": [
        {
          "internalType": "string",
          "name": "baseURI",
          "type": "string"
        }
      ],
      "name": "setBaseURI",
      "outputs": [],
      "stateMutability": "nonpayable",
      "type": "function"
    },
    {
      "inputs": [],
      "name": "getPrice",
      "outputs": [
        {
          "internalType": "uint256",
          "name": "",
          "type": "uint256"
        }
      ],
      "stateMutability": "view",
      "type": "function",
      "constant": true
    },
    {
      "inputs": [
        {
          "internalType": "uint256",
          "name": "_newPrice",
          "type": "uint256"
        }
      ],
      "name": "setPrice",
      "outputs": [],
      "stateMutability": "nonpayable",
      "type": "function"
    },
    {
      "inputs": [
        {
          "internalType": "uint256",
          "name": "_newGenSupply",
          "type": "uint256"
        }
      ],
      "name": "setGenSupply",
      "outputs": [],
      "stateMutability": "nonpayable",
      "type": "function"
    },
    {
      "inputs": [],
      "name": "getGenSupply",
      "outputs": [
        {
          "internalType": "uint256",
          "name": "",
          "type": "uint256"
        }
      ],
      "stateMutability": "view",
      "type": "function",
      "constant": true
    },
    {
      "inputs": [
        {
          "internalType": "address",
          "name": "_to",
          "type": "address"
        },
        {
          "internalType": "uint256",
          "name": "_amount",
          "type": "uint256"
        }
      ],
      "name": "giveAway",
      "outputs": [],
      "stateMutability": "nonpayable",
      "type": "function"
    },
    {
      "inputs": [
        {
          "internalType": "bool",
          "name": "val",
          "type": "bool"
        }
      ],
      "name": "pause",
      "outputs": [],
      "stateMutability": "nonpayable",
      "type": "function"
    },
    {
      "inputs": [],
      "name": "withdraw",
      "outputs": [],
      "stateMutability": "payable",
      "type": "function",
      "payable": true
    }
  ],
  "bytecode": "0x60806040526064600c55666a94d74f430000600d55610c80600e556001600f60006101000a81548160ff02191690831515021790555073f129f79c05f6ea516d01176a3983475100ca64c4600f60016101000a81548173ffffffffffffffffffffffffffffffffffffffff021916908373ffffffffffffffffffffffffffffffffffffffff1602179055503480156200009757600080fd5b506040518060400160405280601081526020017f4261627920426174746c6520426f7473000000000000000000000000000000008152506040518060400160405280600381526020017f424242000000000000000000000000000000000000000000000000000000000081525081600090805190602001906200011c92919062000c49565b5080600190805190602001906200013592919062000c49565b505050620001586200014c6200019360201b60201c565b6200019b60201b60201c565b6200018d600f60019054906101000a900473ffffffffffffffffffffffffffffffffffffffff1660006200026160201b60201c565b62001294565b600033905090565b6000600a60009054906101000a900473ffffffffffffffffffffffffffffffffffffffff16905081600a60006101000a81548173ffffffffffffffffffffffffffffffffffffffff021916908373ffffffffffffffffffffffffffffffffffffffff1602179055508173ffffffffffffffffffffffffffffffffffffffff168173ffffffffffffffffffffffffffffffffffffffff167f8be0079c531659141344cd1fd0a4f28419497f9722a3daafe3b4186f6b6457e060405160405180910390a35050565b620002838282604051806020016040528060008152506200028760201b60201c565b5050565b620002998383620002f560201b60201c565b620002ae6000848484620004db60201b60201c565b620002f0576040517f08c379a0000000000000000000000000000000000000000000000000000000008152600401620002e79062000e95565b60405180910390fd5b505050565b600073ffffffffffffffffffffffffffffffffffffffff168273ffffffffffffffffffffffffffffffffffffffff16141562000368576040517f08c379a00000000000000000000000000000000000000000000000000000000081526004016200035f9062000efb565b60405180910390fd5b62000379816200069560201b60201c565b15620003bc576040517f08c379a0000000000000000000000000000000000000000000000000000000008152600401620003b39062000eb7565b60405180910390fd5b620003d0600083836200070160201b60201c565b6001600360008473ffffffffffffffffffffffffffffffffffffffff1673ffffffffffffffffffffffffffffffffffffffff168152602001908152602001600020600082825462000422919062000f4a565b92505081905550816002600083815260200190815260200160002060006101000a81548173ffffffffffffffffffffffffffffffffffffffff021916908373ffffffffffffffffffffffffffffffffffffffff160217905550808273ffffffffffffffffffffffffffffffffffffffff16600073ffffffffffffffffffffffffffffffffffffffff167fddf252ad1be2c89b69c2b068fc378daa952ba7f163c4a11628f55a4df523b3ef60405160405180910390a45050565b6000620005098473ffffffffffffffffffffffffffffffffffffffff166200084860201b620019171760201c565b1562000688578373ffffffffffffffffffffffffffffffffffffffff1663150b7a026200053b6200019360201b60201c565b8786866040518563ffffffff1660e01b81526004016200055f949392919062000e41565b602060405180830381600087803b1580156200057a57600080fd5b505af1925050508015620005ae57506040513d601f19601f82011682018060405250810190620005ab919062000d10565b60015b62000637573d8060008114620005e1576040519150601f19603f3d011682016040523d82523d6000602084013e620005e6565b606091505b506000815114156200062f576040517f08c379a0000000000000000000000000000000000000000000000000000000008152600401620006269062000e95565b60405180910390fd5b805181602001fd5b63150b7a0260e01b7bffffffffffffffffffffffffffffffffffffffffffffffffffffffff1916817bffffffffffffffffffffffffffffffffffffffffffffffffffffffff1916149150506200068d565b600190505b949350505050565b60008073ffffffffffffffffffffffffffffffffffffffff166002600084815260200190815260200160002060009054906101000a900473ffffffffffffffffffffffffffffffffffffffff1673ffffffffffffffffffffffffffffffffffffffff1614159050919050565b620007198383836200085b60201b6200192a1760201c565b600073ffffffffffffffffffffffffffffffffffffffff168373ffffffffffffffffffffffffffffffffffffffff161415620007665762000760816200086060201b60201c565b620007ae565b8173ffffffffffffffffffffffffffffffffffffffff168373ffffffffffffffffffffffffffffffffffffffff1614620007ad57620007ac8382620008a960201b60201c565b5b5b600073ffffffffffffffffffffffffffffffffffffffff168273ffffffffffffffffffffffffffffffffffffffff161415620007fb57620007f58162000a2660201b60201c565b62000843565b8273ffffffffffffffffffffffffffffffffffffffff168273ffffffffffffffffffffffffffffffffffffffff1614620008425762000841828262000b0260201b60201c565b5b5b505050565b600080823b905060008111915050919050565b505050565b6008805490506009600083815260200190815260200160002081905550600881908060018154018082558091505060019003906000526020600020016000909190919091505550565b60006001620008c38462000b8e60201b62000f2c1760201c565b620008cf919062000fa7565b9050600060076000848152602001908152602001600020549050818114620009b5576000600660008673ffffffffffffffffffffffffffffffffffffffff1673ffffffffffffffffffffffffffffffffffffffff168152602001908152602001600020600084815260200190815260200160002054905080600660008773ffffffffffffffffffffffffffffffffffffffff1673ffffffffffffffffffffffffffffffffffffffff168152602001908152602001600020600084815260200190815260200160002081905550816007600083815260200190815260200160002081905550505b6007600084815260200190815260200160002060009055600660008573ffffffffffffffffffffffffffffffffffffffff1673ffffffffffffffffffffffffffffffffffffffff16815260200190815260200160002060008381526020019081526020016000206000905550505050565b6000600160088054905062000a3c919062000fa7565b905060006009600084815260200190815260200160002054905060006008838154811062000a6f5762000a6e62001145565b5b90600052602060002001549050806008838154811062000a945762000a9362001145565b5b90600052602060002001819055508160096000838152602001908152602001600020819055506009600085815260200190815260200160002060009055600880548062000ae65762000ae562001116565b5b6001900381819060005260206000200160009055905550505050565b600062000b1a8362000b8e60201b62000f2c1760201c565b905081600660008573ffffffffffffffffffffffffffffffffffffffff1673ffffffffffffffffffffffffffffffffffffffff168152602001908152602001600020600083815260200190815260200160002081905550806007600084815260200190815260200160002081905550505050565b60008073ffffffffffffffffffffffffffffffffffffffff168273ffffffffffffffffffffffffffffffffffffffff16141562000c02576040517f08c379a000000000000000000000000000000000000000000000000000000000815260040162000bf99062000ed9565b60405180910390fd5b600360008373ffffffffffffffffffffffffffffffffffffffff1673ffffffffffffffffffffffffffffffffffffffff168152602001908152602001600020549050919050565b82805462000c579062001082565b90600052602060002090601f01602090048101928262000c7b576000855562000cc7565b82601f1062000c9657805160ff191683800117855562000cc7565b8280016001018555821562000cc7579182015b8281111562000cc657825182559160200191906001019062000ca9565b5b50905062000cd6919062000cda565b5090565b5b8082111562000cf557600081600090555060010162000cdb565b5090565b60008151905062000d0a816200127a565b92915050565b60006020828403121562000d295762000d2862001174565b5b600062000d398482850162000cf9565b91505092915050565b62000d4d8162000fe2565b82525050565b600062000d608262000f1d565b62000d6c818562000f28565b935062000d7e8185602086016200104c565b62000d898162001179565b840191505092915050565b600062000da360328362000f39565b915062000db0826200118a565b604082019050919050565b600062000dca601c8362000f39565b915062000dd782620011d9565b602082019050919050565b600062000df1602a8362000f39565b915062000dfe8262001202565b604082019050919050565b600062000e1860208362000f39565b915062000e258262001251565b602082019050919050565b62000e3b8162001042565b82525050565b600060808201905062000e58600083018762000d42565b62000e67602083018662000d42565b62000e76604083018562000e30565b818103606083015262000e8a818462000d53565b905095945050505050565b6000602082019050818103600083015262000eb08162000d94565b9050919050565b6000602082019050818103600083015262000ed28162000dbb565b9050919050565b6000602082019050818103600083015262000ef48162000de2565b9050919050565b6000602082019050818103600083015262000f168162000e09565b9050919050565b600081519050919050565b600082825260208201905092915050565b600082825260208201905092915050565b600062000f578262001042565b915062000f648362001042565b9250827fffffffffffffffffffffffffffffffffffffffffffffffffffffffffffffffff0382111562000f9c5762000f9b620010b8565b5b828201905092915050565b600062000fb48262001042565b915062000fc18362001042565b92508282101562000fd75762000fd6620010b8565b5b828203905092915050565b600062000fef8262001022565b9050919050565b60007fffffffff0000000000000000000000000000000000000000000000000000000082169050919050565b600073ffffffffffffffffffffffffffffffffffffffff82169050919050565b6000819050919050565b60005b838110156200106c5780820151818401526020810190506200104f565b838111156200107c576000848401525b50505050565b600060028204905060018216806200109b57607f821691505b60208210811415620010b257620010b1620010e7565b5b50919050565b7f4e487b7100000000000000000000000000000000000000000000000000000000600052601160045260246000fd5b7f4e487b7100000000000000000000000000000000000000000000000000000000600052602260045260246000fd5b7f4e487b7100000000000000000000000000000000000000000000000000000000600052603160045260246000fd5b7f4e487b7100000000000000000000000000000000000000000000000000000000600052603260045260246000fd5b600080fd5b6000601f19601f8301169050919050565b7f4552433732313a207472616e7366657220746f206e6f6e20455243373231526560008201527f63656976657220696d706c656d656e7465720000000000000000000000000000602082015250565b7f4552433732313a20746f6b656e20616c7265616479206d696e74656400000000600082015250565b7f4552433732313a2062616c616e636520717565727920666f7220746865207a6560008201527f726f206164647265737300000000000000000000000000000000000000000000602082015250565b7f4552433732313a206d696e7420746f20746865207a65726f2061646472657373600082015250565b620012858162000ff6565b81146200129157600080fd5b50565b61425f80620012a46000396000f3fe6080604052600436106101d85760003560e01c806370a0823111610102578063b187bd2611610095578063e3305bcc11610064578063e3305bcc146106a0578063e985e9c5146106c9578063f2fde38b14610706578063fbcac5551461072f576101d8565b8063b187bd26146105e6578063b88d4fde14610611578063c87b56dd1461063a578063ca80014414610677576101d8565b806391b7f5ed116100d157806391b7f5ed1461053e57806395d89b411461056757806398d5fdca14610592578063a22cb465146105bd576101d8565b806370a08231146104a3578063715018a6146104e057806379b6d4a0146104f75780638da5cb5b14610513576101d8565b806323b872dd1161017a578063438b630011610149578063438b6300146103c35780634f6ccce71461040057806355f804b31461043d5780636352211e14610466576101d8565b806323b872dd1461032a5780632f745c59146103535780633ccfd60b1461039057806342842e0e1461039a576101d8565b8063081812fc116101b6578063081812fc1461026e578063095ea7b3146102ab57806316c61ccc146102d457806318160ddd146102ff576101d8565b806301ffc9a7146101dd57806302329a291461021a57806306fdde0314610243575b600080fd5b3480156101e957600080fd5b5061020460048036038101906101ff9190612dcb565b61075a565b60405161021191906133c2565b60405180910390f35b34801561022657600080fd5b50610241600480360381019061023c9190612d9e565b6107d4565b005b34801561024f57600080fd5b5061025861086d565b60405161026591906133dd565b60405180910390f35b34801561027a57600080fd5b5061029560048036038101906102909190612e6e565b6108ff565b6040516102a29190613339565b60405180910390f35b3480156102b757600080fd5b506102d260048036038101906102cd9190612d5e565b610984565b005b3480156102e057600080fd5b506102e9610a9c565b6040516102f691906133c2565b60405180910390f35b34801561030b57600080fd5b50610314610aaf565b60405161032191906136df565b60405180910390f35b34801561033657600080fd5b50610351600480360381019061034c9190612c48565b610abc565b005b34801561035f57600080fd5b5061037a60048036038101906103759190612d5e565b610b1c565b60405161038791906136df565b60405180910390f35b610398610bc1565b005b3480156103a657600080fd5b506103c160048036038101906103bc9190612c48565b610ca5565b005b3480156103cf57600080fd5b506103ea60048036038101906103e59190612bdb565b610cc5565b6040516103f791906133a0565b60405180910390f35b34801561040c57600080fd5b5061042760048036038101906104229190612e6e565b610d73565b60405161043491906136df565b60405180910390f35b34801561044957600080fd5b50610464600480360381019061045f9190612e25565b610de4565b005b34801561047257600080fd5b5061048d60048036038101906104889190612e6e565b610e7a565b60405161049a9190613339565b60405180910390f35b3480156104af57600080fd5b506104ca60048036038101906104c59190612bdb565b610f2c565b6040516104d791906136df565b60405180910390f35b3480156104ec57600080fd5b506104f5610fe4565b005b610511600480360381019061050c9190612e6e565b61106c565b005b34801561051f57600080fd5b506105286111ef565b6040516105359190613339565b60405180910390f35b34801561054a57600080fd5b5061056560048036038101906105609190612e6e565b611219565b005b34801561057357600080fd5b5061057c61129f565b60405161058991906133dd565b60405180910390f35b34801561059e57600080fd5b506105a7611331565b6040516105b491906136df565b60405180910390f35b3480156105c957600080fd5b506105e460048036038101906105df9190612d1e565b61133b565b005b3480156105f257600080fd5b506105fb6114bc565b60405161060891906133c2565b60405180910390f35b34801561061d57600080fd5b5061063860048036038101906106339190612c9b565b6114d3565b005b34801561064657600080fd5b50610661600480360381019061065c9190612e6e565b611535565b60405161066e91906133dd565b60405180910390f35b34801561068357600080fd5b5061069e60048036038101906106999190612d5e565b6115dc565b005b3480156106ac57600080fd5b506106c760048036038101906106c29190612e6e565b6116fb565b005b3480156106d557600080fd5b506106f060048036038101906106eb9190612c08565b611781565b6040516106fd91906133c2565b60405180910390f35b34801561071257600080fd5b5061072d60048036038101906107289190612bdb565b611815565b005b34801561073b57600080fd5b5061074461190d565b60405161075191906136df565b60405180910390f35b60007f780e9d63000000000000000000000000000000000000000000000000000000007bffffffffffffffffffffffffffffffffffffffffffffffffffffffff1916827bffffffffffffffffffffffffffffffffffffffffffffffffffffffff191614806107cd57506107cc8261192f565b5b9050919050565b6107dc611a11565b73ffffffffffffffffffffffffffffffffffffffff166107fa6111ef565b73ffffffffffffffffffffffffffffffffffffffff1614610850576040517f08c379a0000000000000000000000000000000000000000000000000000000008152600401610847906135bf565b60405180910390fd5b80600f60006101000a81548160ff02191690831515021790555050565b60606000805461087c906139c8565b80601f01602080910402602001604051908101604052809291908181526020018280546108a8906139c8565b80156108f55780601f106108ca576101008083540402835291602001916108f5565b820191906000526020600020905b8154815290600101906020018083116108d857829003601f168201915b5050505050905090565b600061090a82611a19565b610949576040517f08c379a00000000000000000000000000000000000000000000000000000000081526004016109409061359f565b60405180910390fd5b6004600083815260200190815260200160002060009054906101000a900473ffffffffffffffffffffffffffffffffffffffff169050919050565b600061098f82610e7a565b90508073ffffffffffffffffffffffffffffffffffffffff168373ffffffffffffffffffffffffffffffffffffffff161415610a00576040517f08c379a00000000000000000000000000000000000000000000000000000000081526004016109f79061363f565b60405180910390fd5b8073ffffffffffffffffffffffffffffffffffffffff16610a1f611a11565b73ffffffffffffffffffffffffffffffffffffffff161480610a4e5750610a4d81610a48611a11565b611781565b5b610a8d576040517f08c379a0000000000000000000000000000000000000000000000000000000008152600401610a84906134ff565b60405180910390fd5b610a978383611a85565b505050565b600f60009054906101000a900460ff1681565b6000600880549050905090565b610acd610ac7611a11565b82611b3e565b610b0c576040517f08c379a0000000000000000000000000000000000000000000000000000000008152600401610b039061367f565b60405180910390fd5b610b17838383611c1c565b505050565b6000610b2783610f2c565b8210610b68576040517f08c379a0000000000000000000000000000000000000000000000000000000008152600401610b5f9061341f565b60405180910390fd5b600660008473ffffffffffffffffffffffffffffffffffffffff1673ffffffffffffffffffffffffffffffffffffffff168152602001908152602001600020600083815260200190815260200160002054905092915050565b610bc9611a11565b73ffffffffffffffffffffffffffffffffffffffff16610be76111ef565b73ffffffffffffffffffffffffffffffffffffffff1614610c3d576040517f08c379a0000000000000000000000000000000000000000000000000000000008152600401610c34906135bf565b60405180910390fd5b6000479050600f60019054906101000a900473ffffffffffffffffffffffffffffffffffffffff1673ffffffffffffffffffffffffffffffffffffffff166108fc829081150290604051600060405180830381858888f19350505050610ca257600080fd5b50565b610cc0838383604051806020016040528060008152506114d3565b505050565b60606000610cd283610f2c565b905060008167ffffffffffffffff811115610cf057610cef613b90565b5b604051908082528060200260200182016040528015610d1e5781602001602082028036833780820191505090505b50905060005b82811015610d6857610d368582610b1c565b828281518110610d4957610d48613b61565b5b6020026020010181815250508080610d6090613a2b565b915050610d24565b508092505050919050565b6000610d7d610aaf565b8210610dbe576040517f08c379a0000000000000000000000000000000000000000000000000000000008152600401610db59061369f565b60405180910390fd5b60088281548110610dd257610dd1613b61565b5b90600052602060002001549050919050565b610dec611a11565b73ffffffffffffffffffffffffffffffffffffffff16610e0a6111ef565b73ffffffffffffffffffffffffffffffffffffffff1614610e60576040517f08c379a0000000000000000000000000000000000000000000000000000000008152600401610e57906135bf565b60405180910390fd5b80600b9080519060200190610e769291906129ef565b5050565b6000806002600084815260200190815260200160002060009054906101000a900473ffffffffffffffffffffffffffffffffffffffff169050600073ffffffffffffffffffffffffffffffffffffffff168173ffffffffffffffffffffffffffffffffffffffff161415610f23576040517f08c379a0000000000000000000000000000000000000000000000000000000008152600401610f1a9061353f565b60405180910390fd5b80915050919050565b60008073ffffffffffffffffffffffffffffffffffffffff168273ffffffffffffffffffffffffffffffffffffffff161415610f9d576040517f08c379a0000000000000000000000000000000000000000000000000000000008152600401610f949061351f565b60405180910390fd5b600360008373ffffffffffffffffffffffffffffffffffffffff1673ffffffffffffffffffffffffffffffffffffffff168152602001908152602001600020549050919050565b610fec611a11565b73ffffffffffffffffffffffffffffffffffffffff1661100a6111ef565b73ffffffffffffffffffffffffffffffffffffffff1614611060576040517f08c379a0000000000000000000000000000000000000000000000000000000008152600401611057906135bf565b60405180910390fd5b61106a6000611e78565b565b6000611076610aaf565b9050600f60009054906101000a900460ff16156110c8576040517f08c379a00000000000000000000000000000000000000000000000000000000081526004016110bf906133ff565b60405180910390fd5b6015821061110b576040517f08c379a00000000000000000000000000000000000000000000000000000000081526004016111029061355f565b60405180910390fd5b600c54600e5461111b91906138de565b828261112791906137fd565b10611167576040517f08c379a000000000000000000000000000000000000000000000000000000000815260040161115e906136bf565b60405180910390fd5b81600d546111759190613884565b3410156111b7576040517f08c379a00000000000000000000000000000000000000000000000000000000081526004016111ae9061365f565b60405180910390fd5b60005b828110156111ea576111d73382846111d291906137fd565b611f3e565b80806111e290613a2b565b9150506111ba565b505050565b6000600a60009054906101000a900473ffffffffffffffffffffffffffffffffffffffff16905090565b611221611a11565b73ffffffffffffffffffffffffffffffffffffffff1661123f6111ef565b73ffffffffffffffffffffffffffffffffffffffff1614611295576040517f08c379a000000000000000000000000000000000000000000000000000000000815260040161128c906135bf565b60405180910390fd5b80600d8190555050565b6060600180546112ae906139c8565b80601f01602080910402602001604051908101604052809291908181526020018280546112da906139c8565b80156113275780601f106112fc57610100808354040283529160200191611327565b820191906000526020600020905b81548152906001019060200180831161130a57829003601f168201915b5050505050905090565b6000600d54905090565b611343611a11565b73ffffffffffffffffffffffffffffffffffffffff168273ffffffffffffffffffffffffffffffffffffffff1614156113b1576040517f08c379a00000000000000000000000000000000000000000000000000000000081526004016113a8906134bf565b60405180910390fd5b80600560006113be611a11565b73ffffffffffffffffffffffffffffffffffffffff1673ffffffffffffffffffffffffffffffffffffffff16815260200190815260200160002060008473ffffffffffffffffffffffffffffffffffffffff1673ffffffffffffffffffffffffffffffffffffffff16815260200190815260200160002060006101000a81548160ff0219169083151502179055508173ffffffffffffffffffffffffffffffffffffffff1661146b611a11565b73ffffffffffffffffffffffffffffffffffffffff167f17307eab39ab6107e8899845ad3d59bd9653f200f220920489ca2b5937696c31836040516114b091906133c2565b60405180910390a35050565b6000600f60009054906101000a900460ff16905090565b6114e46114de611a11565b83611b3e565b611523576040517f08c379a000000000000000000000000000000000000000000000000000000000815260040161151a9061367f565b60405180910390fd5b61152f84848484611f5c565b50505050565b606061154082611a19565b61157f576040517f08c379a00000000000000000000000000000000000000000000000000000000081526004016115769061361f565b60405180910390fd5b6000611589611fb8565b905060008151116115a957604051806020016040528060008152506115d4565b806115b38461204a565b6040516020016115c4929190613315565b6040516020818303038152906040525b915050919050565b6115e4611a11565b73ffffffffffffffffffffffffffffffffffffffff166116026111ef565b73ffffffffffffffffffffffffffffffffffffffff1614611658576040517f08c379a000000000000000000000000000000000000000000000000000000000815260040161164f906135bf565b60405180910390fd5b600c5481111561169d576040517f08c379a0000000000000000000000000000000000000000000000000000000008152600401611694906135df565b60405180910390fd5b60006116a7610aaf565b905060005b828110156116dc576116c98482846116c491906137fd565b611f3e565b80806116d490613a2b565b9150506116ac565b5081600c60008282546116ef91906138de565b92505081905550505050565b611703611a11565b73ffffffffffffffffffffffffffffffffffffffff166117216111ef565b73ffffffffffffffffffffffffffffffffffffffff1614611777576040517f08c379a000000000000000000000000000000000000000000000000000000000815260040161176e906135bf565b60405180910390fd5b80600e8190555050565b6000600560008473ffffffffffffffffffffffffffffffffffffffff1673ffffffffffffffffffffffffffffffffffffffff16815260200190815260200160002060008373ffffffffffffffffffffffffffffffffffffffff1673ffffffffffffffffffffffffffffffffffffffff16815260200190815260200160002060009054906101000a900460ff16905092915050565b61181d611a11565b73ffffffffffffffffffffffffffffffffffffffff1661183b6111ef565b73ffffffffffffffffffffffffffffffffffffffff1614611891576040517f08c379a0000000000000000000000000000000000000000000000000000000008152600401611888906135bf565b60405180910390fd5b600073ffffffffffffffffffffffffffffffffffffffff168173ffffffffffffffffffffffffffffffffffffffff161415611901576040517f08c379a00000000000000000000000000000000000000000000000000000000081526004016118f89061345f565b60405180910390fd5b61190a81611e78565b50565b6000600e54905090565b600080823b905060008111915050919050565b505050565b60007f80ac58cd000000000000000000000000000000000000000000000000000000007bffffffffffffffffffffffffffffffffffffffffffffffffffffffff1916827bffffffffffffffffffffffffffffffffffffffffffffffffffffffff191614806119fa57507f5b5e139f000000000000000000000000000000000000000000000000000000007bffffffffffffffffffffffffffffffffffffffffffffffffffffffff1916827bffffffffffffffffffffffffffffffffffffffffffffffffffffffff1916145b80611a0a5750611a09826121ab565b5b9050919050565b600033905090565b60008073ffffffffffffffffffffffffffffffffffffffff166002600084815260200190815260200160002060009054906101000a900473ffffffffffffffffffffffffffffffffffffffff1673ffffffffffffffffffffffffffffffffffffffff1614159050919050565b816004600083815260200190815260200160002060006101000a81548173ffffffffffffffffffffffffffffffffffffffff021916908373ffffffffffffffffffffffffffffffffffffffff160217905550808273ffffffffffffffffffffffffffffffffffffffff16611af883610e7a565b73ffffffffffffffffffffffffffffffffffffffff167f8c5be1e5ebec7d5bd14f71427d1e84f3dd0314c0f7b2291e5b200ac8c7c3b92560405160405180910390a45050565b6000611b4982611a19565b611b88576040517f08c379a0000000000000000000000000000000000000000000000000000000008152600401611b7f906134df565b60405180910390fd5b6000611b9383610e7a565b90508073ffffffffffffffffffffffffffffffffffffffff168473ffffffffffffffffffffffffffffffffffffffff161480611c0257508373ffffffffffffffffffffffffffffffffffffffff16611bea846108ff565b73ffffffffffffffffffffffffffffffffffffffff16145b80611c135750611c128185611781565b5b91505092915050565b8273ffffffffffffffffffffffffffffffffffffffff16611c3c82610e7a565b73ffffffffffffffffffffffffffffffffffffffff1614611c92576040517f08c379a0000000000000000000000000000000000000000000000000000000008152600401611c89906135ff565b60405180910390fd5b600073ffffffffffffffffffffffffffffffffffffffff168273ffffffffffffffffffffffffffffffffffffffff161415611d02576040517f08c379a0000000000000000000000000000000000000000000000000000000008152600401611cf99061349f565b60405180910390fd5b611d0d838383612215565b611d18600082611a85565b6001600360008573ffffffffffffffffffffffffffffffffffffffff1673ffffffffffffffffffffffffffffffffffffffff1681526020019081526020016000206000828254611d6891906138de565b925050819055506001600360008473ffffffffffffffffffffffffffffffffffffffff1673ffffffffffffffffffffffffffffffffffffffff1681526020019081526020016000206000828254611dbf91906137fd565b92505081905550816002600083815260200190815260200160002060006101000a81548173ffffffffffffffffffffffffffffffffffffffff021916908373ffffffffffffffffffffffffffffffffffffffff160217905550808273ffffffffffffffffffffffffffffffffffffffff168473ffffffffffffffffffffffffffffffffffffffff167fddf252ad1be2c89b69c2b068fc378daa952ba7f163c4a11628f55a4df523b3ef60405160405180910390a4505050565b6000600a60009054906101000a900473ffffffffffffffffffffffffffffffffffffffff16905081600a60006101000a81548173ffffffffffffffffffffffffffffffffffffffff021916908373ffffffffffffffffffffffffffffffffffffffff1602179055508173ffffffffffffffffffffffffffffffffffffffff168173ffffffffffffffffffffffffffffffffffffffff167f8be0079c531659141344cd1fd0a4f28419497f9722a3daafe3b4186f6b6457e060405160405180910390a35050565b611f58828260405180602001604052806000815250612329565b5050565b611f67848484611c1c565b611f7384848484612384565b611fb2576040517f08c379a0000000000000000000000000000000000000000000000000000000008152600401611fa99061343f565b60405180910390fd5b50505050565b6060600b8054611fc7906139c8565b80601f0160208091040260200160405190810160405280929190818152602001828054611ff3906139c8565b80156120405780601f1061201557610100808354040283529160200191612040565b820191906000526020600020905b81548152906001019060200180831161202357829003601f168201915b5050505050905090565b60606000821415612092576040518060400160405280600181526020017f300000000000000000000000000000000000000000000000000000000000000081525090506121a6565b600082905060005b600082146120c45780806120ad90613a2b565b915050600a826120bd9190613853565b915061209a565b60008167ffffffffffffffff8111156120e0576120df613b90565b5b6040519080825280601f01601f1916602001820160405280156121125781602001600182028036833780820191505090505b5090505b6000851461219f5760018261212b91906138de565b9150600a8561213a9190613a74565b603061214691906137fd565b60f81b81838151811061215c5761215b613b61565b5b60200101907effffffffffffffffffffffffffffffffffffffffffffffffffffffffffffff1916908160001a905350600a856121989190613853565b9450612116565b8093505050505b919050565b60007f01ffc9a7000000000000000000000000000000000000000000000000000000007bffffffffffffffffffffffffffffffffffffffffffffffffffffffff1916827bffffffffffffffffffffffffffffffffffffffffffffffffffffffff1916149050919050565b61222083838361192a565b600073ffffffffffffffffffffffffffffffffffffffff168373ffffffffffffffffffffffffffffffffffffffff1614156122635761225e8161251b565b6122a2565b8173ffffffffffffffffffffffffffffffffffffffff168373ffffffffffffffffffffffffffffffffffffffff16146122a1576122a08382612564565b5b5b600073ffffffffffffffffffffffffffffffffffffffff168273ffffffffffffffffffffffffffffffffffffffff1614156122e5576122e0816126d1565b612324565b8273ffffffffffffffffffffffffffffffffffffffff168273ffffffffffffffffffffffffffffffffffffffff16146123235761232282826127a2565b5b5b505050565b6123338383612821565b6123406000848484612384565b61237f576040517f08c379a00000000000000000000000000000000000000000000000000000000081526004016123769061343f565b60405180910390fd5b505050565b60006123a58473ffffffffffffffffffffffffffffffffffffffff16611917565b1561250e578373ffffffffffffffffffffffffffffffffffffffff1663150b7a026123ce611a11565b8786866040518563ffffffff1660e01b81526004016123f09493929190613354565b602060405180830381600087803b15801561240a57600080fd5b505af192505050801561243b57506040513d601f19601f820116820180604052508101906124389190612df8565b60015b6124be573d806000811461246b576040519150601f19603f3d011682016040523d82523d6000602084013e612470565b606091505b506000815114156124b6576040517f08c379a00000000000000000000000000000000000000000000000000000000081526004016124ad9061343f565b60405180910390fd5b805181602001fd5b63150b7a0260e01b7bffffffffffffffffffffffffffffffffffffffffffffffffffffffff1916817bffffffffffffffffffffffffffffffffffffffffffffffffffffffff191614915050612513565b600190505b949350505050565b6008805490506009600083815260200190815260200160002081905550600881908060018154018082558091505060019003906000526020600020016000909190919091505550565b6000600161257184610f2c565b61257b91906138de565b9050600060076000848152602001908152602001600020549050818114612660576000600660008673ffffffffffffffffffffffffffffffffffffffff1673ffffffffffffffffffffffffffffffffffffffff168152602001908152602001600020600084815260200190815260200160002054905080600660008773ffffffffffffffffffffffffffffffffffffffff1673ffffffffffffffffffffffffffffffffffffffff168152602001908152602001600020600084815260200190815260200160002081905550816007600083815260200190815260200160002081905550505b6007600084815260200190815260200160002060009055600660008573ffffffffffffffffffffffffffffffffffffffff1673ffffffffffffffffffffffffffffffffffffffff16815260200190815260200160002060008381526020019081526020016000206000905550505050565b600060016008805490506126e591906138de565b905060006009600084815260200190815260200160002054905060006008838154811061271557612714613b61565b5b90600052602060002001549050806008838154811061273757612736613b61565b5b90600052602060002001819055508160096000838152602001908152602001600020819055506009600085815260200190815260200160002060009055600880548061278657612785613b32565b5b6001900381819060005260206000200160009055905550505050565b60006127ad83610f2c565b905081600660008573ffffffffffffffffffffffffffffffffffffffff1673ffffffffffffffffffffffffffffffffffffffff168152602001908152602001600020600083815260200190815260200160002081905550806007600084815260200190815260200160002081905550505050565b600073ffffffffffffffffffffffffffffffffffffffff168273ffffffffffffffffffffffffffffffffffffffff161415612891576040517f08c379a00000000000000000000000000000000000000000000000000000000081526004016128889061357f565b60405180910390fd5b61289a81611a19565b156128da576040517f08c379a00000000000000000000000000000000000000000000000000000000081526004016128d19061347f565b60405180910390fd5b6128e660008383612215565b6001600360008473ffffffffffffffffffffffffffffffffffffffff1673ffffffffffffffffffffffffffffffffffffffff168152602001908152602001600020600082825461293691906137fd565b92505081905550816002600083815260200190815260200160002060006101000a81548173ffffffffffffffffffffffffffffffffffffffff021916908373ffffffffffffffffffffffffffffffffffffffff160217905550808273ffffffffffffffffffffffffffffffffffffffff16600073ffffffffffffffffffffffffffffffffffffffff167fddf252ad1be2c89b69c2b068fc378daa952ba7f163c4a11628f55a4df523b3ef60405160405180910390a45050565b8280546129fb906139c8565b90600052602060002090601f016020900481019282612a1d5760008555612a64565b82601f10612a3657805160ff1916838001178555612a64565b82800160010185558215612a64579182015b82811115612a63578251825591602001919060010190612a48565b5b509050612a719190612a75565b5090565b5b80821115612a8e576000816000905550600101612a76565b5090565b6000612aa5612aa08461371f565b6136fa565b905082815260208101848484011115612ac157612ac0613bc4565b5b612acc848285613986565b509392505050565b6000612ae7612ae284613750565b6136fa565b905082815260208101848484011115612b0357612b02613bc4565b5b612b0e848285613986565b509392505050565b600081359050612b25816141cd565b92915050565b600081359050612b3a816141e4565b92915050565b600081359050612b4f816141fb565b92915050565b600081519050612b64816141fb565b92915050565b600082601f830112612b7f57612b7e613bbf565b5b8135612b8f848260208601612a92565b91505092915050565b600082601f830112612bad57612bac613bbf565b5b8135612bbd848260208601612ad4565b91505092915050565b600081359050612bd581614212565b92915050565b600060208284031215612bf157612bf0613bce565b5b6000612bff84828501612b16565b91505092915050565b60008060408385031215612c1f57612c1e613bce565b5b6000612c2d85828601612b16565b9250506020612c3e85828601612b16565b9150509250929050565b600080600060608486031215612c6157612c60613bce565b5b6000612c6f86828701612b16565b9350506020612c8086828701612b16565b9250506040612c9186828701612bc6565b9150509250925092565b60008060008060808587031215612cb557612cb4613bce565b5b6000612cc387828801612b16565b9450506020612cd487828801612b16565b9350506040612ce587828801612bc6565b925050606085013567ffffffffffffffff811115612d0657612d05613bc9565b5b612d1287828801612b6a565b91505092959194509250565b60008060408385031215612d3557612d34613bce565b5b6000612d4385828601612b16565b9250506020612d5485828601612b2b565b9150509250929050565b60008060408385031215612d7557612d74613bce565b5b6000612d8385828601612b16565b9250506020612d9485828601612bc6565b9150509250929050565b600060208284031215612db457612db3613bce565b5b6000612dc284828501612b2b565b91505092915050565b600060208284031215612de157612de0613bce565b5b6000612def84828501612b40565b91505092915050565b600060208284031215612e0e57612e0d613bce565b5b6000612e1c84828501612b55565b91505092915050565b600060208284031215612e3b57612e3a613bce565b5b600082013567ffffffffffffffff811115612e5957612e58613bc9565b5b612e6584828501612b98565b91505092915050565b600060208284031215612e8457612e83613bce565b5b6000612e9284828501612bc6565b91505092915050565b6000612ea783836132f7565b60208301905092915050565b612ebc81613912565b82525050565b6000612ecd82613791565b612ed781856137bf565b9350612ee283613781565b8060005b83811015612f13578151612efa8882612e9b565b9750612f05836137b2565b925050600181019050612ee6565b5085935050505092915050565b612f2981613924565b82525050565b6000612f3a8261379c565b612f4481856137d0565b9350612f54818560208601613995565b612f5d81613bd3565b840191505092915050565b6000612f73826137a7565b612f7d81856137e1565b9350612f8d818560208601613995565b612f9681613bd3565b840191505092915050565b6000612fac826137a7565b612fb681856137f2565b9350612fc6818560208601613995565b80840191505092915050565b6000612fdf600b836137e1565b9150612fea82613be4565b602082019050919050565b6000613002602b836137e1565b915061300d82613c0d565b604082019050919050565b60006130256032836137e1565b915061303082613c5c565b604082019050919050565b60006130486026836137e1565b915061305382613cab565b604082019050919050565b600061306b601c836137e1565b915061307682613cfa565b602082019050919050565b600061308e6024836137e1565b915061309982613d23565b604082019050919050565b60006130b16019836137e1565b91506130bc82613d72565b602082019050919050565b60006130d4602c836137e1565b91506130df82613d9b565b604082019050919050565b60006130f76038836137e1565b915061310282613dea565b604082019050919050565b600061311a602a836137e1565b915061312582613e39565b604082019050919050565b600061313d6029836137e1565b915061314882613e88565b604082019050919050565b60006131606021836137e1565b915061316b82613ed7565b604082019050919050565b60006131836020836137e1565b915061318e82613f26565b602082019050919050565b60006131a6602c836137e1565b91506131b182613f4f565b604082019050919050565b60006131c96020836137e1565b91506131d482613f9e565b602082019050919050565b60006131ec601c836137e1565b91506131f782613fc7565b602082019050919050565b600061320f6029836137e1565b915061321a82613ff0565b604082019050919050565b6000613232602f836137e1565b915061323d8261403f565b604082019050919050565b60006132556021836137e1565b91506132608261408e565b604082019050919050565b60006132786019836137e1565b9150613283826140dd565b602082019050919050565b600061329b6031836137e1565b91506132a682614106565b604082019050919050565b60006132be602c836137e1565b91506132c982614155565b604082019050919050565b60006132e1601b836137e1565b91506132ec826141a4565b602082019050919050565b6133008161397c565b82525050565b61330f8161397c565b82525050565b60006133218285612fa1565b915061332d8284612fa1565b91508190509392505050565b600060208201905061334e6000830184612eb3565b92915050565b60006080820190506133696000830187612eb3565b6133766020830186612eb3565b6133836040830185613306565b81810360608301526133958184612f2f565b905095945050505050565b600060208201905081810360008301526133ba8184612ec2565b905092915050565b60006020820190506133d76000830184612f20565b92915050565b600060208201905081810360008301526133f78184612f68565b905092915050565b6000602082019050818103600083015261341881612fd2565b9050919050565b6000602082019050818103600083015261343881612ff5565b9050919050565b6000602082019050818103600083015261345881613018565b9050919050565b600060208201905081810360008301526134788161303b565b9050919050565b600060208201905081810360008301526134988161305e565b9050919050565b600060208201905081810360008301526134b881613081565b9050919050565b600060208201905081810360008301526134d8816130a4565b9050919050565b600060208201905081810360008301526134f8816130c7565b9050919050565b60006020820190508181036000830152613518816130ea565b9050919050565b600060208201905081810360008301526135388161310d565b9050919050565b6000602082019050818103600083015261355881613130565b9050919050565b6000602082019050818103600083015261357881613153565b9050919050565b6000602082019050818103600083015261359881613176565b9050919050565b600060208201905081810360008301526135b881613199565b9050919050565b600060208201905081810360008301526135d8816131bc565b9050919050565b600060208201905081810360008301526135f8816131df565b9050919050565b6000602082019050818103600083015261361881613202565b9050919050565b6000602082019050818103600083015261363881613225565b9050919050565b6000602082019050818103600083015261365881613248565b9050919050565b600060208201905081810360008301526136788161326b565b9050919050565b600060208201905081810360008301526136988161328e565b9050919050565b600060208201905081810360008301526136b8816132b1565b9050919050565b600060208201905081810360008301526136d8816132d4565b9050919050565b60006020820190506136f46000830184613306565b92915050565b6000613704613715565b905061371082826139fa565b919050565b6000604051905090565b600067ffffffffffffffff82111561373a57613739613b90565b5b61374382613bd3565b9050602081019050919050565b600067ffffffffffffffff82111561376b5761376a613b90565b5b61377482613bd3565b9050602081019050919050565b6000819050602082019050919050565b600081519050919050565b600081519050919050565b600081519050919050565b6000602082019050919050565b600082825260208201905092915050565b600082825260208201905092915050565b600082825260208201905092915050565b600081905092915050565b60006138088261397c565b91506138138361397c565b9250827fffffffffffffffffffffffffffffffffffffffffffffffffffffffffffffffff0382111561384857613847613aa5565b5b828201905092915050565b600061385e8261397c565b91506138698361397c565b92508261387957613878613ad4565b5b828204905092915050565b600061388f8261397c565b915061389a8361397c565b9250817fffffffffffffffffffffffffffffffffffffffffffffffffffffffffffffffff04831182151516156138d3576138d2613aa5565b5b828202905092915050565b60006138e98261397c565b91506138f48361397c565b92508282101561390757613906613aa5565b5b828203905092915050565b600061391d8261395c565b9050919050565b60008115159050919050565b60007fffffffff0000000000000000000000000000000000000000000000000000000082169050919050565b600073ffffffffffffffffffffffffffffffffffffffff82169050919050565b6000819050919050565b82818337600083830152505050565b60005b838110156139b3578082015181840152602081019050613998565b838111156139c2576000848401525b50505050565b600060028204905060018216806139e057607f821691505b602082108114156139f4576139f3613b03565b5b50919050565b613a0382613bd3565b810181811067ffffffffffffffff82111715613a2257613a21613b90565b5b80604052505050565b6000613a368261397c565b91507fffffffffffffffffffffffffffffffffffffffffffffffffffffffffffffffff821415613a6957613a68613aa5565b5b600182019050919050565b6000613a7f8261397c565b9150613a8a8361397c565b925082613a9a57613a99613ad4565b5b828206905092915050565b7f4e487b7100000000000000000000000000000000000000000000000000000000600052601160045260246000fd5b7f4e487b7100000000000000000000000000000000000000000000000000000000600052601260045260246000fd5b7f4e487b7100000000000000000000000000000000000000000000000000000000600052602260045260246000fd5b7f4e487b7100000000000000000000000000000000000000000000000000000000600052603160045260246000fd5b7f4e487b7100000000000000000000000000000000000000000000000000000000600052603260045260246000fd5b7f4e487b7100000000000000000000000000000000000000000000000000000000600052604160045260246000fd5b600080fd5b600080fd5b600080fd5b600080fd5b6000601f19601f8301169050919050565b7f53616c6520706175736564000000000000000000000000000000000000000000600082015250565b7f455243373231456e756d657261626c653a206f776e657220696e646578206f7560008201527f74206f6620626f756e6473000000000000000000000000000000000000000000602082015250565b7f4552433732313a207472616e7366657220746f206e6f6e20455243373231526560008201527f63656976657220696d706c656d656e7465720000000000000000000000000000602082015250565b7f4f776e61626c653a206e6577206f776e657220697320746865207a65726f206160008201527f6464726573730000000000000000000000000000000000000000000000000000602082015250565b7f4552433732313a20746f6b656e20616c7265616479206d696e74656400000000600082015250565b7f4552433732313a207472616e7366657220746f20746865207a65726f2061646460008201527f7265737300000000000000000000000000000000000000000000000000000000602082015250565b7f4552433732313a20617070726f766520746f2063616c6c657200000000000000600082015250565b7f4552433732313a206f70657261746f7220717565727920666f72206e6f6e657860008201527f697374656e7420746f6b656e0000000000000000000000000000000000000000602082015250565b7f4552433732313a20617070726f76652063616c6c6572206973206e6f74206f7760008201527f6e6572206e6f7220617070726f76656420666f7220616c6c0000000000000000602082015250565b7f4552433732313a2062616c616e636520717565727920666f7220746865207a6560008201527f726f206164647265737300000000000000000000000000000000000000000000602082015250565b7f4552433732313a206f776e657220717565727920666f72206e6f6e657869737460008201527f656e7420746f6b656e0000000000000000000000000000000000000000000000602082015250565b7f596f752063616e206d696e742061206d6178696d756d206f6620323020426f7460008201527f7300000000000000000000000000000000000000000000000000000000000000602082015250565b7f4552433732313a206d696e7420746f20746865207a65726f2061646472657373600082015250565b7f4552433732313a20617070726f76656420717565727920666f72206e6f6e657860008201527f697374656e7420746f6b656e0000000000000000000000000000000000000000602082015250565b7f4f776e61626c653a2063616c6c6572206973206e6f7420746865206f776e6572600082015250565b7f4578636565647320726573657276656420426f747320737570706c7900000000600082015250565b7f4552433732313a207472616e73666572206f6620746f6b656e2074686174206960008201527f73206e6f74206f776e0000000000000000000000000000000000000000000000602082015250565b7f4552433732314d657461646174613a2055524920717565727920666f72206e6f60008201527f6e6578697374656e7420746f6b656e0000000000000000000000000000000000602082015250565b7f4552433732313a20617070726f76616c20746f2063757272656e74206f776e6560008201527f7200000000000000000000000000000000000000000000000000000000000000602082015250565b7f45746865722073656e74206973206e6f7420636f727265637400000000000000600082015250565b7f4552433732313a207472616e736665722063616c6c6572206973206e6f74206f60008201527f776e6572206e6f7220617070726f766564000000000000000000000000000000602082015250565b7f455243373231456e756d657261626c653a20676c6f62616c20696e646578206f60008201527f7574206f6620626f756e64730000000000000000000000000000000000000000602082015250565b7f45786365656473206d6178696d756d20426f747320737570706c790000000000600082015250565b6141d681613912565b81146141e157600080fd5b50565b6141ed81613924565b81146141f857600080fd5b50565b61420481613930565b811461420f57600080fd5b50565b61421b8161397c565b811461422657600080fd5b5056fea264697066735822122098426e995ad41319f6688017515b7a6709f3a3c195b4ac0215c9ad594902348c64736f6c63430008060033",
  "immutableReferences": {},
  "source": "// SPDX-License-Identifier: MIT\r\npragma solidity ^0.8.0;\r\n\r\nimport \"@openzeppelin/contracts/token/ERC721/extensions/ERC721Enumerable.sol\";\r\nimport \"@openzeppelin/contracts/access/Ownable.sol\";\r\n\r\ncontract BabyBattleBots is ERC721Enumerable, Ownable {\r\n    using Strings for uint256;\r\n\r\n    string _baseTokenURI;\r\n    uint256 private _reserved = 100;\r\n    uint256 private _price = 0.03 ether;\r\n    uint256 private _genSupply = 3200;\r\n    bool public _paused = true;\r\n\r\n    address t1 = 0xF129f79c05F6EA516d01176A3983475100CA64C4;\r\n\r\n    constructor() ERC721(\"Baby Battle Bots\", \"BBB\") {\r\n        _safeMint(t1, 0);\r\n    }\r\n\r\n    function isPaused() public view virtual returns (bool) {\r\n        return _paused;\r\n    }\r\n\r\n    function mintBot(uint256 num) public payable {\r\n        uint256 supply = totalSupply();\r\n        require(!_paused, \"Sale paused\");\r\n        require(num < 21, \"You can mint a maximum of 20 Bots\");\r\n        require(supply + num < _genSupply - _reserved, \"Exceeds maximum Bots supply\");\r\n        require(msg.value >= _price * num, \"Ether sent is not correct\");\r\n\r\n        for (uint256 i; i < num; i++) {\r\n            _safeMint(msg.sender, supply + i);\r\n        }\r\n    }\r\n\r\n    function walletOfOwner(address _owner)\r\n        public\r\n        view\r\n        returns (uint256[] memory)\r\n    {\r\n        uint256 tokenCount = balanceOf(_owner);\r\n\r\n        uint256[] memory tokensId = new uint256[](tokenCount);\r\n        for (uint256 i; i < tokenCount; i++) {\r\n            tokensId[i] = tokenOfOwnerByIndex(_owner, i);\r\n        }\r\n        return tokensId;\r\n    }\r\n\r\n    function _baseURI() internal view virtual override returns (string memory) {\r\n        return _baseTokenURI;\r\n    }\r\n\r\n    function setBaseURI(string memory baseURI) public onlyOwner {\r\n        _baseTokenURI = baseURI;\r\n    }\r\n\r\n    function getPrice() public view returns (uint256) {\r\n        return _price;\r\n    }\r\n\r\n    function setPrice(uint256 _newPrice) public onlyOwner {\r\n        _price = _newPrice;\r\n    }\r\n\r\n    function setGenSupply(uint256 _newGenSupply) public onlyOwner {\r\n        _genSupply = _newGenSupply;\r\n    }\r\n\r\n    function getGenSupply() public view returns (uint256) {\r\n        return _genSupply;\r\n    }\r\n\r\n    function giveAway(address _to, uint256 _amount) external onlyOwner {\r\n        require(_amount <= _reserved, \"Exceeds reserved Bots supply\");\r\n\r\n        uint256 supply = totalSupply();\r\n        for (uint256 i; i < _amount; i++) {\r\n            _safeMint(_to, supply + i);\r\n        }\r\n\r\n        _reserved -= _amount;\r\n    }\r\n\r\n    function pause(bool val) public onlyOwner {\r\n        _paused = val;\r\n    }\r\n\r\n    function withdraw() public payable onlyOwner {\r\n        uint256 _balance = address(this).balance;\r\n        require(payable(t1).send(_balance));\r\n    }\r\n}\r\n",
  "sourcePath": "D:/YandexDisk/_dev/bbb/sol/contracts/BabyBattleBots.sol",
  "compiler": {
    "name": "solc",
    "version": "0.8.6+commit.11564f7e.Emscripten.clang"
  },
  "schemaVersion": "3.4.1",
  "updatedAt": "2021-07-31T14:06:38.825Z",
  "networkType": "ethereum",
  "devdoc": {
    "kind": "dev",
    "methods": {
      "approve(address,uint256)": {
        "details": "See {IERC721-approve}."
      },
      "balanceOf(address)": {
        "details": "See {IERC721-balanceOf}."
      },
      "getApproved(uint256)": {
        "details": "See {IERC721-getApproved}."
      },
      "isApprovedForAll(address,address)": {
        "details": "See {IERC721-isApprovedForAll}."
      },
      "name()": {
        "details": "See {IERC721Metadata-name}."
      },
      "owner()": {
        "details": "Returns the address of the current owner."
      },
      "ownerOf(uint256)": {
        "details": "See {IERC721-ownerOf}."
      },
      "renounceOwnership()": {
        "details": "Leaves the contract without owner. It will not be possible to call `onlyOwner` functions anymore. Can only be called by the current owner. NOTE: Renouncing ownership will leave the contract without an owner, thereby removing any functionality that is only available to the owner."
      },
      "safeTransferFrom(address,address,uint256)": {
        "details": "See {IERC721-safeTransferFrom}."
      },
      "safeTransferFrom(address,address,uint256,bytes)": {
        "details": "See {IERC721-safeTransferFrom}."
      },
      "setApprovalForAll(address,bool)": {
        "details": "See {IERC721-setApprovalForAll}."
      },
      "supportsInterface(bytes4)": {
        "details": "See {IERC165-supportsInterface}."
      },
      "symbol()": {
        "details": "See {IERC721Metadata-symbol}."
      },
      "tokenByIndex(uint256)": {
        "details": "See {IERC721Enumerable-tokenByIndex}."
      },
      "tokenOfOwnerByIndex(address,uint256)": {
        "details": "See {IERC721Enumerable-tokenOfOwnerByIndex}."
      },
      "tokenURI(uint256)": {
        "details": "See {IERC721Metadata-tokenURI}."
      },
      "totalSupply()": {
        "details": "See {IERC721Enumerable-totalSupply}."
      },
      "transferFrom(address,address,uint256)": {
        "details": "See {IERC721-transferFrom}."
      },
      "transferOwnership(address)": {
        "details": "Transfers ownership of the contract to a new account (`newOwner`). Can only be called by the current owner."
      }
    },
    "version": 1
  },
  "userdoc": {
    "kind": "user",
    "methods": {},
    "version": 1
  }
}