{
  "contractName": "BabyBattleBotsGenOne",
  "abi": [
    {
      "inputs": [],
      "stateMutability": "nonpayable",
      "type": "constructor"
    },
    {
      "anonymous": false,
      "inputs": [
        {
          "indexed": true,
          "internalType": "address",
          "name": "owner",
          "type": "address"
        },
        {
          "indexed": true,
          "internalType": "address",
          "name": "approved",
          "type": "address"
        },
        {
          "indexed": true,
          "internalType": "uint256",
          "name": "tokenId",
          "type": "uint256"
        }
      ],
      "name": "Approval",
      "type": "event"
    },
    {
      "anonymous": false,
      "inputs": [
        {
          "indexed": true,
          "internalType": "address",
          "name": "owner",
          "type": "address"
        },
        {
          "indexed": true,
          "internalType": "address",
          "name": "operator",
          "type": "address"
        },
        {
          "indexed": false,
          "internalType": "bool",
          "name": "approved",
          "type": "bool"
        }
      ],
      "name": "ApprovalForAll",
      "type": "event"
    },
    {
      "anonymous": false,
      "inputs": [
        {
          "indexed": true,
          "internalType": "address",
          "name": "previousOwner",
          "type": "address"
        },
        {
          "indexed": true,
          "internalType": "address",
          "name": "newOwner",
          "type": "address"
        }
      ],
      "name": "OwnershipTransferred",
      "type": "event"
    },
    {
      "anonymous": false,
      "inputs": [
        {
          "indexed": true,
          "internalType": "address",
          "name": "from",
          "type": "address"
        },
        {
          "indexed": true,
          "internalType": "address",
          "name": "to",
          "type": "address"
        },
        {
          "indexed": true,
          "internalType": "uint256",
          "name": "tokenId",
          "type": "uint256"
        }
      ],
      "name": "Transfer",
      "type": "event"
    },
    {
      "inputs": [],
      "name": "_ESpaused",
      "outputs": [
        {
          "internalType": "bool",
          "name": "",
          "type": "bool"
        }
      ],
      "stateMutability": "view",
      "type": "function"
    },
    {
      "inputs": [
        {
          "internalType": "address",
          "name": "",
          "type": "address"
        }
      ],
      "name": "_earlySupporters",
      "outputs": [
        {
          "internalType": "bool",
          "name": "",
          "type": "bool"
        }
      ],
      "stateMutability": "view",
      "type": "function"
    },
    {
      "inputs": [],
      "name": "_paused",
      "outputs": [
        {
          "internalType": "bool",
          "name": "",
          "type": "bool"
        }
      ],
      "stateMutability": "view",
      "type": "function"
    },
    {
      "inputs": [
        {
          "internalType": "address",
          "name": "to",
          "type": "address"
        },
        {
          "internalType": "uint256",
          "name": "tokenId",
          "type": "uint256"
        }
      ],
      "name": "approve",
      "outputs": [],
      "stateMutability": "nonpayable",
      "type": "function"
    },
    {
      "inputs": [
        {
          "internalType": "address",
          "name": "owner",
          "type": "address"
        }
      ],
      "name": "balanceOf",
      "outputs": [
        {
          "internalType": "uint256",
          "name": "",
          "type": "uint256"
        }
      ],
      "stateMutability": "view",
      "type": "function"
    },
    {
      "inputs": [
        {
          "internalType": "uint256",
          "name": "tokenId",
          "type": "uint256"
        }
      ],
      "name": "getApproved",
      "outputs": [
        {
          "internalType": "address",
          "name": "",
          "type": "address"
        }
      ],
      "stateMutability": "view",
      "type": "function"
    },
    {
      "inputs": [
        {
          "internalType": "address",
          "name": "owner",
          "type": "address"
        },
        {
          "internalType": "address",
          "name": "operator",
          "type": "address"
        }
      ],
      "name": "isApprovedForAll",
      "outputs": [
        {
          "internalType": "bool",
          "name": "",
          "type": "bool"
        }
      ],
      "stateMutability": "view",
      "type": "function"
    },
    {
      "inputs": [],
      "name": "name",
      "outputs": [
        {
          "internalType": "string",
          "name": "",
          "type": "string"
        }
      ],
      "stateMutability": "view",
      "type": "function"
    },
    {
      "inputs": [],
      "name": "owner",
      "outputs": [
        {
          "internalType": "address",
          "name": "",
          "type": "address"
        }
      ],
      "stateMutability": "view",
      "type": "function"
    },
    {
      "inputs": [
        {
          "internalType": "uint256",
          "name": "tokenId",
          "type": "uint256"
        }
      ],
      "name": "ownerOf",
      "outputs": [
        {
          "internalType": "address",
          "name": "",
          "type": "address"
        }
      ],
      "stateMutability": "view",
      "type": "function"
    },
    {
      "inputs": [],
      "name": "renounceOwnership",
      "outputs": [],
      "stateMutability": "nonpayable",
      "type": "function"
    },
    {
      "inputs": [
        {
          "internalType": "address",
          "name": "from",
          "type": "address"
        },
        {
          "internalType": "address",
          "name": "to",
          "type": "address"
        },
        {
          "internalType": "uint256",
          "name": "tokenId",
          "type": "uint256"
        }
      ],
      "name": "safeTransferFrom",
      "outputs": [],
      "stateMutability": "nonpayable",
      "type": "function"
    },
    {
      "inputs": [
        {
          "internalType": "address",
          "name": "from",
          "type": "address"
        },
        {
          "internalType": "address",
          "name": "to",
          "type": "address"
        },
        {
          "internalType": "uint256",
          "name": "tokenId",
          "type": "uint256"
        },
        {
          "internalType": "bytes",
          "name": "_data",
          "type": "bytes"
        }
      ],
      "name": "safeTransferFrom",
      "outputs": [],
      "stateMutability": "nonpayable",
      "type": "function"
    },
    {
      "inputs": [
        {
          "internalType": "address",
          "name": "operator",
          "type": "address"
        },
        {
          "internalType": "bool",
          "name": "approved",
          "type": "bool"
        }
      ],
      "name": "setApprovalForAll",
      "outputs": [],
      "stateMutability": "nonpayable",
      "type": "function"
    },
    {
      "inputs": [
        {
          "internalType": "bytes4",
          "name": "interfaceId",
          "type": "bytes4"
        }
      ],
      "name": "supportsInterface",
      "outputs": [
        {
          "internalType": "bool",
          "name": "",
          "type": "bool"
        }
      ],
      "stateMutability": "view",
      "type": "function"
    },
    {
      "inputs": [],
      "name": "symbol",
      "outputs": [
        {
          "internalType": "string",
          "name": "",
          "type": "string"
        }
      ],
      "stateMutability": "view",
      "type": "function"
    },
    {
      "inputs": [
        {
          "internalType": "uint256",
          "name": "index",
          "type": "uint256"
        }
      ],
      "name": "tokenByIndex",
      "outputs": [
        {
          "internalType": "uint256",
          "name": "",
          "type": "uint256"
        }
      ],
      "stateMutability": "view",
      "type": "function"
    },
    {
      "inputs": [
        {
          "internalType": "address",
          "name": "owner",
          "type": "address"
        },
        {
          "internalType": "uint256",
          "name": "index",
          "type": "uint256"
        }
      ],
      "name": "tokenOfOwnerByIndex",
      "outputs": [
        {
          "internalType": "uint256",
          "name": "",
          "type": "uint256"
        }
      ],
      "stateMutability": "view",
      "type": "function"
    },
    {
      "inputs": [
        {
          "internalType": "uint256",
          "name": "tokenId",
          "type": "uint256"
        }
      ],
      "name": "tokenURI",
      "outputs": [
        {
          "internalType": "string",
          "name": "",
          "type": "string"
        }
      ],
      "stateMutability": "view",
      "type": "function"
    },
    {
      "inputs": [],
      "name": "totalSupply",
      "outputs": [
        {
          "internalType": "uint256",
          "name": "",
          "type": "uint256"
        }
      ],
      "stateMutability": "view",
      "type": "function"
    },
    {
      "inputs": [
        {
          "internalType": "address",
          "name": "from",
          "type": "address"
        },
        {
          "internalType": "address",
          "name": "to",
          "type": "address"
        },
        {
          "internalType": "uint256",
          "name": "tokenId",
          "type": "uint256"
        }
      ],
      "name": "transferFrom",
      "outputs": [],
      "stateMutability": "nonpayable",
      "type": "function"
    },
    {
      "inputs": [
        {
          "internalType": "address",
          "name": "newOwner",
          "type": "address"
        }
      ],
      "name": "transferOwnership",
      "outputs": [],
      "stateMutability": "nonpayable",
      "type": "function"
    },
    {
      "inputs": [
        {
          "internalType": "uint256",
          "name": "num",
          "type": "uint256"
        }
      ],
      "name": "mintBot",
      "outputs": [],
      "stateMutability": "payable",
      "type": "function"
    },
    {
      "inputs": [],
      "name": "mintESBot",
      "outputs": [],
      "stateMutability": "payable",
      "type": "function"
    },
    {
      "inputs": [
        {
          "internalType": "address",
          "name": "_es",
          "type": "address"
        }
      ],
      "name": "addES",
      "outputs": [],
      "stateMutability": "nonpayable",
      "type": "function"
    },
    {
      "inputs": [
        {
          "internalType": "address",
          "name": "_es",
          "type": "address"
        }
      ],
      "name": "removeES",
      "outputs": [],
      "stateMutability": "nonpayable",
      "type": "function"
    },
    {
      "inputs": [
        {
          "internalType": "address[]",
          "name": "_ess",
          "type": "address[]"
        }
      ],
      "name": "addESMany",
      "outputs": [],
      "stateMutability": "nonpayable",
      "type": "function"
    },
    {
      "inputs": [
        {
          "internalType": "address[]",
          "name": "_ess",
          "type": "address[]"
        }
      ],
      "name": "removeESMany",
      "outputs": [],
      "stateMutability": "nonpayable",
      "type": "function"
    },
    {
      "inputs": [
        {
          "internalType": "address",
          "name": "_owner",
          "type": "address"
        }
      ],
      "name": "walletOfOwner",
      "outputs": [
        {
          "internalType": "uint256[]",
          "name": "",
          "type": "uint256[]"
        }
      ],
      "stateMutability": "view",
      "type": "function"
    },
    {
      "inputs": [
        {
          "internalType": "uint256",
          "name": "_newPrice",
          "type": "uint256"
        }
      ],
      "name": "setPrice",
      "outputs": [],
      "stateMutability": "nonpayable",
      "type": "function"
    },
    {
      "inputs": [
        {
          "internalType": "uint256",
          "name": "_newMaxPerTx",
          "type": "uint256"
        }
      ],
      "name": "setMaxPerTx",
      "outputs": [],
      "stateMutability": "nonpayable",
      "type": "function"
    },
    {
      "inputs": [
        {
          "internalType": "uint256",
          "name": "_newReserved",
          "type": "uint256"
        }
      ],
      "name": "setESReserved",
      "outputs": [],
      "stateMutability": "nonpayable",
      "type": "function"
    },
    {
      "inputs": [
        {
          "internalType": "uint256",
          "name": "_newReserved",
          "type": "uint256"
        }
      ],
      "name": "setGiftReserved",
      "outputs": [],
      "stateMutability": "nonpayable",
      "type": "function"
    },
    {
      "inputs": [
        {
          "internalType": "uint256",
          "name": "_newMax",
          "type": "uint256"
        }
      ],
      "name": "setMaxSupply",
      "outputs": [],
      "stateMutability": "nonpayable",
      "type": "function"
    },
    {
      "inputs": [
        {
          "internalType": "string",
          "name": "baseURI",
          "type": "string"
        }
      ],
      "name": "setBaseURI",
      "outputs": [],
      "stateMutability": "nonpayable",
      "type": "function"
    },
    {
      "inputs": [],
      "name": "getPrice",
      "outputs": [
        {
          "internalType": "uint256",
          "name": "",
          "type": "uint256"
        }
      ],
      "stateMutability": "view",
      "type": "function"
    },
    {
      "inputs": [
        {
          "internalType": "address",
          "name": "_to",
          "type": "address"
        },
        {
          "internalType": "uint256",
          "name": "_amount",
          "type": "uint256"
        }
      ],
      "name": "giveAway",
      "outputs": [],
      "stateMutability": "nonpayable",
      "type": "function"
    },
    {
      "inputs": [
        {
          "internalType": "address[]",
          "name": "addresses",
          "type": "address[]"
        }
      ],
      "name": "giveAwayMany",
      "outputs": [],
      "stateMutability": "nonpayable",
      "type": "function"
    },
    {
      "inputs": [
        {
          "internalType": "bool",
          "name": "val",
          "type": "bool"
        }
      ],
      "name": "pause",
      "outputs": [],
      "stateMutability": "nonpayable",
      "type": "function"
    },
    {
      "inputs": [
        {
          "internalType": "bool",
          "name": "val",
          "type": "bool"
        }
      ],
      "name": "ESpause",
      "outputs": [],
      "stateMutability": "nonpayable",
      "type": "function"
    },
    {
      "inputs": [],
      "name": "withdrawAll",
      "outputs": [],
      "stateMutability": "payable",
      "type": "function"
    }
  ],
  "bytecode": "0x608060405261012c600c556064600d55667c585087238000600e55610dac600f55600a6010556001601160006101000a81548160ff0219169083151502179055506000601160016101000a81548160ff02191690831515021790555073dc3ae92e82b5182e469a659786fe038206858a8c601360006101000a81548173ffffffffffffffffffffffffffffffffffffffff021916908373ffffffffffffffffffffffffffffffffffffffff16021790555073f129f79c05f6ea516d01176a3983475100ca64c4601460006101000a81548173ffffffffffffffffffffffffffffffffffffffff021916908373ffffffffffffffffffffffffffffffffffffffff16021790555073f5ca775911ea3f3fe75d8ec3756a08affbf4deb6601560006101000a81548173ffffffffffffffffffffffffffffffffffffffff021916908373ffffffffffffffffffffffffffffffffffffffff1602179055507367d1d8c8c440f47f00b3cbf14debbf9cbed00eef601660006101000a81548173ffffffffffffffffffffffffffffffffffffffff021916908373ffffffffffffffffffffffffffffffffffffffff160217905550348015620001bc57600080fd5b506040518060400160405280601881526020017f4261627920426174746c6520426f74732047656e204f6e6500000000000000008152506040518060400160405280600681526020017f4242424f4e45000000000000000000000000000000000000000000000000000081525081600090805190602001906200024192919062000da3565b5080600190805190602001906200025a92919062000da3565b50505060006200026f620003b360201b60201c565b905080600a60006101000a81548173ffffffffffffffffffffffffffffffffffffffff021916908373ffffffffffffffffffffffffffffffffffffffff1602179055508073ffffffffffffffffffffffffffffffffffffffff16600073ffffffffffffffffffffffffffffffffffffffff167f8be0079c531659141344cd1fd0a4f28419497f9722a3daafe3b4186f6b6457e060405160405180910390a35062000343601460009054906101000a900473ffffffffffffffffffffffffffffffffffffffff166000620003bb60201b60201c565b62000378601560009054906101000a900473ffffffffffffffffffffffffffffffffffffffff166001620003bb60201b60201c565b620003ad601660009054906101000a900473ffffffffffffffffffffffffffffffffffffffff166002620003bb60201b60201c565b620013ee565b600033905090565b620003dd828260405180602001604052806000815250620003e160201b60201c565b5050565b620003f383836200044f60201b60201c565b6200040860008484846200063560201b60201c565b6200044a576040517f08c379a0000000000000000000000000000000000000000000000000000000008152600401620004419062000eda565b60405180910390fd5b505050565b600073ffffffffffffffffffffffffffffffffffffffff168273ffffffffffffffffffffffffffffffffffffffff161415620004c2576040517f08c379a0000000000000000000000000000000000000000000000000000000008152600401620004b99062000f4c565b60405180910390fd5b620004d381620007ef60201b60201c565b1562000516576040517f08c379a00000000000000000000000000000000000000000000000000000000081526004016200050d9062000fbe565b60405180910390fd5b6200052a600083836200085b60201b60201c565b6001600360008473ffffffffffffffffffffffffffffffffffffffff1673ffffffffffffffffffffffffffffffffffffffff16815260200190815260200160002060008282546200057c919062001019565b92505081905550816002600083815260200190815260200160002060006101000a81548173ffffffffffffffffffffffffffffffffffffffff021916908373ffffffffffffffffffffffffffffffffffffffff160217905550808273ffffffffffffffffffffffffffffffffffffffff16600073ffffffffffffffffffffffffffffffffffffffff167fddf252ad1be2c89b69c2b068fc378daa952ba7f163c4a11628f55a4df523b3ef60405160405180910390a45050565b6000620006638473ffffffffffffffffffffffffffffffffffffffff16620009a260201b620025f41760201c565b15620007e2578373ffffffffffffffffffffffffffffffffffffffff1663150b7a0262000695620003b360201b60201c565b8786866040518563ffffffff1660e01b8152600401620006b9949392919062001170565b602060405180830381600087803b158015620006d457600080fd5b505af19250505080156200070857506040513d601f19601f8201168201806040525081019062000705919062001226565b60015b62000791573d80600081146200073b576040519150601f19603f3d011682016040523d82523d6000602084013e62000740565b606091505b5060008151141562000789576040517f08c379a0000000000000000000000000000000000000000000000000000000008152600401620007809062000eda565b60405180910390fd5b805181602001fd5b63150b7a0260e01b7bffffffffffffffffffffffffffffffffffffffffffffffffffffffff1916817bffffffffffffffffffffffffffffffffffffffffffffffffffffffff191614915050620007e7565b600190505b949350505050565b60008073ffffffffffffffffffffffffffffffffffffffff166002600084815260200190815260200160002060009054906101000a900473ffffffffffffffffffffffffffffffffffffffff1673ffffffffffffffffffffffffffffffffffffffff1614159050919050565b62000873838383620009b560201b620026071760201c565b600073ffffffffffffffffffffffffffffffffffffffff168373ffffffffffffffffffffffffffffffffffffffff161415620008c057620008ba81620009ba60201b60201c565b62000908565b8173ffffffffffffffffffffffffffffffffffffffff168373ffffffffffffffffffffffffffffffffffffffff1614620009075762000906838262000a0360201b60201c565b5b5b600073ffffffffffffffffffffffffffffffffffffffff168273ffffffffffffffffffffffffffffffffffffffff16141562000955576200094f8162000b8060201b60201c565b6200099d565b8273ffffffffffffffffffffffffffffffffffffffff168273ffffffffffffffffffffffffffffffffffffffff16146200099c576200099b828262000c5c60201b60201c565b5b5b505050565b600080823b905060008111915050919050565b505050565b6008805490506009600083815260200190815260200160002081905550600881908060018154018082558091505060019003906000526020600020016000909190919091505550565b6000600162000a1d8462000ce860201b620012ab1760201c565b62000a29919062001258565b905060006007600084815260200190815260200160002054905081811462000b0f576000600660008673ffffffffffffffffffffffffffffffffffffffff1673ffffffffffffffffffffffffffffffffffffffff168152602001908152602001600020600084815260200190815260200160002054905080600660008773ffffffffffffffffffffffffffffffffffffffff1673ffffffffffffffffffffffffffffffffffffffff168152602001908152602001600020600084815260200190815260200160002081905550816007600083815260200190815260200160002081905550505b6007600084815260200190815260200160002060009055600660008573ffffffffffffffffffffffffffffffffffffffff1673ffffffffffffffffffffffffffffffffffffffff16815260200190815260200160002060008381526020019081526020016000206000905550505050565b6000600160088054905062000b96919062001258565b905060006009600084815260200190815260200160002054905060006008838154811062000bc95762000bc862001293565b5b90600052602060002001549050806008838154811062000bee5762000bed62001293565b5b90600052602060002001819055508160096000838152602001908152602001600020819055506009600085815260200190815260200160002060009055600880548062000c405762000c3f620012c2565b5b6001900381819060005260206000200160009055905550505050565b600062000c748362000ce860201b620012ab1760201c565b905081600660008573ffffffffffffffffffffffffffffffffffffffff1673ffffffffffffffffffffffffffffffffffffffff168152602001908152602001600020600083815260200190815260200160002081905550806007600084815260200190815260200160002081905550505050565b60008073ffffffffffffffffffffffffffffffffffffffff168273ffffffffffffffffffffffffffffffffffffffff16141562000d5c576040517f08c379a000000000000000000000000000000000000000000000000000000000815260040162000d539062001367565b60405180910390fd5b600360008373ffffffffffffffffffffffffffffffffffffffff1673ffffffffffffffffffffffffffffffffffffffff168152602001908152602001600020549050919050565b82805462000db190620013b8565b90600052602060002090601f01602090048101928262000dd5576000855562000e21565b82601f1062000df057805160ff191683800117855562000e21565b8280016001018555821562000e21579182015b8281111562000e2057825182559160200191906001019062000e03565b5b50905062000e30919062000e34565b5090565b5b8082111562000e4f57600081600090555060010162000e35565b5090565b600082825260208201905092915050565b7f4552433732313a207472616e7366657220746f206e6f6e20455243373231526560008201527f63656976657220696d706c656d656e7465720000000000000000000000000000602082015250565b600062000ec260328362000e53565b915062000ecf8262000e64565b604082019050919050565b6000602082019050818103600083015262000ef58162000eb3565b9050919050565b7f4552433732313a206d696e7420746f20746865207a65726f2061646472657373600082015250565b600062000f3460208362000e53565b915062000f418262000efc565b602082019050919050565b6000602082019050818103600083015262000f678162000f25565b9050919050565b7f4552433732313a20746f6b656e20616c7265616479206d696e74656400000000600082015250565b600062000fa6601c8362000e53565b915062000fb38262000f6e565b602082019050919050565b6000602082019050818103600083015262000fd98162000f97565b9050919050565b6000819050919050565b7f4e487b7100000000000000000000000000000000000000000000000000000000600052601160045260246000fd5b6000620010268262000fe0565b9150620010338362000fe0565b9250827fffffffffffffffffffffffffffffffffffffffffffffffffffffffffffffffff038211156200106b576200106a62000fea565b5b828201905092915050565b600073ffffffffffffffffffffffffffffffffffffffff82169050919050565b6000620010a38262001076565b9050919050565b620010b58162001096565b82525050565b620010c68162000fe0565b82525050565b600081519050919050565b600082825260208201905092915050565b60005b8381101562001108578082015181840152602081019050620010eb565b8381111562001118576000848401525b50505050565b6000601f19601f8301169050919050565b60006200113c82620010cc565b620011488185620010d7565b93506200115a818560208601620010e8565b62001165816200111e565b840191505092915050565b6000608082019050620011876000830187620010aa565b620011966020830186620010aa565b620011a56040830185620010bb565b8181036060830152620011b981846200112f565b905095945050505050565b600080fd5b60007fffffffff0000000000000000000000000000000000000000000000000000000082169050919050565b6200120081620011c9565b81146200120c57600080fd5b50565b6000815190506200122081620011f5565b92915050565b6000602082840312156200123f576200123e620011c4565b5b60006200124f848285016200120f565b91505092915050565b6000620012658262000fe0565b9150620012728362000fe0565b92508282101562001288576200128762000fea565b5b828203905092915050565b7f4e487b7100000000000000000000000000000000000000000000000000000000600052603260045260246000fd5b7f4e487b7100000000000000000000000000000000000000000000000000000000600052603160045260246000fd5b7f4552433732313a2062616c616e636520717565727920666f7220746865207a6560008201527f726f206164647265737300000000000000000000000000000000000000000000602082015250565b60006200134f602a8362000e53565b91506200135c82620012f1565b604082019050919050565b60006020820190508181036000830152620013828162001340565b9050919050565b7f4e487b7100000000000000000000000000000000000000000000000000000000600052602260045260246000fd5b60006002820490506001821680620013d157607f821691505b60208210811415620013e857620013e762001389565b5b50919050565b61521580620013fe6000396000f3fe6080604052600436106102465760003560e01c806379b6d4a011610139578063c87b56dd116100b6578063e21a39791161007a578063e21a39791461086a578063e36fbd2414610893578063e4cfeac51461089d578063e985e9c5146108c6578063ed8403bf14610903578063f2fde38b1461092c57610246565b8063c87b56dd14610775578063ca800144146107b2578063cccbc7e5146107db578063cfc4e10a14610818578063df8e201d1461084157610246565b806395d89b41116100fd57806395d89b41146106a457806398d5fdca146106cf578063a22cb465146106fa578063b88d4fde14610723578063c6f6f2161461074c57610246565b806379b6d4a014610601578063853828b61461061d5780638d846a95146106275780638da5cb5b1461065057806391b7f5ed1461067b57610246565b80632f745c59116101c757806355f804b31161018b57806355f804b31461051e5780636352211e146105475780636f8b44b01461058457806370a08231146105ad578063715018a6146105ea57610246565b80632f745c59146104155780633b45fbe51461045257806342842e0e1461047b578063438b6300146104a45780634f6ccce7146104e157610246565b8063081812fc1161020e578063081812fc14610330578063095ea7b31461036d57806316c61ccc1461039657806318160ddd146103c157806323b872dd146103ec57610246565b806301ffc9a71461024b57806302329a29146102885780630285b97c146102b157806306c40cd6146102dc57806306fdde0314610305575b600080fd5b34801561025757600080fd5b50610272600480360381019061026d9190613715565b610955565b60405161027f919061375d565b60405180910390f35b34801561029457600080fd5b506102af60048036038101906102aa91906137a4565b6109cf565b005b3480156102bd57600080fd5b506102c6610a68565b6040516102d3919061375d565b60405180910390f35b3480156102e857600080fd5b5061030360048036038101906102fe9190613988565b610a7b565b005b34801561031157600080fd5b5061031a610bb1565b6040516103279190613a59565b60405180910390f35b34801561033c57600080fd5b5061035760048036038101906103529190613ab1565b610c43565b6040516103649190613aed565b60405180910390f35b34801561037957600080fd5b50610394600480360381019061038f9190613b08565b610cc8565b005b3480156103a257600080fd5b506103ab610de0565b6040516103b8919061375d565b60405180910390f35b3480156103cd57600080fd5b506103d6610df3565b6040516103e39190613b57565b60405180910390f35b3480156103f857600080fd5b50610413600480360381019061040e9190613b72565b610e00565b005b34801561042157600080fd5b5061043c60048036038101906104379190613b08565b610e60565b6040516104499190613b57565b60405180910390f35b34801561045e57600080fd5b50610479600480360381019061047491906137a4565b610f05565b005b34801561048757600080fd5b506104a2600480360381019061049d9190613b72565b610f9e565b005b3480156104b057600080fd5b506104cb60048036038101906104c69190613bc5565b610fbe565b6040516104d89190613cb0565b60405180910390f35b3480156104ed57600080fd5b5061050860048036038101906105039190613ab1565b61106c565b6040516105159190613b57565b60405180910390f35b34801561052a57600080fd5b5061054560048036038101906105409190613d87565b6110dd565b005b34801561055357600080fd5b5061056e60048036038101906105699190613ab1565b611173565b60405161057b9190613aed565b60405180910390f35b34801561059057600080fd5b506105ab60048036038101906105a69190613ab1565b611225565b005b3480156105b957600080fd5b506105d460048036038101906105cf9190613bc5565b6112ab565b6040516105e19190613b57565b60405180910390f35b3480156105f657600080fd5b506105ff611363565b005b61061b60048036038101906106169190613ab1565b6114a0565b005b610625611633565b005b34801561063357600080fd5b5061064e60048036038101906106499190613988565b6117a7565b005b34801561065c57600080fd5b506106656118c1565b6040516106729190613aed565b60405180910390f35b34801561068757600080fd5b506106a2600480360381019061069d9190613ab1565b6118eb565b005b3480156106b057600080fd5b506106b9611971565b6040516106c69190613a59565b60405180910390f35b3480156106db57600080fd5b506106e4611a03565b6040516106f19190613b57565b60405180910390f35b34801561070657600080fd5b50610721600480360381019061071c9190613dd0565b611a0d565b005b34801561072f57600080fd5b5061074a60048036038101906107459190613eb1565b611b8e565b005b34801561075857600080fd5b50610773600480360381019061076e9190613ab1565b611bf0565b005b34801561078157600080fd5b5061079c60048036038101906107979190613ab1565b611c76565b6040516107a99190613a59565b60405180910390f35b3480156107be57600080fd5b506107d960048036038101906107d49190613b08565b611d1d565b005b3480156107e757600080fd5b5061080260048036038101906107fd9190613bc5565b611e3c565b60405161080f919061375d565b60405180910390f35b34801561082457600080fd5b5061083f600480360381019061083a9190613ab1565b611e5c565b005b34801561084d57600080fd5b5061086860048036038101906108639190613ab1565b611ee2565b005b34801561087657600080fd5b50610891600480360381019061088c9190613bc5565b611f68565b005b61089b61203f565b005b3480156108a957600080fd5b506108c460048036038101906108bf9190613bc5565b61221b565b005b3480156108d257600080fd5b506108ed60048036038101906108e89190613f34565b6122f2565b6040516108fa919061375d565b60405180910390f35b34801561090f57600080fd5b5061092a60048036038101906109259190613988565b612386565b005b34801561093857600080fd5b50610953600480360381019061094e9190613bc5565b612448565b005b60007f780e9d63000000000000000000000000000000000000000000000000000000007bffffffffffffffffffffffffffffffffffffffffffffffffffffffff1916827bffffffffffffffffffffffffffffffffffffffffffffffffffffffff191614806109c857506109c78261260c565b5b9050919050565b6109d76126ee565b73ffffffffffffffffffffffffffffffffffffffff166109f56118c1565b73ffffffffffffffffffffffffffffffffffffffff1614610a4b576040517f08c379a0000000000000000000000000000000000000000000000000000000008152600401610a4290613fc0565b60405180910390fd5b80601160006101000a81548160ff02191690831515021790555050565b601160019054906101000a900460ff1681565b610a836126ee565b73ffffffffffffffffffffffffffffffffffffffff16610aa16118c1565b73ffffffffffffffffffffffffffffffffffffffff1614610af7576040517f08c379a0000000000000000000000000000000000000000000000000000000008152600401610aee90613fc0565b60405180910390fd5b600d5481511115610b3d576040517f08c379a0000000000000000000000000000000000000000000000000000000008152600401610b3490614052565b60405180910390fd5b60005b8151811015610b9357610b80828281518110610b5f57610b5e614072565b5b60200260200101516001610b71610df3565b610b7b91906140d0565b6126f6565b8080610b8b90614126565b915050610b40565b508051600d6000828254610ba7919061416f565b9250508190555050565b606060008054610bc0906141d2565b80601f0160208091040260200160405190810160405280929190818152602001828054610bec906141d2565b8015610c395780601f10610c0e57610100808354040283529160200191610c39565b820191906000526020600020905b815481529060010190602001808311610c1c57829003601f168201915b5050505050905090565b6000610c4e82612714565b610c8d576040517f08c379a0000000000000000000000000000000000000000000000000000000008152600401610c8490614276565b60405180910390fd5b6004600083815260200190815260200160002060009054906101000a900473ffffffffffffffffffffffffffffffffffffffff169050919050565b6000610cd382611173565b90508073ffffffffffffffffffffffffffffffffffffffff168373ffffffffffffffffffffffffffffffffffffffff161415610d44576040517f08c379a0000000000000000000000000000000000000000000000000000000008152600401610d3b90614308565b60405180910390fd5b8073ffffffffffffffffffffffffffffffffffffffff16610d636126ee565b73ffffffffffffffffffffffffffffffffffffffff161480610d925750610d9181610d8c6126ee565b6122f2565b5b610dd1576040517f08c379a0000000000000000000000000000000000000000000000000000000008152600401610dc89061439a565b60405180910390fd5b610ddb8383612780565b505050565b601160009054906101000a900460ff1681565b6000600880549050905090565b610e11610e0b6126ee565b82612839565b610e50576040517f08c379a0000000000000000000000000000000000000000000000000000000008152600401610e479061442c565b60405180910390fd5b610e5b838383612917565b505050565b6000610e6b836112ab565b8210610eac576040517f08c379a0000000000000000000000000000000000000000000000000000000008152600401610ea3906144be565b60405180910390fd5b600660008473ffffffffffffffffffffffffffffffffffffffff1673ffffffffffffffffffffffffffffffffffffffff168152602001908152602001600020600083815260200190815260200160002054905092915050565b610f0d6126ee565b73ffffffffffffffffffffffffffffffffffffffff16610f2b6118c1565b73ffffffffffffffffffffffffffffffffffffffff1614610f81576040517f08c379a0000000000000000000000000000000000000000000000000000000008152600401610f7890613fc0565b60405180910390fd5b80601160016101000a81548160ff02191690831515021790555050565b610fb983838360405180602001604052806000815250611b8e565b505050565b60606000610fcb836112ab565b905060008167ffffffffffffffff811115610fe957610fe86137e7565b5b6040519080825280602002602001820160405280156110175781602001602082028036833780820191505090505b50905060005b828110156110615761102f8582610e60565b82828151811061104257611041614072565b5b602002602001018181525050808061105990614126565b91505061101d565b508092505050919050565b6000611076610df3565b82106110b7576040517f08c379a00000000000000000000000000000000000000000000000000000000081526004016110ae90614550565b60405180910390fd5b600882815481106110cb576110ca614072565b5b90600052602060002001549050919050565b6110e56126ee565b73ffffffffffffffffffffffffffffffffffffffff166111036118c1565b73ffffffffffffffffffffffffffffffffffffffff1614611159576040517f08c379a000000000000000000000000000000000000000000000000000000000815260040161115090613fc0565b60405180910390fd5b80600b908051906020019061116f929190613606565b5050565b6000806002600084815260200190815260200160002060009054906101000a900473ffffffffffffffffffffffffffffffffffffffff169050600073ffffffffffffffffffffffffffffffffffffffff168173ffffffffffffffffffffffffffffffffffffffff16141561121c576040517f08c379a0000000000000000000000000000000000000000000000000000000008152600401611213906145e2565b60405180910390fd5b80915050919050565b61122d6126ee565b73ffffffffffffffffffffffffffffffffffffffff1661124b6118c1565b73ffffffffffffffffffffffffffffffffffffffff16146112a1576040517f08c379a000000000000000000000000000000000000000000000000000000000815260040161129890613fc0565b60405180910390fd5b80600f8190555050565b60008073ffffffffffffffffffffffffffffffffffffffff168273ffffffffffffffffffffffffffffffffffffffff16141561131c576040517f08c379a000000000000000000000000000000000000000000000000000000000815260040161131390614674565b60405180910390fd5b600360008373ffffffffffffffffffffffffffffffffffffffff1673ffffffffffffffffffffffffffffffffffffffff168152602001908152602001600020549050919050565b61136b6126ee565b73ffffffffffffffffffffffffffffffffffffffff166113896118c1565b73ffffffffffffffffffffffffffffffffffffffff16146113df576040517f08c379a00000000000000000000000000000000000000000000000000000000081526004016113d690613fc0565b60405180910390fd5b600073ffffffffffffffffffffffffffffffffffffffff16600a60009054906101000a900473ffffffffffffffffffffffffffffffffffffffff1673ffffffffffffffffffffffffffffffffffffffff167f8be0079c531659141344cd1fd0a4f28419497f9722a3daafe3b4186f6b6457e060405160405180910390a36000600a60006101000a81548173ffffffffffffffffffffffffffffffffffffffff021916908373ffffffffffffffffffffffffffffffffffffffff160217905550565b60006114aa610df3565b9050601160009054906101000a900460ff16156114fc576040517f08c379a00000000000000000000000000000000000000000000000000000000081526004016114f3906146e0565b60405180910390fd5b601054821115611541576040517f08c379a000000000000000000000000000000000000000000000000000000000815260040161153890614772565b60405180910390fd5b600c54600d54600f54611554919061416f565b61155e919061416f565b828261156a91906140d0565b11156115ab576040517f08c379a00000000000000000000000000000000000000000000000000000000081526004016115a2906147de565b60405180910390fd5b81600e546115b991906147fe565b3410156115fb576040517f08c379a00000000000000000000000000000000000000000000000000000000081526004016115f2906148a4565b60405180910390fd5b60005b8281101561162e5761161b33828461161691906140d0565b6126f6565b808061162690614126565b9150506115fe565b505050565b61163b6126ee565b73ffffffffffffffffffffffffffffffffffffffff166116596118c1565b73ffffffffffffffffffffffffffffffffffffffff16146116af576040517f08c379a00000000000000000000000000000000000000000000000000000000081526004016116a690613fc0565b60405180910390fd5b600047905060006103e86025836116c691906147fe565b6116d091906148f3565b9050600081836116e0919061416f565b9050601360009054906101000a900473ffffffffffffffffffffffffffffffffffffffff1673ffffffffffffffffffffffffffffffffffffffff166108fc839081150290604051600060405180830381858888f1935050505061174257600080fd5b601460009054906101000a900473ffffffffffffffffffffffffffffffffffffffff1673ffffffffffffffffffffffffffffffffffffffff166108fc829081150290604051600060405180830381858888f193505050506117a257600080fd5b505050565b6117af6126ee565b73ffffffffffffffffffffffffffffffffffffffff166117cd6118c1565b73ffffffffffffffffffffffffffffffffffffffff1614611823576040517f08c379a000000000000000000000000000000000000000000000000000000000815260040161181a90613fc0565b60405180910390fd5b600c548151611830610df3565b61183a91906140d0565b111561187b576040517f08c379a000000000000000000000000000000000000000000000000000000000815260040161187290614970565b60405180910390fd5b60005b81518110156118bd576118aa82828151811061189d5761189c614072565b5b6020026020010151611f68565b80806118b590614126565b91505061187e565b5050565b6000600a60009054906101000a900473ffffffffffffffffffffffffffffffffffffffff16905090565b6118f36126ee565b73ffffffffffffffffffffffffffffffffffffffff166119116118c1565b73ffffffffffffffffffffffffffffffffffffffff1614611967576040517f08c379a000000000000000000000000000000000000000000000000000000000815260040161195e90613fc0565b60405180910390fd5b80600e8190555050565b606060018054611980906141d2565b80601f01602080910402602001604051908101604052809291908181526020018280546119ac906141d2565b80156119f95780601f106119ce576101008083540402835291602001916119f9565b820191906000526020600020905b8154815290600101906020018083116119dc57829003601f168201915b5050505050905090565b6000600e54905090565b611a156126ee565b73ffffffffffffffffffffffffffffffffffffffff168273ffffffffffffffffffffffffffffffffffffffff161415611a83576040517f08c379a0000000000000000000000000000000000000000000000000000000008152600401611a7a906149dc565b60405180910390fd5b8060056000611a906126ee565b73ffffffffffffffffffffffffffffffffffffffff1673ffffffffffffffffffffffffffffffffffffffff16815260200190815260200160002060008473ffffffffffffffffffffffffffffffffffffffff1673ffffffffffffffffffffffffffffffffffffffff16815260200190815260200160002060006101000a81548160ff0219169083151502179055508173ffffffffffffffffffffffffffffffffffffffff16611b3d6126ee565b73ffffffffffffffffffffffffffffffffffffffff167f17307eab39ab6107e8899845ad3d59bd9653f200f220920489ca2b5937696c3183604051611b82919061375d565b60405180910390a35050565b611b9f611b996126ee565b83612839565b611bde576040517f08c379a0000000000000000000000000000000000000000000000000000000008152600401611bd59061442c565b60405180910390fd5b611bea84848484612b73565b50505050565b611bf86126ee565b73ffffffffffffffffffffffffffffffffffffffff16611c166118c1565b73ffffffffffffffffffffffffffffffffffffffff1614611c6c576040517f08c379a0000000000000000000000000000000000000000000000000000000008152600401611c6390613fc0565b60405180910390fd5b8060108190555050565b6060611c8182612714565b611cc0576040517f08c379a0000000000000000000000000000000000000000000000000000000008152600401611cb790614a6e565b60405180910390fd5b6000611cca612bcf565b90506000815111611cea5760405180602001604052806000815250611d15565b80611cf484612c61565b604051602001611d05929190614aca565b6040516020818303038152906040525b915050919050565b611d256126ee565b73ffffffffffffffffffffffffffffffffffffffff16611d436118c1565b73ffffffffffffffffffffffffffffffffffffffff1614611d99576040517f08c379a0000000000000000000000000000000000000000000000000000000008152600401611d9090613fc0565b60405180910390fd5b600d54811115611dde576040517f08c379a0000000000000000000000000000000000000000000000000000000008152600401611dd590614052565b60405180910390fd5b6000611de8610df3565b905060005b82811015611e1d57611e0a848284611e0591906140d0565b6126f6565b8080611e1590614126565b915050611ded565b5081600d6000828254611e30919061416f565b92505081905550505050565b60126020528060005260406000206000915054906101000a900460ff1681565b611e646126ee565b73ffffffffffffffffffffffffffffffffffffffff16611e826118c1565b73ffffffffffffffffffffffffffffffffffffffff1614611ed8576040517f08c379a0000000000000000000000000000000000000000000000000000000008152600401611ecf90613fc0565b60405180910390fd5b80600c8190555050565b611eea6126ee565b73ffffffffffffffffffffffffffffffffffffffff16611f086118c1565b73ffffffffffffffffffffffffffffffffffffffff1614611f5e576040517f08c379a0000000000000000000000000000000000000000000000000000000008152600401611f5590613fc0565b60405180910390fd5b80600d8190555050565b611f706126ee565b73ffffffffffffffffffffffffffffffffffffffff16611f8e6118c1565b73ffffffffffffffffffffffffffffffffffffffff1614611fe4576040517f08c379a0000000000000000000000000000000000000000000000000000000008152600401611fdb90613fc0565b60405180910390fd5b6001601260008373ffffffffffffffffffffffffffffffffffffffff1673ffffffffffffffffffffffffffffffffffffffff16815260200190815260200160002060006101000a81548160ff02191690831515021790555050565b6000612049610df3565b90506000612056336112ab565b9050601160019054906101000a900460ff16156120a8576040517f08c379a000000000000000000000000000000000000000000000000000000000815260040161209f90614b3a565b60405180910390fd5b600c546001836120b891906140d0565b11156120f9576040517f08c379a00000000000000000000000000000000000000000000000000000000081526004016120f090614bcc565b60405180910390fd5b6000811461213c576040517f08c379a000000000000000000000000000000000000000000000000000000000815260040161213390614c38565b60405180910390fd5b601260003373ffffffffffffffffffffffffffffffffffffffff1673ffffffffffffffffffffffffffffffffffffffff16815260200190815260200160002060009054906101000a900460ff166121c8576040517f08c379a00000000000000000000000000000000000000000000000000000000081526004016121bf90614cca565b60405180910390fd5b600e5434101561220d576040517f08c379a0000000000000000000000000000000000000000000000000000000008152600401612204906148a4565b60405180910390fd5b61221733836126f6565b5050565b6122236126ee565b73ffffffffffffffffffffffffffffffffffffffff166122416118c1565b73ffffffffffffffffffffffffffffffffffffffff1614612297576040517f08c379a000000000000000000000000000000000000000000000000000000000815260040161228e90613fc0565b60405180910390fd5b6000601260008373ffffffffffffffffffffffffffffffffffffffff1673ffffffffffffffffffffffffffffffffffffffff16815260200190815260200160002060006101000a81548160ff02191690831515021790555050565b6000600560008473ffffffffffffffffffffffffffffffffffffffff1673ffffffffffffffffffffffffffffffffffffffff16815260200190815260200160002060008373ffffffffffffffffffffffffffffffffffffffff1673ffffffffffffffffffffffffffffffffffffffff16815260200190815260200160002060009054906101000a900460ff16905092915050565b61238e6126ee565b73ffffffffffffffffffffffffffffffffffffffff166123ac6118c1565b73ffffffffffffffffffffffffffffffffffffffff1614612402576040517f08c379a00000000000000000000000000000000000000000000000000000000081526004016123f990613fc0565b60405180910390fd5b60005b81518110156124445761243182828151811061242457612423614072565b5b602002602001015161221b565b808061243c90614126565b915050612405565b5050565b6124506126ee565b73ffffffffffffffffffffffffffffffffffffffff1661246e6118c1565b73ffffffffffffffffffffffffffffffffffffffff16146124c4576040517f08c379a00000000000000000000000000000000000000000000000000000000081526004016124bb90613fc0565b60405180910390fd5b600073ffffffffffffffffffffffffffffffffffffffff168173ffffffffffffffffffffffffffffffffffffffff161415612534576040517f08c379a000000000000000000000000000000000000000000000000000000000815260040161252b90614d5c565b60405180910390fd5b8073ffffffffffffffffffffffffffffffffffffffff16600a60009054906101000a900473ffffffffffffffffffffffffffffffffffffffff1673ffffffffffffffffffffffffffffffffffffffff167f8be0079c531659141344cd1fd0a4f28419497f9722a3daafe3b4186f6b6457e060405160405180910390a380600a60006101000a81548173ffffffffffffffffffffffffffffffffffffffff021916908373ffffffffffffffffffffffffffffffffffffffff16021790555050565b600080823b905060008111915050919050565b505050565b60007f80ac58cd000000000000000000000000000000000000000000000000000000007bffffffffffffffffffffffffffffffffffffffffffffffffffffffff1916827bffffffffffffffffffffffffffffffffffffffffffffffffffffffff191614806126d757507f5b5e139f000000000000000000000000000000000000000000000000000000007bffffffffffffffffffffffffffffffffffffffffffffffffffffffff1916827bffffffffffffffffffffffffffffffffffffffffffffffffffffffff1916145b806126e757506126e682612dc2565b5b9050919050565b600033905090565b612710828260405180602001604052806000815250612e2c565b5050565b60008073ffffffffffffffffffffffffffffffffffffffff166002600084815260200190815260200160002060009054906101000a900473ffffffffffffffffffffffffffffffffffffffff1673ffffffffffffffffffffffffffffffffffffffff1614159050919050565b816004600083815260200190815260200160002060006101000a81548173ffffffffffffffffffffffffffffffffffffffff021916908373ffffffffffffffffffffffffffffffffffffffff160217905550808273ffffffffffffffffffffffffffffffffffffffff166127f383611173565b73ffffffffffffffffffffffffffffffffffffffff167f8c5be1e5ebec7d5bd14f71427d1e84f3dd0314c0f7b2291e5b200ac8c7c3b92560405160405180910390a45050565b600061284482612714565b612883576040517f08c379a000000000000000000000000000000000000000000000000000000000815260040161287a90614dee565b60405180910390fd5b600061288e83611173565b90508073ffffffffffffffffffffffffffffffffffffffff168473ffffffffffffffffffffffffffffffffffffffff1614806128fd57508373ffffffffffffffffffffffffffffffffffffffff166128e584610c43565b73ffffffffffffffffffffffffffffffffffffffff16145b8061290e575061290d81856122f2565b5b91505092915050565b8273ffffffffffffffffffffffffffffffffffffffff1661293782611173565b73ffffffffffffffffffffffffffffffffffffffff161461298d576040517f08c379a000000000000000000000000000000000000000000000000000000000815260040161298490614e80565b60405180910390fd5b600073ffffffffffffffffffffffffffffffffffffffff168273ffffffffffffffffffffffffffffffffffffffff1614156129fd576040517f08c379a00000000000000000000000000000000000000000000000000000000081526004016129f490614f12565b60405180910390fd5b612a08838383612e87565b612a13600082612780565b6001600360008573ffffffffffffffffffffffffffffffffffffffff1673ffffffffffffffffffffffffffffffffffffffff1681526020019081526020016000206000828254612a63919061416f565b925050819055506001600360008473ffffffffffffffffffffffffffffffffffffffff1673ffffffffffffffffffffffffffffffffffffffff1681526020019081526020016000206000828254612aba91906140d0565b92505081905550816002600083815260200190815260200160002060006101000a81548173ffffffffffffffffffffffffffffffffffffffff021916908373ffffffffffffffffffffffffffffffffffffffff160217905550808273ffffffffffffffffffffffffffffffffffffffff168473ffffffffffffffffffffffffffffffffffffffff167fddf252ad1be2c89b69c2b068fc378daa952ba7f163c4a11628f55a4df523b3ef60405160405180910390a4505050565b612b7e848484612917565b612b8a84848484612f9b565b612bc9576040517f08c379a0000000000000000000000000000000000000000000000000000000008152600401612bc090614fa4565b60405180910390fd5b50505050565b6060600b8054612bde906141d2565b80601f0160208091040260200160405190810160405280929190818152602001828054612c0a906141d2565b8015612c575780601f10612c2c57610100808354040283529160200191612c57565b820191906000526020600020905b815481529060010190602001808311612c3a57829003601f168201915b5050505050905090565b60606000821415612ca9576040518060400160405280600181526020017f30000000000000000000000000000000000000000000000000000000000000008152509050612dbd565b600082905060005b60008214612cdb578080612cc490614126565b915050600a82612cd491906148f3565b9150612cb1565b60008167ffffffffffffffff811115612cf757612cf66137e7565b5b6040519080825280601f01601f191660200182016040528015612d295781602001600182028036833780820191505090505b5090505b60008514612db657600182612d42919061416f565b9150600a85612d519190614fc4565b6030612d5d91906140d0565b60f81b818381518110612d7357612d72614072565b5b60200101907effffffffffffffffffffffffffffffffffffffffffffffffffffffffffffff1916908160001a905350600a85612daf91906148f3565b9450612d2d565b8093505050505b919050565b60007f01ffc9a7000000000000000000000000000000000000000000000000000000007bffffffffffffffffffffffffffffffffffffffffffffffffffffffff1916827bffffffffffffffffffffffffffffffffffffffffffffffffffffffff1916149050919050565b612e368383613132565b612e436000848484612f9b565b612e82576040517f08c379a0000000000000000000000000000000000000000000000000000000008152600401612e7990614fa4565b60405180910390fd5b505050565b612e92838383612607565b600073ffffffffffffffffffffffffffffffffffffffff168373ffffffffffffffffffffffffffffffffffffffff161415612ed557612ed081613300565b612f14565b8173ffffffffffffffffffffffffffffffffffffffff168373ffffffffffffffffffffffffffffffffffffffff1614612f1357612f128382613349565b5b5b600073ffffffffffffffffffffffffffffffffffffffff168273ffffffffffffffffffffffffffffffffffffffff161415612f5757612f52816134b6565b612f96565b8273ffffffffffffffffffffffffffffffffffffffff168273ffffffffffffffffffffffffffffffffffffffff1614612f9557612f948282613587565b5b5b505050565b6000612fbc8473ffffffffffffffffffffffffffffffffffffffff166125f4565b15613125578373ffffffffffffffffffffffffffffffffffffffff1663150b7a02612fe56126ee565b8786866040518563ffffffff1660e01b8152600401613007949392919061504a565b602060405180830381600087803b15801561302157600080fd5b505af192505050801561305257506040513d601f19601f8201168201806040525081019061304f91906150ab565b60015b6130d5573d8060008114613082576040519150601f19603f3d011682016040523d82523d6000602084013e613087565b606091505b506000815114156130cd576040517f08c379a00000000000000000000000000000000000000000000000000000000081526004016130c490614fa4565b60405180910390fd5b805181602001fd5b63150b7a0260e01b7bffffffffffffffffffffffffffffffffffffffffffffffffffffffff1916817bffffffffffffffffffffffffffffffffffffffffffffffffffffffff19161491505061312a565b600190505b949350505050565b600073ffffffffffffffffffffffffffffffffffffffff168273ffffffffffffffffffffffffffffffffffffffff1614156131a2576040517f08c379a000000000000000000000000000000000000000000000000000000000815260040161319990615124565b60405180910390fd5b6131ab81612714565b156131eb576040517f08c379a00000000000000000000000000000000000000000000000000000000081526004016131e290615190565b60405180910390fd5b6131f760008383612e87565b6001600360008473ffffffffffffffffffffffffffffffffffffffff1673ffffffffffffffffffffffffffffffffffffffff168152602001908152602001600020600082825461324791906140d0565b92505081905550816002600083815260200190815260200160002060006101000a81548173ffffffffffffffffffffffffffffffffffffffff021916908373ffffffffffffffffffffffffffffffffffffffff160217905550808273ffffffffffffffffffffffffffffffffffffffff16600073ffffffffffffffffffffffffffffffffffffffff167fddf252ad1be2c89b69c2b068fc378daa952ba7f163c4a11628f55a4df523b3ef60405160405180910390a45050565b6008805490506009600083815260200190815260200160002081905550600881908060018154018082558091505060019003906000526020600020016000909190919091505550565b60006001613356846112ab565b613360919061416f565b9050600060076000848152602001908152602001600020549050818114613445576000600660008673ffffffffffffffffffffffffffffffffffffffff1673ffffffffffffffffffffffffffffffffffffffff168152602001908152602001600020600084815260200190815260200160002054905080600660008773ffffffffffffffffffffffffffffffffffffffff1673ffffffffffffffffffffffffffffffffffffffff168152602001908152602001600020600084815260200190815260200160002081905550816007600083815260200190815260200160002081905550505b6007600084815260200190815260200160002060009055600660008573ffffffffffffffffffffffffffffffffffffffff1673ffffffffffffffffffffffffffffffffffffffff16815260200190815260200160002060008381526020019081526020016000206000905550505050565b600060016008805490506134ca919061416f565b90506000600960008481526020019081526020016000205490506000600883815481106134fa576134f9614072565b5b90600052602060002001549050806008838154811061351c5761351b614072565b5b90600052602060002001819055508160096000838152602001908152602001600020819055506009600085815260200190815260200160002060009055600880548061356b5761356a6151b0565b5b6001900381819060005260206000200160009055905550505050565b6000613592836112ab565b905081600660008573ffffffffffffffffffffffffffffffffffffffff1673ffffffffffffffffffffffffffffffffffffffff168152602001908152602001600020600083815260200190815260200160002081905550806007600084815260200190815260200160002081905550505050565b828054613612906141d2565b90600052602060002090601f016020900481019282613634576000855561367b565b82601f1061364d57805160ff191683800117855561367b565b8280016001018555821561367b579182015b8281111561367a57825182559160200191906001019061365f565b5b509050613688919061368c565b5090565b5b808211156136a557600081600090555060010161368d565b5090565b6000604051905090565b600080fd5b600080fd5b60007fffffffff0000000000000000000000000000000000000000000000000000000082169050919050565b6136f2816136bd565b81146136fd57600080fd5b50565b60008135905061370f816136e9565b92915050565b60006020828403121561372b5761372a6136b3565b5b600061373984828501613700565b91505092915050565b60008115159050919050565b61375781613742565b82525050565b6000602082019050613772600083018461374e565b92915050565b61378181613742565b811461378c57600080fd5b50565b60008135905061379e81613778565b92915050565b6000602082840312156137ba576137b96136b3565b5b60006137c88482850161378f565b91505092915050565b600080fd5b6000601f19601f8301169050919050565b7f4e487b7100000000000000000000000000000000000000000000000000000000600052604160045260246000fd5b61381f826137d6565b810181811067ffffffffffffffff8211171561383e5761383d6137e7565b5b80604052505050565b60006138516136a9565b905061385d8282613816565b919050565b600067ffffffffffffffff82111561387d5761387c6137e7565b5b602082029050602081019050919050565b600080fd5b600073ffffffffffffffffffffffffffffffffffffffff82169050919050565b60006138be82613893565b9050919050565b6138ce816138b3565b81146138d957600080fd5b50565b6000813590506138eb816138c5565b92915050565b60006139046138ff84613862565b613847565b905080838252602082019050602084028301858111156139275761392661388e565b5b835b81811015613950578061393c88826138dc565b845260208401935050602081019050613929565b5050509392505050565b600082601f83011261396f5761396e6137d1565b5b813561397f8482602086016138f1565b91505092915050565b60006020828403121561399e5761399d6136b3565b5b600082013567ffffffffffffffff8111156139bc576139bb6136b8565b5b6139c88482850161395a565b91505092915050565b600081519050919050565b600082825260208201905092915050565b60005b83811015613a0b5780820151818401526020810190506139f0565b83811115613a1a576000848401525b50505050565b6000613a2b826139d1565b613a3581856139dc565b9350613a458185602086016139ed565b613a4e816137d6565b840191505092915050565b60006020820190508181036000830152613a738184613a20565b905092915050565b6000819050919050565b613a8e81613a7b565b8114613a9957600080fd5b50565b600081359050613aab81613a85565b92915050565b600060208284031215613ac757613ac66136b3565b5b6000613ad584828501613a9c565b91505092915050565b613ae7816138b3565b82525050565b6000602082019050613b026000830184613ade565b92915050565b60008060408385031215613b1f57613b1e6136b3565b5b6000613b2d858286016138dc565b9250506020613b3e85828601613a9c565b9150509250929050565b613b5181613a7b565b82525050565b6000602082019050613b6c6000830184613b48565b92915050565b600080600060608486031215613b8b57613b8a6136b3565b5b6000613b99868287016138dc565b9350506020613baa868287016138dc565b9250506040613bbb86828701613a9c565b9150509250925092565b600060208284031215613bdb57613bda6136b3565b5b6000613be9848285016138dc565b91505092915050565b600081519050919050565b600082825260208201905092915050565b6000819050602082019050919050565b613c2781613a7b565b82525050565b6000613c398383613c1e565b60208301905092915050565b6000602082019050919050565b6000613c5d82613bf2565b613c678185613bfd565b9350613c7283613c0e565b8060005b83811015613ca3578151613c8a8882613c2d565b9750613c9583613c45565b925050600181019050613c76565b5085935050505092915050565b60006020820190508181036000830152613cca8184613c52565b905092915050565b600080fd5b600067ffffffffffffffff821115613cf257613cf16137e7565b5b613cfb826137d6565b9050602081019050919050565b82818337600083830152505050565b6000613d2a613d2584613cd7565b613847565b905082815260208101848484011115613d4657613d45613cd2565b5b613d51848285613d08565b509392505050565b600082601f830112613d6e57613d6d6137d1565b5b8135613d7e848260208601613d17565b91505092915050565b600060208284031215613d9d57613d9c6136b3565b5b600082013567ffffffffffffffff811115613dbb57613dba6136b8565b5b613dc784828501613d59565b91505092915050565b60008060408385031215613de757613de66136b3565b5b6000613df5858286016138dc565b9250506020613e068582860161378f565b9150509250929050565b600067ffffffffffffffff821115613e2b57613e2a6137e7565b5b613e34826137d6565b9050602081019050919050565b6000613e54613e4f84613e10565b613847565b905082815260208101848484011115613e7057613e6f613cd2565b5b613e7b848285613d08565b509392505050565b600082601f830112613e9857613e976137d1565b5b8135613ea8848260208601613e41565b91505092915050565b60008060008060808587031215613ecb57613eca6136b3565b5b6000613ed9878288016138dc565b9450506020613eea878288016138dc565b9350506040613efb87828801613a9c565b925050606085013567ffffffffffffffff811115613f1c57613f1b6136b8565b5b613f2887828801613e83565b91505092959194509250565b60008060408385031215613f4b57613f4a6136b3565b5b6000613f59858286016138dc565b9250506020613f6a858286016138dc565b9150509250929050565b7f4f776e61626c653a2063616c6c6572206973206e6f7420746865206f776e6572600082015250565b6000613faa6020836139dc565b9150613fb582613f74565b602082019050919050565b60006020820190508181036000830152613fd981613f9d565b9050919050565b7f45786365656473207265736572766564206769667420426f747320737570706c60008201527f7900000000000000000000000000000000000000000000000000000000000000602082015250565b600061403c6021836139dc565b915061404782613fe0565b604082019050919050565b6000602082019050818103600083015261406b8161402f565b9050919050565b7f4e487b7100000000000000000000000000000000000000000000000000000000600052603260045260246000fd5b7f4e487b7100000000000000000000000000000000000000000000000000000000600052601160045260246000fd5b60006140db82613a7b565b91506140e683613a7b565b9250827fffffffffffffffffffffffffffffffffffffffffffffffffffffffffffffffff0382111561411b5761411a6140a1565b5b828201905092915050565b600061413182613a7b565b91507fffffffffffffffffffffffffffffffffffffffffffffffffffffffffffffffff821415614164576141636140a1565b5b600182019050919050565b600061417a82613a7b565b915061418583613a7b565b925082821015614198576141976140a1565b5b828203905092915050565b7f4e487b7100000000000000000000000000000000000000000000000000000000600052602260045260246000fd5b600060028204905060018216806141ea57607f821691505b602082108114156141fe576141fd6141a3565b5b50919050565b7f4552433732313a20617070726f76656420717565727920666f72206e6f6e657860008201527f697374656e7420746f6b656e0000000000000000000000000000000000000000602082015250565b6000614260602c836139dc565b915061426b82614204565b604082019050919050565b6000602082019050818103600083015261428f81614253565b9050919050565b7f4552433732313a20617070726f76616c20746f2063757272656e74206f776e6560008201527f7200000000000000000000000000000000000000000000000000000000000000602082015250565b60006142f26021836139dc565b91506142fd82614296565b604082019050919050565b60006020820190508181036000830152614321816142e5565b9050919050565b7f4552433732313a20617070726f76652063616c6c6572206973206e6f74206f7760008201527f6e6572206e6f7220617070726f76656420666f7220616c6c0000000000000000602082015250565b60006143846038836139dc565b915061438f82614328565b604082019050919050565b600060208201905081810360008301526143b381614377565b9050919050565b7f4552433732313a207472616e736665722063616c6c6572206973206e6f74206f60008201527f776e6572206e6f7220617070726f766564000000000000000000000000000000602082015250565b60006144166031836139dc565b9150614421826143ba565b604082019050919050565b6000602082019050818103600083015261444581614409565b9050919050565b7f455243373231456e756d657261626c653a206f776e657220696e646578206f7560008201527f74206f6620626f756e6473000000000000000000000000000000000000000000602082015250565b60006144a8602b836139dc565b91506144b38261444c565b604082019050919050565b600060208201905081810360008301526144d78161449b565b9050919050565b7f455243373231456e756d657261626c653a20676c6f62616c20696e646578206f60008201527f7574206f6620626f756e64730000000000000000000000000000000000000000602082015250565b600061453a602c836139dc565b9150614545826144de565b604082019050919050565b600060208201905081810360008301526145698161452d565b9050919050565b7f4552433732313a206f776e657220717565727920666f72206e6f6e657869737460008201527f656e7420746f6b656e0000000000000000000000000000000000000000000000602082015250565b60006145cc6029836139dc565b91506145d782614570565b604082019050919050565b600060208201905081810360008301526145fb816145bf565b9050919050565b7f4552433732313a2062616c616e636520717565727920666f7220746865207a6560008201527f726f206164647265737300000000000000000000000000000000000000000000602082015250565b600061465e602a836139dc565b915061466982614602565b604082019050919050565b6000602082019050818103600083015261468d81614651565b9050919050565b7f53616c6520706175736564000000000000000000000000000000000000000000600082015250565b60006146ca600b836139dc565b91506146d582614694565b602082019050919050565b600060208201905081810360008301526146f9816146bd565b9050919050565b7f45786365656473206d6178696d756d20616d6f756e74206f6620426f7473207060008201527f6572207478000000000000000000000000000000000000000000000000000000602082015250565b600061475c6025836139dc565b915061476782614700565b604082019050919050565b6000602082019050818103600083015261478b8161474f565b9050919050565b7f45786365656473206d6178696d756d20426f747320737570706c790000000000600082015250565b60006147c8601b836139dc565b91506147d382614792565b602082019050919050565b600060208201905081810360008301526147f7816147bb565b9050919050565b600061480982613a7b565b915061481483613a7b565b9250817fffffffffffffffffffffffffffffffffffffffffffffffffffffffffffffffff048311821515161561484d5761484c6140a1565b5b828202905092915050565b7f45746865722073656e74206973206e6f7420636f727265637400000000000000600082015250565b600061488e6019836139dc565b915061489982614858565b602082019050919050565b600060208201905081810360008301526148bd81614881565b9050919050565b7f4e487b7100000000000000000000000000000000000000000000000000000000600052601260045260246000fd5b60006148fe82613a7b565b915061490983613a7b565b925082614919576149186148c4565b5b828204905092915050565b7f576f756c642065786365656420455320726573657276656420737570706c7900600082015250565b600061495a601f836139dc565b915061496582614924565b602082019050919050565b600060208201905081810360008301526149898161494d565b9050919050565b7f4552433732313a20617070726f766520746f2063616c6c657200000000000000600082015250565b60006149c66019836139dc565b91506149d182614990565b602082019050919050565b600060208201905081810360008301526149f5816149b9565b9050919050565b7f4552433732314d657461646174613a2055524920717565727920666f72206e6f60008201527f6e6578697374656e7420746f6b656e0000000000000000000000000000000000602082015250565b6000614a58602f836139dc565b9150614a63826149fc565b604082019050919050565b60006020820190508181036000830152614a8781614a4b565b9050919050565b600081905092915050565b6000614aa4826139d1565b614aae8185614a8e565b9350614abe8185602086016139ed565b80840191505092915050565b6000614ad68285614a99565b9150614ae28284614a99565b91508190509392505050565b7f4561726c7920537570706f72746572732073616c652070617573656400000000600082015250565b6000614b24601c836139dc565b9150614b2f82614aee565b602082019050919050565b60006020820190508181036000830152614b5381614b17565b9050919050565b7f45786365656473206d6178696d756d20426f7473206561726c79206d696e742060008201527f726573657276656420737570706c790000000000000000000000000000000000602082015250565b6000614bb6602f836139dc565b9150614bc182614b5a565b604082019050919050565b60006020820190508181036000830152614be581614ba9565b9050919050565b7f596f7520616c7265616479206861766520736f6d6520426f7473000000000000600082015250565b6000614c22601a836139dc565b9150614c2d82614bec565b602082019050919050565b60006020820190508181036000830152614c5181614c15565b9050919050565b7f536f72727920796f7520617265206e6f74206f6e20746865204561726c79205360008201527f7570706f7274657273206c697374000000000000000000000000000000000000602082015250565b6000614cb4602e836139dc565b9150614cbf82614c58565b604082019050919050565b60006020820190508181036000830152614ce381614ca7565b9050919050565b7f4f776e61626c653a206e6577206f776e657220697320746865207a65726f206160008201527f6464726573730000000000000000000000000000000000000000000000000000602082015250565b6000614d466026836139dc565b9150614d5182614cea565b604082019050919050565b60006020820190508181036000830152614d7581614d39565b9050919050565b7f4552433732313a206f70657261746f7220717565727920666f72206e6f6e657860008201527f697374656e7420746f6b656e0000000000000000000000000000000000000000602082015250565b6000614dd8602c836139dc565b9150614de382614d7c565b604082019050919050565b60006020820190508181036000830152614e0781614dcb565b9050919050565b7f4552433732313a207472616e73666572206f6620746f6b656e2074686174206960008201527f73206e6f74206f776e0000000000000000000000000000000000000000000000602082015250565b6000614e6a6029836139dc565b9150614e7582614e0e565b604082019050919050565b60006020820190508181036000830152614e9981614e5d565b9050919050565b7f4552433732313a207472616e7366657220746f20746865207a65726f2061646460008201527f7265737300000000000000000000000000000000000000000000000000000000602082015250565b6000614efc6024836139dc565b9150614f0782614ea0565b604082019050919050565b60006020820190508181036000830152614f2b81614eef565b9050919050565b7f4552433732313a207472616e7366657220746f206e6f6e20455243373231526560008201527f63656976657220696d706c656d656e7465720000000000000000000000000000602082015250565b6000614f8e6032836139dc565b9150614f9982614f32565b604082019050919050565b60006020820190508181036000830152614fbd81614f81565b9050919050565b6000614fcf82613a7b565b9150614fda83613a7b565b925082614fea57614fe96148c4565b5b828206905092915050565b600081519050919050565b600082825260208201905092915050565b600061501c82614ff5565b6150268185615000565b93506150368185602086016139ed565b61503f816137d6565b840191505092915050565b600060808201905061505f6000830187613ade565b61506c6020830186613ade565b6150796040830185613b48565b818103606083015261508b8184615011565b905095945050505050565b6000815190506150a5816136e9565b92915050565b6000602082840312156150c1576150c06136b3565b5b60006150cf84828501615096565b91505092915050565b7f4552433732313a206d696e7420746f20746865207a65726f2061646472657373600082015250565b600061510e6020836139dc565b9150615119826150d8565b602082019050919050565b6000602082019050818103600083015261513d81615101565b9050919050565b7f4552433732313a20746f6b656e20616c7265616479206d696e74656400000000600082015250565b600061517a601c836139dc565b915061518582615144565b602082019050919050565b600060208201905081810360008301526151a98161516d565b9050919050565b7f4e487b7100000000000000000000000000000000000000000000000000000000600052603160045260246000fdfea264697066735822122065a44b876084c74663c46a7be8b16f1288a1983b9e67c78ed09f161f31e1423364736f6c63430008090033",
  "immutableReferences": {},
  "source": "/**\r\n *Submitted for verification at Etherscan.io on 2021-07-30\r\n*/\r\n\r\n// Dope Shibas\r\n// SPDX-License-Identifier: MIT\r\n\r\npragma solidity ^0.8.0;\r\n\r\n/**\r\n * @dev Interface of the ERC165 standard, as defined in the\r\n * https://eips.ethereum.org/EIPS/eip-165[EIP].\r\n *\r\n * Implementers can declare support of contract interfaces, which can then be\r\n * queried by others ({ERC165Checker}).\r\n *\r\n * For an implementation, see {ERC165}.\r\n */\r\ninterface IERC165 {\r\n    /**\r\n     * @dev Returns true if this contract implements the interface defined by\r\n     * `interfaceId`. See the corresponding\r\n     * https://eips.ethereum.org/EIPS/eip-165#how-interfaces-are-identified[EIP section]\r\n     * to learn more about how these ids are created.\r\n     *\r\n     * This function call must use less than 30 000 gas.\r\n     */\r\n    function supportsInterface(bytes4 interfaceId) external view returns (bool);\r\n}\r\n\r\n\r\n\r\n\r\n\r\npragma solidity ^0.8.0;\r\n\r\n\r\n/**\r\n * @dev Implementation of the {IERC165} interface.\r\n *\r\n * Contracts that want to implement ERC165 should inherit from this contract and override {supportsInterface} to check\r\n * for the additional interface id that will be supported. For example:\r\n *\r\n * ```solidity\r\n * function supportsInterface(bytes4 interfaceId) public view virtual override returns (bool) {\r\n *     return interfaceId == type(MyInterface).interfaceId || super.supportsInterface(interfaceId);\r\n * }\r\n * ```\r\n *\r\n * Alternatively, {ERC165Storage} provides an easier to use but more expensive implementation.\r\n */\r\nabstract contract ERC165 is IERC165 {\r\n    /**\r\n     * @dev See {IERC165-supportsInterface}.\r\n     */\r\n    function supportsInterface(bytes4 interfaceId) public view virtual override returns (bool) {\r\n        return interfaceId == type(IERC165).interfaceId;\r\n    }\r\n}\r\n\r\n\r\npragma solidity ^0.8.0;\r\n\r\n/**\r\n * @dev String operations.\r\n */\r\nlibrary Strings {\r\n    bytes16 private constant alphabet = \"0123456789abcdef\";\r\n\r\n    /**\r\n     * @dev Converts a `uint256` to its ASCII `string` decimal representation.\r\n     */\r\n    function toString(uint256 value) internal pure returns (string memory) {\r\n        // Inspired by OraclizeAPI's implementation - MIT licence\r\n        // https://github.com/oraclize/ethereum-api/blob/b42146b063c7d6ee1358846c198246239e9360e8/oraclizeAPI_0.4.25.sol\r\n\r\n        if (value == 0) {\r\n            return \"0\";\r\n        }\r\n        uint256 temp = value;\r\n        uint256 digits;\r\n        while (temp != 0) {\r\n            digits++;\r\n            temp /= 10;\r\n        }\r\n        bytes memory buffer = new bytes(digits);\r\n        while (value != 0) {\r\n            digits -= 1;\r\n            buffer[digits] = bytes1(uint8(48 + uint256(value % 10)));\r\n            value /= 10;\r\n        }\r\n        return string(buffer);\r\n    }\r\n\r\n    /**\r\n     * @dev Converts a `uint256` to its ASCII `string` hexadecimal representation.\r\n     */\r\n    function toHexString(uint256 value) internal pure returns (string memory) {\r\n        if (value == 0) {\r\n            return \"0x00\";\r\n        }\r\n        uint256 temp = value;\r\n        uint256 length = 0;\r\n        while (temp != 0) {\r\n            length++;\r\n            temp >>= 8;\r\n        }\r\n        return toHexString(value, length);\r\n    }\r\n\r\n    /**\r\n     * @dev Converts a `uint256` to its ASCII `string` hexadecimal representation with fixed length.\r\n     */\r\n    function toHexString(uint256 value, uint256 length) internal pure returns (string memory) {\r\n        bytes memory buffer = new bytes(2 * length + 2);\r\n        buffer[0] = \"0\";\r\n        buffer[1] = \"x\";\r\n        for (uint256 i = 2 * length + 1; i > 1; --i) {\r\n            buffer[i] = alphabet[value & 0xf];\r\n            value >>= 4;\r\n        }\r\n        require(value == 0, \"Strings: hex length insufficient\");\r\n        return string(buffer);\r\n    }\r\n\r\n}\r\n\r\n\r\n\r\npragma solidity ^0.8.0;\r\n\r\n/*\r\n * @dev Provides information about the current execution context, including the\r\n * sender of the transaction and its data. While these are generally available\r\n * via msg.sender and msg.data, they should not be accessed in such a direct\r\n * manner, since when dealing with meta-transactions the account sending and\r\n * paying for execution may not be the actual sender (as far as an application\r\n * is concerned).\r\n *\r\n * This contract is only required for intermediate, library-like contracts.\r\n */\r\nabstract contract Context {\r\n    function _msgSender() internal view virtual returns (address) {\r\n        return msg.sender;\r\n    }\r\n\r\n    function _msgData() internal view virtual returns (bytes calldata) {\r\n        this; // silence state mutability warning without generating bytecode - see https://github.com/ethereum/solidity/issues/2691\r\n        return msg.data;\r\n    }\r\n}\r\n\r\n\r\npragma solidity ^0.8.0;\r\n\r\n/**\r\n * @dev Collection of functions related to the address type\r\n */\r\nlibrary Address {\r\n    /**\r\n     * @dev Returns true if `account` is a contract.\r\n     *\r\n     * [IMPORTANT]\r\n     * ====\r\n     * It is unsafe to assume that an address for which this function returns\r\n     * false is an externally-owned account (EOA) and not a contract.\r\n     *\r\n     * Among others, `isContract` will return false for the following\r\n     * types of addresses:\r\n     *\r\n     *  - an externally-owned account\r\n     *  - a contract in construction\r\n     *  - an address where a contract will be created\r\n     *  - an address where a contract lived, but was destroyed\r\n     * ====\r\n     */\r\n    function isContract(address account) internal view returns (bool) {\r\n        // This method relies on extcodesize, which returns 0 for contracts in\r\n        // construction, since the code is only stored at the end of the\r\n        // constructor execution.\r\n\r\n        uint256 size;\r\n        // solhint-disable-next-line no-inline-assembly\r\n        assembly { size := extcodesize(account) }\r\n        return size > 0;\r\n    }\r\n\r\n    /**\r\n     * @dev Replacement for Solidity's `transfer`: sends `amount` wei to\r\n     * `recipient`, forwarding all available gas and reverting on errors.\r\n     *\r\n     * https://eips.ethereum.org/EIPS/eip-1884[EIP1884] increases the gas cost\r\n     * of certain opcodes, possibly making contracts go over the 2300 gas limit\r\n     * imposed by `transfer`, making them unable to receive funds via\r\n     * `transfer`. {sendValue} removes this limitation.\r\n     *\r\n     * https://diligence.consensys.net/posts/2019/09/stop-using-soliditys-transfer-now/[Learn more].\r\n     *\r\n     * IMPORTANT: because control is transferred to `recipient`, care must be\r\n     * taken to not create reentrancy vulnerabilities. Consider using\r\n     * {ReentrancyGuard} or the\r\n     * https://solidity.readthedocs.io/en/v0.5.11/security-considerations.html#use-the-checks-effects-interactions-pattern[checks-effects-interactions pattern].\r\n     */\r\n    function sendValue(address payable recipient, uint256 amount) internal {\r\n        require(address(this).balance >= amount, \"Address: insufficient balance\");\r\n\r\n        // solhint-disable-next-line avoid-low-level-calls, avoid-call-value\r\n        (bool success, ) = recipient.call{ value: amount }(\"\");\r\n        require(success, \"Address: unable to send value, recipient may have reverted\");\r\n    }\r\n\r\n    /**\r\n     * @dev Performs a Solidity function call using a low level `call`. A\r\n     * plain`call` is an unsafe replacement for a function call: use this\r\n     * function instead.\r\n     *\r\n     * If `target` reverts with a revert reason, it is bubbled up by this\r\n     * function (like regular Solidity function calls).\r\n     *\r\n     * Returns the raw returned data. To convert to the expected return value,\r\n     * use https://solidity.readthedocs.io/en/latest/units-and-global-variables.html?highlight=abi.decode#abi-encoding-and-decoding-functions[`abi.decode`].\r\n     *\r\n     * Requirements:\r\n     *\r\n     * - `target` must be a contract.\r\n     * - calling `target` with `data` must not revert.\r\n     *\r\n     * _Available since v3.1._\r\n     */\r\n    function functionCall(address target, bytes memory data) internal returns (bytes memory) {\r\n      return functionCall(target, data, \"Address: low-level call failed\");\r\n    }\r\n\r\n    /**\r\n     * @dev Same as {xref-Address-functionCall-address-bytes-}[`functionCall`], but with\r\n     * `errorMessage` as a fallback revert reason when `target` reverts.\r\n     *\r\n     * _Available since v3.1._\r\n     */\r\n    function functionCall(address target, bytes memory data, string memory errorMessage) internal returns (bytes memory) {\r\n        return functionCallWithValue(target, data, 0, errorMessage);\r\n    }\r\n\r\n    /**\r\n     * @dev Same as {xref-Address-functionCall-address-bytes-}[`functionCall`],\r\n     * but also transferring `value` wei to `target`.\r\n     *\r\n     * Requirements:\r\n     *\r\n     * - the calling contract must have an ETH balance of at least `value`.\r\n     * - the called Solidity function must be `payable`.\r\n     *\r\n     * _Available since v3.1._\r\n     */\r\n    function functionCallWithValue(address target, bytes memory data, uint256 value) internal returns (bytes memory) {\r\n        return functionCallWithValue(target, data, value, \"Address: low-level call with value failed\");\r\n    }\r\n\r\n    /**\r\n     * @dev Same as {xref-Address-functionCallWithValue-address-bytes-uint256-}[`functionCallWithValue`], but\r\n     * with `errorMessage` as a fallback revert reason when `target` reverts.\r\n     *\r\n     * _Available since v3.1._\r\n     */\r\n    function functionCallWithValue(address target, bytes memory data, uint256 value, string memory errorMessage) internal returns (bytes memory) {\r\n        require(address(this).balance >= value, \"Address: insufficient balance for call\");\r\n        require(isContract(target), \"Address: call to non-contract\");\r\n\r\n        // solhint-disable-next-line avoid-low-level-calls\r\n        (bool success, bytes memory returndata) = target.call{ value: value }(data);\r\n        return _verifyCallResult(success, returndata, errorMessage);\r\n    }\r\n\r\n    /**\r\n     * @dev Same as {xref-Address-functionCall-address-bytes-}[`functionCall`],\r\n     * but performing a static call.\r\n     *\r\n     * _Available since v3.3._\r\n     */\r\n    function functionStaticCall(address target, bytes memory data) internal view returns (bytes memory) {\r\n        return functionStaticCall(target, data, \"Address: low-level static call failed\");\r\n    }\r\n\r\n    /**\r\n     * @dev Same as {xref-Address-functionCall-address-bytes-string-}[`functionCall`],\r\n     * but performing a static call.\r\n     *\r\n     * _Available since v3.3._\r\n     */\r\n    function functionStaticCall(address target, bytes memory data, string memory errorMessage) internal view returns (bytes memory) {\r\n        require(isContract(target), \"Address: static call to non-contract\");\r\n\r\n        // solhint-disable-next-line avoid-low-level-calls\r\n        (bool success, bytes memory returndata) = target.staticcall(data);\r\n        return _verifyCallResult(success, returndata, errorMessage);\r\n    }\r\n\r\n    /**\r\n     * @dev Same as {xref-Address-functionCall-address-bytes-}[`functionCall`],\r\n     * but performing a delegate call.\r\n     *\r\n     * _Available since v3.4._\r\n     */\r\n    function functionDelegateCall(address target, bytes memory data) internal returns (bytes memory) {\r\n        return functionDelegateCall(target, data, \"Address: low-level delegate call failed\");\r\n    }\r\n\r\n    /**\r\n     * @dev Same as {xref-Address-functionCall-address-bytes-string-}[`functionCall`],\r\n     * but performing a delegate call.\r\n     *\r\n     * _Available since v3.4._\r\n     */\r\n    function functionDelegateCall(address target, bytes memory data, string memory errorMessage) internal returns (bytes memory) {\r\n        require(isContract(target), \"Address: delegate call to non-contract\");\r\n\r\n        // solhint-disable-next-line avoid-low-level-calls\r\n        (bool success, bytes memory returndata) = target.delegatecall(data);\r\n        return _verifyCallResult(success, returndata, errorMessage);\r\n    }\r\n\r\n    function _verifyCallResult(bool success, bytes memory returndata, string memory errorMessage) private pure returns(bytes memory) {\r\n        if (success) {\r\n            return returndata;\r\n        } else {\r\n            // Look for revert reason and bubble it up if present\r\n            if (returndata.length > 0) {\r\n                // The easiest way to bubble the revert reason is using memory via assembly\r\n\r\n                // solhint-disable-next-line no-inline-assembly\r\n                assembly {\r\n                    let returndata_size := mload(returndata)\r\n                    revert(add(32, returndata), returndata_size)\r\n                }\r\n            } else {\r\n                revert(errorMessage);\r\n            }\r\n        }\r\n    }\r\n}\r\n\r\n\r\n\r\n\r\n\r\npragma solidity ^0.8.0;\r\n\r\n/**\r\n * @title ERC721 token receiver interface\r\n * @dev Interface for any contract that wants to support safeTransfers\r\n * from ERC721 asset contracts.\r\n */\r\ninterface IERC721Receiver {\r\n    /**\r\n     * @dev Whenever an {IERC721} `tokenId` token is transferred to this contract via {IERC721-safeTransferFrom}\r\n     * by `operator` from `from`, this function is called.\r\n     *\r\n     * It must return its Solidity selector to confirm the token transfer.\r\n     * If any other value is returned or the interface is not implemented by the recipient, the transfer will be reverted.\r\n     *\r\n     * The selector can be obtained in Solidity with `IERC721.onERC721Received.selector`.\r\n     */\r\n    function onERC721Received(address operator, address from, uint256 tokenId, bytes calldata data) external returns (bytes4);\r\n}\r\n\r\n\r\n\r\n\r\npragma solidity ^0.8.0;\r\n\r\n\r\n/**\r\n * @dev Required interface of an ERC721 compliant contract.\r\n */\r\ninterface IERC721 is IERC165 {\r\n    /**\r\n     * @dev Emitted when `tokenId` token is transferred from `from` to `to`.\r\n     */\r\n    event Transfer(address indexed from, address indexed to, uint256 indexed tokenId);\r\n\r\n    /**\r\n     * @dev Emitted when `owner` enables `approved` to manage the `tokenId` token.\r\n     */\r\n    event Approval(address indexed owner, address indexed approved, uint256 indexed tokenId);\r\n\r\n    /**\r\n     * @dev Emitted when `owner` enables or disables (`approved`) `operator` to manage all of its assets.\r\n     */\r\n    event ApprovalForAll(address indexed owner, address indexed operator, bool approved);\r\n\r\n    /**\r\n     * @dev Returns the number of tokens in ``owner``'s account.\r\n     */\r\n    function balanceOf(address owner) external view returns (uint256 balance);\r\n\r\n    /**\r\n     * @dev Returns the owner of the `tokenId` token.\r\n     *\r\n     * Requirements:\r\n     *\r\n     * - `tokenId` must exist.\r\n     */\r\n    function ownerOf(uint256 tokenId) external view returns (address owner);\r\n\r\n    /**\r\n     * @dev Safely transfers `tokenId` token from `from` to `to`, checking first that contract recipients\r\n     * are aware of the ERC721 protocol to prevent tokens from being forever locked.\r\n     *\r\n     * Requirements:\r\n     *\r\n     * - `from` cannot be the zero address.\r\n     * - `to` cannot be the zero address.\r\n     * - `tokenId` token must exist and be owned by `from`.\r\n     * - If the caller is not `from`, it must be have been allowed to move this token by either {approve} or {setApprovalForAll}.\r\n     * - If `to` refers to a smart contract, it must implement {IERC721Receiver-onERC721Received}, which is called upon a safe transfer.\r\n     *\r\n     * Emits a {Transfer} event.\r\n     */\r\n    function safeTransferFrom(address from, address to, uint256 tokenId) external;\r\n\r\n    /**\r\n     * @dev Transfers `tokenId` token from `from` to `to`.\r\n     *\r\n     * WARNING: Usage of this method is discouraged, use {safeTransferFrom} whenever possible.\r\n     *\r\n     * Requirements:\r\n     *\r\n     * - `from` cannot be the zero address.\r\n     * - `to` cannot be the zero address.\r\n     * - `tokenId` token must be owned by `from`.\r\n     * - If the caller is not `from`, it must be approved to move this token by either {approve} or {setApprovalForAll}.\r\n     *\r\n     * Emits a {Transfer} event.\r\n     */\r\n    function transferFrom(address from, address to, uint256 tokenId) external;\r\n\r\n    /**\r\n     * @dev Gives permission to `to` to transfer `tokenId` token to another account.\r\n     * The approval is cleared when the token is transferred.\r\n     *\r\n     * Only a single account can be approved at a time, so approving the zero address clears previous approvals.\r\n     *\r\n     * Requirements:\r\n     *\r\n     * - The caller must own the token or be an approved operator.\r\n     * - `tokenId` must exist.\r\n     *\r\n     * Emits an {Approval} event.\r\n     */\r\n    function approve(address to, uint256 tokenId) external;\r\n\r\n    /**\r\n     * @dev Returns the account approved for `tokenId` token.\r\n     *\r\n     * Requirements:\r\n     *\r\n     * - `tokenId` must exist.\r\n     */\r\n    function getApproved(uint256 tokenId) external view returns (address operator);\r\n\r\n    /**\r\n     * @dev Approve or remove `operator` as an operator for the caller.\r\n     * Operators can call {transferFrom} or {safeTransferFrom} for any token owned by the caller.\r\n     *\r\n     * Requirements:\r\n     *\r\n     * - The `operator` cannot be the caller.\r\n     *\r\n     * Emits an {ApprovalForAll} event.\r\n     */\r\n    function setApprovalForAll(address operator, bool _approved) external;\r\n\r\n    /**\r\n     * @dev Returns if the `operator` is allowed to manage all of the assets of `owner`.\r\n     *\r\n     * See {setApprovalForAll}\r\n     */\r\n    function isApprovedForAll(address owner, address operator) external view returns (bool);\r\n\r\n    /**\r\n      * @dev Safely transfers `tokenId` token from `from` to `to`.\r\n      *\r\n      * Requirements:\r\n      *\r\n      * - `from` cannot be the zero address.\r\n      * - `to` cannot be the zero address.\r\n      * - `tokenId` token must exist and be owned by `from`.\r\n      * - If the caller is not `from`, it must be approved to move this token by either {approve} or {setApprovalForAll}.\r\n      * - If `to` refers to a smart contract, it must implement {IERC721Receiver-onERC721Received}, which is called upon a safe transfer.\r\n      *\r\n      * Emits a {Transfer} event.\r\n      */\r\n    function safeTransferFrom(address from, address to, uint256 tokenId, bytes calldata data) external;\r\n}\r\n\r\n\r\npragma solidity ^0.8.0;\r\n\r\n\r\n/**\r\n * @title ERC-721 Non-Fungible Token Standard, optional enumeration extension\r\n * @dev See https://eips.ethereum.org/EIPS/eip-721\r\n */\r\ninterface IERC721Enumerable is IERC721 {\r\n\r\n    /**\r\n     * @dev Returns the total amount of tokens stored by the contract.\r\n     */\r\n    function totalSupply() external view returns (uint256);\r\n\r\n    /**\r\n     * @dev Returns a token ID owned by `owner` at a given `index` of its token list.\r\n     * Use along with {balanceOf} to enumerate all of ``owner``'s tokens.\r\n     */\r\n    function tokenOfOwnerByIndex(address owner, uint256 index) external view returns (uint256 tokenId);\r\n\r\n    /**\r\n     * @dev Returns a token ID at a given `index` of all the tokens stored by the contract.\r\n     * Use along with {totalSupply} to enumerate all tokens.\r\n     */\r\n    function tokenByIndex(uint256 index) external view returns (uint256);\r\n}\r\n\r\n\r\npragma solidity ^0.8.0;\r\n\r\n\r\n/**\r\n * @title ERC-721 Non-Fungible Token Standard, optional metadata extension\r\n * @dev See https://eips.ethereum.org/EIPS/eip-721\r\n */\r\ninterface IERC721Metadata is IERC721 {\r\n\r\n    /**\r\n     * @dev Returns the token collection name.\r\n     */\r\n    function name() external view returns (string memory);\r\n\r\n    /**\r\n     * @dev Returns the token collection symbol.\r\n     */\r\n    function symbol() external view returns (string memory);\r\n\r\n    /**\r\n     * @dev Returns the Uniform Resource Identifier (URI) for `tokenId` token.\r\n     */\r\n    function tokenURI(uint256 tokenId) external view returns (string memory);\r\n}\r\n\r\n\r\n\r\npragma solidity ^0.8.0;\r\n\r\n\r\n/**\r\n * @dev Implementation of https://eips.ethereum.org/EIPS/eip-721[ERC721] Non-Fungible Token Standard, including\r\n * the Metadata extension, but not including the Enumerable extension, which is available separately as\r\n * {ERC721Enumerable}.\r\n */\r\ncontract ERC721 is Context, ERC165, IERC721, IERC721Metadata {\r\n    using Address for address;\r\n    using Strings for uint256;\r\n\r\n    // Token name\r\n    string private _name;\r\n\r\n    // Token symbol\r\n    string private _symbol;\r\n\r\n    // Mapping from token ID to owner address\r\n    mapping (uint256 => address) private _owners;\r\n\r\n    // Mapping owner address to token count\r\n    mapping (address => uint256) private _balances;\r\n\r\n    // Mapping from token ID to approved address\r\n    mapping (uint256 => address) private _tokenApprovals;\r\n\r\n    // Mapping from owner to operator approvals\r\n    mapping (address => mapping (address => bool)) private _operatorApprovals;\r\n\r\n    /**\r\n     * @dev Initializes the contract by setting a `name` and a `symbol` to the token collection.\r\n     */\r\n    constructor (string memory name_, string memory symbol_) {\r\n        _name = name_;\r\n        _symbol = symbol_;\r\n    }\r\n\r\n    /**\r\n     * @dev See {IERC165-supportsInterface}.\r\n     */\r\n    function supportsInterface(bytes4 interfaceId) public view virtual override(ERC165, IERC165) returns (bool) {\r\n        return interfaceId == type(IERC721).interfaceId\r\n            || interfaceId == type(IERC721Metadata).interfaceId\r\n            || super.supportsInterface(interfaceId);\r\n    }\r\n\r\n    /**\r\n     * @dev See {IERC721-balanceOf}.\r\n     */\r\n    function balanceOf(address owner) public view virtual override returns (uint256) {\r\n        require(owner != address(0), \"ERC721: balance query for the zero address\");\r\n        return _balances[owner];\r\n    }\r\n\r\n    /**\r\n     * @dev See {IERC721-ownerOf}.\r\n     */\r\n    function ownerOf(uint256 tokenId) public view virtual override returns (address) {\r\n        address owner = _owners[tokenId];\r\n        require(owner != address(0), \"ERC721: owner query for nonexistent token\");\r\n        return owner;\r\n    }\r\n\r\n    /**\r\n     * @dev See {IERC721Metadata-name}.\r\n     */\r\n    function name() public view virtual override returns (string memory) {\r\n        return _name;\r\n    }\r\n\r\n    /**\r\n     * @dev See {IERC721Metadata-symbol}.\r\n     */\r\n    function symbol() public view virtual override returns (string memory) {\r\n        return _symbol;\r\n    }\r\n\r\n    /**\r\n     * @dev See {IERC721Metadata-tokenURI}.\r\n     */\r\n    function tokenURI(uint256 tokenId) public view virtual override returns (string memory) {\r\n        require(_exists(tokenId), \"ERC721Metadata: URI query for nonexistent token\");\r\n\r\n        string memory baseURI = _baseURI();\r\n        return bytes(baseURI).length > 0\r\n            ? string(abi.encodePacked(baseURI, tokenId.toString()))\r\n            : '';\r\n    }\r\n\r\n    /**\r\n     * @dev Base URI for computing {tokenURI}. Empty by default, can be overriden\r\n     * in child contracts.\r\n     */\r\n    function _baseURI() internal view virtual returns (string memory) {\r\n        return \"\";\r\n    }\r\n\r\n    /**\r\n     * @dev See {IERC721-approve}.\r\n     */\r\n    function approve(address to, uint256 tokenId) public virtual override {\r\n        address owner = ERC721.ownerOf(tokenId);\r\n        require(to != owner, \"ERC721: approval to current owner\");\r\n\r\n        require(_msgSender() == owner || isApprovedForAll(owner, _msgSender()),\r\n            \"ERC721: approve caller is not owner nor approved for all\"\r\n        );\r\n\r\n        _approve(to, tokenId);\r\n    }\r\n\r\n    /**\r\n     * @dev See {IERC721-getApproved}.\r\n     */\r\n    function getApproved(uint256 tokenId) public view virtual override returns (address) {\r\n        require(_exists(tokenId), \"ERC721: approved query for nonexistent token\");\r\n\r\n        return _tokenApprovals[tokenId];\r\n    }\r\n\r\n    /**\r\n     * @dev See {IERC721-setApprovalForAll}.\r\n     */\r\n    function setApprovalForAll(address operator, bool approved) public virtual override {\r\n        require(operator != _msgSender(), \"ERC721: approve to caller\");\r\n\r\n        _operatorApprovals[_msgSender()][operator] = approved;\r\n        emit ApprovalForAll(_msgSender(), operator, approved);\r\n    }\r\n\r\n    /**\r\n     * @dev See {IERC721-isApprovedForAll}.\r\n     */\r\n    function isApprovedForAll(address owner, address operator) public view virtual override returns (bool) {\r\n        return _operatorApprovals[owner][operator];\r\n    }\r\n\r\n    /**\r\n     * @dev See {IERC721-transferFrom}.\r\n     */\r\n    function transferFrom(address from, address to, uint256 tokenId) public virtual override {\r\n        //solhint-disable-next-line max-line-length\r\n        require(_isApprovedOrOwner(_msgSender(), tokenId), \"ERC721: transfer caller is not owner nor approved\");\r\n\r\n        _transfer(from, to, tokenId);\r\n    }\r\n\r\n    /**\r\n     * @dev See {IERC721-safeTransferFrom}.\r\n     */\r\n    function safeTransferFrom(address from, address to, uint256 tokenId) public virtual override {\r\n        safeTransferFrom(from, to, tokenId, \"\");\r\n    }\r\n\r\n    /**\r\n     * @dev See {IERC721-safeTransferFrom}.\r\n     */\r\n    function safeTransferFrom(address from, address to, uint256 tokenId, bytes memory _data) public virtual override {\r\n        require(_isApprovedOrOwner(_msgSender(), tokenId), \"ERC721: transfer caller is not owner nor approved\");\r\n        _safeTransfer(from, to, tokenId, _data);\r\n    }\r\n\r\n    /**\r\n     * @dev Safely transfers `tokenId` token from `from` to `to`, checking first that contract recipients\r\n     * are aware of the ERC721 protocol to prevent tokens from being forever locked.\r\n     *\r\n     * `_data` is additional data, it has no specified format and it is sent in call to `to`.\r\n     *\r\n     * This internal function is equivalent to {safeTransferFrom}, and can be used to e.g.\r\n     * implement alternative mechanisms to perform token transfer, such as signature-based.\r\n     *\r\n     * Requirements:\r\n     *\r\n     * - `from` cannot be the zero address.\r\n     * - `to` cannot be the zero address.\r\n     * - `tokenId` token must exist and be owned by `from`.\r\n     * - If `to` refers to a smart contract, it must implement {IERC721Receiver-onERC721Received}, which is called upon a safe transfer.\r\n     *\r\n     * Emits a {Transfer} event.\r\n     */\r\n    function _safeTransfer(address from, address to, uint256 tokenId, bytes memory _data) internal virtual {\r\n        _transfer(from, to, tokenId);\r\n        require(_checkOnERC721Received(from, to, tokenId, _data), \"ERC721: transfer to non ERC721Receiver implementer\");\r\n    }\r\n\r\n    /**\r\n     * @dev Returns whether `tokenId` exists.\r\n     *\r\n     * Tokens can be managed by their owner or approved accounts via {approve} or {setApprovalForAll}.\r\n     *\r\n     * Tokens start existing when they are minted (`_mint`),\r\n     * and stop existing when they are burned (`_burn`).\r\n     */\r\n    function _exists(uint256 tokenId) internal view virtual returns (bool) {\r\n        return _owners[tokenId] != address(0);\r\n    }\r\n\r\n    /**\r\n     * @dev Returns whether `spender` is allowed to manage `tokenId`.\r\n     *\r\n     * Requirements:\r\n     *\r\n     * - `tokenId` must exist.\r\n     */\r\n    function _isApprovedOrOwner(address spender, uint256 tokenId) internal view virtual returns (bool) {\r\n        require(_exists(tokenId), \"ERC721: operator query for nonexistent token\");\r\n        address owner = ERC721.ownerOf(tokenId);\r\n        return (spender == owner || getApproved(tokenId) == spender || isApprovedForAll(owner, spender));\r\n    }\r\n\r\n    /**\r\n     * @dev Safely mints `tokenId` and transfers it to `to`.\r\n     *\r\n     * Requirements:\r\n     *\r\n     * - `tokenId` must not exist.\r\n     * - If `to` refers to a smart contract, it must implement {IERC721Receiver-onERC721Received}, which is called upon a safe transfer.\r\n     *\r\n     * Emits a {Transfer} event.\r\n     */\r\n    function _safeMint(address to, uint256 tokenId) internal virtual {\r\n        _safeMint(to, tokenId, \"\");\r\n    }\r\n\r\n    /**\r\n     * @dev Same as {xref-ERC721-_safeMint-address-uint256-}[`_safeMint`], with an additional `data` parameter which is\r\n     * forwarded in {IERC721Receiver-onERC721Received} to contract recipients.\r\n     */\r\n    function _safeMint(address to, uint256 tokenId, bytes memory _data) internal virtual {\r\n        _mint(to, tokenId);\r\n        require(_checkOnERC721Received(address(0), to, tokenId, _data), \"ERC721: transfer to non ERC721Receiver implementer\");\r\n    }\r\n\r\n    /**\r\n     * @dev Mints `tokenId` and transfers it to `to`.\r\n     *\r\n     * WARNING: Usage of this method is discouraged, use {_safeMint} whenever possible\r\n     *\r\n     * Requirements:\r\n     *\r\n     * - `tokenId` must not exist.\r\n     * - `to` cannot be the zero address.\r\n     *\r\n     * Emits a {Transfer} event.\r\n     */\r\n    function _mint(address to, uint256 tokenId) internal virtual {\r\n        require(to != address(0), \"ERC721: mint to the zero address\");\r\n        require(!_exists(tokenId), \"ERC721: token already minted\");\r\n\r\n        _beforeTokenTransfer(address(0), to, tokenId);\r\n\r\n        _balances[to] += 1;\r\n        _owners[tokenId] = to;\r\n\r\n        emit Transfer(address(0), to, tokenId);\r\n    }\r\n    \r\n\r\n    /**\r\n     * @dev Destroys `tokenId`.\r\n     * The approval is cleared when the token is burned.\r\n     *\r\n     * Requirements:\r\n     *\r\n     * - `tokenId` must exist.\r\n     *\r\n     * Emits a {Transfer} event.\r\n     */\r\n    function _burn(uint256 tokenId) internal virtual {\r\n        address owner = ERC721.ownerOf(tokenId);\r\n\r\n        _beforeTokenTransfer(owner, address(0), tokenId);\r\n\r\n        // Clear approvals\r\n        _approve(address(0), tokenId);\r\n\r\n        _balances[owner] -= 1;\r\n        delete _owners[tokenId];\r\n\r\n        emit Transfer(owner, address(0), tokenId);\r\n    }\r\n\r\n    /**\r\n     * @dev Transfers `tokenId` from `from` to `to`.\r\n     *  As opposed to {transferFrom}, this imposes no restrictions on msg.sender.\r\n     *\r\n     * Requirements:\r\n     *\r\n     * - `to` cannot be the zero address.\r\n     * - `tokenId` token must be owned by `from`.\r\n     *\r\n     * Emits a {Transfer} event.\r\n     */\r\n    function _transfer(address from, address to, uint256 tokenId) internal virtual {\r\n        require(ERC721.ownerOf(tokenId) == from, \"ERC721: transfer of token that is not own\");\r\n        require(to != address(0), \"ERC721: transfer to the zero address\");\r\n\r\n        _beforeTokenTransfer(from, to, tokenId);\r\n\r\n        // Clear approvals from the previous owner\r\n        _approve(address(0), tokenId);\r\n\r\n        _balances[from] -= 1;\r\n        _balances[to] += 1;\r\n        _owners[tokenId] = to;\r\n\r\n        emit Transfer(from, to, tokenId);\r\n    }\r\n\r\n    /**\r\n     * @dev Approve `to` to operate on `tokenId`\r\n     *\r\n     * Emits a {Approval} event.\r\n     */\r\n    function _approve(address to, uint256 tokenId) internal virtual {\r\n        _tokenApprovals[tokenId] = to;\r\n        emit Approval(ERC721.ownerOf(tokenId), to, tokenId);\r\n    }\r\n\r\n    /**\r\n     * @dev Internal function to invoke {IERC721Receiver-onERC721Received} on a target address.\r\n     * The call is not executed if the target address is not a contract.\r\n     *\r\n     * @param from address representing the previous owner of the given token ID\r\n     * @param to target address that will receive the tokens\r\n     * @param tokenId uint256 ID of the token to be transferred\r\n     * @param _data bytes optional data to send along with the call\r\n     * @return bool whether the call correctly returned the expected magic value\r\n     */\r\n    function _checkOnERC721Received(address from, address to, uint256 tokenId, bytes memory _data)\r\n        private returns (bool)\r\n    {\r\n        if (to.isContract()) {\r\n            try IERC721Receiver(to).onERC721Received(_msgSender(), from, tokenId, _data) returns (bytes4 retval) {\r\n                return retval == IERC721Receiver(to).onERC721Received.selector;\r\n            } catch (bytes memory reason) {\r\n                if (reason.length == 0) {\r\n                    revert(\"ERC721: transfer to non ERC721Receiver implementer\");\r\n                } else {\r\n                    // solhint-disable-next-line no-inline-assembly\r\n                    assembly {\r\n                        revert(add(32, reason), mload(reason))\r\n                    }\r\n                }\r\n            }\r\n        } else {\r\n            return true;\r\n        }\r\n    }\r\n\r\n    /**\r\n     * @dev Hook that is called before any token transfer. This includes minting\r\n     * and burning.\r\n     *\r\n     * Calling conditions:\r\n     *\r\n     * - When `from` and `to` are both non-zero, ``from``'s `tokenId` will be\r\n     * transferred to `to`.\r\n     * - When `from` is zero, `tokenId` will be minted for `to`.\r\n     * - When `to` is zero, ``from``'s `tokenId` will be burned.\r\n     * - `from` cannot be the zero address.\r\n     * - `to` cannot be the zero address.\r\n     *\r\n     * To learn more about hooks, head to xref:ROOT:extending-contracts.adoc#using-hooks[Using Hooks].\r\n     */\r\n    function _beforeTokenTransfer(address from, address to, uint256 tokenId) internal virtual { }\r\n}\r\n\r\n\r\npragma solidity ^0.8.0;\r\n\r\n/**\r\n * @dev Contract module which provides a basic access control mechanism, where\r\n * there is an account (an owner) that can be granted exclusive access to\r\n * specific functions.\r\n *\r\n * By default, the owner account will be the one that deploys the contract. This\r\n * can later be changed with {transferOwnership}.\r\n *\r\n * This module is used through inheritance. It will make available the modifier\r\n * `onlyOwner`, which can be applied to your functions to restrict their use to\r\n * the owner.\r\n */\r\nabstract contract Ownable is Context {\r\n    address private _owner;\r\n\r\n    event OwnershipTransferred(address indexed previousOwner, address indexed newOwner);\r\n\r\n    /**\r\n     * @dev Initializes the contract setting the deployer as the initial owner.\r\n     */\r\n    constructor () {\r\n        address msgSender = _msgSender();\r\n        _owner = msgSender;\r\n        emit OwnershipTransferred(address(0), msgSender);\r\n    }\r\n\r\n    /**\r\n     * @dev Returns the address of the current owner.\r\n     */\r\n    function owner() public view virtual returns (address) {\r\n        return _owner;\r\n    }\r\n\r\n    /**\r\n     * @dev Throws if called by any account other than the owner.\r\n     */\r\n    modifier onlyOwner() {\r\n        require(owner() == _msgSender(), \"Ownable: caller is not the owner\");\r\n        _;\r\n    }\r\n\r\n    /**\r\n     * @dev Leaves the contract without owner. It will not be possible to call\r\n     * `onlyOwner` functions anymore. Can only be called by the current owner.\r\n     *\r\n     * NOTE: Renouncing ownership will leave the contract without an owner,\r\n     * thereby removing any functionality that is only available to the owner.\r\n     */\r\n    function renounceOwnership() public virtual onlyOwner {\r\n        emit OwnershipTransferred(_owner, address(0));\r\n        _owner = address(0);\r\n    }\r\n\r\n    /**\r\n     * @dev Transfers ownership of the contract to a new account (`newOwner`).\r\n     * Can only be called by the current owner.\r\n     */\r\n    function transferOwnership(address newOwner) public virtual onlyOwner {\r\n        require(newOwner != address(0), \"Ownable: new owner is the zero address\");\r\n        emit OwnershipTransferred(_owner, newOwner);\r\n        _owner = newOwner;\r\n    }\r\n}\r\n\r\npragma solidity ^0.8.0;\r\n\r\n\r\n/**\r\n * @dev This implements an optional extension of {ERC721} defined in the EIP that adds\r\n * enumerability of all the token ids in the contract as well as all token ids owned by each\r\n * account.\r\n */\r\nabstract contract ERC721Enumerable is ERC721, IERC721Enumerable {\r\n    // Mapping from owner to list of owned token IDs\r\n    mapping(address => mapping(uint256 => uint256)) private _ownedTokens;\r\n\r\n    // Mapping from token ID to index of the owner tokens list\r\n    mapping(uint256 => uint256) private _ownedTokensIndex;\r\n\r\n    // Array with all token ids, used for enumeration\r\n    uint256[] private _allTokens;\r\n\r\n    // Mapping from token id to position in the allTokens array\r\n    mapping(uint256 => uint256) private _allTokensIndex;\r\n\r\n    /**\r\n     * @dev See {IERC165-supportsInterface}.\r\n     */\r\n    function supportsInterface(bytes4 interfaceId) public view virtual override(IERC165, ERC721) returns (bool) {\r\n        return interfaceId == type(IERC721Enumerable).interfaceId\r\n            || super.supportsInterface(interfaceId);\r\n    }\r\n\r\n    /**\r\n     * @dev See {IERC721Enumerable-tokenOfOwnerByIndex}.\r\n     */\r\n    function tokenOfOwnerByIndex(address owner, uint256 index) public view virtual override returns (uint256) {\r\n        require(index < ERC721.balanceOf(owner), \"ERC721Enumerable: owner index out of bounds\");\r\n        return _ownedTokens[owner][index];\r\n    }\r\n\r\n    /**\r\n     * @dev See {IERC721Enumerable-totalSupply}.\r\n     */\r\n    function totalSupply() public view virtual override returns (uint256) {\r\n        return _allTokens.length;\r\n    }\r\n\r\n    /**\r\n     * @dev See {IERC721Enumerable-tokenByIndex}.\r\n     */\r\n    function tokenByIndex(uint256 index) public view virtual override returns (uint256) {\r\n        require(index < ERC721Enumerable.totalSupply(), \"ERC721Enumerable: global index out of bounds\");\r\n        return _allTokens[index];\r\n    }\r\n\r\n    /**\r\n     * @dev Hook that is called before any token transfer. This includes minting\r\n     * and burning.\r\n     *\r\n     * Calling conditions:\r\n     *\r\n     * - When `from` and `to` are both non-zero, ``from``'s `tokenId` will be\r\n     * transferred to `to`.\r\n     * - When `from` is zero, `tokenId` will be minted for `to`.\r\n     * - When `to` is zero, ``from``'s `tokenId` will be burned.\r\n     * - `from` cannot be the zero address.\r\n     * - `to` cannot be the zero address.\r\n     *\r\n     * To learn more about hooks, head to xref:ROOT:extending-contracts.adoc#using-hooks[Using Hooks].\r\n     */\r\n    function _beforeTokenTransfer(address from, address to, uint256 tokenId) internal virtual override {\r\n        super._beforeTokenTransfer(from, to, tokenId);\r\n\r\n        if (from == address(0)) {\r\n            _addTokenToAllTokensEnumeration(tokenId);\r\n        } else if (from != to) {\r\n            _removeTokenFromOwnerEnumeration(from, tokenId);\r\n        }\r\n        if (to == address(0)) {\r\n            _removeTokenFromAllTokensEnumeration(tokenId);\r\n        } else if (to != from) {\r\n            _addTokenToOwnerEnumeration(to, tokenId);\r\n        }\r\n    }\r\n\r\n    /**\r\n     * @dev Private function to add a token to this extension's ownership-tracking data structures.\r\n     * @param to address representing the new owner of the given token ID\r\n     * @param tokenId uint256 ID of the token to be added to the tokens list of the given address\r\n     */\r\n    function _addTokenToOwnerEnumeration(address to, uint256 tokenId) private {\r\n        uint256 length = ERC721.balanceOf(to);\r\n        _ownedTokens[to][length] = tokenId;\r\n        _ownedTokensIndex[tokenId] = length;\r\n    }\r\n\r\n    /**\r\n     * @dev Private function to add a token to this extension's token tracking data structures.\r\n     * @param tokenId uint256 ID of the token to be added to the tokens list\r\n     */\r\n    function _addTokenToAllTokensEnumeration(uint256 tokenId) private {\r\n        _allTokensIndex[tokenId] = _allTokens.length;\r\n        _allTokens.push(tokenId);\r\n    }\r\n\r\n    /**\r\n     * @dev Private function to remove a token from this extension's ownership-tracking data structures. Note that\r\n     * while the token is not assigned a new owner, the `_ownedTokensIndex` mapping is _not_ updated: this allows for\r\n     * gas optimizations e.g. when performing a transfer operation (avoiding double writes).\r\n     * This has O(1) time complexity, but alters the order of the _ownedTokens array.\r\n     * @param from address representing the previous owner of the given token ID\r\n     * @param tokenId uint256 ID of the token to be removed from the tokens list of the given address\r\n     */\r\n    function _removeTokenFromOwnerEnumeration(address from, uint256 tokenId) private {\r\n        // To prevent a gap in from's tokens array, we store the last token in the index of the token to delete, and\r\n        // then delete the last slot (swap and pop).\r\n\r\n        uint256 lastTokenIndex = ERC721.balanceOf(from) - 1;\r\n        uint256 tokenIndex = _ownedTokensIndex[tokenId];\r\n\r\n        // When the token to delete is the last token, the swap operation is unnecessary\r\n        if (tokenIndex != lastTokenIndex) {\r\n            uint256 lastTokenId = _ownedTokens[from][lastTokenIndex];\r\n\r\n            _ownedTokens[from][tokenIndex] = lastTokenId; // Move the last token to the slot of the to-delete token\r\n            _ownedTokensIndex[lastTokenId] = tokenIndex; // Update the moved token's index\r\n        }\r\n\r\n        // This also deletes the contents at the last position of the array\r\n        delete _ownedTokensIndex[tokenId];\r\n        delete _ownedTokens[from][lastTokenIndex];\r\n    }\r\n\r\n    /**\r\n     * @dev Private function to remove a token from this extension's token tracking data structures.\r\n     * This has O(1) time complexity, but alters the order of the _allTokens array.\r\n     * @param tokenId uint256 ID of the token to be removed from the tokens list\r\n     */\r\n    function _removeTokenFromAllTokensEnumeration(uint256 tokenId) private {\r\n        // To prevent a gap in the tokens array, we store the last token in the index of the token to delete, and\r\n        // then delete the last slot (swap and pop).\r\n\r\n        uint256 lastTokenIndex = _allTokens.length - 1;\r\n        uint256 tokenIndex = _allTokensIndex[tokenId];\r\n\r\n        // When the token to delete is the last token, the swap operation is unnecessary. However, since this occurs so\r\n        // rarely (when the last minted token is burnt) that we still do the swap here to avoid the gas cost of adding\r\n        // an 'if' statement (like in _removeTokenFromOwnerEnumeration)\r\n        uint256 lastTokenId = _allTokens[lastTokenIndex];\r\n\r\n        _allTokens[tokenIndex] = lastTokenId; // Move the last token to the slot of the to-delete token\r\n        _allTokensIndex[lastTokenId] = tokenIndex; // Update the moved token's index\r\n\r\n        // This also deletes the contents at the last position of the array\r\n        delete _allTokensIndex[tokenId];\r\n        _allTokens.pop();\r\n    }\r\n}\r\n\r\n\r\npragma solidity ^0.8.0;\r\n\r\n\r\ncontract BabyBattleBotsGenOne is ERC721Enumerable, Ownable {\r\n\r\n    using Strings for uint256;\r\n\r\n    string _baseTokenURI;\r\n    uint256 private _esReserved = 300;\r\n    uint256 private _giftReserved = 100;\r\n    uint256 private _price = 0.035 ether;\r\n    uint256 private MAX_SUPPLY = 3500;\r\n    uint256 private maxPerTx = 10;\r\n    bool public _paused = true;\r\n    bool public _ESpaused = false;\r\n\r\n    mapping(address => bool) public _earlySupporters;\r\n\r\n    address t1 = 0xDC3Ae92E82b5182e469A659786Fe038206858a8C;\r\n    address t2 = 0xF129f79c05F6EA516d01176A3983475100CA64C4;\r\n    address t3 = 0xf5CA775911EA3F3Fe75d8Ec3756a08AfFbf4dEB6;\r\n    address t4 = 0x67D1D8c8c440f47F00b3CBf14dEbbF9CBEd00eeF;\r\n\r\n    constructor() ERC721(\"Baby Battle Bots Gen One\", \"BBBONE\") {\r\n        _safeMint(t2, 0);\r\n        _safeMint(t3, 1);\r\n        _safeMint(t4, 2);\r\n    }\r\n\r\n    function mintBot(uint256 num) public payable {\r\n        uint256 supply = totalSupply();\r\n        require( !_paused,                              \"Sale paused\" );\r\n        require( num <= maxPerTx,                              \"Exceeds maximum amount of Bots per tx\" );\r\n        require( supply + num <= MAX_SUPPLY - _giftReserved - _esReserved,      \"Exceeds maximum Bots supply\" );\r\n        require( msg.value >= _price * num,             \"Ether sent is not correct\" );\r\n\r\n        for(uint256 i; i < num; i++){\r\n            _safeMint( msg.sender, supply + i );\r\n        }\r\n    }\r\n\r\n    function mintESBot() public payable {\r\n        uint256 supply = totalSupply();\r\n        uint256 balance = balanceOf(msg.sender);\r\n\r\n        require( !_ESpaused,                              \"Early Supporters sale paused\" );\r\n        require( supply + 1 <= _esReserved,      \"Exceeds maximum Bots early mint reserved supply\" );\r\n        require( balance == 0,      \"You already have some Bots\" );\r\n        require( _earlySupporters[msg.sender],      \"Sorry you are not on the Early Supporters list\" );\r\n        require( msg.value >= _price,             \"Ether sent is not correct\" );\r\n\r\n        _safeMint( msg.sender, supply);\r\n    }\r\n\r\n    function addES(address _es) public onlyOwner() {\r\n        _earlySupporters[_es] = true;\r\n    }\r\n\r\n    function removeES(address _es) public onlyOwner() {\r\n        _earlySupporters[_es] = false;\r\n    }\r\n\r\n    function addESMany(address[] memory _ess) public onlyOwner() {\r\n        require(totalSupply() + _ess.length <= _esReserved, 'Would exceed ES reserved supply');\r\n\r\n        for(uint256 i = 0; i < _ess.length; i++) {\r\n            addES(_ess[i]);\r\n        }\r\n    }\r\n\r\n    function removeESMany(address[] memory _ess) public onlyOwner() {\r\n        for(uint256 i = 0; i < _ess.length; i++) {\r\n            removeES(_ess[i]);\r\n        }\r\n    }\r\n\r\n    function walletOfOwner(address _owner) public view returns(uint256[] memory) {\r\n        uint256 tokenCount = balanceOf(_owner);\r\n\r\n        uint256[] memory tokensId = new uint256[](tokenCount);\r\n        for(uint256 i; i < tokenCount; i++){\r\n            tokensId[i] = tokenOfOwnerByIndex(_owner, i);\r\n        }\r\n        return tokensId;\r\n    }\r\n\r\n    function setPrice(uint256 _newPrice) public onlyOwner() {\r\n        _price = _newPrice;\r\n    }\r\n\r\n    function setMaxPerTx(uint256 _newMaxPerTx) public onlyOwner() {\r\n        maxPerTx = _newMaxPerTx;\r\n    }\r\n\r\n    function setESReserved(uint256 _newReserved) public onlyOwner() {\r\n        _esReserved = _newReserved;\r\n    }\r\n\r\n    function setGiftReserved(uint256 _newReserved) public onlyOwner() {\r\n        _giftReserved = _newReserved;\r\n    }\r\n\r\n    function setMaxSupply(uint256 _newMax) public onlyOwner() {\r\n        MAX_SUPPLY = _newMax;\r\n    }\r\n\r\n    function _baseURI() internal view virtual override returns (string memory) {\r\n        return _baseTokenURI;\r\n    }\r\n\r\n    function setBaseURI(string memory baseURI) public onlyOwner {\r\n        _baseTokenURI = baseURI;\r\n    }\r\n\r\n    function getPrice() public view returns (uint256){\r\n        return _price;\r\n    }\r\n\r\n    function giveAway(address _to, uint256 _amount) external onlyOwner() {\r\n        require( _amount <= _giftReserved, \"Exceeds reserved gift Bots supply\" );\r\n\r\n        uint256 supply = totalSupply();\r\n        for(uint256 i; i < _amount; i++){\r\n            _safeMint( _to, supply + i );\r\n        }\r\n\r\n        _giftReserved -= _amount;\r\n    }\r\n\r\n    function giveAwayMany(address[] memory addresses) external onlyOwner() {\r\n        require( addresses.length <= _giftReserved, \"Exceeds reserved gift Bots supply\" );\r\n\r\n        for (uint i = 0; i < addresses.length; i++) {\r\n            _safeMint(addresses[i], totalSupply() + 1);\r\n        }\r\n\r\n        _giftReserved -= addresses.length;\r\n    }\r\n\r\n    function pause(bool val) public onlyOwner {\r\n        _paused = val;\r\n    }\r\n\r\n    function ESpause(bool val) public onlyOwner {\r\n        _ESpaused = val;\r\n    }\r\n\r\n    function withdrawAll() public payable onlyOwner {\r\n        uint256 _balance = address(this).balance;\r\n        uint256 w1 = _balance * 37 / 1000;\r\n        uint256 w2 = _balance - w1;\r\n\r\n        require(payable(t1).send(w1));\r\n        require(payable(t2).send(w2));\r\n    }\r\n}",
  "sourcePath": "/Users/vlad/Yandex.Disk.localized/_dev/shrooms/sol/contracts/BabyBattleBotsGenOne.sol",
  "compiler": {
    "name": "solc",
    "version": "0.8.9+commit.e5eed63a.Emscripten.clang"
  },
  "schemaVersion": "3.4.3",
  "updatedAt": "2021-10-26T11:01:21.812Z",
  "devdoc": {
    "kind": "dev",
    "methods": {
      "approve(address,uint256)": {
        "details": "See {IERC721-approve}."
      },
      "balanceOf(address)": {
        "details": "See {IERC721-balanceOf}."
      },
      "getApproved(uint256)": {
        "details": "See {IERC721-getApproved}."
      },
      "isApprovedForAll(address,address)": {
        "details": "See {IERC721-isApprovedForAll}."
      },
      "name()": {
        "details": "See {IERC721Metadata-name}."
      },
      "owner()": {
        "details": "Returns the address of the current owner."
      },
      "ownerOf(uint256)": {
        "details": "See {IERC721-ownerOf}."
      },
      "renounceOwnership()": {
        "details": "Leaves the contract without owner. It will not be possible to call `onlyOwner` functions anymore. Can only be called by the current owner. NOTE: Renouncing ownership will leave the contract without an owner, thereby removing any functionality that is only available to the owner."
      },
      "safeTransferFrom(address,address,uint256)": {
        "details": "See {IERC721-safeTransferFrom}."
      },
      "safeTransferFrom(address,address,uint256,bytes)": {
        "details": "See {IERC721-safeTransferFrom}."
      },
      "setApprovalForAll(address,bool)": {
        "details": "See {IERC721-setApprovalForAll}."
      },
      "supportsInterface(bytes4)": {
        "details": "See {IERC165-supportsInterface}."
      },
      "symbol()": {
        "details": "See {IERC721Metadata-symbol}."
      },
      "tokenByIndex(uint256)": {
        "details": "See {IERC721Enumerable-tokenByIndex}."
      },
      "tokenOfOwnerByIndex(address,uint256)": {
        "details": "See {IERC721Enumerable-tokenOfOwnerByIndex}."
      },
      "tokenURI(uint256)": {
        "details": "See {IERC721Metadata-tokenURI}."
      },
      "totalSupply()": {
        "details": "See {IERC721Enumerable-totalSupply}."
      },
      "transferFrom(address,address,uint256)": {
        "details": "See {IERC721-transferFrom}."
      },
      "transferOwnership(address)": {
        "details": "Transfers ownership of the contract to a new account (`newOwner`). Can only be called by the current owner."
      }
    },
    "version": 1
  },
  "userdoc": {
    "kind": "user",
    "methods": {},
    "version": 1
  }
}