{
  "contractName": "BCBPuzzlePrizes",
  "abi": [
    {
      "inputs": [],
      "stateMutability": "nonpayable",
      "type": "constructor"
    },
    {
      "anonymous": false,
      "inputs": [
        {
          "indexed": true,
          "internalType": "address",
          "name": "owner",
          "type": "address"
        },
        {
          "indexed": true,
          "internalType": "address",
          "name": "approved",
          "type": "address"
        },
        {
          "indexed": true,
          "internalType": "uint256",
          "name": "tokenId",
          "type": "uint256"
        }
      ],
      "name": "Approval",
      "type": "event"
    },
    {
      "anonymous": false,
      "inputs": [
        {
          "indexed": true,
          "internalType": "address",
          "name": "owner",
          "type": "address"
        },
        {
          "indexed": true,
          "internalType": "address",
          "name": "operator",
          "type": "address"
        },
        {
          "indexed": false,
          "internalType": "bool",
          "name": "approved",
          "type": "bool"
        }
      ],
      "name": "ApprovalForAll",
      "type": "event"
    },
    {
      "anonymous": false,
      "inputs": [
        {
          "indexed": true,
          "internalType": "address",
          "name": "previousOwner",
          "type": "address"
        },
        {
          "indexed": true,
          "internalType": "address",
          "name": "newOwner",
          "type": "address"
        }
      ],
      "name": "OwnershipTransferred",
      "type": "event"
    },
    {
      "anonymous": false,
      "inputs": [
        {
          "indexed": true,
          "internalType": "address",
          "name": "from",
          "type": "address"
        },
        {
          "indexed": true,
          "internalType": "address",
          "name": "to",
          "type": "address"
        },
        {
          "indexed": true,
          "internalType": "uint256",
          "name": "tokenId",
          "type": "uint256"
        }
      ],
      "name": "Transfer",
      "type": "event"
    },
    {
      "inputs": [
        {
          "internalType": "address",
          "name": "to",
          "type": "address"
        },
        {
          "internalType": "uint256",
          "name": "tokenId",
          "type": "uint256"
        }
      ],
      "name": "approve",
      "outputs": [],
      "stateMutability": "nonpayable",
      "type": "function"
    },
    {
      "inputs": [
        {
          "internalType": "address",
          "name": "owner",
          "type": "address"
        }
      ],
      "name": "balanceOf",
      "outputs": [
        {
          "internalType": "uint256",
          "name": "",
          "type": "uint256"
        }
      ],
      "stateMutability": "view",
      "type": "function"
    },
    {
      "inputs": [
        {
          "internalType": "uint256",
          "name": "tokenId",
          "type": "uint256"
        }
      ],
      "name": "getApproved",
      "outputs": [
        {
          "internalType": "address",
          "name": "",
          "type": "address"
        }
      ],
      "stateMutability": "view",
      "type": "function"
    },
    {
      "inputs": [
        {
          "internalType": "address",
          "name": "owner",
          "type": "address"
        },
        {
          "internalType": "address",
          "name": "operator",
          "type": "address"
        }
      ],
      "name": "isApprovedForAll",
      "outputs": [
        {
          "internalType": "bool",
          "name": "",
          "type": "bool"
        }
      ],
      "stateMutability": "view",
      "type": "function"
    },
    {
      "inputs": [],
      "name": "name",
      "outputs": [
        {
          "internalType": "string",
          "name": "",
          "type": "string"
        }
      ],
      "stateMutability": "view",
      "type": "function"
    },
    {
      "inputs": [],
      "name": "owner",
      "outputs": [
        {
          "internalType": "address",
          "name": "",
          "type": "address"
        }
      ],
      "stateMutability": "view",
      "type": "function"
    },
    {
      "inputs": [
        {
          "internalType": "uint256",
          "name": "tokenId",
          "type": "uint256"
        }
      ],
      "name": "ownerOf",
      "outputs": [
        {
          "internalType": "address",
          "name": "",
          "type": "address"
        }
      ],
      "stateMutability": "view",
      "type": "function"
    },
    {
      "inputs": [],
      "name": "renounceOwnership",
      "outputs": [],
      "stateMutability": "nonpayable",
      "type": "function"
    },
    {
      "inputs": [
        {
          "internalType": "address",
          "name": "from",
          "type": "address"
        },
        {
          "internalType": "address",
          "name": "to",
          "type": "address"
        },
        {
          "internalType": "uint256",
          "name": "tokenId",
          "type": "uint256"
        }
      ],
      "name": "safeTransferFrom",
      "outputs": [],
      "stateMutability": "nonpayable",
      "type": "function"
    },
    {
      "inputs": [
        {
          "internalType": "address",
          "name": "from",
          "type": "address"
        },
        {
          "internalType": "address",
          "name": "to",
          "type": "address"
        },
        {
          "internalType": "uint256",
          "name": "tokenId",
          "type": "uint256"
        },
        {
          "internalType": "bytes",
          "name": "_data",
          "type": "bytes"
        }
      ],
      "name": "safeTransferFrom",
      "outputs": [],
      "stateMutability": "nonpayable",
      "type": "function"
    },
    {
      "inputs": [
        {
          "internalType": "address",
          "name": "operator",
          "type": "address"
        },
        {
          "internalType": "bool",
          "name": "approved",
          "type": "bool"
        }
      ],
      "name": "setApprovalForAll",
      "outputs": [],
      "stateMutability": "nonpayable",
      "type": "function"
    },
    {
      "inputs": [
        {
          "internalType": "bytes4",
          "name": "interfaceId",
          "type": "bytes4"
        }
      ],
      "name": "supportsInterface",
      "outputs": [
        {
          "internalType": "bool",
          "name": "",
          "type": "bool"
        }
      ],
      "stateMutability": "view",
      "type": "function"
    },
    {
      "inputs": [],
      "name": "symbol",
      "outputs": [
        {
          "internalType": "string",
          "name": "",
          "type": "string"
        }
      ],
      "stateMutability": "view",
      "type": "function"
    },
    {
      "inputs": [
        {
          "internalType": "uint256",
          "name": "index",
          "type": "uint256"
        }
      ],
      "name": "tokenByIndex",
      "outputs": [
        {
          "internalType": "uint256",
          "name": "",
          "type": "uint256"
        }
      ],
      "stateMutability": "view",
      "type": "function"
    },
    {
      "inputs": [
        {
          "internalType": "address",
          "name": "owner",
          "type": "address"
        },
        {
          "internalType": "uint256",
          "name": "index",
          "type": "uint256"
        }
      ],
      "name": "tokenOfOwnerByIndex",
      "outputs": [
        {
          "internalType": "uint256",
          "name": "",
          "type": "uint256"
        }
      ],
      "stateMutability": "view",
      "type": "function"
    },
    {
      "inputs": [
        {
          "internalType": "uint256",
          "name": "tokenId",
          "type": "uint256"
        }
      ],
      "name": "tokenURI",
      "outputs": [
        {
          "internalType": "string",
          "name": "",
          "type": "string"
        }
      ],
      "stateMutability": "view",
      "type": "function"
    },
    {
      "inputs": [],
      "name": "totalSupply",
      "outputs": [
        {
          "internalType": "uint256",
          "name": "",
          "type": "uint256"
        }
      ],
      "stateMutability": "view",
      "type": "function"
    },
    {
      "inputs": [
        {
          "internalType": "address",
          "name": "from",
          "type": "address"
        },
        {
          "internalType": "address",
          "name": "to",
          "type": "address"
        },
        {
          "internalType": "uint256",
          "name": "tokenId",
          "type": "uint256"
        }
      ],
      "name": "transferFrom",
      "outputs": [],
      "stateMutability": "nonpayable",
      "type": "function"
    },
    {
      "inputs": [
        {
          "internalType": "address",
          "name": "newOwner",
          "type": "address"
        }
      ],
      "name": "transferOwnership",
      "outputs": [],
      "stateMutability": "nonpayable",
      "type": "function"
    },
    {
      "inputs": [
        {
          "internalType": "uint256",
          "name": "id",
          "type": "uint256"
        }
      ],
      "name": "mintPrize",
      "outputs": [],
      "stateMutability": "nonpayable",
      "type": "function"
    },
    {
      "inputs": [
        {
          "internalType": "string",
          "name": "baseURI",
          "type": "string"
        }
      ],
      "name": "setBaseURI",
      "outputs": [],
      "stateMutability": "nonpayable",
      "type": "function"
    },
    {
      "inputs": [
        {
          "internalType": "uint256",
          "name": "_newGenSupply",
          "type": "uint256"
        }
      ],
      "name": "setGenSupply",
      "outputs": [],
      "stateMutability": "nonpayable",
      "type": "function"
    },
    {
      "inputs": [],
      "name": "getGenSupply",
      "outputs": [
        {
          "internalType": "uint256",
          "name": "",
          "type": "uint256"
        }
      ],
      "stateMutability": "view",
      "type": "function"
    }
  ],
  "bytecode": "0x6080604052601e600c553480156200001657600080fd5b506040518060400160405280601181526020017f4243422050757a7a6c65205072697a65730000000000000000000000000000008152506040518060400160405280600581526020017f424342505000000000000000000000000000000000000000000000000000000081525081600090805190602001906200009b929190620001ab565b508060019080519060200190620000b4929190620001ab565b505050620000d7620000cb620000dd60201b60201c565b620000e560201b60201c565b620002c0565b600033905090565b6000600a60009054906101000a900473ffffffffffffffffffffffffffffffffffffffff16905081600a60006101000a81548173ffffffffffffffffffffffffffffffffffffffff021916908373ffffffffffffffffffffffffffffffffffffffff1602179055508173ffffffffffffffffffffffffffffffffffffffff168173ffffffffffffffffffffffffffffffffffffffff167f8be0079c531659141344cd1fd0a4f28419497f9722a3daafe3b4186f6b6457e060405160405180910390a35050565b828054620001b9906200025b565b90600052602060002090601f016020900481019282620001dd576000855562000229565b82601f10620001f857805160ff191683800117855562000229565b8280016001018555821562000229579182015b82811115620002285782518255916020019190600101906200020b565b5b5090506200023891906200023c565b5090565b5b80821115620002575760008160009055506001016200023d565b5090565b600060028204905060018216806200027457607f821691505b602082108114156200028b576200028a62000291565b5b50919050565b7f4e487b7100000000000000000000000000000000000000000000000000000000600052602260045260246000fd5b61379680620002d06000396000f3fe608060405234801561001057600080fd5b506004361061014d5760003560e01c80636352211e116100c3578063b88d4fde1161007c578063b88d4fde1461039c578063c87b56dd146103b8578063e3305bcc146103e8578063e985e9c514610404578063f2fde38b14610434578063fbcac555146104505761014d565b80636352211e146102da57806370a082311461030a578063715018a61461033a5780638da5cb5b1461034457806395d89b4114610362578063a22cb465146103805761014d565b806323b872dd1161011557806323b872dd1461020a5780632f745c591461022657806342842e0e146102565780634f6ccce714610272578063557d5b81146102a257806355f804b3146102be5761014d565b806301ffc9a71461015257806306fdde0314610182578063081812fc146101a0578063095ea7b3146101d057806318160ddd146101ec575b600080fd5b61016c60048036038101906101679190612612565b61046e565b6040516101799190612ad6565b60405180910390f35b61018a6104e8565b6040516101979190612af1565b60405180910390f35b6101ba60048036038101906101b591906126b5565b61057a565b6040516101c79190612a6f565b60405180910390f35b6101ea60048036038101906101e591906125d2565b6105ff565b005b6101f4610717565b6040516102019190612d73565b60405180910390f35b610224600480360381019061021f91906124bc565b610724565b005b610240600480360381019061023b91906125d2565b610784565b60405161024d9190612d73565b60405180910390f35b610270600480360381019061026b91906124bc565b610829565b005b61028c600480360381019061028791906126b5565b610849565b6040516102999190612d73565b60405180910390f35b6102bc60048036038101906102b791906126b5565b6108ba565b005b6102d860048036038101906102d3919061266c565b6109a1565b005b6102f460048036038101906102ef91906126b5565b610a37565b6040516103019190612a6f565b60405180910390f35b610324600480360381019061031f919061244f565b610ae9565b6040516103319190612d73565b60405180910390f35b610342610ba1565b005b61034c610c29565b6040516103599190612a6f565b60405180910390f35b61036a610c53565b6040516103779190612af1565b60405180910390f35b61039a60048036038101906103959190612592565b610ce5565b005b6103b660048036038101906103b1919061250f565b610e66565b005b6103d260048036038101906103cd91906126b5565b610ec8565b6040516103df9190612af1565b60405180910390f35b61040260048036038101906103fd91906126b5565b610f6f565b005b61041e6004803603810190610419919061247c565b610ff5565b60405161042b9190612ad6565b60405180910390f35b61044e6004803603810190610449919061244f565b611089565b005b610458611181565b6040516104659190612d73565b60405180910390f35b60007f780e9d63000000000000000000000000000000000000000000000000000000007bffffffffffffffffffffffffffffffffffffffffffffffffffffffff1916827bffffffffffffffffffffffffffffffffffffffffffffffffffffffff191614806104e157506104e08261118b565b5b9050919050565b6060600080546104f790612fc9565b80601f016020809104026020016040519081016040528092919081815260200182805461052390612fc9565b80156105705780601f1061054557610100808354040283529160200191610570565b820191906000526020600020905b81548152906001019060200180831161055357829003601f168201915b5050505050905090565b60006105858261126d565b6105c4576040517f08c379a00000000000000000000000000000000000000000000000000000000081526004016105bb90612c73565b60405180910390fd5b6004600083815260200190815260200160002060009054906101000a900473ffffffffffffffffffffffffffffffffffffffff169050919050565b600061060a82610a37565b90508073ffffffffffffffffffffffffffffffffffffffff168373ffffffffffffffffffffffffffffffffffffffff16141561067b576040517f08c379a000000000000000000000000000000000000000000000000000000000815260040161067290612cf3565b60405180910390fd5b8073ffffffffffffffffffffffffffffffffffffffff1661069a6112d9565b73ffffffffffffffffffffffffffffffffffffffff1614806106c957506106c8816106c36112d9565b610ff5565b5b610708576040517f08c379a00000000000000000000000000000000000000000000000000000000081526004016106ff90612bf3565b60405180910390fd5b61071283836112e1565b505050565b6000600880549050905090565b61073561072f6112d9565b8261139a565b610774576040517f08c379a000000000000000000000000000000000000000000000000000000000815260040161076b90612d33565b60405180910390fd5b61077f838383611478565b505050565b600061078f83610ae9565b82106107d0576040517f08c379a00000000000000000000000000000000000000000000000000000000081526004016107c790612b13565b60405180910390fd5b600660008473ffffffffffffffffffffffffffffffffffffffff1673ffffffffffffffffffffffffffffffffffffffff168152602001908152602001600020600083815260200190815260200160002054905092915050565b61084483838360405180602001604052806000815250610e66565b505050565b6000610853610717565b8210610894576040517f08c379a000000000000000000000000000000000000000000000000000000000815260040161088b90612d53565b60405180910390fd5b600882815481106108a8576108a7613162565b5b90600052602060002001549050919050565b6108c26112d9565b73ffffffffffffffffffffffffffffffffffffffff166108e0610c29565b73ffffffffffffffffffffffffffffffffffffffff1614610936576040517f08c379a000000000000000000000000000000000000000000000000000000000815260040161092d90612c93565b60405180910390fd5b6000610940610717565b9050600c546001826109529190612e58565b1115610993576040517f08c379a000000000000000000000000000000000000000000000000000000000815260040161098a90612d13565b60405180910390fd5b61099d33836116d4565b5050565b6109a96112d9565b73ffffffffffffffffffffffffffffffffffffffff166109c7610c29565b73ffffffffffffffffffffffffffffffffffffffff1614610a1d576040517f08c379a0000000000000000000000000000000000000000000000000000000008152600401610a1490612c93565b60405180910390fd5b80600b9080519060200190610a33929190612263565b5050565b6000806002600084815260200190815260200160002060009054906101000a900473ffffffffffffffffffffffffffffffffffffffff169050600073ffffffffffffffffffffffffffffffffffffffff168173ffffffffffffffffffffffffffffffffffffffff161415610ae0576040517f08c379a0000000000000000000000000000000000000000000000000000000008152600401610ad790612c33565b60405180910390fd5b80915050919050565b60008073ffffffffffffffffffffffffffffffffffffffff168273ffffffffffffffffffffffffffffffffffffffff161415610b5a576040517f08c379a0000000000000000000000000000000000000000000000000000000008152600401610b5190612c13565b60405180910390fd5b600360008373ffffffffffffffffffffffffffffffffffffffff1673ffffffffffffffffffffffffffffffffffffffff168152602001908152602001600020549050919050565b610ba96112d9565b73ffffffffffffffffffffffffffffffffffffffff16610bc7610c29565b73ffffffffffffffffffffffffffffffffffffffff1614610c1d576040517f08c379a0000000000000000000000000000000000000000000000000000000008152600401610c1490612c93565b60405180910390fd5b610c2760006116f2565b565b6000600a60009054906101000a900473ffffffffffffffffffffffffffffffffffffffff16905090565b606060018054610c6290612fc9565b80601f0160208091040260200160405190810160405280929190818152602001828054610c8e90612fc9565b8015610cdb5780601f10610cb057610100808354040283529160200191610cdb565b820191906000526020600020905b815481529060010190602001808311610cbe57829003601f168201915b5050505050905090565b610ced6112d9565b73ffffffffffffffffffffffffffffffffffffffff168273ffffffffffffffffffffffffffffffffffffffff161415610d5b576040517f08c379a0000000000000000000000000000000000000000000000000000000008152600401610d5290612bb3565b60405180910390fd5b8060056000610d686112d9565b73ffffffffffffffffffffffffffffffffffffffff1673ffffffffffffffffffffffffffffffffffffffff16815260200190815260200160002060008473ffffffffffffffffffffffffffffffffffffffff1673ffffffffffffffffffffffffffffffffffffffff16815260200190815260200160002060006101000a81548160ff0219169083151502179055508173ffffffffffffffffffffffffffffffffffffffff16610e156112d9565b73ffffffffffffffffffffffffffffffffffffffff167f17307eab39ab6107e8899845ad3d59bd9653f200f220920489ca2b5937696c3183604051610e5a9190612ad6565b60405180910390a35050565b610e77610e716112d9565b8361139a565b610eb6576040517f08c379a0000000000000000000000000000000000000000000000000000000008152600401610ead90612d33565b60405180910390fd5b610ec2848484846117b8565b50505050565b6060610ed38261126d565b610f12576040517f08c379a0000000000000000000000000000000000000000000000000000000008152600401610f0990612cd3565b60405180910390fd5b6000610f1c611814565b90506000815111610f3c5760405180602001604052806000815250610f67565b80610f46846118a6565b604051602001610f57929190612a4b565b6040516020818303038152906040525b915050919050565b610f776112d9565b73ffffffffffffffffffffffffffffffffffffffff16610f95610c29565b73ffffffffffffffffffffffffffffffffffffffff1614610feb576040517f08c379a0000000000000000000000000000000000000000000000000000000008152600401610fe290612c93565b60405180910390fd5b80600c8190555050565b6000600560008473ffffffffffffffffffffffffffffffffffffffff1673ffffffffffffffffffffffffffffffffffffffff16815260200190815260200160002060008373ffffffffffffffffffffffffffffffffffffffff1673ffffffffffffffffffffffffffffffffffffffff16815260200190815260200160002060009054906101000a900460ff16905092915050565b6110916112d9565b73ffffffffffffffffffffffffffffffffffffffff166110af610c29565b73ffffffffffffffffffffffffffffffffffffffff1614611105576040517f08c379a00000000000000000000000000000000000000000000000000000000081526004016110fc90612c93565b60405180910390fd5b600073ffffffffffffffffffffffffffffffffffffffff168173ffffffffffffffffffffffffffffffffffffffff161415611175576040517f08c379a000000000000000000000000000000000000000000000000000000000815260040161116c90612b53565b60405180910390fd5b61117e816116f2565b50565b6000600c54905090565b60007f80ac58cd000000000000000000000000000000000000000000000000000000007bffffffffffffffffffffffffffffffffffffffffffffffffffffffff1916827bffffffffffffffffffffffffffffffffffffffffffffffffffffffff1916148061125657507f5b5e139f000000000000000000000000000000000000000000000000000000007bffffffffffffffffffffffffffffffffffffffffffffffffffffffff1916827bffffffffffffffffffffffffffffffffffffffffffffffffffffffff1916145b80611266575061126582611a07565b5b9050919050565b60008073ffffffffffffffffffffffffffffffffffffffff166002600084815260200190815260200160002060009054906101000a900473ffffffffffffffffffffffffffffffffffffffff1673ffffffffffffffffffffffffffffffffffffffff1614159050919050565b600033905090565b816004600083815260200190815260200160002060006101000a81548173ffffffffffffffffffffffffffffffffffffffff021916908373ffffffffffffffffffffffffffffffffffffffff160217905550808273ffffffffffffffffffffffffffffffffffffffff1661135483610a37565b73ffffffffffffffffffffffffffffffffffffffff167f8c5be1e5ebec7d5bd14f71427d1e84f3dd0314c0f7b2291e5b200ac8c7c3b92560405160405180910390a45050565b60006113a58261126d565b6113e4576040517f08c379a00000000000000000000000000000000000000000000000000000000081526004016113db90612bd3565b60405180910390fd5b60006113ef83610a37565b90508073ffffffffffffffffffffffffffffffffffffffff168473ffffffffffffffffffffffffffffffffffffffff16148061145e57508373ffffffffffffffffffffffffffffffffffffffff166114468461057a565b73ffffffffffffffffffffffffffffffffffffffff16145b8061146f575061146e8185610ff5565b5b91505092915050565b8273ffffffffffffffffffffffffffffffffffffffff1661149882610a37565b73ffffffffffffffffffffffffffffffffffffffff16146114ee576040517f08c379a00000000000000000000000000000000000000000000000000000000081526004016114e590612cb3565b60405180910390fd5b600073ffffffffffffffffffffffffffffffffffffffff168273ffffffffffffffffffffffffffffffffffffffff16141561155e576040517f08c379a000000000000000000000000000000000000000000000000000000000815260040161155590612b93565b60405180910390fd5b611569838383611a71565b6115746000826112e1565b6001600360008573ffffffffffffffffffffffffffffffffffffffff1673ffffffffffffffffffffffffffffffffffffffff16815260200190815260200160002060008282546115c49190612edf565b925050819055506001600360008473ffffffffffffffffffffffffffffffffffffffff1673ffffffffffffffffffffffffffffffffffffffff168152602001908152602001600020600082825461161b9190612e58565b92505081905550816002600083815260200190815260200160002060006101000a81548173ffffffffffffffffffffffffffffffffffffffff021916908373ffffffffffffffffffffffffffffffffffffffff160217905550808273ffffffffffffffffffffffffffffffffffffffff168473ffffffffffffffffffffffffffffffffffffffff167fddf252ad1be2c89b69c2b068fc378daa952ba7f163c4a11628f55a4df523b3ef60405160405180910390a4505050565b6116ee828260405180602001604052806000815250611b85565b5050565b6000600a60009054906101000a900473ffffffffffffffffffffffffffffffffffffffff16905081600a60006101000a81548173ffffffffffffffffffffffffffffffffffffffff021916908373ffffffffffffffffffffffffffffffffffffffff1602179055508173ffffffffffffffffffffffffffffffffffffffff168173ffffffffffffffffffffffffffffffffffffffff167f8be0079c531659141344cd1fd0a4f28419497f9722a3daafe3b4186f6b6457e060405160405180910390a35050565b6117c3848484611478565b6117cf84848484611be0565b61180e576040517f08c379a000000000000000000000000000000000000000000000000000000000815260040161180590612b33565b60405180910390fd5b50505050565b6060600b805461182390612fc9565b80601f016020809104026020016040519081016040528092919081815260200182805461184f90612fc9565b801561189c5780601f106118715761010080835404028352916020019161189c565b820191906000526020600020905b81548152906001019060200180831161187f57829003601f168201915b5050505050905090565b606060008214156118ee576040518060400160405280600181526020017f30000000000000000000000000000000000000000000000000000000000000008152509050611a02565b600082905060005b600082146119205780806119099061302c565b915050600a826119199190612eae565b91506118f6565b60008167ffffffffffffffff81111561193c5761193b613191565b5b6040519080825280601f01601f19166020018201604052801561196e5781602001600182028036833780820191505090505b5090505b600085146119fb576001826119879190612edf565b9150600a856119969190613075565b60306119a29190612e58565b60f81b8183815181106119b8576119b7613162565b5b60200101907effffffffffffffffffffffffffffffffffffffffffffffffffffffffffffff1916908160001a905350600a856119f49190612eae565b9450611972565b8093505050505b919050565b60007f01ffc9a7000000000000000000000000000000000000000000000000000000007bffffffffffffffffffffffffffffffffffffffffffffffffffffffff1916827bffffffffffffffffffffffffffffffffffffffffffffffffffffffff1916149050919050565b611a7c838383611d77565b600073ffffffffffffffffffffffffffffffffffffffff168373ffffffffffffffffffffffffffffffffffffffff161415611abf57611aba81611d7c565b611afe565b8173ffffffffffffffffffffffffffffffffffffffff168373ffffffffffffffffffffffffffffffffffffffff1614611afd57611afc8382611dc5565b5b5b600073ffffffffffffffffffffffffffffffffffffffff168273ffffffffffffffffffffffffffffffffffffffff161415611b4157611b3c81611f32565b611b80565b8273ffffffffffffffffffffffffffffffffffffffff168273ffffffffffffffffffffffffffffffffffffffff1614611b7f57611b7e8282612003565b5b5b505050565b611b8f8383612082565b611b9c6000848484611be0565b611bdb576040517f08c379a0000000000000000000000000000000000000000000000000000000008152600401611bd290612b33565b60405180910390fd5b505050565b6000611c018473ffffffffffffffffffffffffffffffffffffffff16612250565b15611d6a578373ffffffffffffffffffffffffffffffffffffffff1663150b7a02611c2a6112d9565b8786866040518563ffffffff1660e01b8152600401611c4c9493929190612a8a565b602060405180830381600087803b158015611c6657600080fd5b505af1925050508015611c9757506040513d601f19601f82011682018060405250810190611c94919061263f565b60015b611d1a573d8060008114611cc7576040519150601f19603f3d011682016040523d82523d6000602084013e611ccc565b606091505b50600081511415611d12576040517f08c379a0000000000000000000000000000000000000000000000000000000008152600401611d0990612b33565b60405180910390fd5b805181602001fd5b63150b7a0260e01b7bffffffffffffffffffffffffffffffffffffffffffffffffffffffff1916817bffffffffffffffffffffffffffffffffffffffffffffffffffffffff191614915050611d6f565b600190505b949350505050565b505050565b6008805490506009600083815260200190815260200160002081905550600881908060018154018082558091505060019003906000526020600020016000909190919091505550565b60006001611dd284610ae9565b611ddc9190612edf565b9050600060076000848152602001908152602001600020549050818114611ec1576000600660008673ffffffffffffffffffffffffffffffffffffffff1673ffffffffffffffffffffffffffffffffffffffff168152602001908152602001600020600084815260200190815260200160002054905080600660008773ffffffffffffffffffffffffffffffffffffffff1673ffffffffffffffffffffffffffffffffffffffff168152602001908152602001600020600084815260200190815260200160002081905550816007600083815260200190815260200160002081905550505b6007600084815260200190815260200160002060009055600660008573ffffffffffffffffffffffffffffffffffffffff1673ffffffffffffffffffffffffffffffffffffffff16815260200190815260200160002060008381526020019081526020016000206000905550505050565b60006001600880549050611f469190612edf565b9050600060096000848152602001908152602001600020549050600060088381548110611f7657611f75613162565b5b906000526020600020015490508060088381548110611f9857611f97613162565b5b906000526020600020018190555081600960008381526020019081526020016000208190555060096000858152602001908152602001600020600090556008805480611fe757611fe6613133565b5b6001900381819060005260206000200160009055905550505050565b600061200e83610ae9565b905081600660008573ffffffffffffffffffffffffffffffffffffffff1673ffffffffffffffffffffffffffffffffffffffff168152602001908152602001600020600083815260200190815260200160002081905550806007600084815260200190815260200160002081905550505050565b600073ffffffffffffffffffffffffffffffffffffffff168273ffffffffffffffffffffffffffffffffffffffff1614156120f2576040517f08c379a00000000000000000000000000000000000000000000000000000000081526004016120e990612c53565b60405180910390fd5b6120fb8161126d565b1561213b576040517f08c379a000000000000000000000000000000000000000000000000000000000815260040161213290612b73565b60405180910390fd5b61214760008383611a71565b6001600360008473ffffffffffffffffffffffffffffffffffffffff1673ffffffffffffffffffffffffffffffffffffffff16815260200190815260200160002060008282546121979190612e58565b92505081905550816002600083815260200190815260200160002060006101000a81548173ffffffffffffffffffffffffffffffffffffffff021916908373ffffffffffffffffffffffffffffffffffffffff160217905550808273ffffffffffffffffffffffffffffffffffffffff16600073ffffffffffffffffffffffffffffffffffffffff167fddf252ad1be2c89b69c2b068fc378daa952ba7f163c4a11628f55a4df523b3ef60405160405180910390a45050565b600080823b905060008111915050919050565b82805461226f90612fc9565b90600052602060002090601f01602090048101928261229157600085556122d8565b82601f106122aa57805160ff19168380011785556122d8565b828001600101855582156122d8579182015b828111156122d75782518255916020019190600101906122bc565b5b5090506122e591906122e9565b5090565b5b808211156123025760008160009055506001016122ea565b5090565b600061231961231484612db3565b612d8e565b905082815260208101848484011115612335576123346131c5565b5b612340848285612f87565b509392505050565b600061235b61235684612de4565b612d8e565b905082815260208101848484011115612377576123766131c5565b5b612382848285612f87565b509392505050565b60008135905061239981613704565b92915050565b6000813590506123ae8161371b565b92915050565b6000813590506123c381613732565b92915050565b6000815190506123d881613732565b92915050565b600082601f8301126123f3576123f26131c0565b5b8135612403848260208601612306565b91505092915050565b600082601f830112612421576124206131c0565b5b8135612431848260208601612348565b91505092915050565b60008135905061244981613749565b92915050565b600060208284031215612465576124646131cf565b5b60006124738482850161238a565b91505092915050565b60008060408385031215612493576124926131cf565b5b60006124a18582860161238a565b92505060206124b28582860161238a565b9150509250929050565b6000806000606084860312156124d5576124d46131cf565b5b60006124e38682870161238a565b93505060206124f48682870161238a565b92505060406125058682870161243a565b9150509250925092565b60008060008060808587031215612529576125286131cf565b5b60006125378782880161238a565b94505060206125488782880161238a565b93505060406125598782880161243a565b925050606085013567ffffffffffffffff81111561257a576125796131ca565b5b612586878288016123de565b91505092959194509250565b600080604083850312156125a9576125a86131cf565b5b60006125b78582860161238a565b92505060206125c88582860161239f565b9150509250929050565b600080604083850312156125e9576125e86131cf565b5b60006125f78582860161238a565b92505060206126088582860161243a565b9150509250929050565b600060208284031215612628576126276131cf565b5b6000612636848285016123b4565b91505092915050565b600060208284031215612655576126546131cf565b5b6000612663848285016123c9565b91505092915050565b600060208284031215612682576126816131cf565b5b600082013567ffffffffffffffff8111156126a05761269f6131ca565b5b6126ac8482850161240c565b91505092915050565b6000602082840312156126cb576126ca6131cf565b5b60006126d98482850161243a565b91505092915050565b6126eb81612f13565b82525050565b6126fa81612f25565b82525050565b600061270b82612e15565b6127158185612e2b565b9350612725818560208601612f96565b61272e816131d4565b840191505092915050565b600061274482612e20565b61274e8185612e3c565b935061275e818560208601612f96565b612767816131d4565b840191505092915050565b600061277d82612e20565b6127878185612e4d565b9350612797818560208601612f96565b80840191505092915050565b60006127b0602b83612e3c565b91506127bb826131e5565b604082019050919050565b60006127d3603283612e3c565b91506127de82613234565b604082019050919050565b60006127f6602683612e3c565b915061280182613283565b604082019050919050565b6000612819601c83612e3c565b9150612824826132d2565b602082019050919050565b600061283c602483612e3c565b9150612847826132fb565b604082019050919050565b600061285f601983612e3c565b915061286a8261334a565b602082019050919050565b6000612882602c83612e3c565b915061288d82613373565b604082019050919050565b60006128a5603883612e3c565b91506128b0826133c2565b604082019050919050565b60006128c8602a83612e3c565b91506128d382613411565b604082019050919050565b60006128eb602983612e3c565b91506128f682613460565b604082019050919050565b600061290e602083612e3c565b9150612919826134af565b602082019050919050565b6000612931602c83612e3c565b915061293c826134d8565b604082019050919050565b6000612954602083612e3c565b915061295f82613527565b602082019050919050565b6000612977602983612e3c565b915061298282613550565b604082019050919050565b600061299a602f83612e3c565b91506129a58261359f565b604082019050919050565b60006129bd602183612e3c565b91506129c8826135ee565b604082019050919050565b60006129e0601683612e3c565b91506129eb8261363d565b602082019050919050565b6000612a03603183612e3c565b9150612a0e82613666565b604082019050919050565b6000612a26602c83612e3c565b9150612a31826136b5565b604082019050919050565b612a4581612f7d565b82525050565b6000612a578285612772565b9150612a638284612772565b91508190509392505050565b6000602082019050612a8460008301846126e2565b92915050565b6000608082019050612a9f60008301876126e2565b612aac60208301866126e2565b612ab96040830185612a3c565b8181036060830152612acb8184612700565b905095945050505050565b6000602082019050612aeb60008301846126f1565b92915050565b60006020820190508181036000830152612b0b8184612739565b905092915050565b60006020820190508181036000830152612b2c816127a3565b9050919050565b60006020820190508181036000830152612b4c816127c6565b9050919050565b60006020820190508181036000830152612b6c816127e9565b9050919050565b60006020820190508181036000830152612b8c8161280c565b9050919050565b60006020820190508181036000830152612bac8161282f565b9050919050565b60006020820190508181036000830152612bcc81612852565b9050919050565b60006020820190508181036000830152612bec81612875565b9050919050565b60006020820190508181036000830152612c0c81612898565b9050919050565b60006020820190508181036000830152612c2c816128bb565b9050919050565b60006020820190508181036000830152612c4c816128de565b9050919050565b60006020820190508181036000830152612c6c81612901565b9050919050565b60006020820190508181036000830152612c8c81612924565b9050919050565b60006020820190508181036000830152612cac81612947565b9050919050565b60006020820190508181036000830152612ccc8161296a565b9050919050565b60006020820190508181036000830152612cec8161298d565b9050919050565b60006020820190508181036000830152612d0c816129b0565b9050919050565b60006020820190508181036000830152612d2c816129d3565b9050919050565b60006020820190508181036000830152612d4c816129f6565b9050919050565b60006020820190508181036000830152612d6c81612a19565b9050919050565b6000602082019050612d886000830184612a3c565b92915050565b6000612d98612da9565b9050612da48282612ffb565b919050565b6000604051905090565b600067ffffffffffffffff821115612dce57612dcd613191565b5b612dd7826131d4565b9050602081019050919050565b600067ffffffffffffffff821115612dff57612dfe613191565b5b612e08826131d4565b9050602081019050919050565b600081519050919050565b600081519050919050565b600082825260208201905092915050565b600082825260208201905092915050565b600081905092915050565b6000612e6382612f7d565b9150612e6e83612f7d565b9250827fffffffffffffffffffffffffffffffffffffffffffffffffffffffffffffffff03821115612ea357612ea26130a6565b5b828201905092915050565b6000612eb982612f7d565b9150612ec483612f7d565b925082612ed457612ed36130d5565b5b828204905092915050565b6000612eea82612f7d565b9150612ef583612f7d565b925082821015612f0857612f076130a6565b5b828203905092915050565b6000612f1e82612f5d565b9050919050565b60008115159050919050565b60007fffffffff0000000000000000000000000000000000000000000000000000000082169050919050565b600073ffffffffffffffffffffffffffffffffffffffff82169050919050565b6000819050919050565b82818337600083830152505050565b60005b83811015612fb4578082015181840152602081019050612f99565b83811115612fc3576000848401525b50505050565b60006002820490506001821680612fe157607f821691505b60208210811415612ff557612ff4613104565b5b50919050565b613004826131d4565b810181811067ffffffffffffffff8211171561302357613022613191565b5b80604052505050565b600061303782612f7d565b91507fffffffffffffffffffffffffffffffffffffffffffffffffffffffffffffffff82141561306a576130696130a6565b5b600182019050919050565b600061308082612f7d565b915061308b83612f7d565b92508261309b5761309a6130d5565b5b828206905092915050565b7f4e487b7100000000000000000000000000000000000000000000000000000000600052601160045260246000fd5b7f4e487b7100000000000000000000000000000000000000000000000000000000600052601260045260246000fd5b7f4e487b7100000000000000000000000000000000000000000000000000000000600052602260045260246000fd5b7f4e487b7100000000000000000000000000000000000000000000000000000000600052603160045260246000fd5b7f4e487b7100000000000000000000000000000000000000000000000000000000600052603260045260246000fd5b7f4e487b7100000000000000000000000000000000000000000000000000000000600052604160045260246000fd5b600080fd5b600080fd5b600080fd5b600080fd5b6000601f19601f8301169050919050565b7f455243373231456e756d657261626c653a206f776e657220696e646578206f7560008201527f74206f6620626f756e6473000000000000000000000000000000000000000000602082015250565b7f4552433732313a207472616e7366657220746f206e6f6e20455243373231526560008201527f63656976657220696d706c656d656e7465720000000000000000000000000000602082015250565b7f4f776e61626c653a206e6577206f776e657220697320746865207a65726f206160008201527f6464726573730000000000000000000000000000000000000000000000000000602082015250565b7f4552433732313a20746f6b656e20616c7265616479206d696e74656400000000600082015250565b7f4552433732313a207472616e7366657220746f20746865207a65726f2061646460008201527f7265737300000000000000000000000000000000000000000000000000000000602082015250565b7f4552433732313a20617070726f766520746f2063616c6c657200000000000000600082015250565b7f4552433732313a206f70657261746f7220717565727920666f72206e6f6e657860008201527f697374656e7420746f6b656e0000000000000000000000000000000000000000602082015250565b7f4552433732313a20617070726f76652063616c6c6572206973206e6f74206f7760008201527f6e6572206e6f7220617070726f76656420666f7220616c6c0000000000000000602082015250565b7f4552433732313a2062616c616e636520717565727920666f7220746865207a6560008201527f726f206164647265737300000000000000000000000000000000000000000000602082015250565b7f4552433732313a206f776e657220717565727920666f72206e6f6e657869737460008201527f656e7420746f6b656e0000000000000000000000000000000000000000000000602082015250565b7f4552433732313a206d696e7420746f20746865207a65726f2061646472657373600082015250565b7f4552433732313a20617070726f76656420717565727920666f72206e6f6e657860008201527f697374656e7420746f6b656e0000000000000000000000000000000000000000602082015250565b7f4f776e61626c653a2063616c6c6572206973206e6f7420746865206f776e6572600082015250565b7f4552433732313a207472616e73666572206f6620746f6b656e2074686174206960008201527f73206e6f74206f776e0000000000000000000000000000000000000000000000602082015250565b7f4552433732314d657461646174613a2055524920717565727920666f72206e6f60008201527f6e6578697374656e7420746f6b656e0000000000000000000000000000000000602082015250565b7f4552433732313a20617070726f76616c20746f2063757272656e74206f776e6560008201527f7200000000000000000000000000000000000000000000000000000000000000602082015250565b7f45786365656473206d6178696d756d20737570706c7900000000000000000000600082015250565b7f4552433732313a207472616e736665722063616c6c6572206973206e6f74206f60008201527f776e6572206e6f7220617070726f766564000000000000000000000000000000602082015250565b7f455243373231456e756d657261626c653a20676c6f62616c20696e646578206f60008201527f7574206f6620626f756e64730000000000000000000000000000000000000000602082015250565b61370d81612f13565b811461371857600080fd5b50565b61372481612f25565b811461372f57600080fd5b50565b61373b81612f31565b811461374657600080fd5b50565b61375281612f7d565b811461375d57600080fd5b5056fea264697066735822122029ed0d68d3e155cace2de07e5eef4c2f24aa18a60b7bb38b88095d9781abdbb364736f6c63430008070033",
  "immutableReferences": {},
  "source": "// SPDX-License-Identifier: MIT\npragma solidity ^0.8.0;\n\nimport \"@openzeppelin/contracts/token/ERC721/extensions/ERC721Enumerable.sol\";\nimport \"@openzeppelin/contracts/access/Ownable.sol\";\n\ncontract BCBPuzzlePrizes is ERC721Enumerable, Ownable {\n    using Strings for uint256;\n\n    string _baseTokenURI;\n    uint256 private _genSupply = 30;\n\n    constructor() ERC721(\"BCB Puzzle Prizes\", \"BCBPP\") {\n        \n    }\n\n    function mintPrize(uint256 id) public onlyOwner {\n        uint256 supply = totalSupply();\n        require(supply + 1 <= _genSupply, \"Exceeds maximum supply\");\n\n        _safeMint(msg.sender, id);\n    }\n\n    function _baseURI() internal view virtual override returns (string memory) {\n        return _baseTokenURI;\n    }\n\n    function setBaseURI(string memory baseURI) public onlyOwner {\n        _baseTokenURI = baseURI;\n    }\n\n    function setGenSupply(uint256 _newGenSupply) public onlyOwner {\n        _genSupply = _newGenSupply;\n    }\n\n    function getGenSupply() public view returns (uint256) {\n        return _genSupply;\n    }\n}\n",
  "sourcePath": "/Users/vlad/Yandex.Disk.localized/_dev/bbb/sol/contracts/polygon/BCBPuzzlePrizes.sol",
  "compiler": {
    "name": "solc",
    "version": "0.8.7+commit.e28d00a7.Emscripten.clang"
  },
  "schemaVersion": "3.4.3",
  "updatedAt": "2021-09-13T10:24:06.621Z",
  "devdoc": {
    "kind": "dev",
    "methods": {
      "approve(address,uint256)": {
        "details": "See {IERC721-approve}."
      },
      "balanceOf(address)": {
        "details": "See {IERC721-balanceOf}."
      },
      "getApproved(uint256)": {
        "details": "See {IERC721-getApproved}."
      },
      "isApprovedForAll(address,address)": {
        "details": "See {IERC721-isApprovedForAll}."
      },
      "name()": {
        "details": "See {IERC721Metadata-name}."
      },
      "owner()": {
        "details": "Returns the address of the current owner."
      },
      "ownerOf(uint256)": {
        "details": "See {IERC721-ownerOf}."
      },
      "renounceOwnership()": {
        "details": "Leaves the contract without owner. It will not be possible to call `onlyOwner` functions anymore. Can only be called by the current owner. NOTE: Renouncing ownership will leave the contract without an owner, thereby removing any functionality that is only available to the owner."
      },
      "safeTransferFrom(address,address,uint256)": {
        "details": "See {IERC721-safeTransferFrom}."
      },
      "safeTransferFrom(address,address,uint256,bytes)": {
        "details": "See {IERC721-safeTransferFrom}."
      },
      "setApprovalForAll(address,bool)": {
        "details": "See {IERC721-setApprovalForAll}."
      },
      "supportsInterface(bytes4)": {
        "details": "See {IERC165-supportsInterface}."
      },
      "symbol()": {
        "details": "See {IERC721Metadata-symbol}."
      },
      "tokenByIndex(uint256)": {
        "details": "See {IERC721Enumerable-tokenByIndex}."
      },
      "tokenOfOwnerByIndex(address,uint256)": {
        "details": "See {IERC721Enumerable-tokenOfOwnerByIndex}."
      },
      "tokenURI(uint256)": {
        "details": "See {IERC721Metadata-tokenURI}."
      },
      "totalSupply()": {
        "details": "See {IERC721Enumerable-totalSupply}."
      },
      "transferFrom(address,address,uint256)": {
        "details": "See {IERC721-transferFrom}."
      },
      "transferOwnership(address)": {
        "details": "Transfers ownership of the contract to a new account (`newOwner`). Can only be called by the current owner."
      }
    },
    "version": 1
  },
  "userdoc": {
    "kind": "user",
    "methods": {},
    "version": 1
  }
}